:020000040800F2
:10000000B8A4002065020008DD240008D5200008FF
:1000100059230008890E0008C927000800000000C5
:10002000000000000000000000000000770200084F
:10003000F10F0008000000008D03000843030008D2
:100040007F0200087F0200087F0200087F0200088C
:100050007F0200087F0200087F0200087F0200087C
:100060007F0200087F0200087F0200087F0200086C
:100070007F0200087F0200087F0200087F0200085C
:100080007F0200087F0200087F0200087F0200084C
:100090007F0200087F0200087F0200087F0200083C
:1000A0007F020008992500087F0200087F020008EF
:1000B0007F0200087F0200087F0200087F0200081C
:1000C0007F0200087F0200087F0200087F0200080C
:1000D0007F0200087F0200087F0200087F020008FC
:1000E0007F0200087F0200087F0200087F020008EC
:1000F0007F0200087F0200087F0200087F020008DC
:100100007F0200087F0200087F0200087F020008CB
:100110007F0200087F0200087F0200087F020008BB
:100120007F0200087F0200087F0200087F020008AB
:100130007F02000800000000000000007F020008AD
:100140007F0200087F0200087F0200087F0200088B
:100150007F0200087F0200087F0200087F0200087B
:100160007F0200087F0200087F0200087F0200086B
:100170007F0200087F02000800000000000000006D
:100180007F0200087F02000800F002F800F05AF831
:1001900014A696E8000CB244B344DA4501D100F04D
:1001A00051F8BAE80F000FA696E83000A5EB040559
:1001B00004EB0607AAEB0704A7F101074FEA1515A0
:1001C0004FEA3414A4F10104AC4201D300F03AF830
:1001D00013F0010F18BFFB1A43F0010300F001F800
:1001E000DBE71847748F0200948F0200103A24BF97
:1001F00078C878C1FAD8520724BF30C830C144BF8C
:1002000004680C6070470000704700000023002461
:1002100000250026103A28BF78C1FBD8520728BF16
:1002200030C148BF0B607047642900F01782732902
:1002300000F01785002070471FB51DF0B1FD1FBDF0
:1002400010B510BD00F011FD1146FFF7F5FF0BF0E2
:100250005DF900F02FFD03B4FFF7F2FF03BC00F0DF
:1002600037FD00000948804709480047FEE7FEE7E0
:10027000FEE7FEE7FEE7FEE7FEE7FEE7FEE7FEE756
:1002800004480549054A064B7047000085250008CB
:1002900089010008B89E0020B8A40020B8A0002062
:1002A000B8A00020000000000000000000000000D6
:1002B000F8000020B8A40020000000087C01002005
:1002C000001000E07FA219000000FF4000BF00BF47
:1002D00072B65FF824005FF8241001F10401016098
:1002E0004FF0E0205FF83010C0F8081D5FF83400D0
:1002F0005FF83C10096801605FF83C00016841F05C
:10030000010101604FF0E0205FF8481041614FF0BB
:10031000070101614FF00001C0F8181D4FF07F4147
:10032000C0F81C1D5FF86010C0F8201D7047FFF773
:10033000FEBFFFF7FEBFFFF7FEBF01B5BDE80140FE
:10034000704701B500F08CF8BDE801407047FFF739
:10035000FEBFFFF7FEBF000000000000000000002D
:100360004FF000002A4A1060EFF3148020F00400E0
:1003700080F3148862B64FF080504FF0E021C1F84E
:10038000040DBFF34F8FBFF36F8FFEE72148224A62
:100390004FF00003016891B10360EFF3098C2CE981
:1003A000F00F1EF0100F01D12CED108A1B4C4CF8F1
:1003B00004ED2568C1F808C00DB18D61236072B6E7
:1003C0001168B1B1016062B64F68144C8D6907F1D4
:1003D00001074F602560D1F808C05CF804EB1EF0FF
:1003E000100F01D1BCEC108ABCE8F00F8CF3098827
:1003F000704772B61168016009B962B6F9E74FF04B
:1004000000674FF0E028C8F8047D62B6DCE770476B
:10041000B8000020A0000020A4000020C800002098
:10042000026922F00702A2F144026FF00203136096
:100430004FF0000353609360D36013615361936185
:10044000D361136253629362D362136353634FF0B9
:10045000FF339363D1634FF08073136482607047FE
:100460002249086800F101000860214B1A683AB17E
:10047000A2F101021A601AB91E4B4FF00100186078
:100480001D490868026822B11C4B4FF001021A6036
:1004900008E000F104001A4B1A68904201D1194B90
:1004A00018680860134B1A6812B914490868D0B16B
:1004B0002DE901401149086808B102F0E3FD0D4B38
:1004C0001A6872B102F08AFD0F48016849B90F48F5
:1004D00001680F4A13680F484FF08052994200D0CC
:1004E0000260BDE80140BFF34F8F7047C400002099
:1004F000C8000020CC000020DC000020D00000203C
:10050000E0000020D8000020B8000020A00000205B
:10051000A400002004ED00E053EA020C00F0698022
:100520002DE9F04B4FF00006002B1FBFB3FA83F507
:1005300003FA05F424FA05F65E4012BF1643B2FA38
:1005400082F502FA05F4C5F120051EBF22FA05FC6A
:1005500044EA0C04203556EA044C4FEA144418BF10
:10056000641C4FF000084FF00009904271EB030C3F
:1005700039D3002919BFB1FA81F701FA07F6B0FAA9
:1005800080F700FA07F6C7F120071EBF20FA07FC24
:1005900046EA0C062037B6FBF4FCA7EB0507103F34
:1005A00007F01F0BCBF120062CFA06F60CFA0BFB1A
:1005B00044BFB3460026202FA4BF5E464FF0000B79
:1005C0005BEA060C08BF4FF0010B19EB0B0948EB77
:1005D0000608ABFB027C06FB02CC0BFB03CCC01B6A
:1005E00071EB0C01C1E70B46024641464846BDE8A7
:1005F000F08B13B5084318BF4FF0FF300146AFF33F
:100600000080BDE81C40704770B50C460546012AC5
:1006100005D02878800600D5EA69002302E001238E
:1006200005E05B1C934202D2E05C0028F9D1A86986
:10063000E618C01AA861286A184428622846AFF351
:10064000008004E0D5E9012114F8010B9047B44281
:10065000F8D32846AFF3008070BD00002DE9F041CB
:100660000646002410687529314616A510D0AFF350
:100670000080002802DA404213A507E031688A07AB
:1006800001D512A502E0490704D511A5012401E016
:10069000AFF3008000210A2206F1240709E0B0FB35
:1006A000F2FCB0FBF2F302FB1C0030307854184629
:1006B000491C0028F3D123462A463046BDE8F041C4
:1006C00000F064BA000000002D0000002B000000C4
:1006D0002000000040EA010310B59B070FD1042A57
:1006E0000DD310C808C9121F9C42F8D020BA19BAFD
:1006F000884201D9012010BD4FF0FF3010BD1AB162
:10070000D30703D0521C07E0002010BD10F8013BB6
:1007100011F8014B1B1B07D110F8013B11F8014BDD
:100720001B1B01D1921EF1D1184610BD10B5431C00
:1007300002E010F8011B71B18107FAD14FF00132CC
:1007400002C88C1A8C4314EAC211F9D0C01A0A06E6
:1007500003D0C01E10BDC01A10BD0A0401D0801EF7
:1007600010BD0902FCD0401E10BDCBB22AB10178E9
:100770008B4203D0401C521EF9D10020704740EA42
:10078000010370B59B072ED14FF00136042A2AD3FE
:1007900008C810C99D1B9D43121F15EAC61517D026
:1007A000D8B2E1B2401A50EA056110D198B2A1B2B4
:1007B000401A50EA05410AD123F07F4024F07F41DE
:1007C000401A50EA052102D1180EA0EB146070BD4A
:1007D000A342DBD018BA21BA884201D9012070BDEA
:1007E0004FF0FF3070BD0AB9002070BD10F8013B1A
:1007F00011F8014B63B1A3420AD1521E08D010F880
:10080000013B11F8014B1BB1A34201D1521EEDD1A6
:10081000181B70BD032A40F2308010F0030C00F06A
:10082000158011F8013BBCF1020F624498BF11F82A
:1008300001CB00F8013B38BF11F8013BA2F10402E3
:1008400098BF00F801CB38BF00F8013B11F003035B
:1008500000F06780083AC0F0088051F8043B083A7D
:1008600051F804CBA0E80810F5E7121D5CBF51F861
:10087000043B40F8043BAFF30080D20724BF11F8DB
:10088000013B11F801CB48BF11F8012B24BF00F840
:10089000013B00F801CB48BF00F8012B7047431A19
:1008A00028BF9A427FF6B6AF10441144032A40F2A3
:1008B000268010F0030F1EBF11F8013D521E00F8F4
:1008C000013D10F0030F7FF4F6AF11F0030300F0C9
:1008D0006D80083AC0F00B8051F8043D083A51F899
:1008E00004CD40F8043D40F804CDFFF7F3BF121DDE
:1008F0005CBF51F8043D40F8043DAFF30080D207DF
:1009000024BF11F8013D11F801CD48BF11F8012CA9
:1009100024BF00F8013D00F801CD48BF00F8012CCC
:10092000704710B5203AC0F00B80B1E81850A0E82D
:100930001850B1E81850A0E81850203ABFF4F5AFAD
:100940005FEA027C24BFB1E81850A0E8185044BF09
:1009500018C918C0BDE810405FEA827C24BF51F876
:10096000043B40F8043B08BF7047D20728BF31F86A
:10097000023B48BF11F8012B28BF20F8023B48BFBB
:1009800000F8012B7047431A28BF9A427FF6C9AF7F
:100990001044114410F0030F1EBF11F8013D521E08
:1009A00000F8013D10F0030F7FF4F6AF103AC0F0ED
:1009B0000A8010B531E9185020E91850103ABFF4F8
:1009C000F9AFBDE81040530724BF31E9081020E912
:1009D000081044BF51F8043D40F8043D12F0030FE5
:1009E00008BF7047D20728BF31F8023D48BF11F851
:1009F000012C28BF20F8023D48BF00F8012C7047A9
:100A000002F0FF0343EA032242EA024200F002B886
:100A10004FF000020429C0F0128010F0030C00F027
:100A20001B80CCF1040CBCF1020F18BF00F8012BA5
:100A3000A8BF20F8022BA1EB0C0100F00DB85FEA73
:100A4000C17C24BF00F8012B00F8012B48BF00F83F
:100A5000012B70474FF0000200B5134694469646AE
:100A6000203922BFA0E80C50A0E80C50B1F12001C1
:100A7000BFF4F7AF090728BFA0E80C5048BF0CC06F
:100A80005DF804EB890028BF40F8042B08BF7047CD
:100A900048BF20F8022B11F0804F18BF00F8012B3F
:100AA000704700000000000030B44FF0013C50F8E7
:100AB000042B51F8043BCCFA52F4D51A20D1FCB9DE
:100AC00050F8042B51F8043BCCFA52F4D51A17D144
:100AD000B4B950F8042B51F8043BCCFA52F4D51AAF
:100AE0000ED16CB950F8042B51F8043BCCFA52F4F7
:100AF000D51A05D1002CDAD030BC4FF00000704779
:100B000029BAB1FA81F111F01801D1F12000844025
:100B1000F2D1CA40CB4012F0FF0213F0FF0330BC09
:100B2000D01A7047704770477047A0E8004FF0C078
:100B300040F804DB01B5AFF30080BDE8024001C11D
:100B4000A1EC068BA1EC02BBA1EC06CBA1EC02FB55
:100B50000020704700F12C08B8EC068BB8EC02BB03
:100B6000B8EC06CBB8EC02FB00F12C080C4658F8A8
:100B7000040DAFF3008058F8040D8546200008BF2F
:100B8000012038E9F00018E9004F70472DE9F047DF
:100B90000D4699469246044600F1240801688806ED
:100BA00004D5E06921F01001216000E00120A84295
:100BB00001DD471B00E00027A1697A1902EB09005B
:100BC000081AA0612078C00602D42046AFF3008046
:100BD000002608E0D4E901211AF806009047206AAF
:100BE000401C761C20624E45F4DB2078C0060AD5F6
:100BF0002046AFF3008006E0D4E901213020904781
:100C0000206A401C2062381EA7F10107F4DC07E0CF
:100C1000D4E9012118F805009047206A401C2062A1
:100C2000281EA5F10105F3DC2046AFF300802078F3
:100C3000000602D50220BDE8F0870120FBE710B5D1
:100C4000436913B1AFF3008001E0FFF7DDFC012041
:100C500010BD127800F124010A7000224A700122AE
:100C6000EDE711684FF0FF32E9E7754600F02CF828
:100C7000AE4605006946534620F00700854618B089
:100C800020B5FFF7FDFABDE820404FF000064FF019
:100C900000074FF000084FF0000BAC46ACE8C0096D
:100CA000ACE8C009ACE8C009ACE8C00921F0070114
:100CB0008D46704710B50446AFF300802046BDE86E
:100CC0001040FFF7C8BA000000487047100000202D
:100CD00001491820ABBEFEE7260002007047000065
:100CE0002DE9F04794B049F2D0514FF48060C2F240
:100CF0000001CDE9001049F220504DF289424FF039
:100D0000B0084FF0010A4FF00009C2F200003FA105
:100D1000C0F601020023CDE902AACDE9049ACDF87C
:100D2000188002F0B7FBD8B13B480DF1240E0890B3
:100D300039A0071DBECFD0E9076C406A8EE8BE001F
:100D400008ACCDE910C020460F96FFF7EFFC82B249
:100D500040F62C70C2F200002146642301F0F0F846
:100D600040F2B06040F674723427C2F2000034A141
:100D7000C2F200024FF48063009702F0D1FA41F210
:100D8000783202204FF40041C2F20002CDE9002186
:100D9000CDE9020049F6D0104DF20952C2F200002E
:100DA0002AA1C0F601020023CDE9049ACDF81880EB
:100DB00002F070FB38B328490DF12408089126A1F0
:100DC0000F1D8CCFD1E90465D1E906CE0C6A88E805
:100DD0008C00CB6AD1E90921CDE90C65CDE910423F
:100DE00008AC05462046CDE91213CDE90ECEFFF73B
:100DF0009DFC82B240F62C70C2F2000021466423B2
:100E000001F09EF8284614B0BDE8F087746872655A
:100E10006164206C656400006572726F723A746878
:100E200072656164782063726561746520746872AC
:100E30006561645F6C6564206661696C656400006F
:100E40006279746520706F6F6C2030007468726511
:100E50006164206D700000006572726F723A746890
:100E6000726561647820637265617465207468726C
:100E7000656164206D6963726F507974686F6E206C
:100E80006661696C6564000044F2004072B6C4F2A9
:100E900000000168090609D4016809065CBF016801
:100EA0005FEA016102D401680906F2D5422141607E
:100EB0000168090609D4016809065CBF01685FEA98
:100EC000016102D401680906F2D57521416001680B
:100ED000090609D4016809065CBF01685FEA01617F
:100EE00002D401680906F2D5732141600168090640
:100EF00009D4016809065CBF01685FEA016102D498
:100F000001680906F2D5462141600168090609D445
:100F1000016809065CBF01685FEA016102D40168EB
:100F20000906F2D5612141600168090609D401680A
:100F300009065CBF01685FEA016102D40168090625
:100F4000F2D5752141600168090609D401680906D6
:100F50005CBF01685FEA016102D401680906F2D54D
:100F60006C2141600168090609D4016809065CBF6B
:100F700001685FEA016102D401680906F2D57421B3
:100F800041600168090609D4016809065CBF01686F
:100F90005FEA016102D401680906F2D50D214160C2
:100FA0000168090609D4016809065CBF01685FEAA7
:100FB000016102D401680906F2D50A214160016885
:100FC000490609D4016849065CBF01685FEA4161CE
:100FD00002D401684906F2D502A007F021FC00BF47
:100FE000FEE700BF4275734661756C740000000037
:100FF0007047000082B044F2004072B6C4F20000B4
:101000000168090609D4016809065CBF01685FEA46
:10101000016102D401680906F2D5452141600168E9
:10102000090609D4016809065CBF01685FEA01612D
:1010300002D401680906F2D57221416001680906EF
:1010400009D4016809065CBF01685FEA016102D446
:1010500001680906F2D5722141600168090609D4C8
:10106000016809065CBF01685FEA016102D401689A
:101070000906F2D56F2141600168090609D40168AB
:1010800009065CBF01685FEA016102D401680906D4
:10109000F2D5722141600168090609D40168090688
:1010A0005CBF01685FEA016102D401680906F2D5FC
:1010B0005F2141600168090609D4016809065CBF27
:1010C00001685FEA016102D401680906F2D548218E
:1010D00041600168090609D4016809065CBF01681E
:1010E0005FEA016102D401680906F2D5612141601D
:1010F0000168090609D4016809065CBF01685FEA56
:10110000016102D401680906F2D56E2141600168CF
:10111000090609D4016809065CBF01685FEA01613C
:1011200002D401680906F2D564214160016809060C
:1011300009D4016809065CBF01685FEA016102D455
:1011400001680906F2D56C2141600168090609D4DD
:10115000016809065CBF01685FEA016102D40168A9
:101160000906F2D5652141600168090609D40168C4
:1011700009065CBF01685FEA016102D401680906E3
:10118000F2D5722141600168090609D40168090697
:101190005CBF01685FEA016102D401680906F2D50B
:1011A0000D2141600168090609D4016809065CBF88
:1011B00001685FEA016102D401680906F2D50A21DB
:1011C00041600168490609D4016849065CBF0168AD
:1011D0005FEA416102D401684906F2D54AF220155E
:1011E000C0F2070500F5E034002600BF20461021BC
:1011F00000F0F2F801960198A842F7D200BF0198DA
:10120000013001900198A842F0D200BF019801304E
:1012100001900198A842E9D200BF019801300190E5
:101220000198A842E2D200BF0198013001900198D4
:10123000A842E3D3DAE700002DE9F04F83B000F1D4
:10124000200200F13E4741F60045009207F1FF778A
:10125000C4F2020508224FEAB726A84208BF0722B7
:1012600000254FF000084FF00009072E38BF4FEA65
:10127000B72201920AE000BF09F1010908F1020852
:10128000B9F1100F05F1040500F0A2800F680122EA
:1012900002FA09FE17EA0E0AEED0D1F804C00322C2
:1012A0000CF003077E1E02FA08F4012E6FEA040B0D
:1012B00012D88468CE6804EA0B0406FA08F63443B0
:1012C0008460446824EA0E06CCF3001404FA09F49E
:1012D0002643466004E000BF032F01D103271EE030
:1012E000C6688C6806EA0B0604FA08F42643022F47
:1012F000C66014D16FF00302009E02EA590756F847
:1013000007C005F01C040F220B69A2402CEA020260
:10131000A3401A43F251D1F804C00CF0030702684D
:1013200007FA08F302EA0B021A431CF4403F02607A
:10133000A2D0002243F644030292C4F202031A68C8
:1013400043F6004442F480421A601A68C4F2010471
:1013500002F480420292029A29F003024FF6084CEE
:101360002244CFF6FF7C52F80C3005F00C070F2614
:10137000BE40B343019E06FA07F73B4342F80C30E8
:10138000A2684B6842EA0A0743F60C4CDE0258BFDB
:1013900022EA0A07A760C4F2010CDCF800209E02D2
:1013A00042EA0A0758BF22EA0A07CCF800706268CE
:1013B0009E0342EA0A0758BF22EA0A0767602268CA
:1013C000DB0342EA0A0758BF22EA0A07276053E70D
:1013D00003B0BDE8F08F0000426902EA01039143C7
:1013E00041EA034181617047002A08BF0904816115
:1013F0007047000049F6B460C2F200000068704710
:1014000040F2000049F6B461C2F20000C2F20001ED
:1014100000780A68104408607047000080B543F601
:101420000040C4F20200016841F4007101600168EB
:1014300041F480610160016841F480710160032022
:1014400000F0B8F80F2000F005F800F059F800207F
:1014500080BD0000B0B586B0002543F6440101957B
:10146000C4F202010A68044642F001020A600968F7
:1014700001A801F0010101910199694600F05CF9B0
:1014800000F08EF94DF683614000C4F21B31A0FBE1
:1014900001014FF0FF3000EB914140F6E460002283
:1014A000C2F20000C4F2010240F2E733C0E90021B9
:1014B000C0E902530561856100F098FB10B106B0E8
:1014C000B0BD00BF40F6E460C2F2000000F0BEFB19
:1014D0000028F4D1192000F02FF80F2C0CD8192077
:1014E0002146002200F03AF840F204010020C2F246
:1014F00000010C6006B0B0BD012006B0B0BD000018
:1015000082B0002043F640010190C4F202014A6813
:1015100042F480424A604A6802F480420192019A91
:101520000090086840F080500860086800F0805023
:101530000090009802B07047002848BF704700F044
:101540001F01012202FA01F11C2202EAD0004EF230
:101550000012CEF2000281507047000010B54EF626
:101560000C5CCEF2000CDCF80030C3F3022E8EF0DF
:101570000704042C28BF0424BEF103034FF0FF3EF0
:101580000EFA04F438BF0023A14399400EFA03F386
:101590009A43114300F00F0200F160430901043A3D
:1015A00003F564436244002848BF02F10C0319703C
:1015B00010BD00004EF60C51CEF200010A684FF645
:1015C000FF031A4060F30A2242F0806040F0FD7091
:1015D00008607047002804BF012070472DE9F041E2
:1015E00043F60808C4F202080446D8F8F8030D468A
:1015F00000F00700814207D988F8F853D8F8F803BB
:1016000000F00700A84277D12068810717D541076D
:1016100005D5D8F8001041F4E051C8F800100107D2
:1016200005D5D8F8001041F46041C8F80010D8F88A
:101630000010A26821F0F0011143C8F80010C007A3
:1016400040D1D8F8F80300F00700854207D288F8A7
:10165000F853D8F8F80300F00700A8424CD12068EE
:10166000410707D5D8F80010E26821F4E051114392
:10167000C8F80010000708D5D8F80000216920F448
:10168000604040EAC100C8F8000000F09DF8D8F8BA
:1016900000104DF6BA52C1F30311C0F60102515CBD
:1016A00040F2080220FA01F140F20400C2F2000008
:1016B0000068C2F200021160FFF7CCFE0020BDE816
:1016C000F08100BF6068811E022907D258F8081C0B
:1016D00089015CBF0120BDE8F08111E0012807D13C
:1016E00058F8081C89035CBF0120BDE8F08107E0C1
:1016F00058F8081C890703D40120BDE8F08100BF19
:10170000D8F8001021F003010843C8F80000FFF7E3
:1017100071FE064641F28837D8F80000616800F093
:101720000C00B0EB810F8CD0FFF764FE801BB84239
:10173000F2D90320BDE8F0810F22026043F60802CF
:10174000C4F20202136803F003034360136803F05A
:10175000F0038360136803F4E053C360D2F800C061
:101760004FF4E05303EADC030361D2F8F80300F01E
:10177000070008607047000040F2080043F60801C7
:10178000C2F20000C4F20201006809684DF6CA52B4
:10179000C1F38221C0F60102515CC84070470000CD
:1017A00040F2080043F60801C2F20000C4F2020150
:1017B000006809684DF6CA52C1F34231C0F6010211
:1017C000515CC8407047000010B543F60404C4F2F1
:1017D00002046168C1F3810142F20040C0F2F400EA
:1017E000DFE801F002040A0210BD00BF41F600303C
:1017F000C0F2B70010BD00BF20682168236849020D
:1018000041F60031C0F2B70100F03F02C3F3881087
:101810005CBF42F20041C0F2F401A1FB00010023D1
:10182000FEF77AFE21680222C1F3014102EB410179
:10183000B0FBF1F010BD0000002804BF012070478C
:101840002DE9F04182B00446007843F60006C00757
:10185000C4F202060CD0B06800F00C00042840F07E
:1018600081803068800303D56068002800F06881BB
:10187000207880071BD5B06810F00C0F09D0B06835
:1018800000F00C00082840F087807068400200F1EA
:1018900083803068800703D5E068012840F05081DC
:1018A0003068216920F0F80040EAC10030602078FB
:1018B000000713D4207840072AD4A569002D00F032
:1018C0003A81B06800F00C00082840F0A580012D96
:1018D00040F00E81012002B0BDE8F081606900286F
:1018E00000F082800020C4F247200121C0F8801E51
:1018F000FFF780FD054600BF706F8007DAD4FFF761
:1019000079FD401B0228F7D9032002B0BDE8F08121
:10191000306C5FEAC0080AD400200190306C40F0BF
:1019200080503064306C00F080500190019847F294
:101930000007C4F200073868C00547D4386840F48F
:1019400080703860FFF756FD054600BF3868C00557
:101950003CD4FFF74FFD401B0228F7D9032002B00B
:10196000BDE8F081B06800F00C00082803D1706871
:1019700040023FF576AF61683068B1F5803F07D02F
:10198000B1F5A02F40F09A8040F48020306030689C
:1019900040F4803030609AE0E068002840F20000B7
:1019A000C4F247205CD001210160FFF723FD05460A
:1019B000306880073FF574AFFFF71CFD401B02281D
:1019C000F6D9032002B0BDE8F08100BFA168306FF6
:1019D000012905D0052955D140F004003067306F4A
:1019E00040F00100306756E00020C4F2472000219B
:1019F000C0F8801EFFF7FEFC054600BF706F800731
:101A00007FF558AFFFF7F6FC401B0228F6D90320FC
:101A100002B0BDE8F08100BF0027C4F247270020D4
:101A20003866FFF7E7FC022D05460DD130688001CE
:101A300040F18A80FFF7DEFC401B02284FF00300D4
:101A4000F4D902B0BDE8F0813068800173D5FFF7AA
:101A5000D1FC401B02284FF00300F5D9F1E700BF8D
:101A600000210160FFF7C6FC054600BF3068800713
:101A70007FF51DAFFFF7BEFC401B02284FF00300AF
:101A8000F4D9DEE720F001003067306F002920F044
:101A9000040030677AD0FFF7ADFC054641F2883785
:101AA000306F800700F18480FFF7A4FC401BB84230
:101AB000F6D9032002B0BDE8F08100BF20F48030E9
:101AC00030603068002920F4802030607AD0FFF741
:101AD00091FC0546306880033FF5CAAEFFF78AFCEB
:101AE000401B6428F6D9032002B0BDE8F08100BF96
:101AF0007068E16900F480028A4221D1216A00F015
:101B00003F028A421CD147F6C071626A0140B1EBC4
:101B1000821F15D1A16A4FF6FF73C903994300F4E0
:101B20004032A1F580318A420AD1E16A00F070604A
:101B3000B0EB016F04D1002002B0BDE8F08100BF1E
:101B4000012002B0BDE8F08104F11C052FCD08434F
:101B500040EA8210D9034FF6FF729143A1F580311C
:101B600040EA05600843706001203866FFF742FCD8
:101B7000044600BF30688001DDD4FFF73BFC001B4A
:101B800002284FF00300F5D95BE700BFFFF732FCF6
:101B9000054641F2883700BF306F800708D5FFF750
:101BA00029FC401BB8424FF00300F5D949E700BFBC
:101BB000B8F1000F3FF581AE306C20F080503064FA
:101BC0007BE600BFFFF716FC054600BF30688003C8
:101BD0007FF54EAEFFF70EFC401B64284FF003006C
:101BE000F4D92EE77047000070470000002804BFBA
:101BF0000120704710B5044690F83D0028B9002038
:101C000084F83C00204600F01FF8022084F83D00D4
:101C10002068211D00F0C6FC012084F8460084F8ED
:101C20003E0084F83F0084F8400084F8410084F8C6
:101C3000420084F8430084F8440084F8450084F8A6
:101C40003D00002010BD00007047000090F83D10DE
:101C500001291CBF01207047022180F83D10006857
:101C600041F2FF72C168C4F20002904241F00101EA
:101C7000C1600DDC40F2FF71C4F20001884215DC46
:101C8000B0F1804F2AD040F20041C4F2000123E0BD
:101C900040F2FF31C4F20101884213DC41F6000139
:101CA000C4F20001884219D0002113E040F600017F
:101CB000C4F20001884211D040F60041C4F2000194
:101CC0000AE000BF44F20001C4F20101884205D0DD
:101CD00040F20041C4F20101884206D1816801F05E
:101CE0000701062904BF00207047016841F0010187
:101CF00001600020704700007047000070B5044686
:101D00000068C5680669B10716D515F0020113D041
:101D10006FF002010161012121778069800703D002
:101D20002046FFF7E9FF05E0204600F08FF8204647
:101D300000F08EF800202077700719D515F0040008
:101D400016D020686FF004010161022121778069BB
:101D500010F4407F04D02046FFF7CEFF06E000BF1E
:101D6000204600F073F8204600F072F8002020773B
:101D7000300717D515F0080014D020686FF008015F
:101D8000016104212177C069800703D02046FFF755
:101D9000B3FF05E0204600F059F8204600F058F85F
:101DA00000202077F00619D515F0100016D0206815
:101DB0006FF01001016108212177C06910F4407FA4
:101DC00004D02046FFF798FF06E000BF204600F051
:101DD0003DF8204600F03CF800202077F00718BFBF
:101DE00015F0010002D1300609D412E020686FF02E
:101DF00001010161204600F02DF8300609D515F0EB
:101E0000800006D020686FF0800101612046FFF756
:101E1000E9FE700609D515F0400006D020686FF085
:101E200040010161204600F01FF8B00658BF70BDA8
:101E300015F0200008D021686FF0200220460A61CA
:101E4000BDE87040FFF7D0BE70BD000070470000D5
:101E50007047000000680021C4F20101884218BFE9
:101E60007047FFF7CDBA000070470000002804BF9C
:101E70000120704710B5044690F8410028B90020B1
:101E800084F84000204600F021F8242084F8410026
:101E90002068C16821F40051C160204600F020FC98
:101EA0002068016921F490410161416921F02A0112
:101EB0004161C16841F40051C1600020202160648B
:101EC00084F8411084F84210606310BD80B586B07C
:101ED00044F200410068C4F20001002288420592E9
:101EE000CDE903220292019202D006B080BD00BF6C
:101EF00043F630000092C4F20200036943F4003359
:101F00000361036903F400330093009B00920368AC
:101F100043F001030360006800F0010000900098A6
:101F20000C2001900220CDE902020320049007203A
:101F3000059001F5DE3001A9FFF77EF906B080BDFE
:101F40002DE9F04381B0044690F84100202809D1E2
:101F500000294FF0010018BF002A07D101B0BDE8E9
:101F6000F08300BF022001B0BDE8F0830020606470
:101F700021201D460E4684F841001746FFF73AFA25
:101F8000A784E784A1688146B1F5805F02D120690A
:101F900000285DD037460020E28C2168002A5DD001
:101FA0006A1C24D0002D4AD0804600BF0868000675
:101FB00008D4FFF71FFAA0EB0900A8427AD82168DD
:101FC000C868F3E717B117F8010B04E038F8020B03
:101FD00000276FF35F204860E08C0138E084E08CDC
:101FE0000028E3D13AE000BF0A68120609D40A6863
:101FF000120606D40A6812065CBF0A685FEA02622B
:10200000F2D51FB117F8012B05E000BF30F8022B05
:1020100000276FF35F224A60E28C013AE284E28C8F
:10202000002AE4D11AE000BF30F8022B00276FF33A
:102030005F224A60E28C013AE284E28C72B10A6863
:10204000120635D5002FEFD017F8012BF1E700BFAE
:1020500000273046E28C2168002AA1D1086840069A
:102060001ED42DB3681C14D1086840062AD4086811
:10207000400627D40868400624D4086840064FF07C
:102080000000F1D50DE000BF2068C168006840067F
:1020900018D4FFF7AFF9A0EB0900A842F4D909E082
:1020A0000020202184F8411001B0BDE8F08300BF7A
:1020B000FFF7A0F90320202184F8411001B0BDE80A
:1020C000F08300BF0020202184F8411001B0BDE85A
:1020D000F083000044F2004072B6C4F200000168D0
:1020E000090609D4016809065CBF01685FEA01615D
:1020F00002D401680906F2D5482141600168090649
:1021000009D4016809065CBF01685FEA016102D475
:1021100001680906F2D5612141600168090609D408
:10212000016809065CBF01685FEA016102D40168C9
:102130000906F2D5722141600168090609D40168D7
:1021400009065CBF01685FEA016102D40168090603
:10215000F2D5642141600168090609D401680906C5
:102160005CBF01685FEA016102D401680906F2D52B
:10217000462141600168090609D4016809065CBF6F
:1021800001685FEA016102D401680906F2D56121A4
:1021900041600168090609D4016809065CBF01684D
:1021A0005FEA016102D401680906F2D57521416038
:1021B0000168090609D4016809065CBF01685FEA85
:1021C000016102D401680906F2D56C214160016801
:1021D000090609D4016809065CBF01685FEA01616C
:1021E00002D401680906F2D574214160016809062C
:1021F00009D4016809065CBF01685FEA016102D485
:1022000001680906F2D50D2141600168090609D46B
:10221000016809065CBF01685FEA016102D40168D8
:102220000906F2D50A2141600168490609D401680E
:1022300049065CBF01685FEA416102D40168490652
:10224000F2D502A006F0ECFAFEE700BF4861726426
:102250004661756C740000002DE9F04387B00027DB
:1022600043F630000697CDE90477CDE90277019770
:10227000C4F20200016840F2000941F0040101606B
:102280000168C4F2020901F004010191019901976A
:102290000168002241F08001016001684FF40046AE
:1022A00001F08001019101990197016841F001015C
:1022B0000160016801F00101019101990197016834
:1022C00041F00201016000684FF4004100F002009B
:1022D000019001984846FFF787F809F58065284680
:1022E000102100224FF01008FFF77EF8029602AE90
:1022F000012448463146CDE903470597FEF79CFF88
:1023000028463146CDE90284CDE90477FEF794FFF3
:1023100007B0BDE8F083000000F088BB80B540F650
:102320002C7044F20041C2F20000C4F2000100230C
:102330004FF00C0C4FF4E13280E80E00C0E903339B
:10234000C0E905C3C361FFF791FD002808BF80BD48
:10235000BDE88040FEF74EBE44F2004072B6C4F2C3
:1023600000000168090609D4016809065CBF01681C
:102370005FEA016102D401680906F2D54D2141608E
:102380000168090609D4016809065CBF01685FEAB3
:10239000016102D401680906F2D565214160016836
:1023A000090609D4016809065CBF01685FEA01619A
:1023B00002D401680906F2D56D2141600168090661
:1023C00009D4016809065CBF01685FEA016102D4B3
:1023D00001680906F2D54D2141600168090609D45A
:1023E000016809065CBF01685FEA016102D4016807
:1023F0000906F2D5612141600168090609D4016826
:1024000009065CBF01685FEA016102D40168090640
:10241000F2D56E2141600168090609D401680906F8
:102420005CBF01685FEA016102D401680906F2D568
:10243000612141600168090609D4016809065CBF91
:1024400001685FEA016102D401680906F2D56721DB
:1024500041600168090609D4016809065CBF01688A
:102460005FEA016102D401680906F2D56521416085
:102470000168090609D4016809065CBF01685FEAC2
:10248000016102D401680906F2D50D21416001689D
:10249000090609D4016809065CBF01685FEA0161A9
:1024A00002D401680906F2D50A2141600168490693
:1024B00009D4016849065CBF01685FEA416102D442
:1024C00001684906F2D502A006F0AAF9FEE700BFAE
:1024D0004D656D4D616E616765000000FEE70000AF
:1024E00070B592B006AC20463021FEF7B3FA002555
:1024F00043F640000595CDE90355CDE9015500951A
:10250000C4F202000168022641F0805101600068B7
:1025100000F080500090009847F200000095C4F24F
:102520000000016841F480410160006800F48040CF
:1025300000900098012006904FF4803007904FF4EF
:1025400080000D9006200E90A820CDE90F060420F3
:10255000119020460C96FFF76FF988B90F20CDE94E
:1025600001064FF4A05004904FF48050059001A84C
:1025700005210395FFF72EF8002804BF12B070BDA7
:10258000FEF738FD4EF68850CEF20000016841F4A7
:10259000700101607047000040F6E460C2F2000084
:1025A000FFF7ACBBB0B540F6FF3E0568C4F2000EC5
:1025B00040F2004C7045C4F2010C25DCB0F1804FB4
:1025C0002FD040F20043C4F20003984229D040F6D5
:1025D0000003C4F20003984223D041F6FF73C4F213
:1025E0000003984228DC70453ADCB0F1804F5BD0A4
:1025F00040F20043C4F20003984255D040F6000375
:10260000C4F200034EE000BF40F60043C4F20003F2
:10261000984206D0604504D00023C4F201039842DA
:10262000DBD14B6825F0700243EA020541F6FF73E7
:10263000C4F200039842D6DD43F6FF73C4F20103EF
:1026400098421FDC42F20003C4F2000398422BD0F0
:102650000023C4F20103984226D0604524D028E02C
:1026600040F60043C4F2000398421DD041F6000337
:10267000C4F20003984217D041F60043C4F20003AD
:1026800010E000BF44F20003C4F2010398420BD0F3
:1026900044F60003C4F20103984205D044F200431B
:1026A000C4F20103984204D1CB6825F4407243EA96
:1026B00002050A688C684B69C46240F480648262D7
:1026C000644504BF09690163026825F0800142F096
:1026D000040219430260012242610160B0BD0000A2
:1026E000B0B50446006804F108030ECB0569194330
:1026F00025F440552A4302616269E3691143C268C7
:10270000194349F20C639A431143C1604169A269BC
:1027100021F4407141F20043114340F48062C4F25D
:1027200001039A42416103D1FFF73AF802E000BF8A
:10273000FFF722F8E1694FF69C7563681922C0F62D
:10274000FF75B1F5004FA0FB02011FD15A00DB0F4E
:10275000FDF7E2FE48F21F51C5F2EB11A0FB012389
:102760005A0905F1805302FB0300322303EBC0003A
:10277000A0FB01014FF4F87000EA111000EB021009
:10278000C1F34211084421688860B0BD9A009B0FD4
:10279000FDF7C2FE48F21F51C5F2EB11A0FB012369
:1027A0005A0902FB0500322303EB0010A0FB0101D4
:1027B000F02000EA511000EB0210C1F3431108446D
:1027C00021688860B0BD000044F2004072B6C4F2D7
:1027D00000000168090609D4016809065CBF0168A8
:1027E0005FEA016102D401680906F2D55521416012
:1027F0000168090609D4016809065CBF01685FEA3F
:10280000016102D401680906F2D5732141600168B3
:10281000090609D4016809065CBF01685FEA016125
:1028200002D401680906F2D56121416001680906F8
:1028300009D4016809065CBF01685FEA016102D43E
:1028400001680906F2D5672141600168090609D4CB
:10285000016809065CBF01685FEA016102D4016892
:102860000906F2D5652141600168090609D40168AD
:1028700009065CBF01685FEA016102D401680906CC
:10288000F2D5462141600168090609D401680906AC
:102890005CBF01685FEA016102D401680906F2D5F4
:1028A000612141600168090609D4016809065CBF1D
:1028B00001685FEA016102D401680906F2D5752159
:1028C00041600168090609D4016809065CBF016816
:1028D0005FEA016102D401680906F2D56C2141600A
:1028E0000168090609D4016809065CBF01685FEA4E
:1028F000016102D401680906F2D5742141600168C2
:10290000090609D4016809065CBF01685FEA016134
:1029100002D401680906F2D50D214160016809065B
:1029200009D4016809065CBF01685FEA016102D44D
:1029300001680906F2D50A2141600168490609D4F7
:10294000016849065CBF01685FEA416102D4016821
:102950004906F2D502A005F063FF00BFFEE700BF05
:1029600055736167654661756C740000FEE7000091
:10297000F0B581B00F4634211D4616460446FEF7D9
:1029800069F825F00300A0F10801A1600221C4E963
:102990000660E16030444EF6EE616760C4E90466AB
:1029A00040F8086DCFF6FF714460C6E9000145F2BA
:1029B00045410020C4F259212062EFF3108072B625
:1029C000216040F29401C2F200010A6840F29003D3
:1029D000C2F2000332B11F683E6B3C6306F12C0368
:1029E00002E000BF2746264601321C60C4E90B7690
:1029F0000A6080F31088002001B0F0BD80B500F0BF
:102A0000D9F800F051FB40F27000C2F20000002142
:102A1000C0E90011C0E90211C0E90411C0E90611C2
:102A2000C0E90811C0E90A1180BD000010B540F2EC
:102A30000C04C2F20004206810F10F3F0DD04FF0DB
:102A4000F0302060FDF744FCFFF7D8FF40F2B800FB
:102A5000C2F200000168013101604FF0F0302060E7
:102A600040F2F800C2F2000000681AF09DFD00205C
:102A70002060BDE81040FDF773BC00002DE9F04F69
:102A800081B0DDE90A5B91460F46DDF838A00C9E67
:102A9000044628465946EF229846FDF7B1FF2046E6
:102AA000B021FDF7D7FF05EB0B010139C4E9035154
:102AB0000D9920208E423146A762C4E91198E66242
:102AC000C4E905BAC4F81CA018BF0021C4F89C00D2
:102AD0000320206343F24D00E163C4E92561C0F6A1
:102AE000000042F6ED31C4E91504C0F600012046AD
:102AF000FDF796FC45F24422C5F24842EFF31081FF
:102B000072B6226040F2B402C2F20002136840F2D0
:102B1000B0072046C2F2000743B13E68D6F88C5099
:102B2000C6F88C0005F1880702E000BF064605469E
:102B30000133136040F2B8023860C0E92265C2F286
:102B4000000213680F9F0133012F136014D140F26C
:102B50000C02C2F200021268EFF305831A43B2F1CD
:102B6000F03F19D340F2A402C2F2000214689CB1F3
:102B7000E26AE56BE26311E081F31088EFF3108005
:102B800072B611680139116080F3108800F0A6F860
:102B9000002001B0BDE8F08F0024002581F31088EB
:102BA00000F0C2F8002C18BFE563002001B0BDE8BA
:102BB000F08F0000B0B540F2A004C2F2000400257E
:102BC0002020C4E9025040F2FC00C2F20000802143
:102BD000C4E90055FDF73EFFC4E90455A561206A2C
:102BE000E56140F085702062B0BD000010B540F294
:102BF000A000C2F200000468D4E91110884740F236
:102C0000BC00C2F20000016809B1204688470121DA
:102C1000EFF3108072B62163A1630021E16440F2FA
:102C2000B801C2F200010A6801320A6080F310881C
:102C3000EFF3148020F0040080F314882046BDE8F0
:102C4000104000F00BB9000010B540F2A002EFF305
:102C5000108172B6C2F2000214686CB140F20C022C
:102C6000C2F200021268EFF305831A4308D081F321
:102C70001088132010BD00BF81F31088132010BDF1
:102C800040F20022C2F2000294420BD070B140F236
:102C9000B802C2F20002136863B181F310881320F6
:102CA00010BD00BF81F31088132010BD81F3108880
:102CB000002010BD042323630123A3630023C4F871
:102CC0008430E06410680130106081F31088204681
:102CD00000F0C4F8D4F8840010BD000040F2B80041
:102CE000C2F20000006808B1704700BF40F2A000C7
:102CF00040F2A401C2F20000C2F2000100680968BB
:102D00008842F1D04EF60450CEF200004FF08051D0
:102D10000160EFF30580002818BF7047EFF31080C3
:102D200062B680F310887047F0B581B0EFF310857C
:102D300072B60446406E002804F14C0002D000F048
:102D400031FA01E00021016040F2B800C2F2000057
:102D5000016801390160A16B226B002940F2A401D6
:102D6000C2F2000108D0013A022A0CD3626B32B9D8
:102D70000022A263226306E02AB1626B22B3002222
:102D80000323C4E90C3240F2A002C2F2000212682E
:102D900085F3108809688A4201D0006810B101B03B
:102DA000F0BD00BF4EF60450CEF200004FF080514F
:102DB0000160EFF305800028F1D1EFF3108062B6D7
:102DC00080F3108801B0F0BDE26A40F2FC0CC2F260
:102DD000000C5CF822304FF0000EC4F830E02BB14C
:102DE0005A6A5C621462C4E90832CCE74CF82240AB
:102DF00040F2A80E40F2AC0CC2F2000EC2F2000C7F
:102E00000123DEF80060DCF8007093403343BA42DF
:102E1000C4E90844CEF80030B5D20B68CCF80020E5
:102E2000D3B1DB6B9A42AED20C6085F31088006898
:102E30000028B4D14EF60450CEF200004FF080517D
:102E40000160EFF305800028A9D1EFF3108062B68E
:102E500080F3108801B0F0BD0C6094E770B540F2CB
:102E6000A001C2F200010D68EFF3108672B6A8420D
:102E700011D1014651F84C2F013A12F1030F04D839
:102E80000446084600F060F92046C16940F2C802D5
:102E9000C2F20002116040F2B801C2F200010A68F9
:102EA00040F2A40C013A0A60826BC2F2000C012AC3
:102EB00016D1026AC36A0024824284631AD0446A2B
:102EC00040F2FC0E54622262C2F2000E5EF8234011
:102ED000844208BF4EF82320DCF80020904228D01E
:102EE00086F31088DCF80000854202D008680028CC
:102EF00042D070BD40F2FC02C2F2000242F8234010
:102F000040F2A804C2F200044FF0010E22680EFA4B
:102F100003F39A43226041D040F2AC0392FAA2F24A
:102F2000C2F20003B2FA82F21A60DCF8002090428A
:102F3000D6D140F2AC00C2F20000006840F2FC02C0
:102F4000C2F2000252F82000CCF8000086F310888C
:102F500008680028CDD14EF60450CEF200004FF0A4
:102F600080510160EFF305800028C2D1EFF310809B
:102F700062B680F3108870BD4EF60450CEF20000A9
:102F80004FF080510160EFF30580002818BF70BD3D
:102F9000EFF3108062B680F3108870BD40F2AC0091
:102FA000C2F20000202202600020CCF8000086F36C
:102FB0001088086800289CD14EF60450CEF200001C
:102FC0004FF080510160EFF3058000287FF491AF4E
:102FD000EFF3108062B680F3108870BD40F2A0005D
:102FE000C2F20000016840F2CC02EFF3108072B62A
:102FF000C2F200020023136009B10A6B12B180F320
:1030000010887047D1E9073240F2C80CC2F2000CB8
:103010008A428B61CCF80030F1D0CB6AC96B8B420D
:10302000EDD140F2AC0140F2FC0CC2F20001C2F260
:10303000000C09684CF823205CF8211040F2A4022F
:10304000C2F20002116080F310887047EFF3108223
:1030500072B6016B04290BD140F2B801C2F2000133
:103060000B6801330B6082F31088FFF75DBE00BF71
:10307000836ED0F8AC1082F31088002B08BF704725
:103080001847000040F2B801EFF3108072B6C2F2A8
:1030900000010A6801320A6080F3108840F20020C3
:1030A000C2F20000FFF740BE2DE9F04387B040F2C6
:1030B000801640F2C404C2F20006C2F200040025E9
:1030C000304680212560C4E90155C4E90355FDF768
:1030D000C1FC06F18000C4E9056640F2002843F215
:1030E000E11644F64D1740F2B02104F11C03C2F280
:1030F00000080FF24009C0F60006C4F25417C2F2ED
:1031000000014FF4806227C304F1200207CACDE911
:1031100003258DE807004046494632463B46059563
:10312000FFF7ACFC0028EFD10020C4E90B0007B08A
:10313000BDE8F08353797374656D2054696D6572D1
:1031400020546872656164000268511E11F1030F1A
:1031500026D88369002B18BF7047202A40F2DC0272
:10316000C2F2000288BF1F21126840F2D80302EBAE
:10317000810140F2E002C2F200021268C2F20003D2
:103180008A1A1B6828BF99180A682AB153695061C6
:103190001861C0E9042302E0C0E90400086081610D
:1031A000704700008169002908BF7047026990429A
:1031B00008D0436953611A610B6883420AD0002129
:1031C000816170470A688242F9D100220A600021B9
:1031D0008161704791610A60002181617047000040
:1031E0002DE9F04F83B044F64D11C4F254118842DA
:1031F0001CBF03B0BDE8F08F40F2DC0640F2D00403
:1032000040F2D40BC2F200060027C2F200040DF116
:103210000409C2F2000B0DF1080804E02068002840
:103220006AD081F31088EFF3108072B631680A68B3
:10323000002A029218BFC2F818800F6040F2E00224
:103240003168C2F20002126804319142316005D146
:1032500040F2D801C2F2000109683160276080F3B2
:103260001088EFF3108172B605E000BF8AF3108872
:10327000EFF3108172B6029D002DCFD02869002295
:103280008542019214D06A69C0F8188042611061C9
:103290002A680290212A10D3A2F120002860C5F8E4
:1032A00018902D610195CBF8005081F3108816E03D
:1032B00000202A680290212AEED2D5E90132E8687E
:1032C000002B2B600FBF00232D6101954B46AB6196
:1032D000CBF8005081F31088002A18BF9047EFF315
:1032E000108A72B60198CBF80070A842BED1284669
:1032F000AF61FFF729FFB9E740F20020C2F20000FA
:1033000003220263012240F2B8038263C2F2000387
:103310001A6801321A6081F31088FFF79FFD82E777
:103320002DE9F04100284FF0020C67D0069F342FA2
:1033300064D140F2B80CEFF3108772B6C2F2000C01
:10334000DCF8006015460136CCF8006040F29006CB
:1033500087F31088C2F2000640F294073668C2F282
:1033600000073C68871BB7FA87F7002C4FEA57170E
:10337000984618BFB04249D10446EFF3108072B6A8
:103380000E46DCF800100139CCF8001080F31088EC
:10339000FFF7A4FC002F1CBF0220BDE8F0818DB315
:1033A000B8F1640F3CBF0520BDE8F08140F2A000F9
:1033B000C2F20000076840F20C00C2F2000001688F
:1033C0002A464346EFF30585294351D040F20025B4
:1033D0000068C2F20005EFF3058108434FF0000CCE
:1033E000AF4208BF4FF0130CB0F1F03F38BF4FF0C1
:1033F000130C03D331462046AF4241D16046BDE8AD
:10340000F08100BF0320BDE8F08100BF042200BFAF
:10341000F36AD71EC61AB6FA86F6A7424FEA5617BF
:10342000AAD29842A8D0DB6A971EC61AB6FA86F6C8
:10343000A7424FEA56179FD298429DD0DB6A571E8B
:10344000C61AB6FA86F6A7424FEA561794D29842A1
:1034500092D0DE6AA242A0EB0603B3FA83F34FEAEE
:103460005317BFF489AFB04202F10402D0D183E711
:1034700040F20020C2F2000087423146204603D0CD
:10348000BDE8F041FFF774BA4FF0130C6046BDE899
:10349000F08100002DE9F04F83B0054600284FF081
:1034A0000E0062D09146129AB02A5ED1119840F275
:1034B000B80C01901098C2F2000C00900F98029086
:1034C000DDF83880DDE90C6BEFF3108072B6DCF8C4
:1034D00000200132CCF8002080F3108840F2B400C4
:1034E000C2F20000026840F2B000C2F20000D0F860
:1034F00000A01AB306EB0B00471E0024554518BF69
:10350000012C1BD0DAF80C00864203D2002487423B
:103510000AD20FE0DAF81040A6424FF000043CBF98
:1035200001240026874205D3DAF8100087423CBF09
:1035300000260124DAF888A0013ADFD1EFF31080E9
:1035400072B60C46DCF800101F460139CCF80010AA
:1035500080F31088FFF7C2FB554509D0B9F1000F81
:103560004FF0030018BF002E06D103B0BDE8F08F66
:103570000E2003B0BDE8F08FBBF1C80F04D20520C8
:1035800003B0BDE8F08F00BFB8F11F0F04D90F20C2
:1035900003B0BDE8F08F00BF0298404504D9182061
:1035A00003B0BDE8F08F00BF0198012804D91020B6
:1035B00003B0BDE8F08F00BF40F2A000C2F20000EF
:1035C000026840F20C00C2F200003B460768214648
:1035D000EFF30584274313D040F200270068C2F2BE
:1035E0000007EFF3058404430020BA4208BF13200C
:1035F000B4F1F03F38BF1320B7D3BA4206D1B4E7D5
:1036000040F20020C2F2000082420FD001984A46E8
:1036100011900098109002980F90CDE90DB82846AF
:103620000C9603B0BDE8F04FFFF728BA132003B0A3
:10363000BDE8F08F01A015F095FA00BF63616E2719
:103640007420636F6E7665727420746F2073747269
:1036500020696D706C696369746C790003230E29AD
:1036600008BF0123194608F021B90000B0B50C4687
:103670000846114602221D4608F056F8002C4FF06D
:103680000E0405D0286811F0EFFD002818BF1E2495
:103690002046B0BD05A203A30E2908BF1A46114655
:1036A00015F0C2B846616C73650000005472756510
:1036B00000000000052804BF0020704703220E29E7
:1036C00008BF0122114616F047BB000002281CBFAC
:1036D0000020704788689368984205D1486851680F
:1036E000884204BF1E2070470E20704780B582B00C
:1036F0009646D0E901029C460B4611461A4673468F
:10370000CDF800C009F07CFA02B080BD06281CBFCD
:1037100000207047D1E90101484040000130704766
:1037200010B582B00446806800F0070102290BD171
:10373000C00801A917F056FD0199E2688A4209D331
:10374000002002B010BD00BFD0E902100191E26874
:103750008A42F5D2805C511C40000130E16002B029
:1037600010BD0000F0B58FB011B31868820725D0E6
:1037700000F00702022A2FD1012900F0E18003297D
:1037800000F2DE80C0080BA91C4617F02BFD216853
:103790000446084600F00701022940F0BC80C0083A
:1037A00017F0BAFE05460B9E002D40F0BD80B5E037
:1037B0004EF2F430C0F601000FB0F0BD07684FF2D2
:1037C0008806C0F60106B7422FD04FF27836C0F611
:1037D0000106B74200F09080012940F0B180C10796
:1037E00026D108A901221C460DF0E2FF002843D093
:1037F0004FF28801DDE90854C0F60101102011F0F4
:10380000F3FE84608DB107462846214617F0B8FCC8
:103810007860601C07F008FE294622460646F860DC
:10382000FCF7F8FF3846002131550FB0F0BD00BF5E
:103830004410B4F1FF3F40F387800BA821461AF0F3
:10384000F9F90D982146FDF7E3F80BAC15CC511CA6
:10385000814204D0204607F049FE0C9A044600201D
:103860004FF28801A0540D900B90C0F6010110207A
:1038700011F0BAFE0C9934E0206811F09DFD411062
:10388000002804A808BF10211AF0BEF92068694674
:103890000EF01CF804460EF0ABFB60B104AD00BFA7
:1038A00010F048FEC1B228461AF0D0F820460EF0BB
:1038B0009FFB0028F4D104AC15CC511C814204D0EC
:1038C000204607F013FE059A044600204FF28801B7
:1038D000A05406900490C0F60101102011F084FE5F
:1038E000059905468160204617F04AFC01462846A6
:1038F0006960EC600FB0F0BD012921D003291FD809
:10390000002A7FF43FAFD0E902140B9100F00701C9
:1039100002293FF444AF45680B9E2DB9204631463D
:1039200017F02EFC0B9E05464FF28801C0F60101F0
:10393000102011F059FEC0E90156C4600FB0F0BD6F
:1039400003A015F00FF900BF002015F023F900BF08
:1039500077726F6E67206E756D626572206F66207C
:10396000617267756D656E7473000000F0B581B0AB
:1039700016460C46074610F05FFE07F007010229C5
:10398000054609D1F808694617F02CFC0746042EB5
:1039900007D0002001B0F0BDD7E902070090042E47
:1039A000F7D100992846224600230DF035FF4FF24B
:1039B0008801C0F601018D42384407D0012117F07B
:1039C000BBFCC000023001B0F0BD00BF0078400079
:1039D000013001B0F0BD00002DE9F047002900F0F2
:1039E0005381044611F0030516D001F00F000228A0
:1039F00040F0CA8042F0020002284FEA111340F062
:103A00007F806078012840F08580206A1946BDE8F3
:103A1000F0470BF055BC00BF48686FF0050353FA40
:103A200080F3252B00F28080DFE803F081AEAEAE9C
:103A3000AEAEAEAEAEAEAEAEAEAEAEAEAEAEAEAEA6
:103A4000AEAEAEAEAEAEAEAEAEAEAEAEAEAEAE1430
:103A50008CAC00BF022A08D08B6820460D46194660
:103A6000164602F07DF932462946CE68002E00F057
:103A7000B18016F0030040F0AD80354655F8040FD4
:103A8000C3B2872B21D188464FF0FF319146022ADD
:103A900001EB102A0CD0B0F5007F09D3000A474291
:103AA00055F8041F204602F05BF90137781CF7D166
:103AB00006EB8A008668002E00F0FC8016F00300FA
:103AC00040F0F880706841464A46C0B22F2800F0A6
:103AD000A9802E2840F07E80022A00F0BF80B168C5
:103AE0002046154602F03CF9606A012D40F0BA808C
:103AF00009F0B8FF606A0021BDE8F0470BF0F2B8AA
:103B0000607801285CD1206A19460122BDE8F0479F
:103B100018F000B8D4E908204EF21C41C0F60101AB
:103B2000BDE8F0470BF0DCBBC3B2912B2CD15ABBE4
:103B3000030A01F1080220461946BDE8F04700F0EB
:103B4000DFB800BF8868F8B1830740F0A7804368FA
:103B5000DFB28B2F40F0A280B2B923F0FF02B2F5A2
:103B6000007F07D1C2682AB112F0030702D112798F
:103B70009F2A09D0190A00F108022046BDE8F04743
:103B800000F0BEB8002A3DD0606808B1BDE8F087FB
:103B90004FF6D3324EF69070C0F60102C0F6010027
:103BA0000E46114611F01AFEA26860602A4318BF43
:103BB000BDE8F08731460868A060BDE8F08700BF27
:103BC000D4E908204EF21441C0F60101BDE8F047E7
:103BD0000BF086BB60680028D8D14FF6D3324EF682
:103BE0009070C0F60102C0F601000D46114611F0BA
:103BF000F5FDA2686060002AC8D129460868A06067
:103C0000BDE8F0870A4652F8080FF8B1830703D1E0
:103C10004368DFB28B2FA0D020460121BDE8F047DA
:103C200000F06EB8B16801F00F0002284ED1022AF0
:103C30001ED0012A20D1606A09F0D8FEB168606AFE
:103C400009090022BDE8F04709F002BD2046002125
:103C50000022BDE8F04700F053B800BF606A0AF0E8
:103C600067FD606A0121BDE8F0470BF03BB800BF7B
:103C7000606A0AF097FDB168606A09090122BDE82F
:103C8000F04709F0E5BC00BF4FF64A3115A0C0F679
:103C9000010140F20E22FEF769FE00BF4FF65720E9
:103CA0004FF64A31C0F60100C0F6010140F237225A
:103CB000FEF75CFE4FF688104FF64A31C0F6010061
:103CC000C0F6010140F2CF12FEF750FE4FF664102D
:103CD0004FF64A31C0F60100C0F6010140F2E11290
:103CE000FEF744FE214D505F50415253455F4E4F09
:103CF00044455F49535F4E554C4C28706E29000077
:103D00002DE9F0470D460029804641D092466F1EAE
:103D10004FF0FF3900240BE0D8F8240021463A4642
:103D20000BF0C4F8A146013F781C04F1010411D046
:103D30005AF82460002EF6D016F00300F3D1307943
:103D40002028F0D1B9F1FF3FE6DDD8F8040038B300
:103D5000BDE8F087B9F1FF3F04DCD8F8240029461C
:103D60000BF0F4F854464E460BE000BF01684046A5
:103D70000022FFF731FE013DA6F1010604F1040423
:103D8000E6D0002E2046F1D15AF829000830EDE7A0
:103D9000D8F824002946BDE8F0470BF0D7B800BF9B
:103DA0004EF69070C0F6010007A111F017FDD8F88B
:103DB0000810C8F80400002918BFBDE8F087306873
:103DC000C8F80800BDE8F0876D756C7469706C65A3
:103DD000202A7820696E2061737369676E6D656E45
:103DE000740000002DE9F04381B00D4601F00F0191
:103DF000022904460AD160782B09012856D1206A8D
:103E0000194601B0BDE8F0430BF05ABAB5FA85F097
:103E1000410905F00300B0FA80F25209914251D0F5
:103E20002879292850D1A968204601F099FFD5F8B2
:103E30000C90B9F1000F62D019F003005FD14F462A
:103E400057F8040FC1B287291ED14FF0FF31B0F5EA
:103E5000007F01EB102809D3000A464257F8041FDF
:103E6000204601F07DFF0136701CF7D109EB880078
:103E7000D0F80890B9F1000F00F0848019F0030029
:103E800040F08080D9F80400C0B22F2862D02E28DC
:103E900035D1D9F80810204601F062FF606A02218E
:103EA00001B0BDE8F0430AF01DBF00BFD4E908200F
:103EB0004EF20C41C0F6010101B0BDE8F0430BF039
:103EC0000FBA00BFDDB1D0B928792A2817D1AD6863
:103ED000A5B1A8074CD16868C1B28B2948D120F0A0
:103EE000FF01B1F5007F23D1E86820B310F0030192
:103EF00021D100799F2802D01DE000BF0025606815
:103F000010B101B0BDE8F0834EF69070C0F601002C
:103F100035A111F063FC002D6060F2D0A06805F0BF
:103F200003010843EDD12868A06001B0BDE8F0832B
:103F3000B0F5807FE5D305F10806002756F8271075
:103F40002046FFF74FFF68680137B7EB102FF5D316
:103F5000D7E700BFD9F8081001F00F0002281DD1E3
:103F6000606A0909022201B0BDE8F04309F070BBA4
:103F70004FF64A310FA0C0F6010140F2E532FEF7DC
:103F8000F5FC00BF4FF688104FF64A31C0F601002D
:103F9000C0F601014FF47472FEF7E8FC4FF66410AE
:103FA0004FF64A31C0F60100C0F6010140F2D732A7
:103FB000FEF7DCFC4D505F50415253455F4E4F447D
:103FC000455F49535F5354525543545F4B494E44E8
:103FD00028706E2C20504E5F746573746C69737416
:103FE0005F636F6D7029000063616E2774206465E4
:103FF0006C6574652065787072657373696F6E00A7
:104000002DE9F04F81B0994617460E468246084684
:1040100014F040F998B9304614F048F960BBEEB19D
:1040200016F003001AD17068C1B21E290CD1B6680F
:1040300087F00107304614F02DF90028EBD0F8077F
:104040001CD001B0BDE8F08F1D291FD01C2905D15F
:10405000F9074FEA10251FD001274AE050463146A4
:1040600001F07EFEDAF8240007F001014A4601B0B3
:10407000BDE8F04F0AF086BAF807E2D0DAF824007B
:10408000494601B0BDE8F04F09F018BFF9074FEA03
:1040900010252DD0012000E00020DAF80C700090EF
:1040A000781C022DA5F1010BCAF80C0010D3009862
:1040B0006D4280F0010406F1040800BF58F8041FA7
:1040C000504622463B46FFF79BFF0135681CF5D161
:1040D00006EB8B008168009A50464B46FFF790FF35
:1040E000DAF82400394601B0BDE8F04F09F0FABE15
:1040F0000027002DA5D0341D54F8041F50463A4621
:104100004B46FFF77DFF013DF6D19AE72DE9F04FD1
:1041100081B0984691460E46012B824603DBF08A19
:1041200040F00800F082DAF82000A6F81E9001782E
:10413000002945D0018D002942D04FF0000B002509
:1041400006E000BFDAF82000018D01358D4227D24C
:10415000C16A11F83520053A012AF5D8328D002AB6
:10416000F2D001EBC507002404E000BF013490B297
:104170008442E7D2F06A10F834100629F6D100EB39
:10418000C400796840688142F0D1DAF824007A8866
:1041900000230AF0D5F8328D0BF1010BE6E700BFE2
:1041A000BBF1000F0CD0DAF8240031465A464B46DA
:1041B000CDF800800AF080F901B0BDE8F08F00BFB3
:1041C000DAF8240031464A46434601B0BDE8F04FD4
:1041D0000AF0C4B92DE9F04F85B084680546661829
:1041E00006EB4200984693460F4605284FEA420ADE
:1041F00018D8E94605F10C01A2004846FCF791FBEE
:104200000AEB070109EB84008A004146FCF789FBB1
:10421000686831465A464B4608F0C0F905B0BDE81B
:10422000F08F00BF800007F0FFF80646A86805F190
:104230000C0182003046FCF774FBA8680AEB07010A
:1042400006EB80008A004146FCF76BFBD5E90101D3
:104250005A463944334608F0A1F90446304607F07F
:10426000E1F8204605B0BDE8F08F000049F2783251
:10427000C2F20002D2F88020002A18BF704770B541
:10428000C5680446681CE0608A6820460E461146F0
:1042900001222B46FFF7B4FE606A1F2101220AF0BB
:1042A00047F8F16841B1204601F05AFD606A0121EA
:1042B0000022002309F02CFB606A01210AF0A6F914
:1042C000606A2946BDE8704009F00CBE2DE9F04156
:1042D00082B08D680446ADB1A80775D128799328BE
:1042E00018D0322870D1606A0121022209F0C0FA88
:1042F0002046294601F034FD606A02B0BDE8F04175
:104300000AF0B6BC606A0021022202B0BDE8F041AA
:1043100009F0AEBAE868002860D010F003015DD162
:1043200001799F292CD0952964D1083001AA9621C2
:1043300013F092FF8046606A08F10101022209F041
:1043400097FAA968204601F00BFD606A0AF090FC1C
:10435000B8F1000F2ED00027019850F82710B9B1FE
:1043600011F0030014D10E79204601F0F9FC322E31
:1043700011D1606A0AF07CFC0137B845ECD119E034
:1043800020462946042202B0BDE8F04100F064BB9B
:10439000204601F0E5FC606860B94EF690704FF67B
:1043A0005841C0F60100C0F6010111F017FAA168EA
:1043B000606019B102B0BDE8F08100BF2868A0605C
:1043C00002B0BDE8F08100BF4FF64A311AA0C0F636
:1043D000010140F66222FEF7C9FA00BF4FF6B410A1
:1043E0004FF64A31C0F60100C0F6010140F6122234
:1043F000FEF7BCFA4FF64A3103A0C0F6010140F6C1
:104400004D22FEF7B3FA00BF4D505F504152534565
:104410005F4E4F44455F5354525543545F4B494E92
:104420004428706E733129203D3D20504E5F636FEC
:104430006D705F666F72000030000000F0B581B0F3
:104440008D68044645B3A8071AD16868C1B28B29A4
:1044500016D120F0FF01B1F5007F25D1E8680226D2
:1044600020B310F0030121D100799F281ED12046EE
:104470002946032201B0BDE8F04000F0EDBA00BFCC
:104480002046294601F06CFC606A0121012201B03E
:10449000BDE8F04009F0ECB9606A0021012201B0EA
:1044A000BDE8F04009F0E4B9060A16D005F10807A6
:1044B0003968204601F054FC606828B9013E07F1D4
:1044C0000407F5D109E000BF386830B1A16800F0F9
:1044D0000302114301D10068A0606968606A090A9B
:1044E000012201B0BDE8F04009F0C2B92DE9F04366
:1044F00081B00D468968804601F032FCA94659F822
:104500000C0FE0B141680127CAB2872A08BF00F149
:104510000809D8F82020107808BF0F0A07280BD107
:10452000A86840F6A211884206D1D9F800000179A6
:104530002D2901D1806858B30024BC4208D301B0B2
:10454000BDE8F083404601F00BFCBD422C46F6D29C
:10455000651C59F82410BD42F4D208792F28F1D1F6
:1045600059F8256030792D28ECD18968D8F82400D5
:104570000909002209F058FFB168404601220023D2
:1045800002F0CCF9A51CBD422C46E1D3D7E700BF11
:1045900098F80100012805D110460A21012217F0E0
:1045A000B9FA08E0D8F824004EF21441C0F601012F
:1045B0000A230AF095FED8F82000018DB1B1C06A37
:1045C0004278D20721D1012910D0427AD20717D1DF
:1045D00002290BD0427CD20714D1032906D0427E97
:1045E000D20711D1043900F12000E9D1D9F8001027
:1045F0001AA2404601B0BDE8F04302F0E5B800BFA2
:10460000083002E0103000E018304168404601F008
:1046100095FB032F18D3D9F8040001792F2913D162
:10462000D9F8084021792D290ED18168D8F82400C5
:104630000909012209F0F8FEA16840460122002381
:1046400002F06CF9032478E7D8F824000221002254
:10465000002309F05DF901246FE700BF73757065F1
:104660007228292063616E27742066696E64207346
:10467000656C6600F0B581B089680446D1B18807E1
:1046800036D14868C2B28B2A32D120F0FF02B2F58F
:10469000007F17D1C8680225B0B110F0030213D112
:1046A00000799F2810D12046062201B0BDE8F040D5
:1046B00000F0D2B9606A0021002201B0BDE8F040EC
:1046C00009F0D6B8050A0BD001F10806002700BF93
:1046D00056F82710204601F043FB0137BD42F7D1C1
:1046E000606A2946002201B0BDE8F04009F0C0B878
:1046F0004FF657204FF64A31C0F60100C0F60101CF
:104700004FF41E62FEF732F9F0B581B00C4654F852
:10471000081F054654F8046C01F022FBB6F5007F33
:1047200010D3A6F10B00310A4F42C6B254F8041F51
:10473000284601F015FB686A314608F0FDFF013795
:10474000781CF3D101B0F0BD70B50C460979162282
:10475000092908BF1422815A4FF6FF72914217D1DE
:104760004268AAB94EF69072C0F6010212A305463D
:1047700010460E46194611F031F8AB68314604F088
:1047800003060246284633436A6001D122688260EC
:10479000028B438B9A4205D3406AD21ABDE870401F
:1047A0000AF01EBC4FF64A310BA0C0F6010140F2E0
:1047B0000742FEF7DBF800BF27627265616B272FA7
:1047C00027636F6E74696E756527206F75747369E2
:1047D0006465206C6F6F7000636F6D702D3E637544
:1047E000725F6578636570745F6C6576656C203E9A
:1047F0003D20636F6D702D3E627265616B5F636F0C
:104800006E74696E75655F6578636570745F6C65FD
:1048100076656C0010B50446006A028B204600F0F5
:1048200015F861780346012906D1206A1946BDE8CA
:1048300010400AF045BD00BFD4E908204EF21C41EB
:10484000C0F60101BDE810400AF04ABD70B504464B
:1048500040780D4601281BD10120294617F0C4F9E4
:10486000224652F81C1F00265368C0E9013669B180
:104870008B680A464BB199681A4631B18B680A4673
:104880001BB199681A460029F2D10832106068619C
:10489000606A09F053FB6E6920463146002200230E
:1048A000FFF734FC606AB18A09F0F2FCE96839B1BB
:1048B000880706D10879973808BF014601E000BF94
:1048C000002120460022022302F028F8B08A70BDA1
:1048D0002DE9F04F81B08B46D1E90151044601F03A
:1048E0003FFAB5F5806F05D3D4F80C9009F10100BB
:1048F000E06004E0B5F5407F76D34FF00009009505
:104900002F0A00256FF0300A04E000BF0235A81C12
:10491000B84247D20BEB8508D8F81010204601F0BA
:104920001FFAEE1CBE4205D2606A09F05FF8606AA9
:1049300009F0FEFED8F80C0000F00F010A290FD193
:1049400000F47F610AEB1012B1F5087F08BF062260
:10495000606AD1B208F0F0FEBE42D7D21CE000BFC0
:10496000002845D010F0030142D101797F2909D0F8
:104970007E2947D1606A322108F0DEFEBE42C5D2F0
:104980000AE000BF8168606A002914BF3321072153
:1049900008F0D2FEBE42B9D2606A00214A4609F050
:1049A00097FAB3E700990020B0EB912F1CD0E6688E
:1049B000606A711CE160314609F080FA606A49461C
:1049C00009F090FA606A012108F026FE606A09F099
:1049D000E9FE606A09F0E0FD606A314601B0BDE8B9
:1049E000F04F09F07FBA00BF01B0BDE8F08F00BF03
:1049F0004FF64A3108A0C0F6010140F6B902FDF7B2
:104A0000B5FF00BF4FF64A310DA0C0F6010140F6D8
:104A1000BF02FDF7ABFF00BF4D505F504152534501
:104A20005F4E4F44455F49535F535452554354289A
:104A3000706E732D3E6E6F6465735B695D29000057
:104A40006B696E64203D3D20504E5F636F6D705FFB
:104A50006F705F697300000070B54B68154623F0F6
:104A6000FF02B2F5007F51D1CE68002E42D004463D
:104A700016F003003ED130799F283BD160780128A1
:104A800020D1206A028B284617F0AEF82246014654
:104A900052F81C0F236A4FF0000CC1E9013C68B1C9
:104AA000836802464BB198681A4630B18368024663
:104AB0001BB198681A460028F2D108321160716162
:104AC00001E000BF7169204600220023FFF71EFBB2
:104AD000F168204601F044F9062D03D1606A0021F7
:104AE00009F05CF9606A012100220023BDE87040F2
:104AF00008F00EBF4FF695204FF64A31C0F6010080
:104B0000C0F6010140F6C412FDF730FF4FF6053044
:104B10004FF64A31C0F60100C0F6010140F6C3125B
:104B2000FDF724FF406A896809F044BA2DE9F04F87
:104B300085B00446019101F1080004AA3D2113F05B
:104B40008BFB216A0546088B4FF00009002D02906F
:104B500000F0868003AF4FF0000A07E001200290CA
:104B600009F101090AF1010AAA4579D0049850F81F
:104B70002A80B8F1000F00F0DD8018F0030040F04B
:104B8000D98098F804003C2840F0D48008F108004F
:104B900066213A4613F060FB039A0646116821F03D
:104BA0000F03B3F5E66F1FD1022E3FD1516821F0FC
:104BB0000F00B0F5826FD1D060680028D0D14EF6DA
:104BC00090700E464FF63A41C0F60100C0F6010162
:104BD00010F004FE002E6060C2D0A06806F0030250
:104BE0003146104338D0BBE7204601F0B9F8022E19
:104BF00013D34FF0010B00BF039850F82B1001F0B6
:104C00000F00022840F08C80606A0909002208F039
:104C10001FFD0BF1010B5E45EED1D8F80C100029F9
:104C2000A0D0204601F09CF89CE700BF60680028F7
:104C300096D14EF690700E464FF63A41C0F60100FE
:104C4000C0F6010110F0CAFDA26806F00303314668
:104C50001A4360607FF484AF0868A06080E700BFFB
:104C60000198C768387903280CD033286CD1029A90
:104C700020463946FFF7EAFD0646B5EB090531D176
:104C800038E000BF6078012820D1029A0720394619
:104C900016F0AAFF224652F81C1F06465068002351
:104CA000C6E9010379B100BF8A6808464AB1916834
:104CB000104631B18A6808461AB191681046002939
:104CC000F2D100F108021660BE6100E0BE69FA6828
:104CD00020463146402300F07FFBB68AB5EB09053C
:104CE00008D000BF606A01210022002308F010FEF6
:104CF000013DF7D16078012806D1206A31460AF0DB
:104D0000DFFA05B0BDE8F08FD4E908204EF21C416F
:104D1000C0F6010133460AF0E3FA05B0BDE8F08FB2
:104D20004FF64A311CA0C0F601014FF46572FDF741
:104D30001DFE00BF4FF64A3109A0C0F6010140F246
:104D40008232FDF713FE00BF4FF6A0304FF64A3116
:104D5000C0F60100C0F6010140F2AE32FDF706FEDA
:104D60004D505F50415253455F4E4F44455F49534C
:104D70005F5354525543545F4B494E44286E6F6401
:104D800065735B695D2C20504E5F6465636F726173
:104D9000746F7229000000004D505F50415253451E
:104DA0005F4E4F44455F49535F4944286E616D65CE
:104DB0005F6E6F6465735B6A5D29000070B589681A
:104DC000044699B111F0030010D10D4655F8040FB7
:104DD000C2B2912A0BD1060A08BF70BD55F8041F54
:104DE0002046FEF7FFFF013EF8D105E021B1204645
:104DF000BDE87040FEF7F6BF70BD0000B0B50C46D0
:104E0000C968054600F0ACFFA1682846BDE8B0407F
:104E100000F0A6BF2DE9F04381B00D46C9680446F5
:104E200061B188071AD0204600F09AFFA968204691
:104E3000002201B0BDE8F043FEF7CEBD207810B1EE
:104E4000226A1078C0B3A968880725D001F00F0046
:104E5000022821D001B0BDE8F08300BFD1F8048062
:104E60005FFA88F050285BD051282FD05528DAD12E
:104E7000C9680029D7D1206A01780729EAD1A96831
:104E800001F00F02022AE5D10909042201B0BDE8B0
:104E9000F04316F03FBE00BF29B111F0030002D16C
:104EA00008793528D6D0204600F05AFF606A01B054
:104EB000BDE8F04309F070BB6078012850D110467E
:104EC000C421012216F026FE52E000BF4FF0FF3051
:104ED00000EB182601F1080959F82610204600F0C9
:104EE0003FFF0020B0EB582FA0D0606A08F07EFD95
:104EF000A968204600220025FEF76EFD09E000BFEC
:104F000059F8251020460022FEF766FDBE423D46B8
:104F1000A0D06F1CB742F3DA606A08F067FDEFE7D4
:104F2000AA6820460E4611460122FEF755FDF1689B
:104F3000204600F015FFB06800F00F010A2927D1C4
:104F40006FF03A0101EB1011606AC9B208F0F4FB8E
:104F5000A9682046022201B0BDE8F043FEF73CBD3F
:104F6000606A4EF21441C0F60101C4230AF0B8F998
:104F7000A968204600F0F4FE606A012100220023A7
:104F800008F0C6FC606A01B0BDE8F04309F004BB5C
:104F90004FF64A3103A0C0F6010140F60202FDF7C8
:104FA000E5FC00BF4D505F50415253455F4E4F44AA
:104FB000455F49535F544F4B454E28706E73312DFA
:104FC0003E6E6F6465735B305D290000B0B50D46C1
:104FD000C968044600F0C4FEA86800F47F61B1F51A
:104FE000407F07D10221606AC9B2BDE8B04009F034
:104FF0001DBF00BF00F47E61B1F5707F08D10009CC
:10500000A0F13C01606AC9B2BDE8B04009F00EBF32
:105010004FF64A3103A0C0F6010140F6F802FDF751
:10502000A5FC00BF746F6B203D3D204D505F544F79
:105030004B454E5F4F505F504C5553207C7C207445
:105040006F6B203D3D204D505F544F4B454E5F4FA1
:10505000505F4D494E5553002DE9F04786B08846C4
:105060008968044601F00F01022967D1D8F80C00C5
:10507000002863D010F0030160D1017929295DD1A6
:10508000816840F2C272914258D1C06801792D29DD
:1050900054D1806804AA059005A8982113F0DCF883
:1050A000411E02294AD8049A012805D002280DD1B0
:1050B0000320012110E000BF136801224FF003001C
:1050C0007BB313F0030124D02BE000BF90680021D4
:1050D000012888BF01210140D2E90023002918BF1F
:1050E000002A0DD012F003070AD15168CFB201F0A7
:1050F000FE019A3918BF01219C3F18BF0127394092
:10510000002918BF002B01D159B917E013F003078C
:10511000FAD1596801F0FE079A2F0FD0C9B29C2925
:105120000CD0D8E90476D8F80810CDE9000720465D
:10513000029600F049F806B0BDE8F087E668208BDB
:10514000B4F81A90608346F40040D4F814A0A0820A
:10515000F01CE060D8F80C10751C2046B71CE582E6
:1051600000F0FEFD606A012108F018FE606A294621
:1051700008F0B8FE606A394608F0EEFDD8F808106D
:1051800020460022FEF728FCD8F81010204600F038
:10519000E7FD606A294608F091FE606A394608F02A
:1051A000A1FE606A08F0DEFDC4F814A0D8F814105F
:1051B0002046A4F81A9000F0D3FD606A314608F04A
:1051C00091FE06B0BDE8F0872DE9F04F87B00446A8
:1051D0001298E6680690119892460390A08A109D56
:1051E0000290E08A89460190608B06F101080090E8
:1051F000208B06F1020B6083301DE06013F001008C
:1052000006F10307A682A4F816800493059003D143
:105210000499204600F0A4FD2046514600F0A0FD70
:10522000606A394608F04AFE606A594608F05AFE3C
:10523000606A08F0DBFB204649460022FEF7CCFB03
:105240000399204600F08CFD606A414608F04AFE52
:105250002046294600F084FD606A0E2108F06CFAB1
:10526000606A394608F03EFE059F606A37B908F06B
:10527000F9FB606A09F096FA06E000BF08F0B6FB99
:105280000499204600F06CFDDDF81880E80743D053
:10529000606AE90F08F050FA606A01215A4609F085
:1052A00071F90298B8F1000FA0820198E08200988D
:1052B000608317D0606A09F06FF917B9606A09F066
:1052C0006BF92046414600F04BFDE568606A691CB9
:1052D000E160294608F0F2FD606AC7F1020108F0BA
:1052E0009BF900E00025606A314608F0FBFD606A2A
:1052F00009F052F917B9606A09F04EF9B8F1000FD8
:1053000006D0606A294607B0BDE8F04F08F0EABD54
:1053100007B0BDE8F08F00BF4FF64A3103A0C0F6DA
:10532000010140F2BF52FDF721FB00BF4D505F501D
:10533000415253455F4E4F44455F49535F534D4182
:105340004C4C5F494E5428706E5F73746570290031
:1053500070B5044640780D46012821D1206A2946BF
:10536000028B072016F040FC2146064651F81C0F20
:10537000226A0023C6E9012370B100BF826801469A
:105380004AB19068114630B1826801461AB19068FE
:1053900011460028F2D108310E60AE6101E000BF75
:1053A000AE69EA6820463146402300F015F860787F
:1053B000B38A012806D1206A1946BDE8704009F079
:1053C0007FBF00BFD4E908204EF21C41C0F60101A6
:1053D000BDE8704009F084BF2DE9F04786780446A7
:1053E000002E18BF0126B0F81090B0F812808A463F
:1053F0000020A07020619AB112F0030010D117466E
:1054000057F8040FC1B28B420BD1050A0DD000BF73
:1054100057F8041F204600F029F8013DF8D104E0B8
:105420001AB12046114600F021F86068002818BF24
:10543000BDE8F087628A238A62B163B9606A114667
:10544000002208F015FA606A08F0FAFF628A238ADF
:1054500001E000BF002220465146FEF757FEA6702D
:10546000A4F81090A4F81280BDE8F08770B501F0A0
:105470000F02022A02D18278C2B170BD002963D026
:1054800011F0030260D10A79423A082A68D8102341
:10549000DFE802F02908066666662808060000BFF5
:1054A000EBE700BF0121817070BD00BF428A002A76
:1054B000E3D04268002AE0D14EF69072C0F60102B5
:1054C00034A3044610460D46194610F087F9A36828
:1054D00005F003063343606018BF70BD2868A06004
:1054E00070BD00BF0C23CC58002CC4D082786AB1A8
:1054F000028A8E68511C0182CAB9418A054669B187
:10550000406A002208F0B4F90BE000BF418A4A1C4F
:1055100021464282BDE8704000F022BC406A08F09B
:105520008FFF686A0021022208F0A2F9284621466E
:10553000054600F015FC686A310908F0A9FE686AA2
:10554000BDE8704009F094BB4FF618204FF64A3181
:10555000C0F60100C0F6010140F29722FDF706FAFD
:105560004FF64A3103A0C0F601014FF42F72FDF748
:10557000FDF900BF706E5F6B696E64203D3D205089
:105580004E5F766172617267736C6973745F6E618E
:105590006D6500006E6F6E2D64656661756C7420BC
:1055A000617267756D656E7420666F6C6C6F777372
:1055B0002064656661756C7420617267756D656ED7
:1055C0007400000070B54A68150A0DD0044601F158
:1055D000080600BF3168204600F0C2FB606828B9A9
:1055E000013D06F10406F5D170BD00BF306800280A
:1055F000FAD0A16800F00302114318BF70BD006823
:10560000A06070BDF0B581B00D4655F8041F064688
:105610000C0A08D0274600BF55F8041F304600F09A
:105620009FFB013FF8D1706A2146002201B0BDE81E
:10563000F04008F01DB900002DE9F04F81B004469C
:105640004078012840F095800D798A46102D03D0CE
:10565000206A007800287DD00AF108006A46672198
:1056600012F0FAFD002800F084800646102D0AF0A2
:10567000030B33D14EF6907800270325C0F60108BE
:105680000FF26C190CE000BF226A416805701046E9
:1056900016F002FA002818BF05700137BE4268D024
:1056A0000098002250F82710206A090916F032FAF3
:1056B00001780329E8D00029E6D060680028ECD101
:1056C0004046494610F08AF8A168606051EA0B0133
:1056D000E3D1DAF80000A060DFE700BF4EF6907576
:1056E0004FF000084FF00109C0F6010506E000BFC9
:1056F000606808B308F1010846453AD000980022D6
:1057000050F82810206A090916F004FA01780629D1
:10571000F0D00029ECD1216A074680F800900846B5
:10572000394616F09FF838780128E3D160680028E0
:10573000E0D128461DA101E0284624A110F04EF832
:10574000A168606051EA0B01D4D1DAF80000A060D2
:10575000D0E700BF606860B94EF69070C0F60100F7
:1057600008A110F03BF8A1680AF003021143606041
:1057700002D001B0BDE8F08FDAF80000A06001B0FF
:10578000BDE8F08F63616E2774206465636C61729D
:1057900065206E6F6E6C6F63616C20696E206F7533
:1057A00074657220636F6465000000006E6F206294
:1057B000696E64696E6720666F72206E6F6E6C6FC3
:1057C00063616C20666F756E640000006964656ECD
:1057D000746966696572207265646566696E656480
:1057E000206173206E6F6E6C6F63616C000000004F
:1057F0006964656E74696669657220726564656660
:10580000696E656420617320676C6F62616C000073
:105810002DE9F04782B0D0F80C90054609F101005F
:105820008846E860D8F808000021019112F032FDA6
:1058300010BBEF680022781CE860D8F808102846F2
:105840003B46FEF7DDFBD8F80C10284600F088FA3E
:10585000D8F8080012F02AFD002848D1D8F8100026
:1058600010B9D8F8140018B1686A494608F026FB48
:10587000686A394608F036FB08F1100001AA6A216F
:1058800012F0EAFC70B38246002402E00134A24523
:1058900028D0019850F8247087B317F003002DD159
:1058A00038796B282AD1B86812F0F4FC0028EDD1C1
:1058B000EE680022701CE860B96828463346FEF79F
:1058C0009FFBF968284600F04BFAB86812F0EEFC2E
:1058D00068B9686A494608F0F1FA686A314608F022
:1058E00001FBD3E7D8F81410284600F039FA686AAB
:1058F000494608F0F7FA02B0BDE8F0874FF64A31A2
:1059000003A0C0F6010140F24652FDF72FF800BF98
:105910004D505F50415253455F4E4F44455F495390
:105920005F5354525543545F4B494E4428706E5F49
:10593000656C69665B695D2C20504E5F69665F73BC
:10594000746D745F656C6966290000002DE9F0478D
:1059500082B0D1F808808A4608F00F010A298146F2
:105960003ED1CDF804804FF0000801A86A465F21BF
:1059700012F072FC002843D0DDF800C000F0030EE6
:1059800082084FF000013DD0ACF11000A1EB820580
:1059900040F29A53002200BF50F8104F043A9C4244
:1059A0004FF0030408BF01242144D0E90147C66831
:1059B0009C424FF0030408BF0124214403249F426A
:1059C00008BF012421449E424FF0030408BF012474
:1059D00095422144E0D15042BEF1000F16D136E08D
:1059E000B8F1000F4FF0000131D018F003002ED1B4
:1059F00098F804005C2800F0CB805F28B1D026E046
:105A0000002124E00020BEF1000F20D05CF82040EF
:105A100040F29A539C424FF003044FF0030208BF38
:105A20000124BEF1010F214411D00CEB8000456828
:105A30009D4208BF0122BEF1020F114407D08068C9
:105A400040F29A520323904208BF01231944D9F827
:105A500024005AF80C4F08F0AFFA40F2EA308442C2
:105A600018D1D9F82400052108F012FCD9F8240037
:105A70000121002207F0FCFE01AA4846414602F03F
:105A8000AFF9D9F824000021022208F0CDF902B0C4
:105A9000BDE8F08701AA5046642112F0DDFB0646FE
:105AA000002863D0002500BF019850F82500002889
:105AB00000F07E8010F003017AD10179612977D15D
:105AC0008168D9F82400090908F0E2FB0135AE42EB
:105AD000EAD1D9F8240031460022002507F0C8FE9B
