:020000040800F2
:1000000048B9012031030008097D00086573000824
:10001000E57C0008012800089D9A00080000000007
:100020000000000000000000000000004303000882
:1000300025280008000000004D0400080304000803
:100040004B0300084B0300084B0300084B03000858
:100050004B0300084B0300084B0300084B03000848
:100060004B0300084B0300084B0300084B03000838
:100070004B0300084B0300084B0300084B03000828
:100080004B0300084B0300084B0300084B03000818
:100090004B0300084B0300084B0300084B03000808
:1000A0004B030008E99100084B0300084B030008CC
:1000B0004B0300084B0300084B0300084B030008E8
:1000C0004B0300084B0300084B0300084B030008D8
:1000D0004B0300084B030008F99900084B03000884
:1000E0004B0300084B0300084B0300084B030008B8
:1000F0004B0300084B0300084B0300084B030008A8
:100100004B0300084B0300084B0300084B03000897
:100110004B0300084B0300084B0300084B03000887
:100120004B0300084B0300084B0300084B03000877
:100130004B03000800000000000000004B03000813
:100140004B0300084B0300084B030008797D0008AF
:100150004B0300084B0300084B0300084B03000847
:100160004B0300084B0300084B0300084B03000837
:100170004B0300084B0300080000000000000000D3
:100180004B0300084B03000800F002F800F0C0F831
:1001900014A696E8000CB244B344DA4501D100F04D
:1001A000B7F8BAE80F000FA696E83000A5EB0405F3
:1001B00004EB0607AAEB0704A7F101074FEA1515A0
:1001C0004FEA3414A4F10104AC4201D300F0A0F8CA
:1001D00013F0010F18BFFB1A43F0010300F001F800
:1001E000DBE71847C04E0C00004F0C000A4410F823
:1001F000014B14F00F0508BF10F8015B240908BF7C
:1002000010F8014B6D1E05D010F8013B6D1E01F872
:10021000013BF9D1641E03D0641E01F8015BFBD1E0
:100220009142E4D37047000070470000002300248F
:1002300000250026103A28BF78C1FBD8520728BFF6
:1002400030C148BF0B6070476E2900F02F867029BF
:1002500000F08587662924F06388652924F060888A
:10026000672924F05D88612924F05C8803681B0AF3
:1002700028BF41F08001692900F0DC85642900F085
:10028000D985752900F0D6856F2900F01387782964
:1002900000F05187E92900F0AD86E42900F0AA8634
:1002A000F52900F0A786EF2900F01087F82900F063
:1002B00050870368DB0928BF41F08001632901F002
:1002C0007984732901F07E84E32901F08984F3297C
:1002D00001F08E84002070471FB5A3F063FF9DE8F6
:1002E000030000F0D7FC01F07FFD04000020002196
:1002F000A3F0D0FC401C606000200021A3F0B4FCFF
:10030000E06001F07DFC1FBD10B501F0E2FC10BD06
:1003100001F03DFD1146FFF7DFFF44F093F801F0D7
:10032000CBFF03B4FFF7F0FF03BC02F037F8000087
:100330000948804709480047FEE7FEE7FEE7FEE779
:10034000FEE7FEE7FEE7FEE7FEE7FEE704480549B5
:10035000054A064B70470000D59100088901000846
:1003600010F7012048B9012010F9012048B50120FB
:1003700094C2012048B9012000000008C8060020EE
:10038000001000E07FA219000000FF4000BF00BF86
:1003900072B65FF824005FF8241001F104010160D7
:1003A0004FF0E0205FF83010C0F8081D5FF834000F
:1003B0005FF83C10096801605FF83C00016841F09B
:1003C000010101604FF0E0205FF8481041614FF0FB
:1003D000070101614FF00001C0F8181D4FF07F4187
:1003E000C0F81C1D5FF86010C0F8201D7047FFF7B3
:1003F000FEBFFFF7FEBFFFF7FEBF01B5BDE801403E
:10040000704701B500F08CF8BDE801407047FFF778
:10041000FEBFFFF7FEBF000000000000000000006C
:100420004FF000002A4A1060EFF3148020F004001F
:1004300080F3148862B64FF080504FF0E021C1F88D
:10044000040DBFF34F8FBFF36F8FFEE72148224AA1
:100450004FF00003016891B10360EFF3098C2CE9C0
:10046000F00F1EF0100F01D12CED108A1B4C4CF830
:1004700004ED2568C1F808C00DB18D61236072B626
:100480001168B1B1016062B64F68144C8D6907F113
:1004900001074F602560D1F808C05CF804EB1EF03E
:1004A000100F01D1BCEC108ABCE8F00F8CF3098866
:1004B000704772B61168016009B962B6F9E74FF08A
:1004C00000674FF0E028C8F8047D62B6DCE77047AB
:1004D000ACC20120A8C201203C060020E00A002096
:1004E000026922F00702A2F144026FF002031360D6
:1004F0004FF0000353609360D360136153619361C5
:10050000D361136253629362D362136353634FF0F8
:10051000FF339363D1634FF080731364826070473D
:100520002249086800F101000860214B1A683AB1BD
:10053000A2F101021A601AB91E4B4FF001001860B7
:100540001D490868026822B11C4B4FF001021A6075
:1005500008E000F104001A4B1A68904201D1194BCF
:1005600018680860134B1A6812B914490868D0B1AA
:100570002DE901401149086808B10FF04BFC0D4B03
:100580001A6872B10FF0BAFB0F48016849B90F48F9
:1005900001680F4A13680F484FF08052994200D00B
:1005A0000260BDE80140BFF34F8F70474CC301208C
:1005B000E00A0020BCC20120B8C20120D006002001
:1005C000D4060020D8060020ACC20120A8C2012019
:1005D0003C06002004ED00E070B5A0FB01400021C6
:1005E000D4F1FF3271EB00003CBF002070BD20460B
:1005F00000F07FFB05001CBF214600F076FA28467C
:1006000070BD70B50446051F00F028FB0068002C83
:1006100014BF446870BD002C18BFAC423CBF2046DC
:100620006468F8D301680A18AA4218BF456003D16C
:100630002A6805461144016028684119A1421CBF7F
:100640006C6070BD6168696021680844286070BD95
:1006500053EA020C00F069802DE9F04B4FF00006E0
:10066000002B1FBFB3FA83F503FA05F424FA05F64D
:100670005E4012BF1643B2FA82F502FA05F4C5F1E4
:1006800020051EBF22FA05FC44EA0C04203556EA78
:10069000044C4FEA144418BF641C4FF000084FF09C
:1006A0000009904271EB030C39D3002919BFB1FA4C
:1006B00081F701FA07F6B0FA80F700FA07F6C7F1FA
:1006C00020071EBF20FA07FC46EA0C062037B6FBBF
:1006D000F4FCA7EB0507103F07F01F0BCBF120063A
:1006E0002CFA06F60CFA0BFB44BFB3460026202F6B
:1006F000A4BF5E464FF0000B5BEA060C08BF4FF04C
:10070000010B19EB0B0948EB0608ABFB027C06FB5F
:1007100002CC0BFB03CCC01B71EB0C01C1E70B46F9
:10072000024641464846BDE8F08B13B5084318BF62
:100730004FF0FF300146AFF30080BDE81C4070472A
:100740000FB4044910B503AA029800F0E3FB10BCF3
:100750005DF814FB38C101200FB41CB50C0007AACA
:10076000009007D04142A14202D32044401E01E044
:100770004FF0FF30074B7B4469460190069800F02C
:10078000AEFB0021002C01D0009A11701CBC5DF85A
:1007900014FB00008B070000401ECAB210F8011FB6
:1007A0008A4202D00029F9D10020704740EA0103B3
:1007B00010B59B070FD1042A0DD310C808C9121F0A
:1007C0009C42F8D020BA19BA884201D9012010BD44
:1007D0004FF0FF3010BD1AB1D30703D0521C07E011
:1007E000002010BD10F8013B11F8014B1B1B07D175
:1007F00010F8013B11F8014B1B1B01D1921EF1D1E6
:10080000184610BD10B5431C02E010F8011B71B171
:100810008107FAD14FF0013202C88C1A8C4314EAD6
:10082000C211F9D0C01A0A0603D0C01E10BDC01AEA
:1008300010BD0A0401D0801E10BD0902FCD0401E6C
:1008400010BD40EA010370B59B072ED14FF0013671
:10085000042A2AD308C810C99D1B9D43121F15EAFC
:10086000C61517D0D8B2E1B2401A50EA056110D1CE
:1008700098B2A1B2401A50EA05410AD123F07F4054
:1008800024F07F41401A50EA052102D1180EA0EB56
:10089000146070BDA342DBD018BA21BA884201D9D6
:1008A000012070BD4FF0FF3070BD0AB9002070BD4F
:1008B00010F8013B11F8014B63B1A3420AD1521E5B
:1008C00008D010F8013B11F8014B1BB1A34201D134
:1008D000521EEDD1181B70BD032A40F2308010F07B
:1008E000030C00F0158011F8013BBCF1020F6244CB
:1008F00098BF11F801CB00F8013B38BF11F8013B5C
:10090000A2F1040298BF00F801CB38BF00F8013B08
:1009100011F0030300F06780083AC0F0088051F836
:10092000043B083A51F804CBA0E80810F5E7121D83
:100930005CBF51F8043B40F8043BAFF30080D207A2
:1009400024BF11F8013B11F801CB48BF11F8012B6E
:1009500024BF00F8013B00F801CB48BF00F8012B91
:100960007047431A28BF9A427FF6B6AF104411442D
:10097000032A40F2268010F0030F1EBF11F8013D3C
:10098000521E00F8013D10F0030F7FF4F6AF11F096
:10099000030300F06D80083AC0F00B8051F8043D6D
:1009A000083A51F804CD40F8043D40F804CDFFF773
:1009B000F3BF121D5CBF51F8043D40F8043DAFF396
:1009C0000080D20724BF11F8013D11F801CD48BFC6
:1009D00011F8012C24BF00F8013D00F801CD48BFFB
:1009E00000F8012C704710B5203AC0F00B80B1E838
:1009F0001850A0E81850B1E81850A0E81850203A54
:100A0000BFF4F5AF5FEA027C24BFB1E81850A0E85C
:100A1000185044BF18C918C0BDE810405FEA827C76
:100A200024BF51F8043B40F8043B08BF7047D2078D
:100A300028BF31F8023B48BF11F8012B28BF20F82E
:100A4000023B48BF00F8012B7047431A28BF9A4267
:100A50007FF6C9AF1044114410F0030F1EBF11F808
:100A6000013D521E00F8013D10F0030F7FF4F6AF78
:100A7000103AC0F00A8010B531E9185020E918503A
:100A8000103ABFF4F9AFBDE81040530724BF31E975
:100A9000081020E9081044BF51F8043D40F8043D17
:100AA00012F0030F08BF7047D20728BF31F8023D8C
:100AB00048BF11F8012C28BF20F8023D48BF00F8BC
:100AC000012C704701B501F0FF03114643EA0322F0
:100AD00042EA024200F00BF801BD02F0FF0343EAD4
:100AE000032242EA024200F002B84FF00002042959
:100AF000C0F0128010F0030C00F01B80CCF1040C4D
:100B0000BCF1020F18BF00F8012BA8BF20F8022B80
:100B1000A1EB0C0100F00DB85FEAC17C24BF00F826
:100B2000012B00F8012B48BF00F8012B70474FF054
:100B3000000200B5134694469646203922BFA0E82D
:100B40000C50A0E80C50B1F12001BFF4F7AF090739
:100B500028BFA0E80C5048BF0CC05DF804EB89002A
:100B600028BF40F8042B08BF704748BF20F8022B6D
:100B700011F0804F18BF00F8012B704710B50446E4
:100B800010F0030F08BF11F0030F40F015804FF075
:100B9000013E121FC0F20E8051F8043BA3EB0E0C75
:100BA0002CEA030C1CEACE1C08BF40F8043BF0D032
:100BB000A1F1040102F10402521E08DB11F8013B0D
:100BC00000F8013B002BF7D11146FFF78EFF2046BE
:100BD00010BD00000000000030B44FF0013C50F8A0
:100BE000042B51F8043BCCFA52F4D51A20D1FCB9AD
:100BF00050F8042B51F8043BCCFA52F4D51A17D113
:100C0000B4B950F8042B51F8043BCCFA52F4D51A7D
:100C10000ED16CB950F8042B51F8043BCCFA52F4C5
:100C2000D51A05D1002CDAD030BC4FF00000704747
:100C300029BAB1FA81F111F01801D1F120008440F4
:100C4000F2D1CA40CB4012F0FF0213F0FF0330BCD8
:100C5000D01A7047704770477047000000487047CF
:100C600090020020704770477047704738B50446BF
:100C70000A4600206946AFF30080002808BF38BD4F
:100C800002460099204600F047FB012038BD0120B4
:100C900001F076B8F8B5AFF30080054600200C46A9
:100CA0000C2000BF0646A819A0420DD9324669465D
:100CB0000020AFF30080070008BF01F061F8009842
:100CC000A04218BF0546C419FFF7C8FF05600746D4
:100CD000F01D20F007004619284600F017FBB4422B
:100CE00008BFF8BDA21B31463868BDE8F84000F0E7
:100CF00013BB70B50646FFF7B1FF056806F10B00A0
:100D000020F00704B4429CBF002070BD2B466A68E7
:100D1000BAB11068A04210D304F1080188423CBF68
:100D20005068586007D35168101941601168091B59
:100D3000016058601460101D70BD13465268002A8F
:100D4000E7D121462846FFF791FF0028DED170BD8C
:100D5000004870470000002010B500F0D3FA00688A
:100D600010BD10B5044600F0CDFA046010BD70B59A
:100D7000044685690068C10601D5302600E02026BA
:100D8000C00707D070BDD4E9012130469047206AE2
:100D9000401C20626D1EF6D570BD70B50446856995
:100DA0000078C00707D170BDD4E901212020904709
:100DB000206A401C20626D1EF6D570BD09684A0588
:100DC00001D540B27047C905FCD500B2704709682B
:100DD0004A0501D5C0B27047C905FCD580B270473D
:100DE00070B50C460546012A05D02878800600D546
:100DF000EA69002302E0012305E05B1C934202D272
:100E0000E05C0028F9D1A869E618C01AA861286A30
:100E1000184428622846FFF7AAFF04E0D5E901211B
:100E200014F8010B9047B442F8D32846FFF7B5FFFA
:100E300070BD00002DE9F0410646002410687529B8
:100E4000314616A510D0FFF7B9FF002802DA40425C
:100E500013A507E031688A0701D512A502E049070A
:100E600004D511A5012401E0FFF7B1FF00210A22FA
:100E700006F1240709E0B0FBF2FCB0FBF2F302FB41
:100E80001C00303078541846491C0028F3D1234602
:100E90002A463046BDE8F04100F09DBA000000004F
:100EA0002D0000002B0000002000000011680268E7
:100EB000006A530501D508700AE0D30501D5088002
:100EC00006E0130603D5C217C1E9000200E008607E
:100ED0000120704701694A1C02610878704700B51B
:100EE0008FB0CDE901310021059105497944CDE963
:100EF00003101146684600F03DF90FB000BD000038
:100F0000E5FFFFFFD1E900239A4202D2531C0B6098
:100F100010707047074B70B50D467B44FFF7DFFF3D
:100F20000446284600F068FE10B14FF0FF3070BD57
:100F3000204670BDF12C0A002DE9FF5F15468A4658
:100F40000446DFF8AC80F8440027D8E900103E469C
:100F5000CDE9001010E03AF816106A4602A800F039
:100F6000EBFE411C07D02178890603D5E2693918C8
:100F700091420DD80744761C2078800602D5E0699E
:100F8000B84205DDAE42E6DB3AF816000028E2D1B1
:100F9000A069C01BA0612046FFF7E9FED8E9001058
:100FA000CDE90010002017E03AF818106A4602A8B0
:100FB00000F0C2FEB0F1FF3F81460BD000250DF1DD
:100FC000080B05E0D4E901211BF8050090476D1CD2
:100FD0004D45F7D308F10100B0428046E4DB206ABA
:100FE000384420622046FFF7D8FEBDE8FF9F00008E
:100FF000FA370A002DE9F0418046D21D22F007029F
:101000000025D2E90002F52915A614D0011E72F1BF
:10101000000106DA0023D0EB030063EB020211A605
:1010200008E0D8F800108B0701D50FA602E04907A9
:1010300001D50EA601251146002408F1240704E07D
:1010400000F084F930323A55641C50EA0102F7D1BD
:101050002B46324621464046BDE8F04100F0BBB980
:10106000000000002D0000002B0000002000000008
:1010700030B4002100F1240408E002F00705D20892
:10108000303542EA4372DB086554491C52EA0305D5
:10109000F3D10468002310A2250708D504F020042A
:1010A0000C4304D0C46901230CA2641EC46130BC8B
:1010B00000F091B910B5044621461068FFF787FE8D
:1010C00002462046BDE810400023D1E7D21D22F0A1
:1010D0000701D1E90023CBE7000000003000000049
:1010E000F0B40D460188090502D5214C7C4402E08C
:1010F0001F4C7C440E34002100F1240608E002F06D
:101100000F071209E75D42EA03721B097754491C75
:1011100052EA0307F3D102780023120704D5702D99
:1011200006D009B1022311342246F0BC00F053B9B5
:1011300001231034F8E770B504460D4621461068C7
:10114000FFF745FE024629462046BDE870400023D1
:10115000C6E7D21D22F00703D3E90023C0E70368E6
:10116000126843F0200303600823C3610023B7E73C
:101170005C360A002DE9F05F894604464FF0000A0C
:10118000DFF874B1FB44C0F820A02046E16888472E
:10119000002874D0252806D0D4E901219047206A80
:1011A000401C2062F1E700265F462046E168884740
:1011B0002028054607DB312D05D2781910F8200CC0
:1011C00008B10643F1E7B00701D526F00406C4F8DC
:1011D0001CA00027C4F818A02A2D09D02846A2F088
:1011E0000FFD38B304EB8708303DC8F8185019E0FC
:1011F00059F8041B204604EB87029161E168884797
:10120000012F054618D1E069002820DA26F02006D3
:101210001DE0D8F8180000EB800005EB40003038E6
:10122000C8F818002046E16888470546A2F0E8FCA7
:101230000028EED1012F0AD02E2D08D12046E168DA
:1012400088477F1C0546022F46F02006C4DBA069B4
:10125000002803DA404246F00106A061F00701D001
:1012600026F010066C2D0BD0682D09D04C2D39D0EE
:101270006A2D35D0742D35D07A2D33D016E038E074
:10128000E1682F4620468847B842054609D16C2FB1
:1012900026D04FF48060E168064320468847054623
:1012A00004E06C2F1AD04FF4807006430DB3A5F103
:1012B0004100192802D8203546F400664A462946DE
:1012C000204626604E46FEF7BFFF80B101280BD0B6
:1012D000F61D26F0070000F1080956E74020E4E774
:1012E0008020D8E70020D6E706F104094DE728461C
:1012F00052E7206ABDE8F09FEC350A0000487047CD
:101300008802002000487047880200200021016008
:10131000416070470C207047034640688C460028A7
:1013200018BF88423CBF03464068F8D31868184489
:10133000884207D00CF1030020F00700001D411A7D
:10134000521A0146081D0A60FFF75BB930B5B0F1CB
:101350000A0271F100034FEA900E4EEA817EB0EB73
:101360000E0061EB91014FEA101E4EEA017E10EB78
:101370000E0041EB11114FEA102E4EEA016E10EBF8
:101380000E0041EB11214FEA104E4EEA014E10EBD8
:101390000E0041EB1141401841F100014FEAD0002D
:1013A00040EA41704FEAD1014FEA810444EA907467
:1013B00010EB800544EB01046D1944EB0404521B4F
:1013C000A3414FF0000348BF0A3200D530BD401C96
:1013D00041F1000130BD2DE9F0470D469946924696
:1013E000044600F124080168880604D5E06921F06C
:1013F0001001216000E00120A84201DD471B00E050
:101400000027A1697A1902EB0900081AA061207867
:10141000C00602D42046FFF7AAFC002608E0D4E963
:1014200001211AF806009047206A401C761C2062B1
:101430004E45F4DB2078C0060AD52046FFF797FC1E
:1014400006E0D4E9012130209047206A401C206248
:10145000381EA7F10107F4DC07E0D4E9012118F8F0
:1014600005009047206A401C2062281EA5F1010556
:10147000F3DC2046FFF791FC2078000602D502201D
:10148000BDE8F0870120FBE72DE9FF4F0C461E4623
:101490004FF0FF378BB0D2E90001DDF860800A9091
:1014A0008A46C1F30A5505B93D46002108464FF06A
:1014B0000000BAF1000F00F4400005DA00EB8000F4
:1014C0004FF4400101EA50004FEA9059B9F1010F81
:1014D00000DDB9460A9850EA4A000ED044F6105092
:1014E000A5F2FF3545432F14B8F1000F1ED0754209
:1014F000291E1EDDC9F100021CE0B8F1010F4FF0FA
:10150000000001D0302103E0F24305E02154401CEB
:10151000B042FBDB30460022002121540B99C1F878
:101520000880C1E900200FB0BDE8F08FBD1B6D1C25
:10153000DEE74A4600DA694206A800F099FC06ABED
:1015400093E8070003AB83E8070050460A999EF032
:10155000EFFC8DE80700A0F500501F3800900398BD
:10156000002D0ADD42F21F014A460844002303A968
:10157000039068469EF058FF09E0A0F500504A46E7
:101580001F38002303A9039068469EF062FF8DE890
:1015900007000004000C03D04FF0FF30410800E0CA
:1015A0001046B8F1000F03D00022009215461EE04D
:1015B000751E05D4FFF7CAFE303262556D1EF9D58F
:1015C000B3460122084302D000227F1C04E02078A9
:1015D000302801D100227F1E002A099784D01DE007
:1015E000112D07DAFFF7B2FE303262556D1C50EA5A
:1015F0000102F5D1084302D00098C8B10EE00021E5
:10160000681E05E0235C625C63542254401E491C42
:101610008142F7DBAB46A81B401E0990002004F86E
:101620000B000B98099AC0F80880C0E9002B7AE7F4
:1016300011264FF0000857E72DE9F04F8846044681
:10164000D21D22F0070191B0D1E90001CDE90A01D4
:101650009FF036F802460B98C00F01D02D2007E00E
:101660002068810701D52B2002E0202101EAC0007B
:10167000032A099001D0072A05DB0346414620468C
:1016800000F0B6FB0BE12078800601D5E06900E0B0
:101690000620B8F1650F814606D0B8F1660F18D064
:1016A000B8F1670F70D131E00020B9F1110F00904F
:1016B00001DB112301E009F101030AAA01A90CA829
:1016C000FFF7E2FEDDE90C70002609F10105834613
:1016D00047E001204B4600904FF000470AAA01A9BD
:1016E0000CA8FFF7D1FEDDE90DB00C995D46002690
:1016F00010B909F101000D18B9EB050003D4C0F1D0
:10170000FF3609F10105A5EB09002BE0B9F1010F46
:1017100001DA4FF001090020B9F1110F009048469D
:1017200001DD112300E003460AAA01A90CA8FFF776
:10173000ABFEDDE90C704D4600268346207800079D
:101740000AD4AB4500DA5D4601A8012D04DD41193C
:1017500011F8011C302907D04F4502DA17F1040FA8
:1017600004DA012082460FE06D1EEEE7002F02DC56
:10177000ED1B3E4403E0781CA84200DD7D1CB81B35
:1017800000F1010A4FF000472078000703D4AA4572
:1017900001DB4FF0FF3A0021B7F1004F0DF1430894
:1017A0008DF8431024D002202B23002F01DA7F4232
:1017B0002D230A21021EA0F1010000DC5FB197FB7E
:1017C000F1FC97FBF1F201FB1C7C17460CF1300C8D
:1017D00008F801CDEEE7A8F10100037021880905A2
:1017E00001D5452100E06521A0F1010800F8011CA8
:1017F00009980FA9A1EB0807FF1D00B101204119AD
:1018000001EBEA70A1693844081A401EA0612078F3
:10181000C00602D42046FFF7AAFA099828B1D4E9F5
:1018200001219047206A401C20622078C00622D502
:101830002046FFF79CFA1EE0002E04DBB34502DDD4
:1018400001A8805D00E03020D4E901219047206AA2
:10185000401C2062761CAAF101005FEA000A0AD14E
:1018600000F0C2FAC0680168405CD4E901219047E9
:10187000206A401C2062281EA5F10105DCDC07E07F
:10188000D4E9012118F8010B9047206A401C20621E
:10189000381EA7F10107F3DC2046FFF77EFA03208C
:1018A00011B041E62DE9F04F04460D46D21D22F05D
:1018B000070089B0D0E90097484639469EF000FFFE
:1018C0000246F80F01D02D2307E02068810701D5DB
:1018D0002B2302E0202101EAC0038DF820300BB158
:1018E000012000E00020032A824601D0072A04DB01
:1018F0002946204600F07CFA3FE12078800601D49A
:101900000D2500E0E569C7F30A560D2D49DA0021DF
:101910004FEA175B08464FF00000002F00F440002C
:1019200007DA00EB80004FF4400100EBD07001EAD1
:1019300060008115012901DD4FF0FF3100224FEADF
:10194000850CBCF1180F06D31346ACF118004FF00C
:101950008052C24003E04FF4801323FA0CF30CF1E1
:101960000C0CBCF1200F04D3ACF1200C09FA0CF0E4
:1019700001E007FA0CF000294FF0004801DD18B92A
:101980000FE00ED140450CD319EB02095F4121B99C
:10199000404502D19F4329EA0209BBEB175F00D003
:1019A000761C2088000502D57B48784402E07A48FE
:1019B0007844193808AA302302F80A30037C0AF167
:1019C0000101002E0AF1020A53546A4602DC4FF06C
:1019D000300101E04FF031014FF001088DF80010A7
:1019E00002D0A6F2FF3603E059EA470100D06B4E61
:1019F000002D02DC2178090704D54FF002082E21C2
:101A00008DF80110C44600210BE0C7F303433F01EA
:101A1000C35C491C6D1E02F80830052908F1010855
:101A200001DA002DF1DC00210CE000EB1973491CF8
:101A30001B786D1E082902F808304FEA091908F1D1
:101A4000010801DA002DF0DC21688B0602D516E0D2
:101A5000A8F10108E04505DD02EB080313F8013C9D
:101A6000302BF5D0B8F1000F09DD02EB080313F8B5
:101A7000013C2E2B03D1090701D4A8F10108002D48
:101A800005DD3E2102F808106D1E08F10108407CBA
:101A9000002E02F8080008F1010804DA2D20764231
:101AA00002F8080002E02B2002F808000A214FF497
:101AB0007A70864208F101080BDB96FBF0F33033B5
:101AC00002F8083096FBF0F308F1010800FB1366FA
:101AD00001E0642E0CDB642096FBF0F3303302F857
:101AE000083096FBF0F308F1010800FB136601E0F3
:101AF0000A2E06DB96FBF1F0303002F8080008F100
:101B0000010896FBF1F001FB1060303002F808008C
:101B1000A16908F1010808EB050202EB0A00081AA6
:101B2000A0612078C00602D42046FFF720F9216A80
:101B300008AE01EB0A00206204E0D4E9012116F8A6
:101B4000010B9047BAF1010AF7D22078C00602D5FE
:101B50002046FFF70CF96E4609E016F8010B3E2807
:101B60000FD0D4E901219047206A401C2062B8F1CF
:101B70000108F2D22046FFF710F909B00320BDE8B2
:101B8000F08F206A2844206203E0D4E9012130204C
:101B900090476D1EEBD3F8E74D2E0A0002FCFFFFC5
:101BA00010B5436913B1AFF3008001E0FFF718F9F6
:101BB000012010BD127800F124010A7000224A7041
:101BC0000122EDE711684FF0FF32E9E710B54369F4
:101BD00013B1AFF3008001E0FFF7AEF9012010BDB3
:101BE000128800F1240182840022C2840122EDE7E0
:101BF00011684FF0FF32E9E7007B00F0800070478A
:101C000010B542485421FEF792FF41485421FEF797
:101C10008EFF40485421FEF78AFF3F493B483C4A2B
:101C20003F4B08603D490A603A491960531C0365FF
:101C3000481C1065012008653B48344A39A17844A6
:101C400000F09CFA20B9384878440A3800F042FB8A
:101C500037482F4A35A1784400F090FA20B934482B
:101C600078440A3800F036FB32482A4A2FA17844DB
:101C700000F084FA20B92F4878440A3800F02AFB93
:101C800040232248DC000021224600F054FA20B113
:101C900025487844543800F01DFB1D482246402357
:101CA000002100F048FA20B121487844543800F06F
:101CB00011FB184822461023002100F03CFA0028AE
:101CC00006D01C487844BDE81040563800F002BBEE
:101CD00010BD104870B5006D20F001040B4800F0F5
:101CE000C5FA0B4800F0C2FA0A4800F0BFFA09E052
:101CF000206D20F00105204600F0B8FA2046FEF7DE
:101D000080FC2C46002CF3D170BD0000E0010020C7
:101D100038C101203402002000C00120040000204E
:101D200004C0012072000000CC2B0A0077000000E4
:101D3000B82B0A00A42B0A002DE9F04116460C46E8
:101D4000054600F049F8036893F80101012807D01F
:101D5000FF2C12D8185D80B101202C70BDE8F081F5
:101D6000D3F807013246214603F20713C718284665
:101D7000BC46BDE8F041002360474FF0FF30EDE77F
:101D800010B500F0AFFABDE8104000F09EBA7546FD
:101D9000FFF7B4FAAE4605006946534620F0070047
:101DA000854618B020B5FEF7D1FABDE820404FF0C7
:101DB00000064FF000074FF000084FF0000BAC4654
:101DC000ACE8C009ACE8C009ACE8C009ACE8C0099F
:101DD00021F007018D46704710B500F005F8001D91
:101DE00010BD00BFB11E0A0000487047A8020020C5
:101DF0002DE9F0411F46044603260168072A01F435
:101E0000006004DB08B116A505E016A503E008B1E3
:101E100015A500E015A521F010002060A069C01EE6
:101E2000A0610FB1401EA0612046FEF7A0FF4FB198
:101E3000D4E9012138469047206A401C2062C01C2A
:101E4000206206E0206AFAE7D4E9012115F8010BC7
:101E50009047761EF8D22046FEF79FFFBDE8F0813E
:101E60004E414E006E616E00494E4600696E66003E
:101E70002DE9F047814616468AB0354878440DC8AA
:101E80008DE80D0032487844801C03AC0DC884E80E
:101E90000D0041F69B300844372190FBF1F290FB96
:101EA000F1F5A5F1800501FB12041B3C02D564424B
:101EB000012000E00020DFF898A080460027FA44C7
:101EC000AAF1BE0A0EE0E0070AD03246684607EBE8
:101ED000470101230AEB81019EF0BBFA8DE8070060
:101EE00064107F1C002CEED1194F7F44AE3F19E0E7
:101EF000E80715D007EB04100DF1180A90E80E0062
:101F00008AE80E00C068F04201D198190890324664
:101F1000012306A903A89EF09CFA03AB83E80700FF
:101F20006D10641C002DE3D14FF001033246694669
:101F3000B8F1000F03A802D09EF076FA01E09EF0FF
:101F400088FAC9E90001C9F808200AB0BDE8F0879D
:101F5000182A0A002DE9F05F054617460C46C868A6
:101F600020F4201040F48000C860800602D50846A6
:101F700000F0FBFAE06841F282014FF0FF3A0140C5
:101F8000022903D0204600F08DFAB9E000F4204188
:101F9000B1F5004F0FD1C00306D56168E06A8842F1
:101FA00000D80846606006E02069E0626060606911
:101FB00000F0EDF9A061A0680022EEB200280DDA71
:101FC000E1688B050AD4C043A06041F490302260E0
:101FD000E0606068411C61600670AAE0E0689146BC
:101FE000226040F40050E060206978BB606900F036
:101FF000C0F904F124054FF00108A8B1A08910F43C
:10200000407F08D0E069FEF774FE206118B1E068F7
:1020100040F4006017E0C4F81C802561E06820F4FB
:10202000407040F480600EE0E069FEF762FE002838
:102030002061F0D0E06840F4006010F4407FE06080
:1020400002D140F48070E06020696060E06825693A
:102050006FF0010BC1051ED56168E06A884200D8A7
:102060000846411B04D02246284600F025FAE8BB6A
:102070001FB1E562C4E9015959E0681CE062606083
:10208000E069401EA060E06840F48030E0603046C7
:102090002E70BDE8F09F17B100F480320AE060684E
:1020A000411C61600670E0680A2E40F48030E060F8
:1020B00006D00022E16A6068814203D90B4602E043
:1020C0000122F7E70346B4F80CC05B1B5FEA4C5CE7
:1020D00004D4D4F81CC09C4500DD02B3814200D872
:1020E0000146002BA1EB0008E56200E008E0C4E92E
:1020F000015907DD22461946284600F0DDF908B1EE
:102100005046C6E7B8F1000F09D0A169E5626560E5
:10211000A1EB0800A061E06840F01000E06047B16A
:102120006168A069E562491B08446560A061584682
:10213000AFE73046ADE770B5C468A50713D06502B8
:1021400011D4B2F5807F09D0B2F5007F06D0B2F588
:10215000806F08D1012300F1240106E05D1E6FF0BD
:102160007F46B54201D3012070BD0161C36141606A
:1021700024F470611143C160002070BD2DE9F0416D
:102180000C461646070047D0104600F06FF820783E
:10219000611C61280AD0722802D077283CD102E065
:1021A0000125002405E00225042402E0082448F269
:1021B000020511F8010B2B2806D0622809D011F86E
:1021C000010C74280AD00BE045F0030544F002042A
:1021D000EFE745F0040544F00104EAE744F0100499
:1021E0003846214600F0A6F8411C15D00021316187
:1021F00071604FF40071F560F1617061200704D5E2
:1022000030460222002100F0D1F8306D40F001008C
:1022100030653046BDE8F0810020FBE72DE9F04154
:102220000D460646104C206DC10704D0410804D06D
:1022300020F00104F7E722460EE05420FEF759FD96
:1022400007000ED0206D47F001010843542120659E
:102250003846FEF76CFC3A4629463046BDE8F04168
:102260008CE70020D6E70000E00100202DE9F047D0
:1022700004464FF0FF380026C568D4E90497A80744
:1022800018D0204600F04EF9384600F05DF80028DE
:1022900000DA4646280502D54846FEF7B2F94C2139
:1022A0002046FEF744FC206D20F0010020653046FA
:1022B000BDE8F0874046FBE710B50446AFF3008069
:1022C0002046BDE81040FEF72CB8002801D000F0F1
:1022D00065B8704710B500F083F9BDE81040FFF70E
:1022E000F4BF000010B5012805D0002103A000F0C4
:1022F0005DF9012010BD09A1F8E7000053494752DC
:10230000544D454D3A204F7574206F6620686561C5
:1023100070206D656D6F7279000000003A2048658D
:102320006170206D656D6F727920636F7272757068
:10233000746564000EB5CDE90001FEF763FA029002
:1023400069460120ABBE0EBD08B56946009002206B
:10235000ABBE08BD1FB58DE8070069460520ABBEC2
:1023600004B010BD1FB58DE80F0069460620ABBE56
:10237000F6E708B5694600900920ABBE08BD1CB55C
:10238000CDE9000169460A20ABBE1CBD704708B507
:10239000694600900C20ABBE08BD00000149182022
:1023A000ABBEFEE726000200704700002DE9F041B9
:1023B000044616460D464769007B80072ED03846F6
:1023C000FFF7D7FF50BB3EB3012E02D0022E25D11E
:1023D00004E0204600F025F905441DE03846FFF7EB
:1023E000D6FFE168002841F01001E16005DA2046DF
:1023F00000F058F80120BDE8F081C9030BD56268F0
:10240000E16A914200D81146A26911442269891AF1
:10241000814200DD08460544002D01DA0220EAE78A
:10242000E16A6068E268814206D29103E06203D506
:1024300022F4003141F01002A6690027AE4213DCFD
:10244000E16A814201D90B4600E0034603EB060C2A
:102450002369ACEB030CAC4506DD814201D98C4607
:1024600000E084469C4505D1A760276042F020002B
:10247000A5620DE0AD1BE669AE1B8142A66000D9E6
:102480000846C01A281A20605819606022F02000FF
:1024900003490840E060002084F84870ABE7000082
:1024A000BFCFD7FFC16821F4001141F08001C160A6
:1024B00000218160016070472DE9F74F15460C46F9
:1024C0004FF0FF3B3848D768D2F814A0074209D034
:1024D0005046A969FFF753FF002819DB3248C04373
:1024E0000740EF604FF000496FF000484C4501D3C2
:1024F000464600E0264600993B4650463246FFF7E6
:1025000029FFA96920F00042B21A1144A96128B13B
:102510002846FFF7C7FF5846BDE8FE8FA41BE5D14C
:102520000020F9E770B504460569C06A6168884211
:1025300000D80846E16821F42011E160C90312D5F2
:10254000A84208D02246411B2846FFF7B5FF10B12C
:102550004FF0FF3070BD0020E562C4E90150E06833
:1025600020F48030E060002070BD10B50446C068E3
:1025700020F02000E060A16AA06988420DD02046CA
:10258000FFF7D0FFE06820F4405040F01000E0601A
:10259000A06AA0612069E062606044F24001E068E6
:1025A0008843E06010BD00001000020070B50546D1
:1025B0000C460A2000E06D1C00F02CF835B128789C
:1025C0000028F8D102E0641C00F024F814B120784F
:1025D0000028F8D1BDE870400A2000F01BB80000C8
:1025E00010B5014602A0FFF7E1FF012010BD000079
:1025F00053494752545245443A20526564697265C2
:1026000063743A2063616E2774206F70656E3A20A0
:102610000000000008B569468DF800000320ABBE3D
:1026200008BD10B50146C268900703D0900607D5D3
:10263000886A0AE0FEF766FE01210160881E10BD6F
:102640008B69486818440B69C01A91F848301BB16F
:1026500091F84910401A10BD1103FCD50028FADD8D
:10266000401E10BD80B5AEB02D9000232C932D9848
:102670002B906946B0208861012048610B61C860D9
:1026800088604FF4806048604AF69070C2F20100A2
:1026900008604AF6E060C2F201004CF22701C0F681
:1026A0000B0146F6D952C0F609020DF0C9FE2C9076
:1026B0002C98B8B1FFE74CF25901C0F60B010DF1AF
:1026C00085000A902722FEF707F90A98FEF79AF884
:1026D0000A9982B24DF25820C2F20100642304F03C
:1026E0007DFDFFE769463420086042F21040C2F2E7
:1026F00000004CF21001C0F60B014AF23452C2F253
:1027000000024FF480630DF0E1FD2C906946B0208B
:1027100088610120486100230B610220C860886045
:102720004FF4004048604AF63810C2F200000860DA
:102730004EF61050C2F201004CF2AF01C0F60B0190
:1027400046F6ED52C0F609020DF07AFE2C902C9858
:10275000B8B1FFE74CF28001C0F60B010DF1560055
:1027600009902F22FEF7B8F80998FEF74BF809995F
:1027700082B24DF25820C2F20100642304F02EFD13
:10278000FFE76946B02088610120486100230B61A2
:102790000320C86088604FF4806048604EF6C050E7
:1027A000C2F2010008604BF29030C2F201004CF21C
:1027B0001C01C0F60B0146F61962C0F609020DF0C5
:1027C0003FFE2C902C98B8B1FFE74CF23201C0F6D6
:1027D0000B010DF12F0008902722FEF77DF80898D5
:1027E000FEF710F8089982B24DF25820C2F20100AB
:1027F000642304F0F3FCFFE72C982EB080BD0000AA
:1028000080B572B64CF2E600C0F60B0036F082FDE1
:102810004CF29F10C0F60B0036F098FB36F04EFBE2
:10282000FFE7FEE77047000080B59AB01890179157
:1028300016920EA9049106AA05921798169B84F089
:10284000E3F903901898DDF858E00EF14401039A7B
:10285000B2FA82F2530904AA52F82320BEF80230D9
:102860000133EC46CCF804E01BB2CCF80030002376
:1028700000F01EF81898169900F00CF818B1FFE750
:102880000020199002E001201990FFE719981AB072
:1028900080BD000080B582B0019000910198009940
:1028A0000978490049B297F03DF802B080BD0000B8
:1028B00010B5BCB084463F983E98CDF8ECC03A9134
:1028C00039923893ADF8DE003F9800788DF83300E8
:1028D00027A80A90203008903A999DF9332097F064
:1028E00091FB17A80B90203009903A999DF933205D
:1028F00001EB820197F086FB089809990A9A0B9BD5
:10290000DDF8E0C03F9CEE46CEF80440CEF800C0B3
:1029100007F02AFABDF8DE000238ADF83A00FFE70A
:10292000BDF93A0001283CDBFFE73998BDF93A10C0
:1029300097F0D2FBB0FA80F040090D90DDF834C07A
:10294000CCF1010127AA069202EB411017AB0793C5
:1029500003EB411102EB4C1203EB4C13DDF8FCC00E
:10296000EE46CEF800C007F037F9069A079BDDF86F
:1029700034C002EB4C1003EB4C11CCF1010C02EB18
:102980004C1203EB4C13DDF8FCC0EE46CEF800C051
:1029900007F096F8FFE7BDF83A000138ADF83A00C5
:1029A000BEE73998002197F097FBB0FA80F0400914
:1029B0000D90DDF834C0CCF1010127AA049202EB9E
:1029C000411017AB059303EB411102EB4C1203EBE3
:1029D0004C13DDF8FCC0EE46CEF800C007F0FCF862
:1029E000049A02F120013F98031D9DF93300EC4643
:1029F000CCF800000FA8039097F0BAF90399059856
:102A00000D9AC2F1010200EB42123F9B084697F07B
:102A100089F903993A9A3F9B084697F083F90399FD
:102A20003F98021D9DF93330084697F0B3F803999B
:102A30003A989DF9332000EB82023F9B084697F0BD
:102A400071F9039904980D9AC2F1010200EB421248
:102A50003F9B084697F066F9049A059BDDF834C061
:102A600002EB4C1003EB4C11CCF1010C02EB4C12BD
:102A700003EB4C13DDF8FCC0EE46CEF800C007F0C7
:102A80001FF8039A049805993F9B0EF083F9049967
:102A90003B989DF9332097F0B5FA05993B989DF93D
:102AA000332000EB820097F0ADFA3CB010BD00007F
:102AB00080B588B072B643F64000C4F202000068E8
:102AC000800300280AD5FFE744F20C40C4F200005E
:102AD00000688004002800F18B80FFE743F6300196
:102AE000C4F20201086840F00100086043F64001AA
:102AF000C4F20201086840F400300860BFF34F8F51
:102B0000BFF36F8F0021C4F2020108680A2262F34A
:102B1000071008602021C4F202010868772262F3DE
:102B20000F2008600821C4F20201086840F0F0009C
:102B300008600C21C4F20201086820F0F00008606F
:102B400040F25000C2F200000068079043F608000F
:102B5000C4F202000068C0F38220069006980328A1
:102B600003D8FFE70120059007E0069944F67410AA
:102B7000C0F60A00405C0590FFE7059830B9FFE712
:102B800042F20040C0F2F400009005E00798059979
:102B9000B0FBF1F00090FFE7009804904FF4E130B3
:102BA000039044F20C41C4F200010020086044F29A
:102BB0001042C4F20002106044F21442C4F2000257
:102BC0001060049800F561404BF2C532C9F2A212C0
:102BD000A0FB0220000C44F20842C4F20002106084
:102BE00042F20C000860BFF34F8FBFF36F8FFFE717
:102BF0004CF20000C0F60B000290FFE7029800784C
:102C000040B3FFE743F64000C4F2020000688003CF
:102C1000002809D5FFE744F20C40C4F20000006828
:102C20008004002801D4FFE714E0FFE744F20040ED
:102C3000C4F2000000680006002801D4FFE7F5E7B1
:102C40000298411C0291007844F20441C4F2000150
:102C50000860D3E743F64000C4F202000068800336
:102C6000002815D5FFE744F20C40C4F200000068CC
:102C7000800400280CD5FFE7FFE744F20040C4F2CF
:102C8000000000684006002801D4FFE7F5E7FFE7F1
:102C9000FFE740F20040C4F20200102100F028FEDD
:102CA00000200190FFE701984AF21F11C0F20701CE
:102CB000884206D8FFE700BFFFE701980130019086
:102CC000F1E7E6E783B002908DF80710002000904E
:102CD0009DF8070018B9FFE70020009017E09DF865
:102CE0000700012804D1FFE74FF4807000900DE049
:102CF0009DF80700022804D1FFE74FF40070009010
:102D000003E04FF440700090FFE7FFE7FFE743F672
:102D10001041C4F20201086820F440700860009A73
:102D2000086810430860086820F078000860029A7C
:102D3000086840EAC20040F002000860086840F4F9
:102D40008030086003B0704743F60040C4F20200D0
:102D50000068800500281FD5FFE743F60041C4F254
:102D60000201086820F400700860FFE743F60041A4
:102D7000C4F20201086840F400600860086820F4AA
:102D800000600860FFE743F60041C4F202010868F2
:102D900040F400700860FFE743F60040C4F2020010
:102DA0000068400500281FD5FFE743F60041C4F244
:102DB0000201086820F480600860FFE743F60041E4
:102DC000C4F20201086840F480500860086820F4EA
:102DD00080500860FFE743F60041C4F20201086832
:102DE00040F480600860FFE77047000082B08DF813
:102DF0000700009143F61041C4F20201086820F474
:102E000040700860086840F0040008609DF80720E2
:102E1000086840EA022040F48030086002B0704741
:102E200082B001908DF8031043F61041C4F2020104
:102E3000086820F44070086008680860086840F07E
:102E4000010008609DF803000199087002B0704706
:102E500084B003900193009243F61041C4F2020142
:102E6000086820F440700860086840F4407008600A
:102E7000086840F001000860009803990860BFF3FB
:102E80006F8F01980399486004B0704782B0019039
:102E9000ADF8021043F61041C4F20201086820F4B4
:102EA00040700860086840F480700860086840F06E
:102EB00001000860BDF802000199088002B0704767
:102EC00082B00190009143F61041C4F202010868FB
:102ED00020F440700860086840F4007008600868DA
:102EE00040F00100086000980199086002B0704746
:102EF00043F60C40C4F202000068C00600280FD55B
:102F0000FFE740F20811C2F20001C86940F010006A
:102F1000C86143F60C41C4F2020110200860FFE7CB
:102F200043F60C40C4F202000068800600280FD56A
:102F3000FFE740F20811C2F20001C86940F0080042
:102F4000C86143F60C41C4F2020120200860FFE78B
:102F500043F60C40C4F202000068400600280FD57A
:102F6000FFE740F20811C2F20001C86940F0040016
:102F7000C86143F60C41C4F2020140200860FFE73B
:102F800043F60C40C4F202000068000600280FD58A
:102F9000FFE740F20811C2F20001C86940F00200E8
:102FA000C86143F60C41C4F2020180200860FFE7CB
:102FB00043F60C40C4F202000068800700280FD5D9
:102FC000FFE740F20811C2F20001C86940F020009A
:102FD000C86143F60C41C4F2020102200860FFE719
:102FE0007047000080B584B002900020019040F24C
:102FF0000811C2F20001C86100F0A6FC0190FFE7D1
:1030000043F60C40C4F202000068C003002815D546
:10301000FFE70298013080B1FFE7029840B1FFE777
:1030200000F092FC0199401A0299884204D9FFE706
:1030300003208DF80F0023E0FFE7E1E743F60C40A3
:10304000C4F202000068C00738B1FFE743F60C4144
:10305000C4F2020101200860FFE743F60C40C4F20D
:103060000200006810F0F20F06D0FFE7FFF740FF04
:1030700001208DF80F0003E000208DF80F00FFE71E
:103080009DF80F0004B080BD80B584B0039000F0BF
:103090005BFC0290039801900198013048B1FFE772
:1030A00040F2C010C2F2000001780198084401907B
:1030B000FFE7FFE700F048FC0299401A01998842B7
:1030C00001D2FFE7F6E704B080BD000080B586B00E
:1030D0000490039100200190FFE740F20810C2F233
:1030E0000000007E012804D1FFE702208DF81700C0
:1030F0006CE040F20811C2F2000101200876FFE7FF
:10310000FFE74CF25030FFF76DFF8DF80B009DF894
:103110000B0000284DD1FFE703994FF0FF30086006
:1031200004980068012814D1FFE70499087C4968D5
:10313000FFF75CFE4CF25030FFF754FF8DF80B00A8
:1031400043F61041C4F20201086820F00400086050
:103150002CE0049880680190FFE7019804998A6840
:10316000C9681144884220D2FFE701980499097C7C
:10317000FFF7A8FD4CF25030FFF734FF8DF80B003D
:1031800043F61041C4F20201086820F07A0008609A
:103190009DF80B0020B1FFE701980399086004E057
:1031A000FFE7019801300190D7E7FFE7FFF7CCFD7B
:1031B000FFE7FFE740F20811C2F2000100200876A5
:1031C000FFE79DF80B008DF81700FFE79DF817004B
:1031D00006B080BD43F61041C4F20201086840F019
:1031E000004008600020704780B588B006900591C7
:1031F00003930292FFE740F20810C2F20000007E43
:10320000012804D1FFE702208DF81F0051E040F2B1
:103210000811C2F2000101200876FFE7FFE74CF237
:103220005030FFF7DFFE8DF807009DF8070098BBD0
:10323000FFE7069830B9FFE705989DF80810FFF7FB
:10324000EFFD1AE00698012806D1FFE70598BDF8C2
:103250000810FFF71BFE0FE00698022805D1FFE7D4
:1032600005980299FFF72CFE05E00598029A039B4A
:10327000FFF7EEFDFFE7FFE7FFE74CF25030FFF707
:10328000B1FE8DF8070043F61041C4F20201086850
:1032900020F001000860FFE7FFE740F20811C2F2EA
:1032A000000100200876FFE79DF807008DF81F0059
:1032B000FFE79DF81F0008B080BD000081B000202E
:1032C0008DF8030043F61040C4F202000068C00FFE
:1032D000D8B1FFE743F60441C4F2020140F22310E3
:1032E000C4F26750086048F6AB10CCF6EF500860A7
:1032F00043F61040C4F202000068C00F20B1FFE79F
:1033000001208DF80300FFE7FFE79DF8030001B0FF
:10331000704700008EB00D900C9100200A9009902B
:1033200008900B90FFE70B980F2800F20381FFE74E
:103330000B99012088400A900C980A99084009903E
:1033400009980A99884240F0F080FFE70B9820F036
:10335000030043F60801C4F20101405808900B989D
:1033600000F0030081000F2000FA01F108980840E6
:103370000890089807900D980021C4F20201884235
:1033800003D1FFE7002006905EE00D9840F2004177
:10339000C4F20201884203D1FFE70120059050E00A
:1033A0000D9840F60001C4F20201884203D1FFE704
:1033B0000220049042E00D9840F60041C4F2020160
:1033C000884203D1FFE70320039034E00D9841F2D7
:1033D0000001C4F20201884203D1FFE704200290F9
:1033E00026E00D9841F20041C4F20201884203D167
:1033F000FFE70520019018E00D9841F60001C4F2A6
:103400000201884203D1FFE7062000900AE00D99EF
:1034100041F60042C4F202020820914208BF072090
:103420000090FFE700980190FFE701980290FFE706
:1034300002980390FFE703980490FFE70498059033
:10344000FFE705980690FFE707980699C9B20B9A1F
:1034500002F0030292009140884233D1FFE7099ABB
:1034600043F60041C4F20101086890430860099ADC
:1034700043F60441C4F20101086890430860099AC8
:1034800043F60C41C4F20101086890430860099AB0
:1034900043F60841C4F201010868904308600B98A4
:1034A00000F0030081000F2088400890089B0B98D3
:1034B00020F0030143F60802C4F201028858984341
:1034C0008850FFE70B984100032000FA01F30D9AA2
:1034D000116899431160DDF82CC00CF007018A00D7
:1034E0000F2101FA02F30D996FF0030202EA5C0268
:1034F0000A44116A994311620B99490000FA01F3D9
:103500000D9AD1689943D1600B9A012101FA02F317
:103510000D9A5168994351600B99490000FA01F2E4
:103520000D99886890438860FFE7FFE70B980130AA
:103530000B90F8E60EB070478EB00D900C91002005
:103540000A90099008900B90FFE70B980F2800F263
:10355000CC81FFE70B99012088400A900C98006805
:103560000A990840099009980A99884240F0B88160
:10357000FFE70C98406800F00300012807D0FFE740
:103580000C98406800F0030002282FD1FFE70D9847
:10359000806808900B984100032000FA01F1089818
:1035A000884308900C98C0680B99490000FA01F113
:1035B00008980843089008980D9988600D9840680D
:1035C00008900B99012000FA01F1089888430890AF
:1035D0000C984068C0F300100B9900FA01F10898AC
:1035E0000843089008980D994860FFE70C984068D8
:1035F00000F00300032818D0FFE70D98C06808907A
:103600000B984100032000FA01F1089888430890C4
:103610000C9880680B99490000FA01F1089808435A
:10362000089008980D99C860FFE70C98406800F072
:103630000300022826D1FFE70D980B996FF00302D3
:1036400002EA51010844006A08900B9800F0070054
:1036500081000F2000FA01F10898884308900C9827
:1036600000690B9901F00701890000FA01F108983F
:103670000843089008980D990B9B02EA53021144E5
:103680000862FFE70D98006808900B98410003203E
:1036900000FA01F10898884308900C98406800F0FF
:1036A00003000B99490000FA01F1089808430890BB
:1036B00008980D9908600C9880798007002800F020
:1036C0000E81FFE7FFE70020079043F64400C4F2B5
:1036D0000200016841F480410160006800F480400C
:1036E00007900798FFE70B9820F0030043F60801C6
:1036F000C4F20101405808900B9800F003008100CB
:103700000F2000FA01F10898884308900D980021D5
:10371000C4F20201884203D1FFE7002006905EE078
:103720000D9840F20041C4F20201884203D1FFE744
:103730000120059050E00D9840F60001C4F202010E
:10374000884203D1FFE70220049042E00D9840F642
:103750000041C4F20201884203D1FFE70320039035
:1037600034E00D9841F20001C4F20201884203D115
:10377000FFE70420029026E00D9841F20041C4F2D8
:103780000201884203D1FFE70520019018E00D985F
:1037900041F60001C4F20201884203D1FFE706208E
:1037A00000900AE00D9941F60042C4F2020208209E
:1037B000914208BF07200090FFE700980190FFE7C3
:1037C00001980290FFE702980390FFE703980490A6
:1037D000FFE704980590FFE705980690FFE7069835
:1037E000C0B20B9901F00301890000FA01F10898B9
:1037F0000843089008980B9921F0030143F608024A
:10380000C4F20102885043F60840C4F20100006887
:10381000089009990898884308900C988079C00608
:10382000002805D5FFE70999089808430890FFE7A5
:10383000089843F60841C4F20101086043F60C40C1
:10384000C4F201000068089009990898884308901C
:103850000C9880798006002805D5FFE7099908981B
:1038600008430890FFE7089843F60C41C4F20101B1
:10387000086043F60440C4F201000068089009990A
:103880000898884308900C9880798007002805D50F
:10389000FFE70999089808430890FFE7089843F65E
:1038A0000441C4F20101086043F60040C4F2010083
:1038B0000068089009990898884308900C988079C6
:1038C000C00728B1FFE70999089808430890FFE767
:1038D000089843F60041C4F201010860FFE7FFE7E2
:1038E000FFE70B9801300B902FE60EB070470000F9
:1038F00083B00290ADF80610029840690090009ADB
:10390000BDF8060002EA0001904340EA0140029936
:10391000886103B07047000082B00190ADF80210DA
:103920008DF801209DF8010028B1FFE7BDF80200E5
:103930000199886105E0BDF80200000401998861E1
:10394000FFE702B0704700004FF24C60C2F2010086
:103950000068704780B58EB00C900C9820B9FFE7D6
:1039600001208DF8370043E10C9890F83D0040B9F4
:10397000FFE70C99002081F83C000C9800F05CFCFB
:10398000FFE70C99242081F83D000C980168086835
:1039900020F0010008600C980168086840F40040BD
:1039A00008600C980168086820F40040086000F086
:1039B00093FE0A900C98406848F2A061C0F20101A1
:1039C00088420BD8FFE70A9948F28042C0F21E02F3
:1039D0000020914238BF012009900AE00A9940F680
:1039E0000012C0F23D020020914238BF0120099030
:1039F000FFE70998012804D1FFE701208DF837007F
:103A0000F6E00A984DF68361C4F21B31A0FB011069
:103A1000800C0B900C980068406820F03F000B99D8
:103A200008430C99096848600C980068006A20F007
:103A30003F0008900C98406848F2A061C0F2010174
:103A4000884204D8FFE70B98013007900EE00B98EE
:103A50004FF49671484344F6D351C1F26201A0FB82
:103A60000101012000EB91100790FFE708980799EA
:103A700008430C99096808620C980068C0694CF604
:103A8000FF71884306900C98406848F2A061C0F22C
:103A9000010188421FD8FFE70A9801380C9949684C
:103AA0004900B0FBF1F001306FF31F30032803D859
:103AB000FFE7042005900BE00A9801380C9949684B
:103AC0004900B0FBF1F001306FF31F300590FFE7C4
:103AD000059804904CE00C98806868B9FFE70A9854
:103AE00001380C99496801EB4101B0FBF1F001305C
:103AF0006FF31F3003900DE00A9801380C99496864
:103B000019225143B0FBF1F00130042161F31F3061
:103B10000390FFE70398000518B9FFE70120029022
:103B200023E00C98806868B9FFE70A9801380C997F
:103B3000496801EB4101B0FBF1F001306FF31F3038
:103B400001900DE00A9801380C99496819225143F7
:103B5000B0FBF1F00130042161F31F300190FFE769
:103B6000019840F400400290FFE702980490FFE7BC
:103B70000698049908430C990968C8610C98006874
:103B8000006820F0C0000C9B1968DA691B6A1A43B0
:103B9000104308600C980068806848F2FF31884341
:103BA0000C9A1168D36812691A43104388600C9804
:103BB0000068C06820F0FF000C9B19685A699B6977
:103BC0001A431043C8600C980168086840F001006F
:103BD00008600C99002008640C9A202182F83D109E
:103BE0000C9908630C9981F83E008DF83700FFE7C7
:103BF0009DF837000EB080BD80B58CB0DDF838C0C0
:103C00000A90ADF826100892ADF81E30FFF79CFE22
:103C100006900A9890F83D00202840F0FE81FFE7CA
:103C20000A9806996A4611600221C0F21001012229
:103C3000192303F08DFD20B1FFE702208DF82F003E
:103C4000EFE1FFE70A9890F83C00012804D1FFE774
:103C500002208DF82F00E4E10A99012081F83C0050
:103C6000FFE7FFE70A980068006800F001000128FC
:103C700007D0FFE70A980168086840F00100086073
:103C8000FFE70A980168086820F4006008600A9954
:103C9000222081F83D000A99102081F83E000A99FF
:103CA0000020086408980A994862BDF81E000A9925
:103CB00048850A98408D0A9908850A990020CFF610
:103CC000FF70C8620A98BDF826100E9A069B03F092
:103CD00089FB20B1FFE701208DF82F00A1E10A98B0
:103CE000008DA0B9FFE7FFE7002005900A98006863
:103CF000406905900A980068806905900598FFE77B
:103D00000A980168086840F40070086053E00A9857
:103D1000008D01281AD1FFE70A980168086820F48D
:103D200080600860FFE7002004900A9800684069FE
:103D300004900A980068806904900498FFE70A9844
:103D40000168086840F40070086033E00A98008D4C
:103D500002281AD1FFE70A980168086820F48060F9
:103D600008600A980168086840F400600860FFE78E
:103D7000002003900A980068406903900A98006840
:103D8000806903900398FFE713E00A9801680868C8
:103D900040F480600860FFE7002002900A98006805
:103DA000406902900A980068806902900298FFE7D3
:103DB000FFE7FFE7FFE7FFE70A98008D002800F024
:103DC0001A81FFE70A98008D032800F2CC80FFE7F4
:103DD0000A98008D01281ED1FFE70A980E99069ACD
:103DE00003F0E4FD20B1FFE701208DF82F0018E17A
:103DF0000A98006800690A99496A08700A99486A2D
:103E0000013048620A99088D013808850A99488D61
:103E100001384885A6E00A98008D02283CD1FFE7CA
:103E20000A980E9B06996A4611600421C0F20101AE
:103E3000002203F08DFC20B1FFE701208DF82F0058
:103E4000EFE00A980168086840F4007008600A987A
:103E5000006800690A99496A08700A99486A01303D
:103E600048620A99088D013808850A99488D0138F9
:103E700048850A98006800690A99496A08700A9991
:103E8000486A013048620A99088D013808850A9904
:103E9000488D0138488564E00A980E9B06996A4669
:103EA00011600421C0F20101002203F051FC20B195
:103EB000FFE701208DF82F00B3E00A980168086839
:103EC00020F4806008600A98006800690A99496ACD
:103ED00008700A99486A013048620A99088D0138C9
:103EE00008850A99488D013848850A980E9B0699DD
:103EF0006A4611600421C0F20101002203F028FC8F
:103F000020B1FFE701208DF82F008AE00A980168B0
:103F1000086840F4007008600A98006800690A990F
:103F2000496A08700A99486A013048620A99088DFE
:103F3000013808850A99488D013848850A98006833
:103F400000690A99496A08700A99486A013048620A
:103F50000A99088D013808850A99488D01384885E5
:103F6000FFE7FFE746E00A980E99069A03F01EFD68
:103F700020B1FFE701208DF82F0052E00A98006879
:103F800000690A99496A08700A99486A01304862CA
:103F90000A99088D013808850A99488D01384885A5
:103FA0000A980068406900F004010120B0EB910F0D
:103FB0001FD1FFE70A98008D032807D1FFE70A9871
:103FC0000168086820F480600860FFE70A980068CC
:103FD00000690A99496A08700A99486A013048627A
:103FE0000A99088D013808850A99488D0138488555
:103FF000FFE7FFE7E0E60A99202081F83D000A99F3
:10400000002081F83E00FFE70A99002081F83C007B
:10401000FFE700208DF82F0003E002208DF82F002D
:10402000FFE79DF82F000CB080BD000080B588B080
:10403000DDF828C00690ADF816100492ADF80E30E9
:10404000FFF782FC0290069890F83D00202840F08F
:10405000EB80FFE7069802996A4611600221C0F2E0
:1040600010010122192303F073FB20B1FFE70220A6
:104070008DF81F00DCE0FFE7069890F83C0001286F
:1040800004D1FFE702208DF81F00D1E0069901203E
:1040900081F83C00FFE7FFE706980068006800F041
:1040A0000100012807D0FFE706980168086840F082
:1040B00001000860FFE706980168086820F40060C6
:1040C00008600699212081F83D000699102081F8AA
:1040D0003E00069900200864049806994862BDF8DD
:1040E0000E00069948850698408D06990885069920
:1040F0000020CFF6FF70C8620698BDF816100A9A25
:10410000029B03F045FA20B1FFE701208DF81F0064
:104110008EE0FFE70020019006980068406901905A
:1041200006980068806901900198FFE7FFE706980C
:10413000008D002860D0FFE706980A99029A03F0E4
:10414000A3FC80B1FFE70698006C042807D1FFE7C5
:1041500006980168086840F400700860FFE70120D5
:104160008DF81F0064E006980168406A00780861D5
:104170000699486A013048620699488D0138488599
:104180000699088D0138088506980068406900F096
:1041900004010120B0EB910F16D1FFE70698008DC6
:1041A00090B1FFE706980168406A007808610699B7
:1041B000486A013048620699488D01384885069959
:1041C000088D01380885FFE706980A99029A03F0DE
:1041D00069FA80B1FFE70698006C042807D1FFE771
:1041E00006980168086840F400700860FFE7012045
:1041F0008DF81F001CE09AE706980168086840F4F3
:10420000007008600699202081F83D000699002082
:1042100081F83E00FFE70699002081F83C00FFE7A7
:1042200000208DF81F0003E002208DF81F00FFE73B
:104230009DF81F0008B080BD81B0009001B07047AC
:1042400040F2C010C2F2000002784FF24C61C2F29C
:1042500001010868104408607047000080B543F60B
:104260000041C4F20201086840F400700860086868
:1042700040F480600860086840F4807008600320A3
:1042800000F0C0F80F2000F005F800F071F80020F1
:1042900080BD000080B58CB00B900020059004908C
:1042A000FFE70020019043F64400C4F202000168D9
:1042B00041F001010160006800F0010001900198E7
:1042C000FFE706A803A900F0D7F900F017FA4000AD
:1042D000059005984DF68361C4F21B31A0FB0101E6
:1042E0004FF0FF3000EB914004904AF2E040C2F200
:1042F00000000021C4F20101016040F2E731C16019
:1043000004994160002101618160816102F01AFA23
:104310008DF80B009DF80B0028BBFFE74AF2E04048
:10432000C2F2000002F060FA8DF80B009DF80B005D
:10433000C0B9FFE7192000F041F80B980F280CD8FE
:10434000FFE70B991920002200F042F80B9840F289
:10435000C411C2F20001086003E001208DF80B00D7
:10436000FFE7FFE7FFE79DF80B000CB080BD000002
:1043700082B0FFE70020019043F64400C4F202003F
:10438000016841F480410160006800F480400190C0
:104390000198FFE7FFE70020009043F64000C4F2D9
:1043A0000200016841F080510160006800F0805017
:1043B00000900098FFE702B07047000080B582B01F
:1043C0008DF807009DF9070005F048FE02B080BD9A
:1043D00080B586B08DF817000491039200200290FA
:1043E00005F06CFE02909DF9170001900298049967
:1043F000039A03F08BFC0146019805F067FE06B0B6
:1044000080BD000080B582B00190019805F080FE6B
:1044100002B080BD80B584B002900191029820B9AD
:10442000FFE701208DF80F0021E1019843F60041DC
:10443000C4F20201096801F00701884212D9FFE7BE
:10444000019943F60040C4F202000170006800F0D8
:1044500007000199884204D0FFE701208DF80F0082
:1044600005E1FFE702980078800700282AD5FFE7DA
:10447000029800784007002809D5FFE743F60801B5
:10448000C4F20201086840F4E0500860FFE70298B7
:1044900000780007002809D5FFE743F60801C4F2B9
:1044A0000201086840F460400860FFE743F6080135
:1044B000C4F20201086820F0F000029A92681043EA
:1044C0000860FFE702980078C00700286ED0FFE779
:1044D00002984068012811D1FFE743F60000C4F2BA
:1044E0000200006800F400310020B0EB514F04D10D
:1044F000FFE701208DF80F00B9E02CE0029840683A
:10450000022805D0FFE702984068032811D1FFE791
:1045100043F60000C4F20200006800F000710020C1
:10452000B0EB516F04D1FFE701208DF80F009EE042
:1045300010E043F60000C4F20200006800F002013F
:104540000020B0EB510F04D1FFE701208DF80F00E0
:104550008DE0FFE7FFE743F60801C4F202010868B7
:1045600020F00300029A526810430860FFF7ECF94C
:104570000090FFE743F60800C4F20200006800F074
:104580000C0002994968B0EB810F0ED0FFE7FFF7EE
:10459000DBF90099401A41F28931884204D3FFE7E0
:1045A00003208DF80F0062E0E4E7FFE7019843F68F
:1045B0000041C4F20201096801F00701884212D2E9
:1045C000FFE7019943F60040C4F202000170006861
:1045D00000F007000199884204D0FFE701208DF820
:1045E0000F0044E0FFE702980078400700280CD550
:1045F000FFE743F60801C4F20201086820F4E05026
:10460000029AD26810430860FFE70298007800071A
:1046100000280DD5FFE743F60801C4F2020108683F
:1046200020F46040029A126940EAC2000860FFE785
:1046300000F076F843F60801C4F202010968C9B235
:104640000A0944F65C11C0F60A01895CC84040F2D0
:104650005001C2F20001086040F2C410C2F2000032
:104660000068FFF717FE00208DF80F00FFE79DF8A8
:104670000F0004B080BD000082B00190009101994C
:104680000F20086043F60800C4F20200016801F040
:104690000301019A5160016801F0F001019A9160F3
:1046A000016801F4E051019AD160006800F46040B3
:1046B000C0080199086143F60040C4F20200006896
:1046C00000F007000099086002B0704740F2500007
:1046D000C2F200000068704780B5FFF7F7FF43F6AD
:1046E0000801C4F202010968C1F3822244F66C1188
:1046F000C0F60A01895CC84080BD000080B5FFF7A4
:10470000E5FF43F60801C4F20201096889B24A0BC9
:1047100044F66C11C0F60A01895CC84080BD0000F7
:1047200080B586B00020059004900390029043F677
:104730000800C4F20200006800F00C00014601917C
:1047400040B1FFE7019804280AD0FFE70198082844
:104750000CD04FE042F20040C0F2F40002904FE073
:1047600041F60030C0F2B700029049E043F6040081
:10477000C4F20200016801F03F01059100684002A7
:10478000002813D5FFE743F60400C4F202000068D6
:10479000C0F3881041F60031C0F2B701A0FB01015F
:1047A000059A0023FBF754FF049012E043F604003F
:1047B000C4F202000068C0F3881042F20041C0F267
:1047C000F401A0FB0101059A0023FBF741FF0490CF
:1047D000FFE743F60400C4F20200006800F4403131
:1047E000022000EBD130039004980399B0FBF1F064
:1047F000029005E042F20040C0F2F4000290FFE7B0
:10480000029806B080BD000080B586B00490049880
:1048100020B9FFE701208DF8170050E304980078D5
:10482000C007002800F0A580FFE743F60800C4F2A7
:104830000200006800F00C00042813D0FFE743F6E4
:104840000800C4F20200006800F00C0008281ED125
:10485000FFE743F60400C4F20200006840020028AB
:1048600015D5FFE743F60000C4F20200006800F42B
:1048700000310020B0EB514F08D0FFE704984068AA
:1048800020B9FFE701208DF8170018E370E0FFE77B
:1048900004984068B0F5803F09D1FFE743F6000176
:1048A000C4F20201086840F48030086020E00498F7
:1048B0004068B0F5A02F0DD1FFE743F60001C4F228
:1048C0000201086840F480200860086840F48030E5
:1048D00008600CE043F60001C4F20201086820F40D
:1048E00080300860086820F480200860FFE7FFE758
:1048F000FFE704984068E8B1FFE7FFF725F8039069
:10490000FFE743F60000C4F20200006800F4003143
:104910000020B0EB514F0CD1FFE7FFF715F80399DA
:10492000401A652804D3FFE703208DF81700C6E27C
:10493000E7E71CE0FFF708F80390FFE743F6000005
:10494000C4F20200006800F400310020B0EB514FC7
:104950000CD0FFE7FEF7F8FF0399401A652804D34F
:10496000FFE703208DF81700A9E2E7E7FFE7FFE77D
:10497000FFE7049800788007002840F19680FFE761
:1049800043F60800C4F20200006810F00C0F13D0C8
:10499000FFE743F60800C4F20200006800F00C00D4
:1049A00008282CD1FFE743F60400C4F20200006897
:1049B0004002002823D4FFE743F60000C4F20200BF
:1049C000006800F002010020B0EB510F09D0FFE7B2
:1049D0000498C068012804D0FFE701208DF8170073
:1049E0006DE243F60001C4F20201086820F0F8000D
:1049F000049A126940EAC2000860FFE754E0049894
:104A0000C06870B3FFE70021C4F2472101200860AD
:104A1000FEF79AFF0390FFE743F60000C4F202009E
:104A2000006800F002010020B0EB510F0CD1FFE74D
:104A3000FEF78AFF0399401A032804D3FFE70320F7
:104A40008DF817003BE2E7E743F60001C4F20201EC
:104A5000086820F0F800049A126940EAC200086071
:104A600021E00021C4F2472100200860FEF76CFF1E
:104A70000390FFE743F60000C4F20200006800F074
:104A800002010020B0EB510F0CD0FFE7FEF75CFFF6
:104A90000399401A032804D3FFE703208DF8170079
:104AA0000DE2E7E7FFE7FFE7FFE70498007800077C
:104AB00000284BD5FFE70498406918B3FFE740F69C
:104AC0008061C4F2472101200860FEF73DFF03909A
:104AD000FFE743F67400C4F20200006800F0020130
:104AE0000020B0EB510F0CD1FFE7FEF72DFF03992B
:104AF000401A032804D3FFE703208DF81700DEE1F6
:104B0000E7E722E040F68061C4F247210020086018
:104B1000FEF71AFF0390FFE743F67400C4F20200A9
:104B2000006800F002010020B0EB510F0CD0FFE74D
:104B3000FEF70AFF0399401A032804D3FFE7032076
:104B40008DF81700BBE1E7E7FFE7FFE7049800787F
:104B50004007002840F1CE80FFE700208DF80700D5
:104B600043F64000C4F202000068C000002815D4DB
:104B7000FFE7FFE70020009043F64000C4F2020088
:104B8000016841F080510160006800F080500090A1
:104B90000098FFE701208DF80700FFE747F20000CB
:104BA000C4F200000068C005002822D4FFE747F2E5
:104BB0000001C4F20001086840F480700860FEF74C
:104BC000C3FE0390FFE747F20000C4F20000006854
:104BD000C00500280CD4FFE7FEF7B6FE0399401A83
:104BE000032804D3FFE703208DF8170067E1EAE705
:104BF000FFE7FFE704988068012809D1FFE743F643
:104C00007001C4F20201086840F0010008601FE072
:104C10000498806805280DD1FFE743F67001C4F2BF
:104C20000201086840F004000860086840F00100D4
:104C300008600CE043F67001C4F20201086820F03D
:104C400001000860086820F004000860FFE7FFE743
:104C5000FFE704988068F8B1FFE7FEF775FE039060
:104C6000FFE743F67000C4F20200006800F00201A2
:104C70000020B0EB510F0ED1FFE7FEF765FE039960
:104C8000401A41F28931884204D3FFE703208DF8AE
:104C9000170014E1E5E71EE0FEF756FE0390FFE77C
:104CA00043F67000C4F20200006800F00201002028
:104CB000B0EB510F0ED0FFE7FEF746FE0399401A06
:104CC00041F28931884204D3FFE703208DF81700B1
:104CD000F5E0E5E7FFE79DF80700012809D1FFE7C8
:104CE00043F64001C4F20201086820F080500860D9
:104CF000FFE7FFE704988069002800F0DC80FFE709
:104D000043F60800C4F20200006800F00C00082816
:104D100000F08580FFE70498806902285CD1FFE7F6
:104D20006021C4F2472100200860FEF70DFE0390C9
:104D3000FFE743F60000C4F20200006800F00071D3
:104D40000020B0EB516F0CD0FFE7FEF7FDFD03999B
:104D5000401A032804D3FFE703208DF81700AEE0C4
:104D6000E7E70499C869D1F820C04B6A8A6A40EA2B
:104D70000C0040EA8310D2034FF6FF739A43A2F56A
:104D800080321043C96A40EA016043F60401C4F26C
:104D9000020108606021C4F2472101200860FEF78B
:104DA000D3FD0390FFE743F60000C4F20200006861
:104DB00000F000710020B0EB516F0CD1FFE7FEF75F
:104DC000C3FD0399401A032804D3FFE703208DF89D
:104DD000170074E0E7E721E06021C4F247210020DA
:104DE0000860FEF7B1FD0390FFE743F60000C4F250
:104DF0000200006800F000710020B0EB516F0CD091
:104E0000FFE7FEF7A1FD0399401A032804D3FFE74B
:104E100003208DF8170052E0E7E7FFE74AE0049827
:104E20008069012804D1FFE701208DF8170046E0D2
:104E300043F60400C4F202000068029004988069FE
:104E4000012831D0FFE7029800F480000499C96975
:104E5000884229D1FFE7029800F03F000499096ACF
:104E6000884221D1FFE7029847F6C07108400499B3
:104E7000496AB0EB811F17D1FFE7029800F4403078
:104E80000499896AC9034FF6FF729143A1F58031F5
:104E9000884209D1FFE7029800F070600499C96A5E
:104EA000B0EB016F04D0FFE701208DF8170006E09A
:104EB000FFE7FFE7FFE700208DF81700FFE79DF809
:104EC000170006B080BD0000B0B58EB00D900C91FB
:104ED00000208DF813000D99032081F834000D98FF
:104EE000406C032830D0FFE70C98B0F5805F06D106
:104EF000FFE70D99886B40F08050886323E00C98A1
:104F0000B0F5006F0AD1FFE70D9803F051FF05904F
:104F1000059A0D99886B1043886313E00C9850B97B
:104F2000FFE70D9803F0FEFE0590059A0D99886B3A
:104F30001043886305E00D99886B40F0006088633A
:104F4000FFE7FFE7FFE705E00D99886B40F0805031
:104F50008863FFE70D98806B70B1FFE70D980168DB
:104F600040F2FF50C0F2400088630D99012081F8A3
:104F700034008DF8130023E00D98406806900D98DA
:104F8000806807900D98C06808900C9809900D985B
:104F900040690A900D9880690B900D9800680699F9
:104FA000079A089BDDF824C00A9C0B9DEE46CEF8BC
:104FB0000850CEF80440CEF800C002F023FFFFE70F
:104FC0000D9800684FF4007102F0CCFF0590059831
:104FD00080B1FFE70D98016840F2FF50C0F2400039
:104FE0008863059A0D99886B1043886301208DF8BA
:104FF0001300FFE70D99012081F834009DF813009C
:105000000EB0B0BD80B582B00090009820B9FFE727
:1050100001208DF8070012E00099032081F8340088
:10502000009803F0B3FD009800F042FA00990020C8
:105030008863009981F834008DF80700FFE79DF838
:10504000070002B080BD000083B00190009101987C
:10505000406E800F009908700198406EC0F3836025
:10506000009948700198406EC0F301600099887003
:105070000198B0F866000099C8700198406E000A67
:10508000009908710198406E009948710198806EEE
:10509000000D0099C8800198806EC0F3034000990C
:1050A00008720198B0F86800C00B00994872019826
:1050B000806EC0F38030009988720198806EC0F3D2
:1050C00040300099C8720198806EC0F3003000999A
:1050D00008730099002048730198406C00284BD158
:1050E000FFE70199886EC96E6FF39F20800040EA48
:1050F0009170009908610198C06EC0F3C260009978
:1051000008750198C06EC0F3026000994875019857
:10511000C06EC0F34250009988750198C06EC0F30C
:1051200082400099C8750198C06EC0F3C2300099E2
:105130000876009800690130019948650098007E62
:1051400000F00700811C012000FA01F3019A516D63
:10515000594351650099097A01F00F01884001997E
:1051600088650199486D8A6D520A5043C865019956
:105170004FF40070086635E00198406C01281DD19D
:10518000FFE70198816E01F03F01B0F86E0040EA40
:10519000014000990861009801694FF4806000EBBC
:1051A0008120019948650199486DC86501994FF4BE
:1051B000007088650199886D086612E001980168A1
:1051C00040F2FF50C0F2400088630199886B40F0C4
:1051D000805088630199012081F834008DF80B001C
:1051E00073E0FFE70198C06EC0F380300099487605
:1051F0000198C06EC0F3C610009988760198C06E01
:1052000000F07F000099C8760198006FC00F0099E8
:1052100008770198006FC0F34170009948770198B2
:10522000006FC0F38260009988770198006FC0F327
:1052300083500099C8770198006FC0F340500099DF
:1052400081F820000099002081F821000199096F60
:10525000C1F30041009A82F822100199B1F8701050
:10526000C90B009A82F823100199096FC1F38031AC
:10527000009A82F824100199096FC1F34031009A15
:1052800082F825100199096FC1F30031009A82F864
:1052900026100199096FC1F38121009A82F8271025
:1052A0000199096FC1F30121009A82F82810019930
:1052B00091F870104908009A82F82910009A01218B
:1052C00082F82A108DF80B00FFE79DF80B0003B061
:1052D0007047000082B0019000910198406C0099E5
:1052E00008600198806C009948600198C06C009932
:1052F00088600198006D0099C8600198406D009920
:1053000008610198806D009948610198C06D00990D
:1053100088610198006E0099C861002002B0704752
:1053200080B584B00390002000900398694603F094
:10533000D1FC0190019830B1FFE7019A0399886B85
:1053400010438863FFE70098C0F34320029002985F
:1053500004B080BD80B582B00090009820B9FFE70E
:1053600001208DF8070024E0009890F8340038B947
:10537000FFE7009900200877009800F0C1F8FFE7E8
:105380000099032081F83400009800F017F820B14C
:10539000FFE701208DF807000BE0009900208863EB
:1053A00000990863009A012182F834108DF80700F3
:1053B000FFE79DF8070002B080BD0000B0B58EB0D9
:1053C0000C9000200390059006900790089009909B
:1053D00076200A900C9800680599069A079BDDF8DC
:1053E00020C0099C0A9DEE46CEF80850CEF8044035
:1053F000CEF800C002F006FD039848F2A001C4F206
:105400002521049108600C98006802F031FD049990
:10541000012008600220FDF737FE0C9803F0C0FB66
:105420000B900B9860B1FFE70C99012081F83400D4
:105430000B9B0C9A916B194391638DF8370033E005
:105440000C9803F0DDFA0B900B9860B1FFE70C9914
:10545000012081F834000B9B0C9A916B19439163E6
:105460008DF8370020E00C9800684FF4007102F0CE
:1054700079FD0B900B9898B1FFE70C98016840F20A
:10548000FF50C0F2400088630B9A0C99886B104360
:1054900088630C99012081F834008DF8370003E00F
:1054A00000208DF83700FFE79DF837000EB0B0BD43
:1054B00080B582B001900198006842F60041C4F2C4
:1054C0000101884201D0FFE717E043F64401C4F22E
:1054D0000201086820F40060086040F60000C4F291
:1054E00002004FF4F851FDF715FF40F60040C4F2FA
:1054F00002000421FDF70EFFFFE702B080BD0000AF
:1055000080B58AB009900998006842F60041C4F25B
:105510000101884201D0FFE74FE0FFE7002008903B
:1055200043F64400C4F20200016841F400610160E6
:10553000006800F4006008900898FFE7FFE700208B
:10554000079043F63000C4F20200016841F0040104
:105550000160006800F0040007900798FFE7FFE78C
:105560000020069043F63000C4F20200016841F0CA
:1055700008010160006800F0080006900698FFE747
:105580000220029001200390032004900C2005903B
:105590004FF4F850019040F60000C4F2020001A957
:1055A0000091FDF7C9FF00990420019040F60040EA
:1055B000C4F20200FDF7C0FFFFE70AB080BD0000A3
:1055C00080B594B0DDF858C01290119110920F93ED
:1055D000FEF7BAF90790109803901198029011986D
:1055E00048B9FFE71299886B40F00060886301209A
:1055F0008DF84F00EAE1129890F83400012840F04D
:10560000DC81FFE712990020886303980F99084412
:105610001299C96D884209D9FFE71299886B40F049
:105620000070886301208DF84F00CFE112990320AC
:1056300081F83400129801680020C8621298406C0A
:10564000012804D0FFE7039840020390FFE74FF0E2
:10565000FF3009900F9840020A9090200B90022092
:105660000C9000200D9001200E901298006809A95E
:1056700002F088FB0F9802280AD3FFE71299022054
:10568000086312980068039902F0D8FC089009E0BA
:1056900012990120086312980068039902F0ECFC4B
:1056A0000890FFE70898B0B1FFE71298016840F250
:1056B000FF50C0F240008863089A1299886B10432B
:1056C00088631299012081F83400129A0021116335
:1056D0008DF84F007AE10A980490FFE7129800686D
:1056E000406B40F22A31084266D1FFE71298006809
:1056F000406B000400283CD5FFE70498C8B3FFE7DF
:1057000000200690FFE70698072831D8FFE7129897
:10571000006802F0B5FB05900598029908700298A0
:10572000013002900498013804900598000A02990B
:105730000870029801300290049801380490BDF876
:1057400016000299087002980130029004980138FE
:1057500004909DF817000299087002980130029099
:10576000049801380490FFE7069801300690CAE7D4
:10577000FFE7FEF7E9F80799401A1699884203D225
:10578000FFE71698B8B9FFE71298016840F2FF509A
:10579000C0F2400088631299886B40F00040886333
:1057A0001299012081F83400129900200863032027
:1057B0008DF84F000AE191E712980068406BC00530
:1057C000002829D5FFE70F98022825D3FFE7129874
:1057D000406C03281FD0FFE71298006802F012FD0A
:1057E00008900898B0B1FFE71298016840F2FF50A6
:1057F000C0F240008863089A1299886B104388634E
:105800001299012081F83400129A002111638DF859
:105810004F00DBE0FFE7FFE712980068406B0007EE
:10582000002807D4FFE712980068406B8005002825
:1058300016D5FFE71298016840F2FF50C0F2400011
:1058400088631299886B40F00800886312990120E0
:1058500081F83400129A002111638DF84F00B5E0F1
:1058600012980068406B8007002816D5FFE7129851
:10587000016840F2FF50C0F2400088631299886BC3
:1058800040F0020088631299012081F83400129AD6
:10589000002111638DF84F0098E012980068406B6A
:1058A0008006002816D5FFE71298016840F2FF50E5
:1058B000C0F2400088631299886B40F02000886332
:1058C0001299012081F83400129A002111638DF899
:1058D0004F007BE0FFE7FFE7FFE7FFE71298006874
:1058E000416B002089020029019006D5FFE704984A
:1058F000002818BF01200190FFE70198C007002889
:105900004ED0FFE71298006802F0BAFA05900598A9
:1059100002990870029801300290049801380490AE
:105920000598000A029908700298013002900498C4
:1059300001380490BDF816000299087002980130F1
:1059400002900498013804909DF81700029908709D
:10595000029801300290049801380490FDF7F4FF9A
:105960000799401A1699884203D2FFE71698B0B9F2
:10597000FFE71298016840F2FF50C0F240008863D0
:105980001299886B40F0004088631299012081F8D9
:105990003400129A002111638DF84F0016E09DE744
:1059A0001298016840F23A5088631299012081F8F8
:1059B000340000208DF84F0008E01299886B40F009
:1059C0000050886301208DF84F00FFE79DF84F00DD
:1059D00014B080BD80B592B0DDF850C010900F912A
:1059E0000E920D93FDF7B0FF05900E9801900F9861
:1059F00000900F9848B9FFE71099886B40F000605D
:105A0000886301208DF847008DE1109890F83400EC
:105A1000012840F07F81FFE71099002088630198FA
:105A20000D9908441099C96D884209D9FFE710996A
:105A3000886B40F00070886301208DF8470072E1A8
:105A40001099032081F83400109801680020C86282
:105A50001098406C012804D0FFE7019840020190A3
:105A6000FFE74FF0FF3007900D984002089090201C
:105A7000099000200A900B9001200C90109800686B
:105A800007A902F07FF90D9802280AD3FFE71099C1
:105A90002020086310980068019902F0D1FB06905D
:105AA00009E010991020086310980068019902F02D
:105AB000E5FB0690FFE70698B0B1FFE71098016894
:105AC00040F2FF50C0F240008863069A1099886B3C
:105AD000104388631099012081F83400109A002146
