:020000040800F2
:10000000E01D012069020008C9270008C12300087B
:1000100045260008450F0008B52A0008000000002A
:100020000000000000000000000000007B0200084B
:10003000AD100008000000008D0300084303000815
:10004000830200088302000883020008830200087C
:10005000830200088302000883020008830200086C
:10006000830200088302000883020008830200085C
:10007000830200088302000883020008830200084C
:10008000830200088302000883020008830200083C
:10009000830200088302000883020008830200082C
:1000A00083020008852800088302000883020008F4
:1000B000830200088302000883020008830200080C
:1000C00083020008830200088302000883020008FC
:1000D00083020008830200088302000883020008EC
:1000E00083020008830200088302000883020008DC
:1000F00083020008830200088302000883020008CC
:1001000083020008830200088302000883020008BB
:1001100083020008830200088302000883020008AB
:10012000830200088302000883020008830200089B
:1001300083020008000000000000000083020008A5
:10014000830200088302000883020008830200087B
:10015000830200088302000883020008830200086B
:10016000830200088302000883020008830200085B
:100170008302000883020008000000000000000065
:10018000830200088302000800F002F800F05DF826
:1001900014A696E8000CB244B344DA4501D100F04D
:1001A00054F8BAE80F000FA696E83000A5EB040556
:1001B00004EB0607AAEB0704A7F101074FEA1515A0
:1001C0004FEA3414A4F10104AC4201D300F03DF82D
:1001D00013F0010F18BFFB1A43F0010300F001F800
:1001E000DBE71847EC1704000C180400103A24BF92
:1001F00078C878C1FAD8520724BF30C830C144BF8C
:1002000004680C6070470000704700000023002461
:1002100000250026103A28BF78C1FBD8520728BF16
:1002200030C148BF0B607047642900F06B827529AC
:1002300000F06882732900F06F85002070471FB5B9
:1002400039F00CFD1FBD10B510BD00F071FD114659
:10025000FFF7F5FF11F02AFB00F08FFD03B4FFF765
:10026000F2FF03BC00F092FD0948804709480047AF
:10027000FEE7FEE7FEE7FEE7FEE7FEE7FEE7FEE756
:10028000FEE7FEE704480549054A064B70470000B3
:100290007128000889010008E0170120E01D0120F5
:1002A000E0190120E019012000000000000000001A
:1002B00028010020E01D012000000008AC01002002
:1002C000001000E07FA219000000FF4000BF00BF47
:1002D00072B65FF824005FF8241001F10401016098
:1002E0004FF0E0205FF83010C0F8081D5FF83400D0
:1002F0005FF83C10096801605FF83C00016841F05C
:10030000010101604FF0E0205FF8481041614FF0BB
:10031000070101614FF00001C0F8181D4FF07F4147
:10032000C0F81C1D5FF86010C0F8201D7047FFF773
:10033000FEBFFFF7FEBFFFF7FEBF01B5BDE80140FE
:10034000704701B500F08CF8BDE801407047FFF739
:10035000FEBFFFF7FEBF000000000000000000002D
:100360004FF000002A4A1060EFF3148020F00400E0
:1003700080F3148862B64FF080504FF0E021C1F84E
:10038000040DBFF34F8FBFF36F8FFEE72148224A62
:100390004FF00003016891B10360EFF3098C2CE981
:1003A000F00F1EF0100F01D12CED108A1B4C4CF8F1
:1003B00004ED2568C1F808C00DB18D61236072B6E7
:1003C0001168B1B1016062B64F68144C8D6907F1D4
:1003D00001074F602560D1F808C05CF804EB1EF0FF
:1003E000100F01D1BCEC108ABCE8F00F8CF3098827
:1003F000704772B61168016009B962B6F9E74FF04B
:1004000000674FF0E028C8F8047D62B6DCE770476B
:10041000E8000020D0000020D4000020F8000020D8
:10042000026922F00702A2F144026FF00203136096
:100430004FF0000353609360D36013615361936185
:10044000D361136253629362D362136353634FF0B9
:10045000FF339363D1634FF08073136482607047FE
:100460002249086800F101000860214B1A683AB17E
:10047000A2F101021A601AB91E4B4FF00100186078
:100480001D490868026822B11C4B4FF001021A6036
:1004900008E000F104001A4B1A68904201D1194B90
:1004A00018680860134B1A6812B914490868D0B16B
:1004B0002DE901401149086808B103F023FC0D4BF8
:1004C0001A6872B103F0CAFB0F48016849B90F48B6
:1004D00001680F4A13680F484FF08052994200D0CC
:1004E0000260BDE80140BFF34F8F7047F400002069
:1004F000F8000020FC0000200C010020000100207A
:100500001001002008010020E8000020D000002099
:10051000D400002004ED00E053EA020C00F06980F2
:100520002DE9F04B4FF00006002B1FBFB3FA83F507
:1005300003FA05F424FA05F65E4012BF1643B2FA38
:1005400082F502FA05F4C5F120051EBF22FA05FC6A
:1005500044EA0C04203556EA044C4FEA144418BF10
:10056000641C4FF000084FF00009904271EB030C3F
:1005700039D3002919BFB1FA81F701FA07F6B0FAA9
:1005800080F700FA07F6C7F120071EBF20FA07FC24
:1005900046EA0C062037B6FBF4FCA7EB0507103F34
:1005A00007F01F0BCBF120062CFA06F60CFA0BFB1A
:1005B00044BFB3460026202FA4BF5E464FF0000B79
:1005C0005BEA060C08BF4FF0010B19EB0B0948EB77
:1005D0000608ABFB027C06FB02CC0BFB03CCC01B6A
:1005E00071EB0C01C1E70B46024641464846BDE8A7
:1005F000F08B13B5084318BF4FF0FF300146AFF33F
:100600000080BDE81C4070470FB41CB50C0007AA61
:10061000009007D04142A14202D32044401E01E095
:100620004FF0FF30074B7B4469460190069800F07D
:1006300046FB0021002C01D0009A11701CBC5DF813
:1006400014FB0000BB0600002DE9F0410E460446F5
:10065000002020622046E168884730B3252805D075
:10066000D4E901219047206A401CF2E7E168204666
:1006700000278847050018D0A5F14100192802D8A5
:1006800020354FF400673246294620462760FFF7A1
:10069000CBFD40B1012804D0F61D26F00706083630
:1006A000D8E7361DD6E72846DAE7206ABDE8F081AC
:1006B00070B50C460546012A05D02878800600D57D
:1006C000EA69002302E0012305E05B1C934202D2A9
:1006D000E05C0028F9D1A869E618C01AA861286A68
:1006E000184428622846AFF3008004E0D5E90121D0
:1006F00014F8010B9047B442F8D32846AFF30080BA
:1007000070BD00002DE9F0410646002410687529EF
:10071000314616A510D0AFF30080002802DA40421F
:1007200013A507E031688A0701D512A502E0490741
:1007300004D511A5012401E0AFF3008000210A22B5
:1007400006F1240709E0B0FBF2FCB0FBF2F302FB78
:100750001C00303078541846491C0028F3D1234639
:100760002A463046BDE8F04100F04BBA00000000D8
:100770002D0000002B00000020000000401ECAB227
:1007800010F8011F8A4202D00029F9D100207047D9
:1007900040EA010310B59B070FD1042A0DD310C8FE
:1007A00008C9121F9C42F8D020BA19BA884201D950
:1007B000012010BD4FF0FF3010BD1AB1D30703D098
:1007C000521C07E0002010BD10F8013B11F8014B4E
:1007D0001B1B07D110F8013B11F8014B1B1B01D16A
:1007E000921EF1D1184610BD10B5431C02E010F85E
:1007F000011B71B18107FAD14FF0013202C88C1A86
:100800008C4314EAC211F9D0C01A0A0603D0C01EE4
:1008100010BDC01A10BD0A0401D0801E10BD09020F
:10082000FCD0401E10BDCBB22AB101788B4203D060
:10083000401C521EF9D10020704740EA010370B5F8
:100840009B072ED14FF00136042A2AD308C810C9BD
:100850009D1B9D43121F15EAC61517D0D8B2E1B2F1
:10086000401A50EA056110D198B2A1B2401A50EA7C
:1008700005410AD123F07F4024F07F41401A50EA1D
:10088000052102D1180EA0EB146070BDA342DBD08D
:1008900018BA21BA884201D9012070BD4FF0FF304B
:1008A00070BD0AB9002070BD10F8013B11F8014B72
:1008B00063B1A3420AD1521E08D010F8013B11F8CF
:1008C000014B1BB1A34201D1521EEDD1181B70BDCB
:1008D000032A40F2308010F0030C00F0158011F86C
:1008E000013BBCF1020F624498BF11F801CB00F844
:1008F000013B38BF11F8013BA2F1040298BF00F898
:1009000001CB38BF00F8013B11F0030300F0678012
:10091000083AC0F0088051F8043B083A51F804CB7B
:10092000A0E80810F5E7121D5CBF51F8043B40F841
:10093000043BAFF30080D20724BF11F8013B11F84C
:1009400001CB48BF11F8012B24BF00F8013B00F890
:1009500001CB48BF00F8012B7047431A28BF9A42C9
:100960007FF6B6AF10441144032A40F2268010F0FF
:10097000030F1EBF11F8013D521E00F8013D10F09B
:10098000030F7FF4F6AF11F0030300F06D80083A17
:10099000C0F00B8051F8043D083A51F804CD40F8FE
:1009A000043D40F804CDFFF7F3BF121D5CBF51F8C2
:1009B000043D40F8043DAFF30080D20724BF11F896
:1009C000013D11F801CD48BF11F8012C24BF00F8FA
:1009D000013D00F801CD48BF00F8012C704710B56B
:1009E000203AC0F00B80B1E81850A0E81850B1E8E8
:1009F0001850A0E81850203ABFF4F5AF5FEA027C27
:100A000024BFB1E81850A0E8185044BF18C918C056
:100A1000BDE810405FEA827C24BF51F8043B40F8F7
:100A2000043B08BF7047D20728BF31F8023B48BFDC
:100A300011F8012B28BF20F8023B48BF00F8012B1A
:100A40007047431A28BF9A427FF6C9AF1044114439
:100A500010F0030F1EBF11F8013D521E00F8013DBA
:100A600010F0030F7FF4F6AF103AC0F00A8010B513
:100A700031E9185020E91850103ABFF4F9AFBDE839
:100A80001040530724BF31E9081020E9081044BF83
:100A900051F8043D40F8043D12F0030F08BF7047C1
:100AA000D20728BF31F8023D48BF11F8012C28BFFA
:100AB00020F8023D48BF00F8012C704702F0FF0308
:100AC00043EA032242EA024200F002B84FF0000279
:100AD0000429C0F0128010F0030C00F01B80CCF150
:100AE000040CBCF1020F18BF00F8012BA8BF20F8BE
:100AF000022BA1EB0C0100F00DB85FEAC17C24BF12
:100B000000F8012B00F8012B48BF00F8012B7047BB
:100B10004FF0000200B5134694469646203922BF96
:100B2000A0E80C50A0E80C50B1F12001BFF4F7AFE1
:100B3000090728BFA0E80C5048BF0CC05DF804EBC3
:100B4000890028BF40F8042B08BF704748BF20F831
:100B5000022B11F0804F18BF00F8012B70470000E6
:100B600030B44FF0013C50F8042B51F8043BCCFA60
:100B700052F4D51A20D1FCB950F8042B51F8043B9B
:100B8000CCFA52F4D51A17D1B4B950F8042B51F855
:100B9000043BCCFA52F4D51A0ED16CB950F8042BA0
:100BA00051F8043BCCFA52F4D51A05D1002CDAD016
:100BB00030BC4FF00000704729BAB1FA81F111F052
:100BC0001801D1F120008440F2D1CA40CB4012F08C
:100BD000FF0213F0FF0330BCD01A70477047704714
:100BE00070470000004870470000002010B500F07A
:100BF00097F8006810BD10B5044600F091F8046045
:100C000010BD2DE9F0470D4699469246044600F185
:100C100024080168880604D5E06921F010012160EC
:100C200000E00120A84201DD471B00E00027A16988
:100C30007A1902EB0900081AA0612078C00602D4D4
:100C40002046AFF30080002608E0D4E901211AF81D
:100C500006009047206A401C761C20624E45F4DB5B
:100C60002078C0060AD52046AFF3008006E0D4E91C
:100C7000012130209047206A401C2062381EA7F1D5
:100C80000107F4DC07E0D4E9012118F805009047DA
:100C9000206A401C2062281EA5F10105F3DC2046D5
:100CA000AFF300802078000602D50220BDE8F0876F
:100CB0000120FBE701694A1C02610878704700B512
:100CC0008FB0CDE901310021059105497944CDE985
:100CD000031011466846FFF7B7FC0FB000BD0000D7
:100CE000E5FFFFFFD1E900239A4202D2531C0B60BB
:100CF0001070704710B5436913B1AFF3008001E085
:100D0000FFF7D6FC012010BD127800F124010A7013
:100D100000224A700122EDE711684FF0FF32E9E747
:100D20000048704720000020004870472000002045
:100D30007546FFF7F9FFAE4605006946534620F0B9
:100D40000700854618B020B5FFF79CFABDE82040A3
:100D50004FF000064FF000074FF000084FF0000B77
:100D6000AC46ACE8C009ACE8C009ACE8C009ACE8E6
:100D7000C00921F007018D46704710B50446AFF356
:100D800000802046BDE81040FFF768BA01491820EE
:100D9000ABBEFEE726000200704700002DE9F047D9
:100DA00094B040F6F0614FF48060C2F20101CDE9E9
:100DB000001040F63C6042F239724FF0B0084FF03C
:100DC000010A4FF00009C2F201003FA1C0F6030280
:100DD0000023CDE902AACDE9049ACDF8188003F0EA
:100DE00099F9D8B13B480DF1240E089039A0071DA0
:100DF000BECFD0E9076C406A8EE8BE0008ACCDE9F2
:100E000010C020460F96FFF7EFFC82B248F25C70EC
:100E1000C2F200002146642301F008FA40F2E060CB
:100E200048F2A4723427C2F2000034A1C2F20002D8
:100E30004FF48063009703F0B3F848F6A83202201D
:100E40004FF40041C2F20002CDE90021CDE90200D9
:100E500041F2F02042F2B972C2F201002AA1C0F6BA
:100E600003020023CDE9049ACDF8188003F052F96B
:100E700038B328490DF12408089126A10F1D8CCF05
:100E8000D1E90465D1E906CE0C6A88E88C00CB6A0A
:100E9000D1E90921CDE90C65CDE9104208AC054640
:100EA0002046CDE91213CDE90ECEFFF79DFC82B2AC
:100EB00048F25C70C2F200002146642301F0B6F9EA
:100EC000284614B0BDE8F087746872656164206CD0
:100ED000656400006572726F723A7468726561646D
:100EE0007820637265617465207468726561645FFF
:100EF0006C6564206661696C656400006279746584
:100F000020706F6F6C203000746872656164206DB2
:100F1000700000006572726F723A74687265616485
:100F200078206372656174652074687265616420FD
:100F30006D6963726F507974686F6E206661696C59
:100F40006564000044F2004072B6C4F2000001681B
:100F5000090609D4016809065CBF01685FEA0161FE
:100F600002D401680906F2D54221416001680906F0
:100F700009D4016809065CBF01685FEA016102D417
:100F800001680906F2D5752141600168090609D496
:100F9000016809065CBF01685FEA016102D401686B
:100FA0000906F2D5732141600168090609D4016878
:100FB00009065CBF01685FEA016102D401680906A5
:100FC000F2D5462141600168090609D40168090685
:100FD0005CBF01685FEA016102D401680906F2D5CD
:100FE000612141600168090609D4016809065CBFF6
:100FF00001685FEA016102D401680906F2D5752132
:1010000041600168090609D4016809065CBF0168EE
:101010005FEA016102D401680906F2D56C214160E2
:101020000168090609D4016809065CBF01685FEA26
:10103000016102D401680906F2D57421416001689A
:10104000090609D4016809065CBF01685FEA01610D
:1010500002D401680906F2D50D2141600168090634
:1010600009D4016809065CBF01685FEA016102D426
:1010700001680906F2D50A2141600168490609D4D0
:10108000016849065CBF01685FEA416102D40168FA
:101090004906F2D502A00AF083FF00BFFEE700BFB9
:1010A0004275734661756C74000000007047000063
:1010B00082B044F2004072B6C4F200000168090632
:1010C00009D4016809065CBF01685FEA016102D4C6
:1010D00001680906F2D5452141600168090609D475
:1010E000016809065CBF01685FEA016102D401681A
:1010F0000906F2D5722141600168090609D4016828
:1011000009065CBF01685FEA016102D40168090653
:10111000F2D5722141600168090609D40168090607
:101120005CBF01685FEA016102D401680906F2D57B
:101130006F2141600168090609D4016809065CBF96
:1011400001685FEA016102D401680906F2D57221E3
:1011500041600168090609D4016809065CBF01689D
:101160005FEA016102D401680906F2D55F2141609E
:101170000168090609D4016809065CBF01685FEAD5
:10118000016102D401680906F2D548214160016875
:10119000090609D4016809065CBF01685FEA0161BC
:1011A00002D401680906F2D561214160016809068F
:1011B00009D4016809065CBF01685FEA016102D4D5
:1011C00001680906F2D56E2141600168090609D45B
:1011D000016809065CBF01685FEA016102D4016829
:1011E0000906F2D5642141600168090609D4016845
:1011F00009065CBF01685FEA016102D40168090663
:10120000F2D56C2141600168090609D4016809061C
:101210005CBF01685FEA016102D401680906F2D58A
:10122000652141600168090609D4016809065CBFAF
:1012300001685FEA016102D401680906F2D57221F2
:1012400041600168090609D4016809065CBF0168AC
:101250005FEA016102D401680906F2D50D214160FF
:101260000168090609D4016809065CBF01685FEAE4
:10127000016102D401680906F2D50A2141600168C2
:10128000490609D4016849065CBF01685FEA41610B
:1012900002D401684906F2D54AF22015C0F20705CA
:1012A00000F5E034002600BF2046102100F0F2F8DF
:1012B00001960198A842F7D200BF01980130019031
:1012C0000198A842F0D200BF019801300190019826
:1012D000A842E9D200BF0198013001900198A842CC
:1012E000E2D200BF0198013001900198A842E3D3F7
:1012F000DAE700002DE9F04F83B000F1200200F1A1
:101300003E4741F60045009207F1FF77C4F202051F
:1013100008224FEAB726A84208BF072200254FF04F
:1013200000084FF00009072E38BF4FEAB72201929C
:101330000AE000BF09F1010908F10208B9F1100F34
:1013400005F1040500F0A2800F68012202FA09FEEF
:1013500017EA0E0AEED0D1F804C003220CF00307FE
:101360007E1E02FA08F4012E6FEA040B12D884687C
:10137000CE6804EA0B0406FA08F634438460446835
:1013800024EA0E06CCF3001404FA09F4264346605E
:1013900004E000BF032F01D103271EE0C6688C685C
:1013A00006EA0B0604FA08F42643022FC66014D19D
:1013B0006FF00302009E02EA590756F807C005F0D5
:1013C0001C040F220B69A2402CEA0202A3401A431C
:1013D000F251D1F804C00CF00307026807FA08F3D1
:1013E00002EA0B021A431CF4403F0260A2D0002222
:1013F00043F644030292C4F202031A6843F600441F
:1014000042F480421A601A68C4F2010402F4804275
:101410000292029A29F003024FF6084C2244CFF6BA
:10142000FF7C52F80C3005F00C070F26BE40B3438A
:10143000019E06FA07F73B4342F80C30A2684B685E
:1014400042EA0A0743F60C4CDE0258BF22EA0A07BA
:10145000A760C4F2010CDCF800209E0242EA0A07F1
:1014600058BF22EA0A07CCF8007062689E0342EA7D
:101470000A0758BF22EA0A0767602268DB0342EACC
:101480000A0758BF22EA0A07276053E703B0BDE8FE
:10149000F08F0000426902EA0103914341EA0341EF
:1014A00081617047002A08BF09048161704700000C
:1014B00041F2D470C2F201000068704740F20400AB
:1014C00041F2D471C2F20000C2F2010100780A6850
:1014D000104408607047000080B543F60040C4F235
:1014E0000200016841F400710160016841F480610B
:1014F0000160016841F480710160032000F0B8F8D8
:101500000F2000F005F800F059F8002080BD000021
:10151000B0B586B0002543F644010195C4F202013E
:101520000A68044642F001020A60096801A801F055
:10153000010101910199694600F05CF900F08EF912
:101540004DF683614000C4F21B31A0FB01014FF056
:10155000FF3000EB914148F214700022C2F200000B
:10156000C4F2010240F2E733C0E90021C0E90253AE
:101570000561856100F098FB10B106B0B0BD00BFF9
:1015800048F21470C2F2000000F0BEFB0028F4D153
:10159000192000F02FF80F2C0CD81920214600221A
:1015A00000F03AF840F208010020C2F200010C609D
:1015B00006B0B0BD012006B0B0BD000082B0002072
:1015C00043F640010190C4F202014A6842F48042AD
:1015D0004A604A6802F480420192019A00900868C9
:1015E00040F080500860086800F08050009000983B
:1015F00002B07047002848BF704700F01F01012269
:1016000002FA01F11C2202EAD0004EF20012CEF2E0
:10161000000281507047000010B54EF60C5CCEF20F
:10162000000CDCF80030C3F3022E8EF00704042C0B
:1016300028BF0424BEF103034FF0FF3E0EFA04F46A
:1016400038BF0023A14399400EFA03F39A43114394
:1016500000F00F0200F160430901043A03F564430E
:101660006244002848BF02F10C03197010BD00004D
:101670004EF60C51CEF200010A684FF6FF031A40F5
:1016800060F30A2242F0806040F0FD70086070470D
:10169000002804BF012070472DE9F04143F60808F7
:1016A000C4F202080446D8F8F8030D4600F007001B
:1016B000814207D988F8F853D8F8F80300F00700FA
:1016C000A84277D12068810717D5410705D5D8F8FA
:1016D000001041F4E051C8F80010010705D5D8F812
:1016E000001041F46041C8F80010D8F80010A2685A
:1016F00021F0F0011143C8F80010C00740D1D8F81C
:10170000F80300F00700854207D288F8F853D8F8AC
:10171000F80300F00700A8424CD12068410707D524
:10172000D8F80010E26821F4E0511143C8F8001025
:10173000000708D5D8F80000216920F4604040EA8D
:10174000C100C8F8000000F09DF8D8F800104AF277
:101750007C22C1F30311C0F60302515C40F218026F
:1017600020FA01F140F20800C2F200000068C2F263
:1017700000021160FFF7CCFE0020BDE8F08100BF41
:101780006068811E022907D258F8081C89015CBFD5
:101790000120BDE8F08111E0012807D158F8081CAC
:1017A00089035CBF0120BDE8F08107E058F8081C00
:1017B000890703D40120BDE8F08100BFD8F80010EC
:1017C00021F003010843C8F80000FFF771FE064648
:1017D00041F28837D8F80000616800F00C00B0EBE7
:1017E000810F8CD0FFF764FE801BB842F2D9032032
:1017F000BDE8F0810F22026043F60802C4F2020243
:10180000136803F003034360136803F0F00383607D
:10181000136803F4E053C360D2F800C04FF4E05300
:1018200003EADC030361D2F8F80300F00700086064
:101830007047000040F2180043F60801C2F20000B1
:10184000C4F20201006809684AF28C22C1F38221C5
:10185000C0F60302515CC8407047000040F2180017
:1018600043F60801C2F20000C4F2020100680968F0
:101870004AF28C22C1F34231C0F60302515CC840E7
:101880007047000010B543F60404C4F20204616816
:10189000C1F3810142F20040C0F2F400DFE801F040
:1018A00002040A0210BD00BF41F60030C0F2B700CA
:1018B00010BD00BF206821682368490241F600314D
:1018C000C0F2B70100F03F02C3F388105CBF42F2E0
:1018D0000041C0F2F401A1FB00010023FEF71CFE51
:1018E00021680222C1F3014102EB4101B0FBF1F09A
:1018F00010BD0000002804BF012070472DE9F04111
:1019000082B00446007843F60006C007C4F202061F
:101910000CD0B06800F00C00042840F081803068E2
:10192000800303D56068002800F068812078800774
:101930001BD5B06810F00C0F09D0B06800F00C0097
:10194000082840F087807068400200F1838030688A
:10195000800703D5E068012840F050813068216994
:1019600020F0F80040EAC10030602078000713D46E
:10197000207840072AD4A569002D00F03A81B0688C
:1019800000F00C00082840F0A580012D40F00E81E9
:10199000012002B0BDE8F0816069002800F082807B
:1019A0000020C4F247200121C0F8801EFFF780FD0F
:1019B000054600BF706F8007DAD4FFF779FD401B42
:1019C0000228F7D9032002B0BDE8F081306C5FEA4D
:1019D000C0080AD400200190306C40F08050306480
:1019E000306C00F080500190019847F20007C4F27B
:1019F00000073868C00547D4386840F48070386004
:101A0000FFF756FD054600BF3868C0053CD4FFF718
:101A10004FFD401B0228F7D9032002B0BDE8F0813A
:101A2000B06800F00C00082803D1706840023FF550
:101A300076AF61683068B1F5803F07D0B1F5A02F6F
:101A400040F09A8040F480203060306840F480306C
:101A500030609AE0E068002840F20000C4F24720BD
:101A60005CD001210160FFF723FD05463068800747
:101A70003FF574AFFFF71CFD401B0228F6D9032089
:101A800002B0BDE8F08100BFA168306F012905D028
:101A9000052955D140F004003067306F40F0010057
:101AA000306756E00020C4F247200021C0F8801EB5
:101AB000FFF7FEFC054600BF706F80077FF558AF4B
:101AC000FFF7F6FC401B0228F6D9032002B0BDE860
:101AD000F08100BF0027C4F2472700203866FFF7D7
:101AE000E7FC022D05460DD13068800140F18A8067
:101AF000FFF7DEFC401B02284FF00300F4D902B0D0
:101B0000BDE8F0813068800173D5FFF7D1FC401B40
:101B100002284FF00300F5D9F1E700BF0021016072
:101B2000FFF7C6FC054600BF306880077FF51DAF94
:101B3000FFF7BEFC401B02284FF00300F4D9DEE79C
:101B400020F001003067306F002920F0040030677A
:101B50007AD0FFF7ADFC054641F28837306F800739
:101B600000F18480FFF7A4FC401BB842F6D90320A3
:101B700002B0BDE8F08100BF20F4803030603068F2
:101B8000002920F4802030607AD0FFF791FC0546D0
:101B9000306880033FF5CAAEFFF78AFC401B64281B
:101BA000F6D9032002B0BDE8F08100BF7068E1699A
:101BB00000F480028A4221D1216A00F03F028A4269
:101BC0001CD147F6C071626A0140B1EB821F15D18A
:101BD000A16A4FF6FF73C903994300F44032A1F59F
:101BE00080318A420AD1E16A00F07060B0EB016F87
:101BF00004D1002002B0BDE8F08100BF012002B096
:101C0000BDE8F08104F11C052FCD084340EA8210A5
:101C1000D9034FF6FF729143A1F5803140EA056088
:101C20000843706001203866FFF742FC044600BF9D
:101C300030688001DDD4FFF73BFC001B02284FF029
:101C40000300F5D95BE700BFFFF732FC054641F220
:101C5000883700BF306F800708D5FFF729FC401B8D
:101C6000B8424FF00300F5D949E700BFB8F1000FC3
:101C70003FF581AE306C20F0805030647BE600BFD1
:101C8000FFF716FC054600BF306880037FF54EAEB7
:101C9000FFF70EFC401B64284FF00300F4D92EE739
:101CA0007047000070470000002804BF0120704703
:101CB00010B5044690F83D0028B9002084F83C0097
:101CC000204600F01FF8022084F83D002068211D06
:101CD00000F0DEFD012084F8460084F83E0084F820
:101CE0003F0084F8400084F8410084F8420084F802
:101CF000430084F8440084F8450084F83D00002047
:101D000010BD00007047000090F83D1001291CBF75
:101D100001207047022180F83D10006841F2FF72F7
:101D2000C168C4F20002904241F00101C1600DDCC3
:101D300040F2FF71C4F20001884215DCB0F1804F1F
:101D40002AD040F20041C4F2000123E040F2FF310A
:101D5000C4F20101884213DC41F60001C4F2000123
:101D6000884219D0002113E040F60001C4F20001BE
:101D7000884211D040F60041C4F200010AE000BFE1
:101D800044F20001C4F20101884205D040F2004152
:101D9000C4F20101884206D1816801F007010629D9
:101DA00004BF00207047016841F00101016000207C
:101DB000704700007047000070B504460068C568B1
:101DC0000669B10716D515F0020113D06FF00201B4
:101DD0000161012121778069800703D02046FFF748
:101DE000E9FF05E0204600F08FF8204600F08EF86D
:101DF00000202077700719D515F0040016D0206850
:101E00006FF00401016102212177806910F4407FA5
:101E100004D02046FFF7CEFF06E000BF204600F0CA
:101E200073F8204600F072F800202077300717D5AD
:101E300015F0080014D020686FF00801016104213A
:101E40002177C069800703D02046FFF7B3FF05E084
:101E5000204600F059F8204600F058F8002020777E
:101E6000F00619D515F0100016D020686FF010019B
:101E7000016108212177C06910F4407F04D0204619
:101E8000FFF798FF06E000BF204600F03DF820462F
:101E900000F03CF800202077F00718BF15F0010093
:101EA00002D1300609D412E020686FF0010101610F
:101EB000204600F02DF8300609D515F0800006D038
:101EC00020686FF0800101612046FFF7E9FE70068F
:101ED00009D515F0400006D020686FF0400101617F
:101EE000204600F01FF8B00658BF70BD15F0200066
:101EF00008D021686FF0200220460A61BDE87040DA
:101F0000FFF7D0BE70BD00007047000070470000B2
:101F100000680021C4F20101884218BF7047FFF732
:101F2000CDBA000070470000002804BF01207047B0
:101F300010B5044690F8410028B9002084F840000C
:101F4000204600F021F8242084F841002068C16870
:101F500021F40051C160204600F038FD206801697D
:101F600021F490410161416921F02A014161C16878
:101F700041F40051C16000202021606484F84110C8
:101F800084F84210606310BD80B586B044F2004111
:101F90000068C4F20001002288420592CDE90322C4
:101FA0000292019202D006B080BD00BF43F630001D
:101FB0000092C4F20200036943F400330361036931
:101FC00003F400330093009B0092036843F0010385
:101FD0000360006800F00100009000980C20019060
:101FE0000220CDE90202032004900720059001F5AC
:101FF000DE3001A9FFF77EF906B080BD2DE9F04380
:1020000081B0044690F84200202809D18846002972
:102010004FF0010018BF002A06D101B0BDE8F083DF
:10202000022001B0BDE8F083002022211D4660643B
:1020300084F8421020631646FFF73AFAA685E68533
:10204000A1680746B1F5805F02D12069002851D010
:1020500046464FF00008E08D00284FD005F10109F9
:102060000CE000BF406800266FF35F2028F8020BE9
:10207000E08D0138E085E08D00283FD020680168C0
:10208000890617D4B9F1000F22D0002D00F0CA80C4
:10209000FFF70EFAC01BA84200F2BC802068C1689E
:1020A000490744BF01685FEA01712FD401688906BE
:1020B000EED500BF002ED5D0A168B1F5805F15D058
:1020C00009B9216991B1406800F07F000FE000BFBD
:1020D00001688906EED4016889065CBF01685FEA81
:1020E0008161E7D401688906F2D5E3E7406806F824
:1020F000010BBDE70026E08D0028AFD10020202194
:1021000084F8421001B0BDE8F08300BF00210091C7
:102110000168009140680090009800BF206850E876
:10212000030F216820F4907041E80302BAB32068DD
:1021300050E8030F216820F4907041E8030272B365
:10214000206850E8030F216820F4907041E80302F2
:102150002AB3206850E8030F216820F4907041E80A
:102160000302002ADAD11AE0206850E8050F21683E
:1021700020F0010041E80502DAB1206850E8050FBF
:10218000216820F0010041E8050292B1206850E882
:10219000050F216820F0010041E805024AB12068DE
:1021A00050E8050F216820F0010041E80502002AEF
:1021B000DAD1206B012824D1206850E8030F216870
:1021C00020F0100041E80302DAB1206850E8030F64
:1021D000216820F0100041E8030292B1206850E825
:1021E000030F216820F0100041E803024AB1206883
:1021F00050E8030F216820F0100041E80302002A94
:10220000DAD1202084F84200002008212063616494
:1022100084F840000320202184F8421001B0BDE87A
:10222000F08300BFFFF744F9F4E700002DE9F04325
:1022300081B0044690F84100202809D100294FF0D0
:10224000010018BF002A07D101B0BDE8F08300BF2C
:10225000022001B0BDE8F0830020606421201D460B
:102260000E4684F841001746FFF722F9A784E78459
:10227000A1688146B1F5805F02D1206900285DD058
:1022800037460020E28C2168002A5DD06A1C24D0E9
:10229000002D4AD0804600BF0868000608D4FFF72A
:1022A00007F9A0EB0900A8427AD82168C868F3E7CB
:1022B00017B117F8010B04E038F8020B00276FF391
:1022C0005F204860E08C0138E084E08C0028E3D196
:1022D0003AE000BF0A68120609D40A68120606D45A
:1022E0000A6812065CBF0A685FEA0262F2D51FB193
:1022F00017F8012B05E000BF30F8022B00276FF321
:102300005F224A60E28C013AE284E28C002AE4D146
:102310001AE000BF30F8022B00276FF35F224A60FB
:10232000E28C013AE284E28C72B10A68120635D579
:10233000002FEFD017F8012BF1E700BF0027304640
:10234000E28C2168002AA1D1086840061ED42DB372
:10235000681C14D1086840062AD40868400627D4AF
:102360000868400624D4086840064FF00000F1D504
:102370000DE000BF2068C1680068400618D4FFF770
:1023800097F8A0EB0900A842F4D909E00020202129
:1023900084F8411001B0BDE8F08300BFFFF788F872
:1023A0000320202184F8411001B0BDE8F08300BF74
:1023B0000020202184F8411001B0BDE8F083000026
:1023C00044F2004072B6C4F200000168090609D464
:1023D000016809065CBF01685FEA016102D4016817
:1023E0000906F2D5482141600168090609D401684F
:1023F00009065CBF01685FEA016102D40168090651
:10240000F2D5612141600168090609D40168090615
:102410005CBF01685FEA016102D401680906F2D578
:10242000722141600168090609D4016809065CBF90
:1024300001685FEA016102D401680906F2D56421EE
:1024400041600168090609D4016809065CBF01689A
:102450005FEA016102D401680906F2D546214160B4
:102460000168090609D4016809065CBF01685FEAD2
:10247000016102D401680906F2D561214160016859
:10248000090609D4016809065CBF01685FEA0161B9
:1024900002D401680906F2D5752141600168090678
:1024A00009D4016809065CBF01685FEA016102D4D2
:1024B00001680906F2D56C2141600168090609D45A
:1024C000016809065CBF01685FEA016102D4016826
:1024D0000906F2D5742141600168090609D4016832
:1024E00009065CBF01685FEA016102D40168090660
:1024F000F2D50D2141600168090609D40168090679
:102500005CBF01685FEA016102D401680906F2D587
:102510000A2141600168490609D4016849065CBF87
:1025200001685FEA416102D401684906F2D502A060
:1025300009F036FDFEE700BF486172644661756CC4
:10254000740000002DE9F04387B0002743F6300007
:102550000697CDE90477CDE902770197C4F202002E
:10256000016840F2000941F0040101600168C4F211
:10257000020901F00401019101990197016800220B
:1025800041F08001016001684FF4004601F08001D4
:10259000019101990197016841F001010160016811
:1025A00001F00101019101990197016841F00201D7
:1025B000016000684FF4004100F0020001900198B2
:1025C0004846FEF76FFF09F5806528461021002276
:1025D0004FF01008FEF766FF029602AE012448464F
:1025E0003146CDE903470597FEF784FE284631467C
:1025F000CDE90284CDE90477FEF77CFE07B0BDE8A3
:10260000F083000001F052B880B548F25C7044F2EB
:102610000041C2F20000C4F2000100234FF00C0C94
:102620004FF4E13280E80E00C0E90333C0E905C38E
:10263000C361FFF779FC002808BF80BDBDE880407A
:10264000FEF736BD44F2004072B6C4F200000168E5
:10265000090609D4016809065CBF01685FEA0161E7
:1026600002D401680906F2D54D21416001680906CE
:1026700009D4016809065CBF01685FEA016102D400
:1026800001680906F2D5652141600168090609D48F
:10269000016809065CBF01685FEA016102D4016854
:1026A0000906F2D56D2141600168090609D4016867
:1026B00009065CBF01685FEA016102D4016809068E
:1026C000F2D54D2141600168090609D40168090667
:1026D0005CBF01685FEA016102D401680906F2D5B6
:1026E000612141600168090609D4016809065CBFDF
:1026F00001685FEA016102D401680906F2D56E2122
:1027000041600168090609D4016809065CBF0168D7
:102710005FEA016102D401680906F2D561214160D6
:102720000168090609D4016809065CBF01685FEA0F
:10273000016102D401680906F2D567214160016890
:10274000090609D4016809065CBF01685FEA0161F6
:1027500002D401680906F2D56521416001680906C5
:1027600009D4016809065CBF01685FEA016102D40F
:1027700001680906F2D50D2141600168090609D4F6
:10278000016809065CBF01685FEA016102D4016863
:102790000906F2D50A2141600168490609D4016899
:1027A00049065CBF01685FEA416102D401684906DD
:1027B000F2D502A009F0F4FBFEE700BF4D656D4DB8
:1027C000616E616765000000FEE7000070B592B0C1
:1027D00006AC20463021FEF79BF9002543F6400069
:1027E0000595CDE90355CDE901550095C4F20200E8
:1027F0000168022641F080510160006800F08050BD
:102800000090009847F200000095C4F200000168B3
:1028100041F480410160006800F48040009000981D
:10282000012006904FF4803007904FF480000D9007
:1028300006200E90A820CDE90F0604201190204616
:102840000C96FFF757F888B90F20CDE901064FF431
:10285000A05004904FF48050059001A805210395E5
:10286000FEF716FF002804BF12B070BDFEF720FC73
:102870004EF68850CEF20000016841F4700101600C
:102880007047000048F21470C2F20000FFF794BADB
:10289000B0B540F6FF3E0568C4F2000E40F2004CB1
:1028A0007045C4F2010C25DCB0F1804F2FD040F20E
:1028B0000043C4F20003984229D040F60003C4F25A
:1028C0000003984223D041F6FF73C4F200039842FC
:1028D00028DC70453ADCB0F1804F5BD040F2004319
:1028E000C4F20003984255D040F60003C4F200033E
:1028F0004EE000BF40F60043C4F20003984206D009
:10290000604504D00023C4F201039842DBD14B6838
:1029100025F0700243EA020541F6FF73C4F200039A
:102920009842D6DD43F6FF73C4F2010398421FDCE0
:1029300042F20003C4F2000398422BD00023C4F2F9
:102940000103984226D0604524D028E040F6004399
:10295000C4F2000398421DD041F60003C4F2000304
:10296000984217D041F60043C4F2000310E000BFC4
:1029700044F20003C4F2010398420BD044F6000372
:10298000C4F20103984205D044F20043C4F20103AB
:10299000984204D1CB6825F4407243EA02050A68E4
:1029A0008C684B69C46240F480648262644504BFF1
:1029B00009690163026825F0800142F004021943AD
:1029C0000260012242610160B0BD0000B0B5044662
:1029D000006804F108030ECB0569194325F440553E
:1029E0002A4302616269E3691143C268194349F2EB
:1029F0000C639A431143C1604169A26921F440719B
:102A000041F20043114340F48062C4F201039A4250
:102A1000416103D1FEF722FF02E000BFFEF70AFF8B
:102A2000E1694FF69C7563681922C0F6FF75B1F530
:102A3000004FA0FB02011FD15A00DB0FFDF76CFD18
:102A400048F21F51C5F2EB11A0FB01235A0905F111
:102A5000805302FB0300322303EBC000A0FB010103
:102A60004FF4F87000EA111000EB0210C1F34211AC
:102A7000084421688860B0BD9A009B0FFDF74CFDAB
:102A800048F21F51C5F2EB11A0FB01235A0902FBCA
:102A90000500322303EB0010A0FB0101F02000EA47
:102AA000511000EB0210C1F3431108442168886003
:102AB000B0BD000044F2004072B6C4F200000168EC
:102AC000090609D4016809065CBF01685FEA016173
:102AD00002D401680906F2D5552141600168090652
:102AE00009D4016809065CBF01685FEA016102D48C
:102AF00001680906F2D5732141600168090609D40D
:102B0000016809065CBF01685FEA016102D40168DF
:102B10000906F2D5612141600168090609D40168FE
:102B200009065CBF01685FEA016102D40168090619
:102B3000F2D5672141600168090609D401680906D8
:102B40005CBF01685FEA016102D401680906F2D541
:102B5000652141600168090609D4016809065CBF66
:102B600001685FEA016102D401680906F2D54621D5
:102B700041600168090609D4016809065CBF016863
:102B80005FEA016102D401680906F2D56121416062
:102B90000168090609D4016809065CBF01685FEA9B
:102BA000016102D401680906F2D57521416001680E
:102BB000090609D4016809065CBF01685FEA016182
:102BC00002D401680906F2D56C214160016809064A
:102BD00009D4016809065CBF01685FEA016102D49B
:102BE00001680906F2D5742141600168090609D41B
:102BF000016809065CBF01685FEA016102D40168EF
:102C00000906F2D50D2141600168090609D4016861
:102C100009065CBF01685FEA016102D40168090628
:102C2000F2D50A2141600168490609D401684906C4
:102C30005CBF01685FEA416102D401684906F2D5D0
:102C400002A009F0ADF900BFFEE700BF5573616750
:102C5000654661756C74000001A000F005F800BFC6
:102C6000617373657274000044F20041C4F20001A4
:102C70000A68120609D40A6812065CBF0A685FEA8D
:102C8000026202D40A681206F2D50D224A600A686E
:102C9000120609D40A6812065CBF0A685FEA02627B
:102CA00002D40A681206F2D50A224A600A6812069D
:102CB00009D40A6812065CBF0A685FEA026202D49D
:102CC0000A681206F2D546224A600A68120609D43A
:102CD0000A6812065CBF0A685FEA026202D40A68E8
:102CE0001206F2D541224A600A68120609D40A681F
:102CF00012065CBF0A685FEA026202D40A68120622
:102D0000F2D554224A600A68120609D40A681206EB
:102D10005CBF0A685FEA026202D40A681206F2D552
:102D200041224A600A68120609D40A6812065CBF8A
:102D30000A685FEA026202D40A681206F2D54C22DF
:102D40004A600A68120609D40A6812065CBF0A685B
:102D50005FEA026202D40A681206F2D53A224A6099
:102D60000A68120609D40A6812065CBF0A685FEA9C
:102D7000026202D40A681206F2D520224A600A686A
:102D8000120609D40A6812065CBF0A685FEA02628A
:102D900002D40A681206F2D55F224A600A68120657
:102DA00009D40A6812065CBF0A685FEA026202D4AC
:102DB0000A681206F2D55F224A600A68120609D430
:102DC0000A6812065CBF0A685FEA026202D40A68F7
:102DD0001206F2D566224A600A68120609D40A6809
:102DE00012065CBF0A685FEA026202D40A68120631
:102DF000F2D561224A600A68120609D40A681206EE
:102E00005CBF0A685FEA026202D40A681206F2D561
:102E100074224A600A68120609D40A6812065CBF66
:102E20000A685FEA026202D40A681206F2D56122D9
:102E30004A600A68120609D40A6812065CBF0A686A
:102E40005FEA026202D40A681206F2D56C224A6076
:102E50000A68120609D40A6812065CBF0A685FEAAB
:102E6000026202D40A681206F2D55F224A600A683A
:102E7000120609D40A6812065CBF0A685FEA026299
:102E800002D40A681206F2D565224A600A68120660
:102E900009D40A6812065CBF0A685FEA026202D4BB
:102EA0000A681206F2D572224A600A68120609D42C
:102EB0000A6812065CBF0A685FEA026202D40A6806
:102EC0001206F2D572224A600A68120609D40A680C
:102ED00012065CBF0A685FEA026202D40A68120640
:102EE000F2D56F224A600A68120609D40A681206EF
:102EF0005CBF0A685FEA026202D40A681206F2D571
:102F000072224A600A68120609D40A6812065CBF77
:102F10000A685FEA026202D40A681206F2D5202229
:102F20004A60B0B1027802E04A6010F8012F82B125
:102F30000B681B06F8D40B681B065CBF0B685FEAC6
:102F40000363F1D40B681B06F2D5EDE708680006B1
:102F500009D40868000606D4086800065CBF086843
:102F60005FEA0060F2D50D2048600868000609D4C9
:102F7000086800065CBF08685FEA006002D4086861
:102F80000006F2D50A204860FEE700002DE9F04F68
:102F900087B00546084650F80D8B0E4601F10C0728
:102FA0000E314FF0010B0391002A009008BF8346B9
:102FB00007EB0800029002309246019000204FF08B
:102FC00000090690CDF810802978A1F12400582836
:102FD00000F22481DFE810F05A00250125012501C7
:102FE0009C00EC02C200B00025012501D60025019D
:102FF00025012501250125012501250125012501A1
:10300000250125012501250125012501250188002E
:103010002501250125012501250125012501250180
:103020002501250125012501250125012501250170
:103030002501250125012501250125012501250160
:103040002501250125016600E40025017A002501FE
:103050002501250125012501250125012501250140
:103060002501250125012501250125012501250130
:103070002501250125012501250125012501250120
:103080002501250125012501F80000BF3068BAF1AE
:10309000000F00F10108C6F8008040F07D82512148
:1030A0001EE000BF2A46D6F8008012F8010F08F192
:1030B00001015E28316040F0BF80BAF1000F05F1D8
:1030C000020240F0BD800420EBE100BF3068BAF19D
:1030D000000F00F10108C6F8008040F05D82502129
:1030E0003954D6F8008057E23268424500F05A82DF
:1030F000BAF1000F00F01281911C3160284610F8DF
:10310000012F3F2A08BF0546A1EB0800884624E1AD
:103110006878D6F800803F28CDF814906ED1284604
:1031200010F8021F3A2969D15C464FF0000B0546A2
:103130004FF0000977E100BF3068404500F032826F
:103140002A4612F8011F3F2908BF1546BAF1000FA1
:1031500000F010813068A8EB000118E132684245A8
:1031600000F02082BAF1000F00F02281111D3160C1
:103170002946A8EB020011F8012F02383F2A08BFA8
:103180000D46DAE1D6F80080BAF1000F08F101002F
:10319000306040F00182022007F80800FCE100BF27
:1031A00015F8010F002800F0FD8100F0DF01D6F8CE
:1031B0000080442970D000F0DB0053286CD0BAF1B5
:1031C000000F6DD132E000BFB9F1000F6CD0306854
:1031D0006FEA09010844A0F1800111F5807F4FF0EA
:1031E000000138BF0121069ABAF1000F42EA01023C
:1031F00006925CD107F8090064E000BFB068BAF13C
:10320000000F00F101095C46C6F8089000F0F0805C
:1032100008F1020030604FEA4900F5E0002900F0B3
:10322000C781D6F80080BAF1000F39D108F101004A
:1032300030600120A8E100BFBAF1000F00F030813A
:10324000D6E900011546431C0131C6E90031C11C15
:10325000002003E031600135013002312A785C2A18
:1032600002D05D2A0AD151E115F8012F02F0DF03E7
:10327000442BEFD002F0DB03532BEBD0002A00F0FD
:1032800091816A782D2AE5D12A4612F8023F5D2BFA
:1032900018BF1546DEE700BFBAF1000F00F07081DD
:1032A00008F10200306077E1BAF1000F0AD030680F
:1032B00000F1030900F104080498C6F80080A8EBA7
:1032C00000001DE03068DDF81080A0EB0802DDE9A9
:1032D00001042146FDF741FB30686022C11C3160CA
:1032E00003990A54D6F8009009F10100306061207A
:1032F00020703068A0EB0800811E6170D6F8008055
:10330000823810F5807F4FF0000038BF0120069A08
:10331000716802430692881C40E100BF07EB080178
:10332000881CA2EB0802FDF718FB30682946023022
:10333000306011F8010F3F284FF0610008BF622094
:1033400007F808003068A0EB0800A0F102020BF8B3
:103350000820D6F8008008BF0D46823810F5807F1F
:103360004FF0000038BF0120069A716802430692B0
:10337000481C13E13F294FF0620108BF6121395415
:103380003068A8EB00018A1E0BF8002030688239F3
:1033900011F5807F4FF0000138BF0121069A00F13E
:1033A00002080A4370680692C6F80080F5E000BF84
:1033B00007EB0801881CA2EB0802FDF7CEFA306883
:1033C00060210230306039543168009BA8EB010065
:1033D000821E5A54316802313160294611F8012F9A
:1033E0003F2A40F0A780622207F808200D46A4E09B
:1033F00008F1010030607E2007F808003168481CA1
:1034000030604FEA49007854803810F5807F4FF0E3
:10341000000038BF01207168069A4FF0010B02438B
:10342000481C06927060681C31465246FFF7AEFD9C
:10343000002800F0B78005460078292840F0B280C7
:10344000BBF1000F26D03168BAF1000F01F1010085
:10345000A34603D130607E20785430686FF07E013F
:1034600001EB490111F5807F4FF0000100F10102ED
:1034700038BF0121BAF1000F326004D14FEA49028E
:1034800042F001023A547068069A01300A430692EB
:10349000706000E0A346DDF81490013594E500BFAC
:1034A000032007F80800D6E9000115460130013174
:1034B000C6E9000100200BE00A46316801304B1CD0
:1034C00033607A54316815F8012B4B1C33607A5401
:1034D00029785C2902D05D290CD117E015F8011F6D
:1034E00001F0DF02442A4FF00002E6D001F0DB03D6
:1034F000532BE2D0002955D06A782D2ADCD12A46F8
:1035000012F8023F5D2B18BF1546D5E7A0F18001E8
:1035100011F5807F4FF0000138BF0121069ABAF102
:10352000000F42EA0102069239D10BF8080001357A
:103530004AE500BF612107F80810823810F5807F46
:1035400030684FF00001A0EB0803A3F1820238BFFE
:10355000012112F5807F4FF0000238BF0122BAF13D
:10356000000F03D1981E0BF80800306811437268F1
:10357000069B80460B43911C06937160013523E541
:1035800008F101003060052007F80800306829784C
:10359000421C3260395400BF7068013070600135E0
:1035A00012E500BF0025284607B0BDE8F08F00BF38
:1035B000B9F1000F13D030686FEA09010844A0F197
:1035C0008001002211F5807F38BF01220699BAF1EF
:1035D000000F41EA0201069108BF07F809000698AA
:1035E000C00718BF0025284607B0BDE8F08F0000CF
:1035F000F0B581B00F4634211D4616460446FDF74E
:1036000087FA25F00300A0F10801A1600221C4E9B6
:103610000660E16030444EF6EE616760C4E904661E
:1036200040F8086DCFF6FF714460C6E9000145F22D
:1036300045410020C4F259212062EFF3108072B698
:10364000216040F2C401C2F200010A6840F2C003E6
:10365000C2F2000332B11F683E6B3C6306F12C03DB
:1036600002E000BF2746264601321C60C4E90B7603
:103670000A6080F31088002001B0F0BD80B500F032
:10368000D9F800F051FB40F2A000C2F20000002186
:10369000C0E90011C0E90211C0E90411C0E9061136
:1036A000C0E90811C0E90A1180BD000010B540F260
:1036B0001C04C2F20004206810F10F3F0DD04FF03F
:1036C000F0302060FCF704FEFFF7D8FF40F2E8007E
:1036D000C2F200000168013101604FF0F03020605B
:1036E00040F22810C2F2000000682FF039FB0020E1
:1036F0002060BDE81040FCF733BE00002DE9F04F1C
:1037000081B0DDE90A5B91460F46DDF838A00C9EDA
:10371000044628465946EF229846FDF7CFF9204641
:10372000B021FDF7F5F905EB0B010139C4E90351AF
:103730000D9920208E423146A762C4E91198E662B5
:10374000C4E905BAC4F81CA018BF0021C4F89C0045
:103750000320206343F6CD40E163C4E92561C0F650
:10376000000043F66D01C4E91504C0F600012046CF
:10377000FCF756FE45F24422C5F24842EFF31081B1
:1037800072B6226040F2E402C2F20002136840F214
:10379000E0072046C2F2000743B13E68D6F88C50DD
:1037A000C6F88C0005F1880702E000BF0646054612
:1037B0000133136040F2E8023860C0E92265C2F2CA
:1037C000000213680F9F0133012F136014D140F2E0
:1037D0001C02C2F200021268EFF305831A43B2F131
:1037E000F03F19D340F2D402C2F2000214689CB137
:1037F000E26AE56BE26311E081F31088EFF3108079
:1038000072B611680139116080F3108800F0A6F8D3
:10381000002001B0BDE8F08F0024002581F310885E
:1038200000F0C2F8002C18BFE563002001B0BDE82D
:10383000F08F0000B0B540F2D004C2F200040025C1
:103840002020C4E9025040F22C10C2F20000802176
:10385000C4E90055FDF75CF9C4E90455A561206A87
:10386000E56140F085702062B0BD000010B540F207
:10387000D000C2F200000468D4E91110884740F279
:10388000EC00C2F20000016809B12046884701211E
:10389000EFF3108072B62163A1630021E16440F26E
:1038A000E801C2F200010A6801320A6080F3108860
:1038B000EFF3148020F0040080F314882046BDE864
:1038C000104000F00BB9000010B540F2D002EFF349
:1038D000108172B6C2F2000214686CB140F21C0290
:1038E000C2F200021268EFF305831A4308D081F395
:1038F0001088132010BD00BF81F31088132010BD65
:1039000040F23022C2F2000294420BD070B140F279
:10391000E802C2F20002136863B181F31088132039
:1039200010BD00BF81F31088132010BD81F31088F3
:10393000002010BD042323630123A3630023C4F8E4
:103940008430E06410680130106081F310882046F4
:1039500000F0C4F8D4F8840010BD000040F2E80084
:10396000C2F20000006808B1704700BF40F2D0000A
:1039700040F2D401C2F20000C2F2000100680968FE
:103980008842F1D04EF60450CEF200004FF0805144
:103990000160EFF30580002818BF7047EFF3108037
:1039A00062B680F310887047F0B581B0EFF31085F0
:1039B00072B60446406E002804F14C0002D000F0BC
:1039C00031FA01E00021016040F2E800C2F200009B
:1039D000016801390160A16B226B002940F2D4011A
:1039E000C2F2000108D0013A022A0CD3626B32B94C
:1039F0000022A263226306E02AB1626B22B3002296
:103A00000323C4E90C3240F2D002C2F20002126871
:103A100085F3108809688A4201D0006810B101B0AE
:103A2000F0BD00BF4EF60450CEF200004FF08051C2
:103A30000160EFF305800028F1D1EFF3108062B64A
:103A400080F3108801B0F0BDE26A40F22C1CC2F293
:103A5000000C5CF822304FF0000EC4F830E02BB1BF
:103A60005A6A5C621462C4E90832CCE74CF822401E
:103A700040F2D80E40F2DC0CC2F2000EC2F2000C92
:103A80000123DEF80060DCF8007093403343BA4253
:103A9000C4E90844CEF80030B5D20B68CCF8002059
:103AA000D3B1DB6B9A42AED20C6085F3108800680C
:103AB0000028B4D14EF60450CEF200004FF08051F1
:103AC0000160EFF305800028A9D1EFF3108062B602
:103AD00080F3108801B0F0BD0C6094E770B540F23F
:103AE000D001C2F200010D68EFF3108672B6A84251
:103AF00011D1014651F84C2F013A12F1030F04D8AD
:103B00000446084600F060F92046C16940F2F80218
:103B1000C2F20002116040F2E801C2F200010A683C
:103B200040F2D40C013A0A60826BC2F2000C012A06
:103B300016D1026AC36A0024824284631AD0446A9E
:103B400040F22C1E54622262C2F2000E5EF8234044
:103B5000844208BF4EF82320DCF80020904228D091
:103B600086F31088DCF80000854202D0086800283F
:103B700042D070BD40F22C12C2F2000242F8234043
:103B800040F2D804C2F200044FF0010E22680EFA8F
:103B900003F39A43226041D040F2DC0392FAA2F28E
:103BA000C2F20003B2FA82F21A60DCF800209042FE
:103BB000D6D140F2DC00C2F20000006840F22C12C4
:103BC000C2F2000252F82000CCF8000086F3108800
:103BD00008680028CDD14EF60450CEF200004FF018
:103BE00080510160EFF305800028C2D1EFF310800F
:103BF00062B680F3108870BD4EF60450CEF200001D
:103C00004FF080510160EFF30580002818BF70BDB0
:103C1000EFF3108062B680F3108870BD40F2DC00D4
:103C2000C2F20000202202600020CCF8000086F3DF
:103C30001088086800289CD14EF60450CEF200008F
:103C40004FF080510160EFF3058000287FF491AFC1
:103C5000EFF3108062B680F3108870BD40F2D000A0
:103C6000C2F20000016840F2FC02EFF3108072B66D
:103C7000C2F200020023136009B10A6B12B180F393
:103C800010887047D1E9073240F2F80CC2F2000CFC
:103C90008A428B61CCF80030F1D0CB6AC96B8B4281
:103CA000EDD140F2DC0140F22C1CC2F20001C2F264
:103CB000000C09684CF823205CF8211040F2D40273
:103CC000C2F20002116080F310887047EFF3108297
:103CD00072B6016B04290BD140F2E801C2F2000177
:103CE0000B6801330B6082F31088FFF75DBE00BFE5
:103CF000836ED0F8AC1082F31088002B08BF704799
:103D00001847000040F2E801EFF3108072B6C2F2EB
:103D100000010A6801320A6080F3108840F2302006
:103D2000C2F20000FFF740BE2DE9F04387B040F239
:103D3000B01640F2F404C2F20006C2F200040025FC
:103D4000304680212560C4E90155C4E90355FCF7DC
:103D5000DFFE06F18000C4E9056640F2302843F634
:103D6000616644F64D1740F2E02104F11C03C2F2F3
:103D700000080FF24009C0F60006C4F25417C2F260
:103D800000014FF4806227C304F1200207CACDE985
:103D900003258DE807004046494632463B460595D7
:103DA000FFF7ACFC0028EFD10020C4E90B0007B0FE
:103DB000BDE8F08353797374656D2054696D657245
:103DC00020546872656164000268511E11F1030F8E
:103DD00026D88369002B18BF7047202A40F20C12A6
:103DE000C2F2000288BF1F21126840F2081302EBE2
:103DF000810140F21012C2F200021268C2F2000306
:103E00008A1A1B6828BF99180A682AB15369506139
:103E10001861C0E9042302E0C0E904000860816180
:103E2000704700008169002908BF7047026990420D
:103E300008D0436953611A610B6883420AD000219C
:103E4000816170470A688242F9D100220A6000212C
:103E50008161704791610A600021816170470000B3
:103E60002DE9F04F83B044F64D11C4F2541188424D
:103E70001CBF03B0BDE8F08F40F20C1640F20014F6
:103E800040F2041BC2F200060027C2F200040DF14A
:103E90000409C2F2000B0DF1080804E020680028B4
:103EA0006AD081F31088EFF3108072B631680A6827
:103EB000002A029218BFC2F818800F6040F2101258
:103EC0003168C2F20002126804319142316005D1BA
:103ED00040F20811C2F2000109683160276080F3E6
:103EE0001088EFF3108172B605E000BF8AF31088E6
:103EF000EFF3108172B6029D002DCFD02869002209
:103F00008542019214D06A69C0F81880426110613C
:103F10002A680290212A10D3A2F120002860C5F857
:103F200018902D610195CBF8005081F3108816E0B0
:103F300000202A680290212AEED2D5E90132E868F1
:103F4000002B2B600FBF00232D6101954B46AB6109
:103F5000CBF8005081F31088002A18BF9047EFF388
:103F6000108A72B60198CBF80070A842BED12846DC
:103F7000AF61FFF729FFB9E740F23020C2F200003D
:103F800003220263012240F2E8038263C2F20003CB
:103F90001A6801321A6081F31088FFF79FFD82E7EB
:103FA0002DE9F04100284FF0020C67D0069F342F16
:103FB00064D140F2E80CEFF3108772B6C2F2000C45
:103FC000DCF8006015460136CCF8006040F2C0060F
:103FD00087F31088C2F2000640F2C4073668C2F2C6
:103FE00000073C68871BB7FA87F7002C4FEA571782
:103FF000984618BFB04249D10446EFF3108072B61C
:104000000E46DCF800100139CCF8001080F310885F
:10401000FFF7A4FC002F1CBF0220BDE8F0818DB388
:10402000B8F1640F3CBF0520BDE8F08140F2D0003C
:10403000C2F20000076840F21C00C2F200000168F2
:104040002A464346EFF30585294351D040F23025F7
:104050000068C2F20005EFF3058108434FF0000C41
:10406000AF4208BF4FF0130CB0F1F03F38BF4FF034
:10407000130C03D331462046AF4241D16046BDE820
:10408000F08100BF0320BDE8F08100BF042200BF23
:10409000F36AD71EC61AB6FA86F6A7424FEA561733
:1040A000AAD29842A8D0DB6A971EC61AB6FA86F63C
:1040B000A7424FEA56179FD298429DD0DB6A571EFF
:1040C000C61AB6FA86F6A7424FEA561794D2984215
:1040D00092D0DE6AA242A0EB0603B3FA83F34FEA62
:1040E0005317BFF489AFB04202F10402D0D183E785
:1040F00040F23020C2F2000087423146204603D011
:10410000BDE8F041FFF774BA4FF0130C6046BDE80C
:10411000F08100002DE9F04F83B0054600284FF0F4
:104120000E0062D09146129AB02A5ED1119840F2E8
:10413000E80C01901098C2F2000C00900F980290C9
:10414000DDF83880DDE90C6BEFF3108072B6DCF837
:1041500000200132CCF8002080F3108840F2E40007
:10416000C2F20000026840F2E000C2F20000D0F8A3
:1041700000A01AB306EB0B00471E0024554518BFDC
:10418000012C1BD0DAF80C00864203D200248742AF
:104190000AD20FE0DAF81040A6424FF000043CBF0C
:1041A00001240026874205D3DAF8100087423CBF7D
:1041B00000260124DAF888A0013ADFD1EFF310805D
:1041C00072B60C46DCF800101F460139CCF800101E
:1041D00080F31088FFF7C2FB554509D0B9F1000FF5
:1041E0004FF0030018BF002E06D103B0BDE8F08FDA
:1041F0000E2003B0BDE8F08FBBF1C80F04D205203C
:1042000003B0BDE8F08F00BFB8F11F0F04D90F2035
:1042100003B0BDE8F08F00BF0298404504D91820D4
:1042200003B0BDE8F08F00BF0198012804D9102029
:1042300003B0BDE8F08F00BF40F2D000C2F2000032
:10424000026840F21C00C2F200003B4607682146AB
:10425000EFF30584274313D040F230270068C2F201
:104260000007EFF3058404430020BA4208BF13207F
:10427000B4F1F03F38BF1320B7D3BA4206D1B4E748
:1042800040F23020C2F2000082420FD001984A462C
:1042900011900098109002980F90CDE90DB8284623
:1042A0000C9603B0BDE8F04FFFF728BA132003B017
:1042B000BDE8F08F2DE9F0410446800746D10D4658
:1042C00020684DF61C41C0F60301884205D04DF62A
:1042D0005C31C0F60301884238D1274637F8050F14
:1042E000B97850EA01401DD12179402000224FF0D9
:1042F00000080FF0EDFCD4E90212064601F10800B7
:1043000000FB06F110460DF0C1FA08213980A168C2
:10431000E060013101FB0600C6EBC60187F80280B0
:10432000FCF7D4FB2079D4E902212B4610F06CFA7B
:10433000A068B9783A880130A06042EA01400138AB
:104340003880010C0620B970BDE8F0814FF6AD0051
:104350004FF63D11C0F60300C0F6030140F287128C
:10436000FEF77AFC2DE9F04F87B00C460146242871
:104370004FF0000000F285801546DFE811F02500BF
:104380002500250025002500820082008200820091
:10439000820082008200820082008500820082000A
:1043A00082008200820082008200820082008200FD
:1043B00082008200950082008200820082008200DA
:1043C000820082008200F7002079884600F07F0199
:1043D000402000220FF07CFC21684DF6F872E66860
:1043E000C0F603029142074606D1E079B4F8051001
:1043F00041EA004007FB0066D4F80890247904A93C
:104400002846012217F004FD002800F0E88004F09F
:104410007F01012908464FF0000508BF42205B28B4
:1044200038BF0125069AA8F102044FF0000338BFF7
:1044300000F12001012A1046B4FA84F408BF42209A
:104440005B28BCBF012300F12002640923432B43F6
:10445000012B40F0C98001F0FD03642B00F0C48003
:10446000914240F0C180DDE90435404609FB07F286
:104470003146009523F000FA01460E20002918BFAE
:104480001E2007B0BDE8F08F20684DF6F871C0F629
:104490000301884200F08E802046294600F04EF944
:1044A000204607B0BDE8F08F20684DF6F876C0F6DC
:1044B0000306B04200F07E802079002200F07F01E8
:1044C00040200FF005FCD4E90218227901FB00F925
:1044D000216802F07F07B14206D1E179B4F80520E6
:1044E00042EA014100FB018804A92846052217F091
:1044F0008FFC4020394600220FF0EAFB05998346E5
:10450000B1FBF0F5A068394600EB050A4020002217
:104510000FF0DEFB064610200DF056F904464DF66E
:104520001C404DF65C31C0F60300C0F60301012FBC
:1045300008BF01460020E071A4F8050006FB0AF060
:1045400021602771C4F808A00DF03EF941464A46A3
:10455000E060FCF7BDF9E0680499484405FB0BF204
:10456000FCF7B6F9204607B0BDE8F08F01A9284650
:10457000012217F04DFC08B3A00730D120684DF69A
:104580001C41C0F60301884229D104A9204601221A
:10459000012400F04BF9DDE90401DDE90123009479
:1045A00008F0FAF801461E20002908BF0E2007B0C7
:1045B000BDE8F08F002007B0BDE8F08FE80713D109
:1045C000A8070CD428684DF65071C0F60301884244
:1045D0000AD04DF60C61C0F60301884204D00E20CB
:1045E00007B0BDE8F08F00BF002022F013FB0000F1
:1045F0002DE9F04784B0044601280E463CD101A9BC
:104600003046012217F004FC002844D04020214607
:1046100000224FF000090FF05BFB02990646B1FB48
:10462000F0F74020214600220FF052FB8046102078
:104630000DF0CAF805464DF61C404DF65C31C0F64B
:104640000300C0F60301012C08BF014608FB07F078
:1046500029602C7185F80790A5F80590AF600DF0E2
:10466000B3F8019907FB06F2E860FCF731F9284638
:1046700004B0BDE8F08700BFB0070CD130684DF63C
:104680005041C0F603018842B9D04DF61C41C0F636
:1046900003018842B3D030461DF01CF98046471014
:1046A0004020214600224FF0000A0FF011FB814606
:1046B00010200DF089F805464DF61C404DF65C3192
:1046C000C0F60300C0F60301012C08BF014607FB3A
:1046D00009F029602C7185F807A0A5F805A0AF6046
:1046E0000DF072F8E8603046002117F06BFC0646CA
:1046F00018F03CF870B10346B8F1020F0ED200BFBB
:1047000028461946FFF7D6FD304618F02FF8034625
:104710000028F5D1284604B0BDE8F087002200BF8C
:10472000E9682046571C10F06FF8304618F01EF864
:10473000034600283A46F3D1ECE700002DE9F043A8
:1047400083B00446800765D1894620684DF61C4138
:10475000C0F60301884205D04DF65C31C0F6030176
:10476000884257D169464846012217F051FB28B3C9
:104770002179402000224FF000080FF0A9FA2546C9
:10478000064635F8050F0199AA78B1FBF6F740EA1D
:104790000240B8422AD2D4E90210394471430DF0E4
:1047A00075F84C45E06085F80280A5F8008021D1BD
:1047B00069464846052217F02BFB1BE048460021BE
:1047C00017F000FC054617F0D1FF50B1014600BFBD
:1047D0002046FFF76FFD284617F0C8FF0146002866
:1047E000F6D1062003B0BDE8F08300BFC01B2880CF
:1047F000000CA870D4E9020107FB06F200FB0610CA
:104800000099FCF765F8A0683844A060062003B062
:10481000BDE8F0834FF6AD004FF63D11C0F6030042
:10482000C0F6030140F29D12FEF716FA2DE9F041A1
:104830000546007990460C4600F07F01402000229A
:1048400000270FF045FAD5E902212B684243216089
:1048500062602A794DF6F876C0F60306B34202F09C
:104860007F02A26002D03846BDE8F0815FEA88721C
:1048700007D595F90420B2F1FF3FC4BF0120BDE880
:10488000F081EA79B5F80530002743EA024200FBDF
:10489000021020603846BDE8F08100004168C2681F
:1048A0008B689A4224BF0020704780B591F804C0FD
:1048B0008368C96802F1010E1A440CF07F03844634
:1048C0001846CCF80CE0BDE880400FF0D1BB0000EA
:1048D00002684DF6F873C0F603039A424DF6903223
:1048E000C0F603024FF00003C1E90020C1E9023322
:1048F00002D00846704700BFC279B0F8050040EA10
:10490000024088600846704770B51D461346042271
:104910000E46C0F20202084619460FF023F8286836
:104920001FF0B4FC0478012E22D140202146002241
:1049300000260FF0CDF910200CF046FF05464DF68D
:104940001C404DF65C31C0F60300C0F60301012C9B
:1049500008BF0146002029602C71EE71A5F80560A2
:10496000AE600CF031FF01462846E96070BD00BF23
:1049700069682046BDE87040FFF73ABEF0B581B0E7
:104980000A790D46012A04460AD128A1204621F0C1
:10499000C3FFD5E902212046012323F0D1FF31E0F6
:1049A0001CA1204622F054F8A86858B31CA1204648
:1049B00021F0B2FFA86808B3E968287900220FF057
:1049C00057FB0146204601221DF0B4FFA8680228CB
:1049D00014D3012613A700BF2046394621F09CFFBF
:1049E0002879E96832460FF043FB01462046012250
:1049F0001DF0A0FFA86801368642EDD30AA120462B
:104A000021F08AFF0CA1204601B0BDE8F04021F062
:104A100083BF00BF61727261792827256327000078
:104A20002C205B002C2000005D0000006279746582
:104A30006172726179286200290000002DE9F04F4F
:104A400087B0A2B316460B460446880706D11868FD
:104A50004EF2A811C0F60301884237D02068A16841
:104A60001A46002317F008FA21684DF6F872C0F6CE
:104A70000302914202460DD0042E1DD02079E16838
:104A800000F07F0033460FF0BFFE062007B0BDE800
:104A9000F08F00BFE079B4F80510042E41EA004021
:104AA000024409D094F90400B0F1FF3FE7DD002093
:104AB00007B0BDE8F08F00BF2079E16800F07F000B
:104AC00007B0BDE8F04F0FF0D3BA00BFA06804AA4A
:104AD000194622F099FF002800F034812079002245
:104AE00000F07F0140200FF0F3F8042E054669D056
:104AF000B00740F023813068817B49B100EB810130
:104B0000096944F63D22C0F60002914200F0DA80C5
:104B10004DF65041C0F60301884240F00F81012D4F
:104B200040F0148101A93046052217F071F9DDE942
:104B300001984FF0000CDDE9042120684DF6F87370
:104B4000A2EB010BE668C0F6030398420BEB0807E3
:104B50007AD0012FC0F28780A2463AF8050FCDF82F
:104B600000C09AF8023040EA0340874212D9A06898
:104B7000384400FB05F130460CF088FE390CB14595
:104B8000E0608AF80210AAF8007008BF8146DDE9EB
:104B900004210646A36802EB0800ABEB020200FB0F
:104BA000056001FB05611A446A43FBF7D6FE0498D1
:104BB000009900FB0560494408FB05F2FBF7CDFEB8
:104BC0006EE000BF002D00F0C58020684DF6F87142
:104BD000C0F60301884200F09180DDE904012779E5
:104BE000A1EB00094020394600224FF0000A0FF0E7
:104BF0006FF8804610200CF0E7FD06464DF61C408D
:104C00004DF65C31C0F60300C0F60301012F08BF6A
:104C1000014608FB09F03160377186F807A0A6F855
:104C200005A0C6F808900CF0CFFDF060E168DDE962
:104C3000042302FB05119A1A6A43FBF749FE30462A
:104C400007B0BDE8F08F00BF94F90400B0F1FF3F5A
:104C50003FF72DAF002F79D1E079B4F8051041EA84
:104C6000004005FB006602FB056009EB0C0108FB38
:104C700005F2FBF772FEDDE90402A368404400FB85
:104C8000056002FB05619A1A6A43FBF766FEA0689D
:104C900005FB07F1384400FB05604942FBF716FFAE
:104CA00034F8050FA17840EA0140C01BD4F8031086
:104CB0002080000CA070C819C4F80300062007B0BB
:104CC000BDE8F08F3079002200F07F0140200EF027
:104CD000FFFF85423AD130684DF6F871D6E9028976
:104CE000C0F6030188427FF424AFF079B6F80510CE
:104CF00041EA004005FB00FC1DE700BF0498B0F14D
:104D0000807F31DA10200CF05FFD94E88E0000F116
:104D1000040C8CE88C00024632F8053F0160917863
:104D2000049F43EA014139441180090C91700599AF
:104D3000C91B816007B0BDE8F08F00BF1CA021F047
:104D400069FF00BF0DA021F065FF00BF21A021F089
:104D50009FFF00BF4FF63D1127A0C0F6030140F2B0
:104D60002322FDF779FF00BF4DF6F4104FF66611D0
:104D7000C0F60300C0F6030121F092FF6F6E6C795C
:104D800020736C6963657320776974682073746538
:104D9000703D312028616B61204E6F6E6529206166
:104DA000726520737570706F727465640000000026
:104DB00061727261792F62797465732072657175A1
:104DC00069726564206F6E20726967687420736908
:104DD000646500006C687320616E642072687320E3
:104DE00073686F756C6420626520636F6D706174A9
:104DF00069626C6500000000737A203E203000007C
:104E0000052809D004281CBF0020704789681E208F
:104E1000002908BF0E2070478868400001307047A5
:104E20001BF006FEC2884DF6CC209723C0F6030087
:104E300002A1972A08BF422321F03CFF63616E273D
:104E40007420636F6E766572742027257127206F3A
:104E5000626A65637420746F20257120696D706CBF
:104E6000696369746C79000003230E2908BF01236C
:104E700019460FF0ADB90000B0B50C460846114612
:104E800002221D460EF06EFD002C4FF00E0405D0E0
:104E900028681CF083FC002818BF1E242046B0BDE3
:104EA0000FF21C0C08A30E290BA108BF63460FF2DA
:104EB000200C08BF6146032A08BF194621F02CBD0B
:104EC00066616C7365000000747275650000000017
:104ED00046616C7365000000547275650000000047
:104EE000052804BF0020704703220E2908BF0122B5
:104EF000114623F075BE00001368002B18BF7047E1
:104F0000406818F089BC000002281CBF00207047D0
:104F100088689368984205D148685168884204BF00
:104F20001E2070470E20704780B582B09646D0E9AB
:104F300001029C460B4611461A467346CDF800C046
:104F400011F06AF902B080BD06281CBF002070472E
:104F5000D1E90101484040000130704710B584B0EC
:104F60000C46844691E809404EF2A811C0F60301B0
:104F7000BCF1550F8DE80A40039207D1694604221F
:104F80001FF002FC2060204604B010BD54F8042C31
:104F900069461FF0F9FB083C204604B010BD000034
:104FA0002DE9F04381B08846002A044660D020698C
:104FB000511E5342870001E0013329D2814280F023
:104FC000A58066693E4456F82360F507F4D1B5071D
:104FD0000AD4C6B135793A2DEED02D2D13D1B6684D
:104FE000002EE9D00FE000BF06F00E05062DE3D03D
:104FF0000A2D08D126F01F05E02DDDD036090D2E33
:10500000DAD0102ED8D0002001B0BDE8F08300BF68
:105010001046002115461DF041FB064601356FF094
:10502000030902E0013D012D27D02069002879D035
:1050300061690138206151F82070384620F03EFF48
:10504000002F46F82500EDD017F00300EAD1606A82
:1050500000F10802BA42E5D841680A44BA42E1D9EF
:105060007A6809EA9212891A08394160DAE700BFC2
:10507000104600211DF012FB0646676AE7B1D7E92A
:1050800000010C31814220D900F114013846002280
:105090000CF00AFC20B138680C30386015E000BF15
:1050A0007868002200F1080138460CF0FDFB7868B2
:1050B000216AC7E90001276218200CF085FB07462A
:1050C00010200021C7E90001676278683D180C30A4
:1050D000786045F8088F4FF49D70C5E90106D4E962
:1050E00003216069914209D3402101EB82010CF058
:1050F000CDFBD4E9032160611032E2604A1C2261D9
:1051000040F82150012001B0BDE8F08340F2962024
:1051100040F2E911C0F60400C0F6040140F2222278
:10512000FDF79AFD40F2EE0040F2E911C0F60400EE
:10513000C0F6040140F21D22FDF78EFD2DE9F0417D
:105140000C460846114606221D460EF00BFCACB17B
:105150002968C80730D1880756D408684DF65072C0
:10516000C0F60302904227D0012C53D14EF2E01238
:10517000C0F6030290424DD152E000BF4020012111
:105180000022012500260EF0A3FD10200CF01CFBD0
:1051900004464DF61C40C0F6030020600020257137
:1051A000E671A4F80560A6600CF00EFB01462046EF
:1051B000E160BDE8F08100BF08461BF0B7FB044684
:1051C0004020012100224FF0010800270EF080FD51
:1051D000054610200CF0F8FA06464DF61C40C0F6C5
:1051E0000300306005FB04F086F80480F771A6F830
:1051F0000570B4600CF0E8FA2146F060FBF766FC3D
:105200003046BDE8F08100BF012C03D101F006005B
:10521000022805D00120BDE8F041FFF7E9B900BF41
:1052200001A021F017FD00BF737472696E672061E1
:105230007267756D656E7420776974686F75742018
:10524000616E20656E636F64696E670080B582B0C1
:1052500001280B4608D118686B46009040F20A50AE
:105260000222019001E000BF02464EF2E010C0F6BB
:105270000300114600221FF051F802B080BD00006B
:1052800001464DF65040C0F6030019F089BE0000FB
:105290004DF65042C0F6030219F0D0BE4EF2E012B5
:1052A000C0F6030219F0CABE10B582B00446806889
:1052B00000F0070102290BD1C00801A926F0CEFD9C
:1052C0000199E2688A4209D3002002B010BD00BFF4
:1052D000D0E902100191E2688A42F5D2805C511C4B
:1052E00040000130E16002B010BD0000F0B58FB0A9
:1052F000002A40F0F58019B31868820726D000F024
:105300000702022A30D1012900F0F080032900F2BF
:10531000ED80C0080BA91C4626F0A0FD21680446BC
:10532000084600F00701022940F0C180C00826F0BD
:105330007FFF05460B9E002D40F0C280BAE000BF03
:105340004BF21450C0F603000FB0F0BD07684DF6E5
:105350005046C0F60306B7422FD04EF2E016C0F614
:105360000306B74200F09480012940F0BB80C107DA
:1053700026D108A901221C4616F04AFD002843D078
:105380004DF65041DDE90854C0F6030110201CF031
:10539000BDFB84608DB107462846214626F02CFDD2
:1053A0007860601C0CF010FA294622460646F86028
:1053B000FBF78EFA3846002131550FB0F0BD00BF23
:1053C0004410B4F1FF3F40F395800BA8214630F024
:1053D00043FE0D982146FBF779FB0BAC15CC511C15
:1053E000814204D020460CF051FA0C9A0446002069
:1053F0004DF65041A0540D900B90C0F603011020C3
:105400001CF084FB0C9937E020681CF063FA411013
:10541000002804A808BF102130F008FE2068694663
:1054200016F0D0FD044617F0A1F978B104AD00BF25
:105430001BF07CFAB0F5807F4ED2C1B2284630F026
:105440002BFC204617F092F90028F1D104AC15CCC2
:10545000511C814204D020460CF018FA059A0446EB
:1054600000204DF65041A05406900490C0F6030170
:1054700010201CF04BFB059905468160204626F064
:10548000BBFC014628466960EC600FB0F0BD00BF70
:1054900001292BD0032929D8002A7FF43AAFD0E97B
:1054A00002140B9100F0070102293FF43FAF456859
:1054B0000B9E2DB92046314626F09EFC0B9E0546DC
:1054C0004DF65041C0F6030110201CF01FFBC0E94F
:1054D0000156C4600FB0F0BD0FA021F0D9FB00BF92
:1054E0000EF0AAFA05A021F0B5FB00BF11A021F033
:1054F000B1FB00BF002021F0CBFB00BF77726F6EC5
:1055000067206E756D626572206F662061726775C7
:105510006D656E7473000000627974657320766146
:105520006C7565206F7574206F662072616E67659B
:1055300000000000737472696E6720617267756D98
:10554000656E7420776974686F757420616E20656C
:105550006E636F64696E6700F0B585B017460E46DE
:1055600004461BF065FA04F007010229054609D13B
:10557000E00804A926F072FC0446042F07D000209E
:1055800005B0F0BDD4E902040490042FF7D1B007B0
:1055900002D0049908E000BF30684EF2A812C0F6AD
:1055A00003020499904209D028463246002316F09F
:1055B00063FC205C4000013005B0F0BD01AA084644
:1055C000314622F021FAC8B3DDE901014EF2E012C2
:1055D000C0F6030226189542A1EB000722D04DF633
:1055E0001C40C0F60300854222D04DF65041C0F663
:1055F000030110201CF08AFA87608CB10546304602
:10560000394626F0F9FB6860781C0CF0DDF831466D
:105610003A460446E860FBF75BF928460021E1556D
:1056200005B0F0BD304639461CF024FF05B0F0BD92
:10563000384631461CF07EFA05B0F0BD01A021F0DD
:10564000E9FA00BF6F6E6C7920736C696365732033
:105650007769746820737465703D312028616B61CF
:10566000204E6F6E65292061726520737570706FB2
:1056700072746564000000002DE9F047002900F015
:105680004781044611F0030516D001F00F000228EF
:1056900040F0BE8042F0020002284FEA111340F0B1
:1056A00081806078012840F08780206A1946BDE833
:1056B000F04713F04FBC00BF4868C3B22C2B09DD84
:1056C0002D2B00F083802E2B00F0A0809D2B5DD031
:1056D0009EE000BF062B59D02C2B40F09980022A67
:1056E00008D08B6820460D461946164602F04CFF3E
:1056F00032462946CE68002E00F0B08016F0030036
:1057000040F0AC80354655F8040FC3B28E2B22D141
:1057100088464FF0FF319146022A01EB102A0DD046
:10572000B0F5007F0AD3000A474200BF55F8041FB6
:10573000204602F029FF0137781CF7D106EB8A00DA
:105740008668002E00F0FA8016F0030040F0F68024
:10575000706841464A46C0B2322800F0A78031281E
:1057600040F07C80022A00F0BD80B16820461546DA
:1057700002F00AFF606A012D40F0B88011F01CFFB2
:10578000606A0021BDE8F04713F0F6B8002A3FD167
:10579000030A01F1080220461946BDE8F04700F06F
:1057A000F3B800BF607801284ED1206A1946012263
:1057B000BDE8F04728F046BAD4E908204BF2A051E2
:1057C000C0F60301BDE8F04713F0D4BB8868F8B118
:1057D000830740F0A7804368DFB2922F40F0A28099
:1057E000B2B923F0FF02B2F5007F07D1C2682AB137
:1057F00012F0030702D11279AC2A09D0190A00F17C
:1058000008022046BDE8F04700F0BEB8002A3DD0AF
:10581000606808B1BDE8F0874FF218124DF6842099
:10582000C0F60302C0F603000E4611461CF0CCFA87
:10583000A26860602A4318BFBDE8F0873146086857
:10584000A060BDE8F08700BFD4E908204BF2985172
:10585000C0F60301BDE8F04713F08CBB6068002878
:10586000D8D14FF218124DF68420C0F60302C0F6CC
:1058700003000D4611461CF0A7FAA2686060002ADA
:10588000C8D129460868A060BDE8F0870A4652F8EA
:10589000080FF8B1830703D14368DFB2922FA0D07D
:1058A00020460121BDE8F04700F06EB8B16801F074
:1058B0000F0002284ED1022A1ED0012A20D1606A90
:1058C00011F03EFEB168606A09090022BDE8F047A8
:1058D00011F068BC204600210022BDE8F04700F02E
:1058E00053B800BF606A12F0CDFC606A0121BDE8C8
:1058F000F04713F041B800BF606A12F0FDFCB168D8
:10590000606A09090122BDE8F04711F04BBC00BFF5
:105910004FF28F0115A0C0F6030140F20E22FDF7F1
:105920009BF900BF4EF696704FF28F01C0F6030050
:10593000C0F6030140F23722FDF78EF94EF6C7603C
:105940004FF28F01C0F60300C0F6030140F2CF1200
:10595000FDF782F94EF6A3604FF28F01C0F6030007
:10596000C0F6030140F2E112FDF776F9214D505FD8
:1059700050415253455F4E4F44455F49535F4E552A
:105980004C4C28706E2900002DE9F0470D46002987
:10599000804641D092466F1E4FF0FF3900240BE045
:1059A000D8F8240021463A4613F0CAF8A146013F30
:1059B000781C04F1010411D05AF82460002EF6D0AE
:1059C00016F00300F3D130792228F0D1B9F1FF3F6E
:1059D000E6DDD8F8040038B3BDE8F087B9F1FF3F41
:1059E00004DCD8F82400294613F0FAF854464E4651
:1059F0000BE000BF016840460022FFF73DFE013D7D
:105A0000A6F1010604F10404E6D0002E2046F1D1EF
:105A10005AF829000830EDE7D8F824002946BDE8F7
:105A2000F04713F0DDB800BF4DF68420C0F6030048
:105A300007A11CF0C9F9D8F80810C8F8040000291B
:105A400018BFBDE8F0873068C8F80800BDE8F087E7
:105A50006D756C7469706C65202A7820696E2061A0
:105A6000737369676E6D656E740000002DE9F04315
:105A700081B00D4601F00F01022904460AD1607879
:105A80002B09012856D1206A194601B0BDE8F04320
:105A900013F060BAB5FA85F0410905F00300B0FAD9
:105AA00080F25209914251D028792C2850D1A9680E
:105AB000204602F069FDD5F80C90B9F1000F62D0D4
:105AC00019F003005FD14F4657F8040FC1B28E2979
:105AD0001ED14FF0FF31B0F5007F01EB102809D344
