:020000040800F2
:10000000E828012009030008194B00089549000859
:10001000F94A0008C51F00087D61000800000000C3
:100020000000000000000000000000001B030008AA
:10003000E51F0008000000002D040008E30300088D
:1000400023030008230300082303000823030008F8
:1000500023030008230300082303000823030008E8
:1000600023030008230300082303000823030008D8
:1000700023030008230300082303000823030008C8
:1000800023030008230300082303000823030008B8
:1000900023030008230300082303000823030008A8
:1000A000230300081D5D0008230300082303000844
:1000B0002303000823030008230300082303000888
:1000C0002303000823030008230300082303000878
:1000D0002303000823030008230300082303000868
:1000E0002303000823030008230300082303000858
:1000F0002303000823030008230300082303000848
:100100002303000823030008230300082303000837
:100110002303000823030008230300082303000827
:100120002303000823030008230300082303000817
:100130002303000800000000000000002303000863
:10014000230300082303000823030008894B000849
:1001500023030008230300082303000823030008E7
:1001600023030008230300082303000823030008D7
:100170002303000823030008000000000000000023
:10018000230300082303000800F002F800F0ACF895
:1001900014A696E8000CB244B344DA4501D100F04D
:1001A000A3F8BAE80F000FA696E83000A5EB040507
:1001B00004EB0607AAEB0704A7F101074FEA1515A0
:1001C0004FEA3414A4F10104AC4201D300F08CF8DE
:1001D00013F0010F18BFFB1A43F0010300F001F800
:1001E000DBE718474CF408006CF40800103A24BF11
:1001F00078C878C1FAD8520724BF30C830C144BF8C
:1002000004680C6070470000704700000023002461
:1002100000250026103A28BF78C1FBD8520728BF16
:1002200030C148BF0B6070476E2900F0FF85702910
:1002300000F04387662938F0B5A0652938F0B2A0F0
:10024000672938F0AFA0612938F0AEA003681B0A17
:1002500028BF41F08001692900F0AC85642900F0D5
:10026000A985752900F0A6856F2900F0D186782927
:1002700000F00F87E92900F06B86E42900F068861A
:10028000F52900F06586EF2900F0CE86F82900F008
:100290000E870368DB0928BF41F08001632901F064
:1002A0003784732901F03C84E32901F04784F32962
:1002B00001F04C84002070471FB577F0B5FF9DE832
:1002C000030000F0A7FC01F09DFC040000200021C9
:1002D00077F022FD401C60600020002177F006FDD1
:1002E000E0601FBD10B510BD01F05FFC1146FFF7C7
:1002F000E3FF22F059FD01F03BFD03B4FFF7F2FFED
:1003000003BC01F06BFD0000094880470948004725
:10031000FEE7FEE7FEE7FEE7FEE7FEE7FEE7FEE7B5
:10032000FEE7FEE704480549054A064B7047000012
:10033000095D000889010008E8220120E828012061
:10034000E8240120E8240120000000000000000053
:1003500000040020E828012000000008BC04002060
:10036000001000E07FA219000000FF4000BF00BFA6
:1003700072B65FF824005FF8241001F104010160F7
:100380004FF0E0205FF83010C0F8081D5FF834002F
:100390005FF83C10096801605FF83C00016841F0BB
:1003A000010101604FF0E0205FF8481041614FF01B
:1003B000070101614FF00001C0F8181D4FF07F41A7
:1003C000C0F81C1D5FF86010C0F8201D7047FFF7D3
:1003D000FEBFFFF7FEBFFFF7FEBF01B5BDE801405E
:1003E000704701B500F08CF8BDE801407047FFF799
:1003F000FEBFFFF7FEBF000000000000000000008D
:100400004FF000002A4A1060EFF3148020F004003F
:1004100080F3148862B64FF080504FF0E021C1F8AD
:10042000040DBFF34F8FBFF36F8FFEE72148224AC1
:100430004FF00003016891B10360EFF3098C2CE9E0
:10044000F00F1EF0100F01D12CED108A1B4C4CF850
:1004500004ED2568C1F808C00DB18D61236072B646
:100460001168B1B1016062B64F68144C8D6907F133
:1004700001074F602560D1F808C05CF804EB1EF05E
:10048000100F01D1BCEC108ABCE8F00F8CF3098886
:10049000704772B61168016009B962B6F9E74FF0AA
:1004A00000674FF0E028C8F8047D62B6DCE77047CB
:1004B000340400202404002028040020200A002006
:1004C000026922F00702A2F144026FF002031360F6
:1004D0004FF0000353609360D360136153619361E5
:1004E000D361136253629362D362136353634FF019
:1004F000FF339363D1634FF080731364826070475E
:100500002249086800F101000860214B1A683AB1DD
:10051000A2F101021A601AB91E4B4FF001001860D7
:100520001D490868026822B11C4B4FF001021A6095
:1005300008E000F104001A4B1A68904201D1194BEF
:1005400018680860134B1A6812B914490868D0B1CA
:100550002DE901401149086808B108F051FA0D4B26
:100560001A6872B108F0C0F90F48016849B90F481C
:1005700001680F4A13680F484FF08052994200D02B
:100580000260BDE80140BFF34F8F70476C0500204B
:10059000200A0020D0040020C8040020CC04002041
:1005A000580500205C0500203404002024040020AD
:1005B0002804002004ED00E010B5044600211120BD
:1005C000ABBE002C00D0206010BD70B5A0FB014078
:1005D0000021D4F1FF3271EB00003CBF002070BD60
:1005E000204600F046FB05001CBF214600F06BFAD8
:1005F000284670BD70B50446051F00F0EFFA00688C
:10060000002C14BF446870BD002C18BFAC423CBF26
:1006100020466468F8D301680A18AA4218BF4560EA
:1006200003D12A6805461144016028684119A14296
:100630001CBF6C6070BD61686960216808442860F7
:1006400070BD53EA020C00F069802DE9F04B4FF0C9
:100650000006002B1FBFB3FA83F503FA05F424FA52
:1006600005F65E4012BF1643B2FA82F502FA05F4AF
:10067000C5F120051EBF22FA05FC44EA0C04203512
:1006800056EA044C4FEA144418BF641C4FF00008AB
:100690004FF00009904271EB030C39D3002919BFC8
:1006A000B1FA81F701FA07F6B0FA80F700FA07F617
:1006B000C7F120071EBF20FA07FC46EA0C062037C8
:1006C000B6FBF4FCA7EB0507103F07F01F0BCBF1BF
:1006D00020062CFA06F60CFA0BFB44BFB3460026A4
:1006E000202FA4BF5E464FF0000B5BEA060C08BF4C
:1006F0004FF0010B19EB0B0948EB0608ABFB027C32
:1007000006FB02CC0BFB03CCC01B71EB0C01C1E759
:100710000B46024641464846BDE8F08B13B50843F8
:1007200018BF4FF0FF300146AFF30080BDE81C401A
:10073000704700000FB41CB50C0007AA009007D04A
:100740004142A14202D32044401E01E04FF0FF305D
:10075000074B7B4469460190069800F080FB00211E
:10076000002C01D0009A11701CBC5DF814FB000035
:100770002F070000401ECAB210F8011F8A4202D0A3
:100780000029F9D10020704740EA010310B59B070A
:100790000FD1042A0DD310C808C9121F9C42F8D0EB
:1007A00020BA19BA884201D9012010BD4FF0FF309C
:1007B00010BD1AB1D30703D0521C07E0002010BDB2
:1007C00010F8013B11F8014B1B1B07D110F8013B3E
:1007D00011F8014B1B1B01D1921EF1D1184610BD1F
:1007E00010B5431C02E010F8011B71B18107FAD16A
:1007F0004FF0013202C88C1A8C4314EAC211F9D0AE
:10080000C01A0A0603D0C01E10BDC01A10BD0A04CB
:1008100001D0801E10BD0902FCD0401E10BD40EA70
:10082000010370B59B072ED14FF00136042A2AD35D
:1008300008C810C99D1B9D43121F15EAC61517D085
:10084000D8B2E1B2401A50EA056110D198B2A1B213
:10085000401A50EA05410AD123F07F4024F07F413D
:10086000401A50EA052102D1180EA0EB146070BDA9
:10087000A342DBD018BA21BA884201D9012070BD49
:100880004FF0FF3070BD0AB9002070BD10F8013B79
:1008900011F8014B63B1A3420AD1521E08D010F8DF
:1008A000013B11F8014B1BB1A34201D1521EEDD106
:1008B000181B70BD032A40F2308010F0030C00F0CA
:1008C000158011F8013BBCF1020F624498BF11F88A
:1008D00001CB00F8013B38BF11F8013BA2F1040243
:1008E00098BF00F801CB38BF00F8013B11F00303BB
:1008F00000F06780083AC0F0088051F8043B083ADD
:1009000051F804CBA0E80810F5E7121D5CBF51F8C0
:10091000043B40F8043BAFF30080D20724BF11F83A
:10092000013B11F801CB48BF11F8012B24BF00F89F
:10093000013B00F801CB48BF00F8012B7047431A78
:1009400028BF9A427FF6B6AF10441144032A40F202
:10095000268010F0030F1EBF11F8013D521E00F853
:10096000013D10F0030F7FF4F6AF11F0030300F028
:100970006D80083AC0F00B8051F8043D083A51F8F8
:1009800004CD40F8043D40F804CDFFF7F3BF121D3D
:100990005CBF51F8043D40F8043DAFF30080D2073E
:1009A00024BF11F8013D11F801CD48BF11F8012C09
:1009B00024BF00F8013D00F801CD48BF00F8012C2C
:1009C000704710B5203AC0F00B80B1E81850A0E88D
:1009D0001850B1E81850A0E81850203ABFF4F5AF0D
:1009E0005FEA027C24BFB1E81850A0E8185044BF69
:1009F00018C918C0BDE810405FEA827C24BF51F8D6
:100A0000043B40F8043B08BF7047D20728BF31F8C9
:100A1000023B48BF11F8012B28BF20F8023B48BF1A
:100A200000F8012B7047431A28BF9A427FF6C9AFDE
:100A30001044114410F0030F1EBF11F8013D521E67
:100A400000F8013D10F0030F7FF4F6AF103AC0F04C
:100A50000A8010B531E9185020E91850103ABFF457
:100A6000F9AFBDE81040530724BF31E9081020E971
:100A7000081044BF51F8043D40F8043D12F0030F44
:100A800008BF7047D20728BF31F8023D48BF11F8B0
:100A9000012C28BF20F8023D48BF00F8012C704708
:100AA00001B501F0FF03114643EA032242EA024284
:100AB00000F00BF801BD02F0FF0343EA032242EA13
:100AC000024200F002B84FF000020429C0F0128088
:100AD00010F0030C00F01B80CCF1040CBCF1020FF1
:100AE00018BF00F8012BA8BF20F8022BA1EB0C01C6
:100AF00000F00DB85FEAC17C24BF00F8012B00F8BC
:100B0000012B48BF00F8012B70474FF0000200B5E1
:100B1000134694469646203922BFA0E80C50A0E820
:100B20000C50B1F12001BFF4F7AF090728BFA0E8CE
:100B30000C5048BF0CC05DF804EB890028BF40F89A
:100B4000042B08BF704748BF20F8022B11F0804FDC
:100B500018BF00F8012B704730B44FF0013C50F83B
:100B6000042B51F8043BCCFA52F4D51A20D1FCB92D
:100B700050F8042B51F8043BCCFA52F4D51A17D193
:100B8000B4B950F8042B51F8043BCCFA52F4D51AFE
:100B90000ED16CB950F8042B51F8043BCCFA52F446
:100BA000D51A05D1002CDAD030BC4FF000007047C8
:100BB00029BAB1FA81F111F01801D1F12000844075
:100BC000F2D1CA40CB4012F0FF0213F0FF0330BC59
:100BD000D01A704770477047704770470048704799
:100BE000D8000020704770477047704738B50446FA
:100BF0000A4600206946AFF30080002808BF38BDD0
:100C000002460099204600F035FB012038BD012046
:100C100000F0C4BFF8B5AFF30080054600200C46D5
:100C20000C2000BF0646A819A0420DD932466946DD
:100C30000020AFF30080070008BF00F0AFFF00986E
:100C4000A04218BF0546C419FFF7C8FF0560074654
:100C5000F01D20F007004619284600F005FBB442BD
:100C600008BFF8BDA21B31463868BDE8F84000F067
:100C700001BB70B50646FFF7B1FF056806F10B0032
:100C800020F00704B4429CBF002070BD2B466A6868
:100C9000BAB11068A04210D304F1080188423CBFE9
:100CA0005068586007D35168101941601168091BDA
:100CB000016058601460101D70BD13465268002A10
:100CC000E7D121462846FFF791FF0028DED170BD0D
:100CD000004870470000002010B500F0C1FA00681D
:100CE00010BD10B5044600F0BBFA046010BD70B52D
:100CF000044685690068C10601D5302600E020263B
:100D0000C00707D070BDD4E9012130469047206A62
:100D1000401C20626D1EF6D570BD70B50446856915
:100D20000078C00707D170BDD4E901212020904789
:100D3000206A401C20626D1EF6D570BD09684A0508
:100D400001D540B27047C905FCD500B270470968AB
:100D50004A0501D5C0B27047C905FCD580B27047BD
:100D600070B50C460546012A05D02878800600D5C6
:100D7000EA69002302E0012305E05B1C934202D2F2
:100D8000E05C0028F9D1A869E618C01AA861286AB1
:100D9000184428622846FFF7AAFF04E0D5E901219C
:100DA00014F8010B9047B442F8D32846FFF7B5FF7B
:100DB00070BD00002DE9F041064600241068752939
:100DC000314616A510D0FFF7B9FF002802DA4042DD
:100DD00013A507E031688A0701D512A502E049078B
:100DE00004D511A5012401E0FFF7B1FF00210A227B
:100DF00006F1240709E0B0FBF2FCB0FBF2F302FBC2
:100E00001C00303078541846491C0028F3D1234682
:100E10002A463046BDE8F04100F08BBA00000000E1
:100E20002D0000002B000000200000001168026867
:100E3000006A530501D508700AE0D30501D5088082
:100E400006E0130603D5C217C1E9000200E00860FE
:100E50000120704701694A1C02610878704700B59B
:100E60008FB0CDE901310021059105497944CDE9E3
:100E700003101146684600F02BF90FB000BD0000CA
:100E8000E5FFFFFFD1E900239A4202D2531C0B6019
:100E9000107070472DE9FF5F15468A460446DFF85B
:100EA000AC80F8440027D8E900103E46CDE9001098
:100EB00010E03AF816106A4602A800F04BFE411CFA
:100EC00007D02178890603D5E269391891420DD8F7
:100ED0000744761C2078800602D5E069B84205DD1B
:100EE000AE42E6DB3AF816000028E2D1A069C01B4A
:100EF000A0612046FFF7FBFED8E90010CDE9001005
:100F0000002017E03AF818106A4602A800F022FE06
:100F1000B0F1FF3F81460BD000250DF1080B05E035
:100F2000D4E901211BF8050090476D1C4D45F7D30E
:100F300008F10100B0428046E4DB206A38442062B8
:100F40002046FFF7EAFEBDE8FF9F00002279070078
:100F50002DE9F0418046D21D22F007020025D2E99A
:100F60000002F52915A614D0011E72F1000106DA5F
:100F70000023D0EB030063EB020211A608E0D8F8CF
:100F800000108B0701D50FA602E0490701D50EA678
:100F900001251146002408F1240704E000F084F93B
:100FA00030323A55641C50EA0102F7D12B463246E2
:100FB00021464046BDE8F04100F0BBB9000000000A
:100FC0002D0000002B0000002000000030B40021A4
:100FD00000F1240408E002F00705D208303542EAA7
:100FE0004372DB086554491C52EA0305F3D10468D7
:100FF000002310A2250708D504F020040C4304D0D8
:10100000C46901230CA2641EC46130BC00F091B914
:1010100010B5044621461068FFF799FE02462046A7
:10102000BDE810400023D1E7D21D22F00701D1E92D
:101030000023CBE70000000030000000F0B40D46B4
:101040000188090502D5214C7C4402E01F4C7C44F8
:101050000E34002100F1240608E002F00F07120907
:10106000E75D42EA03721B097754491C52EA030701
:10107000F3D102780023120704D5702D06D009B1F0
:10108000022311342246F0BC00F053B9012310347E
:10109000F8E770B504460D4621461068FFF757FE85
:1010A000024629462046BDE870400023C6E7D21D0F
:1010B00022F00703D3E90023C0E70368126843F076
:1010C000200303600823C3610023B7E78477070088
:1010D0002DE9F05F894604464FF0000ADFF874B14D
:1010E000FB44C0F820A02046E1688847002874D05F
:1010F000252806D0D4E901219047206A401C2062AF
:10110000F1E700265F462046E1688847202805462B
:1011100007DB312D05D2781910F8200C08B10643F1
:10112000F1E7B00701D526F00406C4F81CA000279B
:10113000C4F818A02A2D09D0284676F0B1FD38B39E
:1011400004EB8708303DC8F8185019E059F8041B23
:10115000204604EB87029161E1688847012F05462C
:1011600018D1E069002820DA26F020061DE0D8F822
:10117000180000EB800005EB40003038C8F818007C
:101180002046E1688847054676F08AFD0028EED1C2
:10119000012F0AD02E2D08D12046E16888477F1CF8
:1011A0000546022F46F02006C4DBA069002803DABA
:1011B000404246F00106A061F00701D026F010067B
:1011C0006C2D0BD0682D09D04C2D39D06A2D35D01F
:1011D000742D35D07A2D33D016E038E0E1682F46F3
:1011E00020468847B842054609D16C2F26D04FF4D7
:1011F0008060E168064320468847054604E06C2F7E
:101200001AD04FF4807006430DB3A5F141001928A0
:1012100002D8203546F400664A4629462046266014
:101220004E46FFF701F880B101280BD0F61D26F0DD
:10123000070000F1080956E74020E4E78020D8E7DE
:101240000020D6E706F104094DE7284652E7206A58
:10125000BDE8F09F1477070000487047D0000020D9
:1012600000487047D00000200021016041607047B5
:101270000C207047034640688C46002818BF8842FF
:101280003CBF03464068F8D318681844884207D02A
:101290000CF1030020F00700001D411A521A01460C
:1012A000081D0A60FFF7A6B930B5B0F10A0271F166
:1012B00000034FEA900E4EEA817EB0EB0E0061EB28
:1012C00091014FEA101E4EEA017E10EB0E0041EB39
:1012D00011114FEA102E4EEA016E10EB0E0041EB99
:1012E00011214FEA104E4EEA014E10EB0E0041EB79
:1012F0001141401841F100014FEAD00040EA41702D
:101300004FEAD1014FEA810444EA907410EB800562
:1013100044EB01046D1944EB0404521BA3414FF04C
:10132000000348BF0A3200D530BD401C41F1000126
:1013300030BD2DE9F0470D4699469246044600F12E
:1013400024080168880604D5E06921F010012160B5
:1013500000E00120A84201DD471B00E00027A16951
:101360007A1902EB0900081AA0612078C00602D49D
:101370002046FFF7BCFC002608E0D4E901211AF85A
:1013800006009047206A401C761C20624E45F4DB24
:101390002078C0060AD52046FFF7A9FC06E0D4E96C
:1013A000012130209047206A401C2062381EA7F19E
:1013B0000107F4DC07E0D4E9012118F805009047A3
:1013C000206A401C2062281EA5F10105F3DC20469E
:1013D000FFF7A3FC2078000602D50220BDE8F087C5
:1013E0000120FBE72DE9FF4F0C461E464FF0FF376B
:1013F0008BB0D2E90001DDF860800A908A46C1F323
:101400000A5505B93D46002108464FF00000BAF1E3
:10141000000F00F4400005DA00EB80004FF44001BB
:1014200001EA50004FEA9059B9F1010F00DDB946C9
:101430000A9850EA4A000ED044F61050A5F2FF3543
:1014400045432F14B8F1000F1ED07542291E1EDD32
:10145000C9F100021CE0B8F1010F4FF0000001D00B
:10146000302103E0F24305E02154401CB042FBDB95
:1014700030460022002121540B99C1F80880C1E9AF
:1014800000200FB0BDE8F08FBD1B6D1CDEE74A46A3
:1014900000DA694206A800F0F9FB06AB93E8070002
:1014A00003AB83E8070050460A9972F091FD8DE87E
:1014B0000700A0F500501F3800900398002D0ADDAA
:1014C00042F21F014A460844002303A903906846DC
:1014D00072F0FAFF09E0A0F500504A461F380023D9
:1014E00003A90390684673F004F88DE80700000430
:1014F000000C03D04FF0FF30410800E01046B8F177
:10150000000F03D00022009215461EE0751E05D480
:10151000FFF7CAFE303262556D1EF9D5B34601227F
:10152000084302D000227F1C04E02078302801D13B
:1015300000227F1E002A099784D01DE0112D07DAB2
:10154000FFF7B2FE303262556D1C50EA0102F5D150
:10155000084302D00098C8B10EE00021681E05E0E3
:10156000235C625C63542254401E491C8142F7DBB9
:10157000AB46A81B401E0990002004F80B000B98F6
:10158000099AC0F80880C0E9002B7AE711264FF0CD
:10159000000857E72DE9F04F88460446D21D22F097
:1015A000070191B0D1E90001CDE90A0173F0D8F843
:1015B00002460B98C00F01D02D2007E0206881075C
:1015C00001D52B2002E0202101EAC000032A099066
:1015D00001D0072A05DB03464146204600F016FBF2
:1015E0000BE12078800601D5E06900E00620B8F123
:1015F000650F814606D0B8F1660F18D0B8F1670FB5
:1016000070D131E00020B9F1110F009001DB1123FE
:1016100001E009F101030AAA01A90CA8FFF7E2FE03
:10162000DDE90C70002609F10105834647E0012041
:101630004B4600904FF000470AAA01A90CA8FFF7FB
:10164000D1FEDDE90DB00C995D46002610B909F117
:1016500001000D18B9EB050003D4C0F1FF3609F104
:101660000105A5EB09002BE0B9F1010F01DA4FF0FC
:1016700001090020B9F1110F0090484601DD112346
:1016800000E003460AAA01A90CA8FFF7ABFEDDE9BA
:101690000C704D4600268346207800070AD4AB45DF
:1016A00000DA5D4601A8012D04DD411911F8011C85
:1016B000302907D04F4502DA17F1040F04DA012070
:1016C00082460FE06D1EEEE7002F02DCED1B3E446C
:1016D00003E0781CA84200DD7D1CB81B00F1010A64
:1016E0004FF000472078000703D4AA4501DB4FF0F4
:1016F000FF3A0021B7F1004F0DF143088DF8431078
:1017000024D002202B23002F01DA7F422D230A212F
:10171000021EA0F1010000DC5FB197FBF1FC97FB1A
:10172000F1F201FB1C7C17460CF1300C08F801CDDE
:10173000EEE7A8F1010003702188090501D54521D4
:1017400000E06521A0F1010800F8011C09980FA92B
:10175000A1EB0807FF1D00B10120411901EBEA7060
:10176000A1693844081A401EA0612078C00602D43E
:101770002046FFF7BCFA099828B1D4E90121904727
:10178000206A401C20622078C00622D52046FFF740
:10179000AEFA1EE0002E04DBB34502DD01A8805D39
:1017A00000E03020D4E901219047206A401C2062EB
:1017B000761CAAF101005FEA000A0AD100F022FAC1
:1017C000C0680168405CD4E901219047206A401C50
:1017D0002062281EA5F10105DCDC07E0D4E9012127
:1017E00018F8010B9047206A401C2062381EA7F1B0
:1017F0000107F3DC2046FFF790FA032011B041E621
:101800002DE9F04F04460D46D21D22F0070089B0A5
:10181000D0E900974846394672F0A2FF0246F80F19
:1018200001D02D2307E02068810701D52B2302E09A
:10183000202101EAC0038DF820300BB1012000E027
:101840000020032A824601D0072A04DB29462046CD
:1018500000F0DCF93FE12078800601D40D2500E09E
:10186000E569C7F30A560D2D49DA00214FEA175BE7
:1018700008464FF00000002F00F4400007DA00EBAC
:1018800080004FF4400100EBD07001EA6000811548
:10189000012901DD4FF0FF3100224FEA850CBCF138
:1018A000180F06D31346ACF118004FF08052C24017
:1018B00003E04FF4801323FA0CF30CF10C0CBCF191
:1018C000200F04D3ACF1200C09FA0CF001E007FA68
:1018D0000CF000294FF0004801DD18B90FE00ED1DF
:1018E00040450CD319EB02095F4121B9404502D1B3
:1018F0009F4329EA0209BBEB175F00D0761C2088C2
:10190000000502D57B48784402E07A4878441938CB
:1019100008AA302302F80A30037C0AF10101002EE4
:101920000AF1020A53546A4602DC4FF0300101E02A
:101930004FF031014FF001088DF8001002D0A6F2EF
:10194000FF3603E059EA470100D06B4E002D02DC60
:101950002178090704D54FF002082E218DF80110D7
:10196000C44600210BE0C7F303433F01C35C491C9D
:101970006D1E02F80830052908F1010801DA002D72
:10198000F1DC00210CE000EB1973491C1B786D1E83
:10199000082902F808304FEA091908F1010801DAAC
:1019A000002DF0DC21688B0602D516E0A8F10108B5
:1019B000E04505DD02EB080313F8013C302BF5D0C0
:1019C000B8F1000F09DD02EB080313F8013C2E2BE0
:1019D00003D1090701D4A8F10108002D05DD3E213E
:1019E00002F808106D1E08F10108407C002E02F874
:1019F000080008F1010804DA2D20764202F80800F8
:101A000002E02B2002F808000A214FF47A70864287
:101A100008F101080BDB96FBF0F3303302F80830D5
:101A200096FBF0F308F1010800FB136601E0642E59
:101A30000CDB642096FBF0F3303302F8083096FBA1
:101A4000F0F308F1010800FB136601E00A2E06DB43
:101A500096FBF1F0303002F8080008F1010896FB1F
:101A6000F1F001FB1060303002F80800A16908F1C4
:101A7000010808EB050202EB0A00081AA0612078B1
:101A8000C00602D42046FFF732F9216A08AE01EB06
:101A90000A00206204E0D4E9012116F8010B904706
:101AA000BAF1010AF7D22078C00602D52046FFF726
:101AB0001EF96E4609E016F8010B3E280FD0D4E956
:101AC00001219047206A401C2062B8F10108F2D23F
:101AD0002046FFF722F909B00320BDE8F08F206A05
:101AE0002844206203E0D4E90121302090476D1E94
:101AF000EBD3F8E7756F070002FCFFFF10B54369F1
:101B000013B1AFF3008001E0FFF72AF9012010BD07
:101B1000127800F124010A7000224A700122EDE7D8
:101B200011684FF0FF32E9E710B5436913B1AFF325
:101B3000008001E0FFF7AEF9012010BD128800F12E
:101B4000240182840022C2840122EDE711684FF053
:101B5000FF32E9E72DE9F04116460C46054600F054
:101B600049F8036893F80101012807D0FF2C12D827
:101B7000185D80B101202C70BDE8F081D3F8070119
:101B80003246214603F20713C7182846BC46BDE873
:101B9000F041002360474FF0FF30EDE710B500F053
:101BA000F5F8BDE8104000F0ECB87546FFF754FBBF
:101BB000AE4605006946534620F00700854618B03A
:101BC00020B5FEF7AFFBBDE820404FF000064FF018
:101BD00000074FF000084FF0000BAC46ACE8C0091E
:101BE000ACE8C009ACE8C009ACE8C00921F00701C5
:101BF0008D46704710B500F005F8001D10BD00BF00
:101C00001961070000487047F00000202DE9F041FD
:101C10001F46044603260168072A01F4006004DB1E
:101C200008B116A505E016A503E008B115A500E06A
:101C300015A521F010002060A069C01EA0610FB1A1
:101C4000401EA0612046FFF752F84FB1D4E90121B0
:101C500038469047206A401C2062C01C206206E083
:101C6000206AFAE7D4E9012115F8010B9047761EA6
:101C7000F8D22046FFF751F8BDE8F0814E414E0002
:101C80006E616E00494E4600696E66002DE9F047B0
:101C9000814616468AB0354878440DC88DE80D0057
:101CA00032487844801C03AC0DC884E80D0041F62E
:101CB0009B300844372190FBF1F290FBF1F5A5F140
:101CC000800501FB12041B3C02D56442012000E0A8
:101CD0000020DFF898A080460027FA44AAF1BE0A47
:101CE0000EE0E0070AD03246684607EB47010123C1
:101CF0000AEB810172F0FDFB8DE8070064107F1C88
:101D0000002CEED1194F7F44AE3F19E0E80715D003
:101D100007EB04100DF1180A90E80E008AE80E0097
:101D2000C068F04201D1981908903246012306A9F3
:101D300003A872F0DEFB03AB83E807006D10641CA0
:101D4000002DE3D14FF0010332466946B8F1000F90
:101D500003A802D072F0B8FB01E072F0CAFBC9E937
:101D60000001C9F808200AB0BDE8F087746C0700CC
:101D700010B50446AFF300802046BDE81040FEF7E2
:101D8000BCBA002801D000F029B8704710B501286E
:101D900005D0002103A000F027F8012010BD09A103
:101DA000F8E7000053494752544D454D3A204F75CE
:101DB00074206F662068656170206D656D6F727943
:101DC000000000003A2048656170206D656D6F72FB
:101DD0007920636F72727570746564000149182010
:101DE000ABBEFEE72600020070B505460C460A2091
:101DF00000E06D1C00F011F835B128780028F8D10A
:101E000002E0641C00F009F814B120780028F8D131
:101E1000BDE870400A20AFF3008008B569468DF830
:101E200000000320ABBE08BD80B5AEB02D900023EE
:101E30002C932D982B906946B02088610120486131
:101E40000B61C86088604FF48060486041F23840A0
:101E5000C2F20100086041F28830C2F2010046F28D
:101E6000C701C0F608014CF6E912C0F6060207F0F9
:101E7000DDF82C902C98B8B1FFE746F2F901C0F6D6
:101E800008010DF185000A902722FEF713FD0A983C
:101E9000FEF7A6FC0A9982B248F61840C2F200008A
:101EA000642302F0DFFCFFE769463420086040F657
:101EB0001830C2F2000046F2B001C0F6080148F640
:101EC0006442C2F200024FF4806306F0F5FF2C90EA
:101ED0006946B02088610120486100230B6102201F
:101EE000C86088604FF40040486049F26800C2F260
:101EF0000000086041F63800C2F2010046F24F11BE
:101F0000C0F608014CF67522C0F6060207F08EF8FE
:101F10002C902C98B8B1FFE746F22011C0F60801CA
:101F20000DF1560009902F22FEF7C4FC0998FEF728
:101F300057FC099982B248F61840C2F200006423A7
:101F400002F090FCFFE76946B020886101204861FB
:101F500000230B610320C86088604FF480604860F4
:101F600041F69810C2F20100086041F6E800C2F2A2
:101F7000010046F2BC01C0F608014CF6A122C0F6F1
:101F8000060207F053F82C902C98B8B1FFE746F200
:101F9000D201C0F608010DF12F0008902722FEF7AC
:101FA00089FC0898FEF71CFC089982B248F6184094
:101FB000C2F20000642302F055FCFFE72C982EB01B
:101FC00080BD000080B572B646F28610C0F60800EB
:101FD00018F060FD46F2D510C0F6080018F0C4FCF9
:101FE000FFE7FEE77047000080B582B072B646F2A8
:101FF000A000C0F608000190FFE701980078A8B1A2
:10200000FFE7FFE744F20040C4F20000006800066A
:10201000002801D4FFE7F5E70198411C0191007801
:1020200044F20441C4F200010860E6E7FFE744F22D
:102030000040C4F2000000684006002801D4FFE719
:10204000F5E7FFE740F20040C4F20200102100F083
:1020500023FB00200090FFE700984AF21F11C0F216
:102060000701884206D8FFE700BFFFE7009801306C
:102070000090F1E7E6E7000080B584B0039000F03F
:1020800037FB0290039801900198013048B1FFE7B7
:1020900040F2B800C2F200000178019808440190B3
:1020A000FFE7FFE700F024FB0299401A01998842FC
:1020B00001D2FFE7F6E704B080BD00008EB00D90BE
:1020C0000C9100200A90099008900B90FFE70B9864
:1020D0000F2800F20381FFE70B99012088400A9046
:1020E0000C980A990840099009980A99884240F08A
:1020F000F080FFE70B9820F0030043F60801C4F2DC
:102100000101405808900B9800F0030081000F2057
:1021100000FA01F1089808400890089807900D9877
:102120000021C4F20201884203D1FFE7002006909B
:102130005EE00D9840F20041C4F20201884203D1F2
:10214000FFE70120059050E00D9840F60001C4F231
:102150000201884203D1FFE70220049042E00D987B
:1021600040F60041C4F20201884203D1FFE7032098
:10217000039034E00D9841F20001C4F2020188425C
:1021800003D1FFE70420029026E00D9841F20041C0
:10219000C4F20201884203D1FFE70520019018E054
:1021A0000D9841F60001C4F20201884203D1FFE715
:1021B000062000900AE00D9941F60042C4F20202A6
:1021C0000820914208BF07200090FFE70098019087
:1021D000FFE701980290FFE702980390FFE703985A
:1021E0000490FFE704980590FFE705980690FFE745
:1021F00007980699C9B20B9A02F003029200914027
:10220000884233D1FFE7099A43F60041C4F2010145
:10221000086890430860099A43F60441C4F201013A
:10222000086890430860099A43F60C41C4F2010122
:10223000086890430860099A43F60841C4F2010116
:102240000868904308600B9800F0030081000F209D
:1022500088400890089B0B9820F0030143F6080281
:10226000C4F20102885898438850FFE70B98410058
:10227000032000FA01F30D9A116899431160DDF80B
:102280002CC00CF007018A000F2101FA02F30D990E
:102290006FF0030202EA5C020A44116A9943116278
:1022A0000B99490000FA01F30D9AD1689943D16066
:1022B0000B9A012101FA02F30D9A5168994351607A
:1022C0000B99490000FA01F20D99886890438860E3
:1022D000FFE7FFE70B9801300B90F8E60EB0704770
:1022E0008EB00D900C9100200A90099008900B90F0
:1022F000FFE70B980F2800F2CC81FFE70B99012034
:1023000088400A900C9800680A990840099009983A
:102310000A99884240F0B881FFE70C98406800F0C5
:102320000300012807D0FFE70C98406800F0030085
:1023300002282FD1FFE70D98806808900B98410084
:10234000032000FA01F10898884308900C98C068AF
:102350000B99490000FA01F1089808430890089881
:102360000D9988600D98406808900B99012000FA3B
:1023700001F10898884308900C984068C0F3001059
:102380000B9900FA01F108980843089008980D99F4
:102390004860FFE70C98406800F00300032818D05D
:1023A000FFE70D98C06808900B984100032000FAE1
:1023B00001F10898884308900C9880680B994900AF
:1023C00000FA01F108980843089008980D99C86030
:1023D000FFE70C98406800F00300022826D1FFE7D1
:1023E0000D980B996FF0030202EA51010844006A4C
:1023F00008900B9800F0070081000F2000FA01F10F
:102400000898884308900C9800690B9901F007011F
:10241000890000FA01F108980843089008980D997E
:102420000B9B02EA530211440862FFE70D98006813
:1024300008900B984100032000FA01F108988843A6
:1024400008900C98406800F003000B99490000FACE
:1024500001F108980843089008980D9908600C98B5
:1024600080798007002800F00E81FFE7FFE7002059
:10247000079043F64400C4F20200016841F4804131
:102480000160006800F4804007900798FFE70B9810
:1024900020F0030043F60801C4F2010140580890FF
:1024A0000B9800F0030081000F2000FA01F108985A
:1024B000884308900D980021C4F20201884203D19C
:1024C000FFE7002006905EE00D9840F20041C4F264
:1024D0000201884203D1FFE70120059050E00D98EA
:1024E00040F60001C4F20201884203D1FFE7022056
:1024F000049042E00D9840F60041C4F20201884287
:1025000003D1FFE70320039034E00D9841F200016E
:10251000C4F20201884203D1FFE70420029026E0C2
:102520000D9841F20041C4F20201884203D1FFE755
:102530000520019018E00D9841F60001C4F2020157
:10254000884203D1FFE7062000900AE00D9941F68A
:102550000042C4F202020820914208BF0720009006
:10256000FFE700980190FFE701980290FFE70298CB
:102570000390FFE703980490FFE704980590FFE7B6
:1025800005980690FFE70698C0B20B9901F0030189
:10259000890000FA01F108980843089008980B99FF
:1025A00021F0030143F60802C4F20102885043F609
:1025B0000840C4F20100006808900999089888430F
:1025C00008900C988079C006002805D5FFE7099986
:1025D000089808430890FFE7089843F60841C4F2BA
:1025E0000101086043F60C40C4F201000068089045
:1025F00009990898884308900C98807980060028EB
:1026000005D5FFE70999089808430890FFE708985F
:1026100043F60C41C4F20101086043F60440C4F2E1
:1026200001000068089009990898884308900C9860
:1026300080798007002805D5FFE7099908980843A5
:102640000890FFE7089843F60441C4F201010860CE
:1026500043F60040C4F20100006808900999089808
:10266000884308900C988079C00728B1FFE7099942
:10267000089808430890FFE7089843F60041C4F221
:1026800001010860FFE7FFE7FFE70B9801300B90BF
:102690002FE60EB07047000083B00290ADF8061030
:1026A000029840690090009ABDF8060002EA000115
:1026B000904340EA01400299886103B070470000EE
:1026C00082B00190ADF802108DF801209DF8010054
:1026D00028B1FFE7BDF802000199886105E0BDF867
:1026E0000200000401998861FFE702B07047000012
:1026F00042F22020C2F201000068704740F2B800A8
:10270000C2F20000027842F22021C2F20101086800
:10271000104408607047000080B543F60041C4F2E1
:102720000201086840F400700860086840F48060A6
:102730000860086840F480700860032000F0C0F86A
:102740000F2000F005F800F071F8002080BD0000B7
:1027500080B58CB00B90002005900490FFE700201E
:10276000019043F64400C4F20200016841F0010107
:102770000160006800F0010001900198FFE706A8E1
:1027800003A900F0D7F900F017FA4000059005986A
:102790004DF68361C4F21B31A0FB01014FF0FF3005
:1027A00000EB9140049048F6D030C2F200000021C6
:1027B000C4F20101016040F2E731C1600499416057
:1027C000002101618160816101F018FD8DF80B002D
:1027D0009DF80B0028BBFFE748F6D030C2F200009E
:1027E00001F05EFD8DF80B009DF80B00C0B9FFE70E
:1027F000192000F041F80B980F280CD8FFE70B992F
:102800001920002200F042F80B9840F2BC01C2F2FD
:102810000001086003E001208DF80B00FFE7FFE7EF
:10282000FFE79DF80B000CB080BD000082B0FFE711
:102830000020019043F64400C4F20200016841F414
:1028400080410160006800F4804001900198FFE73A
:10285000FFE70020009043F64000C4F20200016848
:1028600041F080510160006800F0805000900098B5
:10287000FFE702B07047000080B582B08DF8070016
:102880009DF9070003F0C2FD02B080BD80B586B09F
:102890008DF81700049103920020029003F0E6FDEA
:1028A00002909DF91700019002980499039A02F092
:1028B00035F90146019803F0E1FD06B080BD000046
:1028C00080B582B00190019803F0FAFD02B080BD9E
:1028D00080B584B002900191029820B9FFE70120F1
:1028E0008DF80F0021E1019843F60041C4F2020186
:1028F000096801F00701884212D9FFE7019943F600
:102900000040C4F202000170006800F00700019965
:10291000884204D0FFE701208DF80F0005E1FFE7B2
:1029200002980078800700282AD5FFE702980078EF
:102930004007002809D5FFE743F60801C4F2020169
:10294000086840F4E0500860FFE70298007800074C
:10295000002809D5FFE743F60801C4F20201086820
:1029600040F460400860FFE743F60801C4F202014A
:10297000086820F0F000029A926810430860FFE7B0
:1029800002980078C00700286ED0FFE702984068E0
:10299000012811D1FFE743F60000C4F202000068ED
:1029A00000F400310020B0EB514F04D1FFE70120CB
:1029B0008DF80F00B9E02CE002984068022805D09D
:1029C000FFE702984068032811D1FFE743F60000B3
:1029D000C4F20200006800F000710020B0EB516FFB
:1029E00004D1FFE701208DF80F009EE010E043F6D0
:1029F0000000C4F20200006800F002010020B0EB09
:102A0000510F04D1FFE701208DF80F008DE0FFE7A3
:102A1000FFE743F60801C4F20201086820F0030052
:102A2000029A526810430860FFF762FE0090FFE7C9
:102A300043F60800C4F20200006800F00C0002999E
:102A40004968B0EB810F0ED0FFE7FFF751FE009908
:102A5000401A41F28931884204D3FFE703208DF800
:102A60000F0062E0E4E7FFE7019843F60041C4F29B
:102A70000201096801F00701884212D2FFE70199BB
:102A800043F60040C4F202000170006800F0070045
:102A90000199884204D0FFE701208DF80F0044E03F
:102AA000FFE702980078400700280CD5FFE743F6BF
:102AB0000801C4F20201086820F4E050029AD268CA
:102AC00010430860FFE702980078000700280DD542
:102AD000FFE743F60801C4F20201086820F46040F1
:102AE000029A126940EAC2000860FFE700F076F837
:102AF00043F60801C4F202010968C9B20A0948F69E
:102B00009E11C0F60701895CC84040F20401C2F280
:102B10000001086040F2BC00C2F200000068FFF74C
:102B200017FE00208DF80F00FFE79DF80F0004B09E
:102B300080BD000082B00190009101990F200860D3
:102B400043F60800C4F20200016801F00301019A93
:102B50005160016801F0F001019A9160016801F48F
:102B6000E051019AD160006800F46040C00801990A
:102B7000086143F60040C4F20200006800F007005C
:102B80000099086002B0704740F20400C2F20000F1
:102B90000068704780B5FFF7F7FF43F60801C4F2FD
:102BA00002010968C1F3822248F6AE11C0F607019E
:102BB000895CC84080BD000080B5FFF7E5FF43F6A3
:102BC0000801C4F20201096889B24A0B48F6AE1145
:102BD000C0F60701895CC84080BD000080B586B0A2
:102BE0000020059004900390029043F60800C4F280
:102BF0000200006800F00C000146019140B1FFE7BF
:102C0000019804280AD0FFE7019808280CD04FE06B
:102C100042F20040C0F2F40002904FE041F6003072
:102C2000C0F2B700029049E043F60400C4F202008B
:102C3000016801F03F01059100684002002813D5AA
:102C4000FFE743F60400C4F202000068C0F38810F6
:102C500041F60031C0F2B701A0FB0101059A002343
:102C6000FDF7EFFC049012E043F60400C4F202000A
:102C70000068C0F3881042F20041C0F2F401A0FBEA
:102C80000101059A0023FDF7DCFC0490FFE743F601
:102C90000400C4F20200006800F44031022000EB9E
:102CA000D130039004980399B0FBF1F0029005E055
:102CB00042F20040C0F2F4000290FFE7029806B032
:102CC00080BD000080B586B00490049820B9FFE76D
:102CD00001208DF8170050E304980078C007002801
:102CE00000F0A580FFE743F60800C4F20200006888
:102CF00000F00C00042813D0FFE743F60800C4F2EC
:102D00000200006800F00C0008281ED1FFE743F61F
:102D10000400C4F2020000684002002815D5FFE755
:102D200043F60000C4F20200006800F40031002005
:102D3000B0EB514F08D0FFE70498406820B9FFE797
:102D400001208DF8170018E370E0FFE70498406851
:102D5000B0F5803F09D1FFE743F60001C4F202015C
:102D6000086840F48030086020E004984068B0F5BE
:102D7000A02F0DD1FFE743F60001C4F2020108685D
:102D800040F480200860086840F4803008600CE05F
:102D900043F60001C4F20201086820F480300860A4
:102DA000086820F480200860FFE7FFE7FFE7049849
:102DB0004068E8B1FFE7FFF79BFC0390FFE743F6AD
:102DC0000000C4F20200006800F400310020B0EB03
:102DD000514F0CD1FFE7FFF78BFC0399401A652890
:102DE00004D3FFE703208DF81700C6E2E7E71CE0F5
:102DF000FFF77EFC0390FFE743F60000C4F20200F9
:102E0000006800F400310020B0EB514F0CD0FFE718
:102E1000FFF76EFC0399401A652804D3FFE70320EF
:102E20008DF81700A9E2E7E7FFE7FFE7FFE704985F
:102E300000788007002840F19680FFE743F60800FD
:102E4000C4F20200006810F00C0F13D0FFE743F645
:102E50000800C4F20200006800F00C0008282CD121
:102E6000FFE743F60400C4F20200006840020028B5
:102E700023D4FFE743F60000C4F20200006800F02C
:102E800002010020B0EB510F09D0FFE70498C068A1
:102E9000012804D0FFE701208DF817006DE243F60A
:102EA0000001C4F20201086820F0F800049A1269D7
:102EB00040EAC2000860FFE754E00498C06870B3BD
:102EC000FFE70021C4F2472101200860FFF710FC52
:102ED0000390FFE743F60000C4F20200006800F030
:102EE00002010020B0EB510F0CD1FFE7FFF700FC0F
:102EF0000399401A032804D3FFE703208DF8170035
:102F00003BE2E7E743F60001C4F20201086820F063
:102F1000F800049A126940EAC200086021E000212A
:102F2000C4F2472100200860FFF7E2FB0390FFE7AF
:102F300043F60000C4F20200006800F00201002025
:102F4000B0EB510F0CD0FFE7FFF7D2FB0399401A0B
:102F5000032804D3FFE703208DF817000DE2E7E70D
:102F6000FFE7FFE7FFE704980078000700284BD54C
:102F7000FFE70498406918B3FFE740F68061C4F2A8
:102F8000472101200860FFF7B3FB0390FFE743F6FA
:102F90007400C4F20200006800F002010020B0EBEF
:102FA000510F0CD1FFE7FFF7A3FB0399401A032849
:102FB00004D3FFE703208DF81700DEE1E7E722E006
:102FC00040F68061C4F2472100200860FFF790FBC3
:102FD0000390FFE743F67400C4F20200006800F0BB
:102FE00002010020B0EB510F0CD0FFE7FFF780FB90
:102FF0000399401A032804D3FFE703208DF8170034
:10300000BBE1E7E7FFE7FFE7049800784007002807
:1030100040F1CE80FFE700208DF8070043F6400026
:10302000C4F202000068C000002815D4FFE7FFE7E3
:103030000020009043F64000C4F20200016841F015
:1030400080510160006800F0805000900098FFE718
:1030500001208DF80700FFE747F20000C4F20000EE
:103060000068C005002822D4FFE747F20001C4F23F
:103070000001086840F480700860FFF739FB039096
:10308000FFE747F20000C4F200000068C005002816
:103090000CD4FFE7FFF72CFB0399401A032804D355
:1030A000FFE703208DF8170067E1EAE7FFE7FFE796
:1030B00004988068012809D1FFE743F67001C4F243
:1030C0000201086840F0010008601FE00498806871
:1030D00005280DD1FFE743F67001C4F2020108682C
:1030E00040F004000860086840F0010008600CE04F
:1030F00043F67001C4F20201086820F00100086084
:10310000086820F004000860FFE7FFE7FFE7049885
:103110008068F8B1FFE7FFF7EBFA0390FFE743F6AB
:103120007000C4F20200006800F002010020B0EB61
:10313000510F0ED1FFE7FFF7DBFA0399401A41F276
:103140008931884204D3FFE703208DF8170014E18A
:10315000E5E71EE0FFF7CCFA0390FFE743F67000C7
:10316000C4F20200006800F002010020B0EB510F31
:103170000ED0FFE7FFF7BCFA0399401A41F28931FC
:10318000884204D3FFE703208DF81700F5E0E5E758
:10319000FFE79DF80700012809D1FFE743F640014A
:1031A000C4F20201086820F080500860FFE7FFE7E2
:1031B00004988069002800F0DC80FFE743F60800EF
:1031C000C4F20200006800F00C00082800F08580BE
:1031D000FFE70498806902285CD1FFE76021C4F210
:1031E000472100200860FFF783FA0390FFE743F6CA
:1031F0000000C4F20200006800F000710020B0EB93
:10320000516F0CD0FFE7FFF773FA0399401A0328B8
:1032100004D3FFE703208DF81700AEE0E7E7049939
:10322000C869D1F820C04B6A8A6A40EA0C0040EABB
:103230008310D2034FF6FF739A43A2F580321043F6
:10324000C96A40EA016043F60401C4F20201086061
:103250006021C4F2472101200860FFF749FA03907A
:10326000FFE743F60000C4F20200006800F00071BE
:103270000020B0EB516F0CD1FFE7FFF739FA03994B
:10328000401A032804D3FFE703208DF8170074E0E9
:10329000E7E721E06021C4F2472100200860FFF742
:1032A00027FA0390FFE743F60000C4F2020000682B
:1032B00000F000710020B0EB516F0CD0FFE7FFF77A
:1032C00017FA0399401A032804D3FFE703208DF867
:1032D000170052E0E7E7FFE74AE004988069012819
:1032E00004D1FFE701208DF8170046E043F6040003
:1032F000C4F202000068029004988069012831D06D
:10330000FFE7029800F480000499C969884229D136
:10331000FFE7029800F03F000499096A884221D132
:10332000FFE7029847F6C07108400499496AB0EB7C
:10333000811F17D1FFE7029800F440300499896A91
:10334000C9034FF6FF729143A1F58031884209D13C
:10335000FFE7029800F070600499C96AB0EB016F52
:1033600004D0FFE701208DF8170006E0FFE7FFE734
:10337000FFE700208DF81700FFE79DF8170006B063
:1033800080BD0000B0B58EB00D900C9100208DF87E
:1033900013000D99032081F834000D98406C032828
:1033A00030D0FFE70C98B0F5805F06D1FFE70D99AC
:1033B000886B40F08050886323E00C98B0F5006F74
:1033C0000AD1FFE70D9802F0FBFB0590059A0D99D5
:1033D000886B1043886313E00C9850B9FFE70D9891
:1033E00002F0A8FB0590059A0D99886B104388633D
:1033F00005E00D99886B40F000608863FFE7FFE708
:10340000FFE705E00D99886B40F080508863FFE787
:103410000D98806B70B1FFE70D98016840F2FF5086
:10342000C0F2400088630D99012081F834008DF8C6
:10343000130023E00D98406806900D98806807906F
:103440000D98C06808900C9809900D9840690A90F2
:103450000D9880690B900D9800680699079A089B53
:10346000DDF824C00A9C0B9DEE46CEF80850CEF83D
:103470000440CEF800C001F0CDFBFFE70D980068D6
:103480004FF4007101F076FC0590059880B1FFE7DC
:103490000D98016840F2FF50C0F240008863059A21
:1034A0000D99886B1043886301208DF81300FFE7A6
:1034B0000D99012081F834009DF813000EB0B0BDC5
:1034C00080B582B00090009820B9FFE701208DF808
:1034D000070012E00099032081F83400009802F000
:1034E0005DFA009800F042FA009900208863009984
:1034F00081F834008DF80700FFE79DF8070002B05F
:1035000080BD000083B0019000910198406E800F53
:10351000009908700198406EC0F38360009948706C
:103520000198406EC0F30160009988700198B0F86E
:1035300066000099C8700198406E000A00990871F1
:103540000198406E009948710198806E000D0099B5
:10355000C8800198806EC0F30340009908720198FA
:10356000B0F86800C00B009948720198806EC0F3F3
:103570008030009988720198806EC0F340300099C5
:10358000C8720198806EC0F30030009908730099EA
:10359000002048730198406C00284BD1FFE7019947
:1035A000886EC96E6FF39F20800040EA9170009989
:1035B00008610198C06EC0F3C26000990875019857
:1035C000C06EC0F30260009948750198C06EC0F3E8
:1035D0004250009988750198C06EC0F382400099EE
:1035E000C8750198C06EC0F3C23000990876009883
:1035F00000690130019948650098007E00F00700DD
:10360000811C012000FA01F3019A516D5943516563
:103610000099097A01F00F018840019988650199A4
:10362000486D8A6D520A5043C86501994FF4007085
:10363000086635E00198406C01281DD1FFE701982C
:10364000816E01F03F01B0F86E0040EA0140009940
:103650000861009801694FF4806000EB81200199B6
:1036600048650199486DC86501994FF400708865F7
:103670000199886D086612E00198016840F2FF50D8
:10368000C0F2400088630199886B40F080508863E5
:103690000199012081F834008DF80B0073E0FFE7F9
:1036A0000198C06EC0F38030009948760198C06ED2
:1036B000C0F3C610009988760198C06E00F07F00B4
:1036C0000099C8760198006FC00F0099087701989B
:1036D000006FC0F34170009948770198006FC0F304
:1036E0008260009988770198006FC0F38350009939
:1036F000C8770198006FC0F34050009981F820000E
:103700000099002081F821000199096FC1F300415F
:10371000009A82F822100199B1F87010C90B009A32
:1037200082F823100199096FC1F38031009A82F861
:1037300024100199096FC1F34031009A82F82510D5
:103740000199096FC1F30031009A82F8261001999E
:10375000096FC1F38121009A82F827100199096F3E
:10376000C1F30121009A82F82810019991F8701094
:103770004908009A82F82910009A012182F82A103B
:103780008DF80B00FFE79DF80B0003B070470000B9
:1037900082B0019000910198406C009908600198F6
:1037A000806C009948600198C06C0099886001980D
:1037B000006D0099C8600198406D009908610198FA
:1037C000806D009948610198C06D009988610198E9
:1037D000006E0099C861002002B0704780B584B0C7
:1037E0000390002000900398694602F07BF9019055
:1037F000019830B1FFE7019A0399886B1043886301
:10380000FFE70098C0F343200290029804B080BD07
:1038100080B582B00090009820B9FFE701208DF8B4
:10382000070024E0009890F8340038B9FFE70099C9
:1038300000200877009800F0C1F8FFE70099032006
:1038400081F83400009800F017F820B1FFE701205C
:103850008DF807000BE00099002088630099086349
:10386000009A012182F834108DF80700FFE79DF8D7
:10387000070002B080BD0000B0B58EB00C900020F3
:1038800003900590069007900890099076200A9082
:103890000C9800680599069A079BDDF820C0099CE2
:1038A0000A9DEE46CEF80850CEF80440CEF800C08F
:1038B00001F0B0F9039848F2A001C4F22521049167
:1038C00008600C98006801F0DBF904990120086099
:1038D0000220FEF7D1FB0C9802F06AF80B900B98CF
:1038E00060B1FFE70C99012081F834000B9B0C9A22
:1038F000916B194391638DF8370033E00C9801F018
:1039000087FF0B900B9860B1FFE70C99012081F8BD
:1039100034000B9B0C9A916B194391638DF837001F
:1039200020E00C9800684FF4007101F023FA0B902E
:103930000B9898B1FFE70C98016840F2FF50C0F275
:10394000400088630B9A0C99886B104388630C992C
:10395000012081F834008DF8370003E000208DF855
:103960003700FFE79DF837000EB0B0BD80B582B0DC
:1039700001900198006842F60041C4F201018842BA
:1039800001D0FFE717E043F64401C4F202010868E2
:1039900020F40060086040F60000C4F202004FF41A
:1039A000F851FEF78BFB40F60040C4F20200042100
:1039B000FEF784FBFFE702B080BD000080B58AB04F
:1039C00009900998006842F60041C4F2010188425A
:1039D00001D0FFE74FE0FFE70020089043F64400E6
:1039E000C4F20200016841F400610160006800F463
:1039F000006008900898FFE7FFE70020079043F673
:103A00003000C4F20200016841F004010160006866
:103A100000F0040007900798FFE7FFE700200690FA
:103A200043F63000C4F20200016841F00801016071
:103A3000006800F0080006900698FFE70220029058
:103A400001200390032004900C2005904FF4F850BF
:103A5000019040F60000C4F2020001A90091FEF7B7
:103A60003FFC00990420019040F60040C4F202009F
:103A7000FEF736FCFFE70AB080BD000080B594B0C9
:103A8000DDF858C01290119110920F93FEF730FE9E
:103A900007901098039011980290119848B9FFE789
:103AA0001299886B40F00060886301208DF84F0008
:103AB000EAE1129890F83400012840F0DC81FFE739
:103AC00012990020886303980F9908441299C96DD0
:103AD000884209D9FFE71299886B40F0007088632B
:103AE00001208DF84F00CFE11299032081F83400B6
:103AF000129801680020C8621298406C012804D016
:103B0000FFE7039840020390FFE74FF0FF30099072
:103B10000F9840020A9090200B9002200C900020F9
:103B20000D9001200E901298006809A901F032F85A
:103B30000F9802280AD3FFE712990220086312980F
:103B40000068039901F082F9089009E012990120B8
:103B5000086312980068039901F096F90890FFE74E
:103B60000898B0B1FFE71298016840F2FF50C0F228
:103B700040008863089A1299886B104388631299F1
:103B8000012081F83400129A002111638DF84F0052
:103B90007AE10A980490FFE712980068406B40F2BF
:103BA0002A31084266D1FFE712980068406B000492
:103BB00000283CD5FFE70498C8B3FFE70020069033
:103BC000FFE70698072831D8FFE71298006801F050
:103BD0005FF80590059802990870029801300290EC
:103BE0000498013804900598000A02990870029818
:103BF00001300290049801380490BDF81600029933
:103C000008700298013002900498013804909DF8E1
:103C10001700029908700298013002900498013848
:103C20000490FFE7069801300690CAE7FFE7FEF729
:103C30005FFD0799401A1699884203D2FFE716984C
:103C4000B8B9FFE71298016840F2FF50C0F2400097
:103C500088631299886B40F00040886312990120B4
:103C600081F8340012990020086303208DF84F007A
:103C70000AE191E712980068406BC005002829D539
:103C8000FFE70F98022825D3FFE71298406C03281E
:103C90001FD0FFE71298006801F0BCF9089008985F
:103CA000B0B1FFE71298016840F2FF50C0F2400047
:103CB0008863089A1299886B1043886312990120CF
:103CC00081F83400129A002111638DF84F00DBE077
:103CD000FFE7FFE712980068406B0007002807D451
:103CE000FFE712980068406B8005002816D5FFE7B3
:103CF0001298016840F2FF50C0F2400088631299A8
:103D0000886B40F0080088631299012081F8340024
:103D1000129A002111638DF84F00B5E012980068E7
:103D2000406B8007002816D5FFE71298016840F223
:103D3000FF50C0F2400088631299886B40F0020087
:103D400088631299012081F83400129A00211163CE
:103D50008DF84F0098E012980068406B80060028AC
:103D600016D5FFE71298016840F2FF50C0F24000FC
:103D700088631299886B40F02000886312990120B3
:103D800081F83400129A002111638DF84F007BE016
:103D9000FFE7FFE7FFE7FFE712980068416B0020AD
:103DA00089020029019006D5FFE70498002818BF72
:103DB00001200190FFE70198C00700284ED0FFE7DF
:103DC0001298006800F064FF059005980299087049
:103DD0000298013002900498013804900598000A76
:103DE00002990870029801300290049801380490FA
:103DF000BDF81600029908700298013002900498EC
:103E0000013804909DF8170002990870029801305B
:103E10000290049801380490FEF76AFC0799401A52
:103E20001699884203D2FFE71698B0B9FFE71298B7
:103E3000016840F2FF50C0F2400088631299886B1D
:103E400040F0004088631299012081F83400129AF2
:103E5000002111638DF84F0016E09DE7129801686C
:103E600040F23A5088631299012081F83400002012
:103E70008DF84F0008E01299886B40F0005088637D
:103E800001208DF84F00FFE79DF84F0014B080BD72
:103E900080B592B0DDF850C010900F910E920D9346
:103EA000FEF726FC05900E9801900F9800900F9851
:103EB00048B9FFE71099886B40F0006088630120E3
:103EC0008DF847008DE1109890F83400012840F0FB
:103ED0007F81FFE710990020886301980D990844BD
:103EE0001099C96D884209D9FFE71099886B40F095
:103EF0000070886301208DF8470072E1109903205B
:103F000081F83400109801680020C8621098406C55
:103F1000012804D0FFE7019840020190FFE74FF02D
:103F2000FF3007900D9840020890902009900020E3
:103F30000A900B9001200C901098006807A900F0DF
:103F400029FE0D9802280AD3FFE710992020086364
:103F500010980068019901F07BF8069009E010992B
:103F60001020086310980068019901F08FF80690FE
:103F7000FFE70698B0B1FFE71098016840F2FF50E4
:103F8000C0F240008863069A1099886B10438863DA
:103F90001099012081F83400109A002111638DF8E6
:103FA00047001EE108980290FFE710980068406BF8
:103FB00040F21A3108426DD1FFE710980068406B5B
:103FC0004004002843D5FFE7029800283FD0FFE7D0
:103FD00000200490FFE70498072837D8FFE70098EF
:103FE0000078039000980130009002980138029008
:103FF00000980178039840EA01200390009801306E
:10400000009002980138029000980178039840EAE5
:10401000014003900098013000900298013802900E
:1040200000980178039840EA0160039000980130FD
:1040300000900298013802901098006803A900F0DF
:1040400051FEFFE7049801300490C4E7FFE7FEF754
:104050004FFB0599401A1499884203D2FFE7149840
:10406000B8B9FFE71098016840F2FF50C0F2400075
:104070008863069A1099886B104388631099012011
:1040800081F8340010990020086303208DF8470060
:10409000A7E08AE710980068406BC005002829D582
:1040A000FFE70D98022825D3FFE71098406C0328FE
:1040B0001FD0FFE71098006800F0ACFF069006984C
:1040C000B0B1FFE71098016840F2FF50C0F2400025
:1040D0008863069A1099886B1043886310990120B1
:1040E00081F83400109A002111638DF8470078E0C0
:1040F000FFE7FFE710980068406B0007002807D42F
:10410000FFE710980068406B8005002816D5FFE790
:104110001098016840F2FF50C0F240008863109987
:10412000886B40F0080088631099012081F8340002
:10413000109A002111638DF8470052E01098006832
:10414000406B8007002816D5FFE71098016840F201
:10415000FF50C0F2400088631099886B40F0020065
:1041600088631099012081F83400109A00211163AE
:104170008DF8470035E010980068406BC0060028B5
:1041800016D5FFE71098016840F2FF50C0F24000DA
:1041900088631099886B40F01000886310990120A3
:1041A00081F83400109A002111638DF8470018E05F
:1041B000FFE7FFE7FFE71098016840F23A50886395
:1041C0001099012081F8340000208DF8470008E0A4
:1041D0001099886B40F00050886301208DF84700EB
:1041E000FFE79DF8470012B080BD000081B000904D
:1041F00001B0704781B0009001B0704780B582B0C7
:104200000090009820B9FFE701208DF807003FE0FB
:10421000009890F83D0040B9FFE70099002081F830
:104220003C00009800F038F8FFE70099022081F880
:104230003D00009951F8040B01F078FD0099012030
:1042400081F84600FFE70099012081F83E000099BF
:1042500081F83F00009981F84000009981F8410001
:10426000FFE7FFE70099012081F84200009981F8FB
:104270004300009981F84400009981F84500FFE768
:104280000099012081F83D0000208DF80700FFE72C
:104290009DF8070002B080BD81B0009001B070476A
:1042A00083B00190019890F83D00012804D0FFE709
:1042B00001208DF80B006AE00199022081F83D0091
:1042C00001980168C86840F00100C8600198006862
:1042D0000021C4F2010188423CD0FFE70198006848
:1042E000B0F1804F36D0FFE70198006840F20041FE
:1042F000C4F2000188422DD0FFE70198006840F623
:104300000001C4F20001884224D0FFE70198006850
:1043100040F60041C4F2000188421BD0FFE701983B
:10432000006840F20041C4F20101884212D0FFE768
:104330000198006844F20001C4F20101884209D0EA
:10434000FFE70198006841F60001C4F200018842CD
:1043500012D1FFE701980068806800F00700009024
:104360000098062807D0FFE701980168086840F028
:1043700001000860FFE706E001980168086840F066
:1043800001000860FFE700208DF80B00FFE79DF8B3
:104390000B0003B07047000081B0009001B070477F
:1043A00080B584B0039003980068C06802900398B9
:1043B0000068006901909DF804008007002824D55A
:1043C000FFE79DF80800800700281DD5FFE7039848
:1043D00001686FF0020008610399012008770398D3
:1043E00000688069800720B1FFE70398FFF7D4FFDA
:1043F00006E0039800F0E2F8039800F0E3F8FFE726
:10440000039900200877FFE7FFE79DF804004007C5
:10441000002825D5FFE79DF80800400700281ED595
:10442000FFE7039801686FF0040008610399022018
:10443000087703980068806910F4407F04D0FFE794
:104440000398FFF7A9FF06E0039800F0B7F8039878
:1044500000F0B8F8FFE7039900200877FFE7FFE7CF
:104460009DF804000007002824D5FFE79DF8080008
:10447000000700281DD5FFE7039801686FF00800CA
:10448000086103990420087703980068C0698007D1
:1044900020B1FFE70398FFF77FFF06E0039800F0E5
:1044A0008DF8039800F08EF8FFE703990020087755
:1044B000FFE7FFE79DF80400C006002825D5FFE7C9
:1044C0009DF80800C00600281ED5FFE70398016884
:1044D0006FF01000086103990820087703980068BE
:1044E000C06910F4407F04D0FFE70398FFF754FF42
:1044F00006E0039800F062F8039800F063F8FFE725
:10450000039900200877FFE7FFE79DF80400C00744
:1045100078B1FFE79DF80800C00748B1FFE70398AE
:1045200001686FF001000861039800F04FF8FFE7A1
:10453000FFE79DF804000006002810D5FFE79DF86E
:1045400008000006002809D5FFE7039801686FF00E
:10455000800008610398FFF749FEFFE7FFE79DF839
:1045600004004006002810D5FFE79DF8080040062B
:10457000002809D5FFE7039801686FF04000086143
:10458000039800F033F8FFE7FFE79DF8040080068A
:10459000002810D5FFE79DF808008006002809D5FF
:1045A000FFE7039801686FF0200008610398FFF7A8
:1045B00021FEFFE7FFE704B080BD000081B000905E
:1045C00001B0704781B0009001B0704780B582B0F3
:1045D0000190019800680021C4F20101884203D1D2
:1045E000FFE7FEF78BF8FFE702B080BD81B00090D7
:1045F00001B0704780B582B00090009820B9FFE705
:1046000001208DF8070040E00098806908B1FFE7BD
:1046100000E0FFE7009890F8410040B9FFE70099FB
:10462000002081F84000009800F034F8FFE700997E
:10463000242081F8410000980168C86820F40050E7
:10464000C860009801F08EFC00980168086920F4A9
:104650009040086100980168486920F02A0048618C
:1046600000980168C86840F40050C86000990020B4
:104670004864009A202182F84110009A82F8421082
:10468000009948638DF80700FFE79DF8070002B026
:1046900080BD000080B588B007900020069005908E
:1046A0000490039002900798006844F20041C4F21D
:1046B0000001884233D1FFE7FFE70020019043F675
:1046C0004000C4F20200016841F40031016000685A
:1046D00000F4003001900198FFE7FFE70020009010
:1046E00043F63000C4F20200016841F001010160AC
:1046F000006800F0010000900098FFE70C20029095
:1047000002200390002004900320059007200690CB
:104710000020C4F2020002A9FDF7E2FDFFE708B0A5
:1047200080BD000080B58AB008900791ADF81A20CE
:10473000059300200290089890F84200202840F04D
:104740008880FFE7079820B1FFE7BDF81A0020B97D
:10475000FFE701208DF827007FE0089900204864DA
:10476000089A222182F8421008990863FDF7C0FFD9
:104770000290BDF81A0008998885BDF81A000899BA
:10478000C88508988068B0F5805F09D1FFE7089870
:10479000006928B9FFE7002004900798039004E01F
:1047A0000798049000200390FFE7FFE70898C08D6A
:1047B000002846D0FFE70898029B05996A461160D9
:1047C0002021002201F06CFC40B1FFE70899202075
:1047D00081F8420003208DF827003EE0049858B984
:1047E000FFE70898006840686FF35F20039908802E
:1047F0000398023003901FE008988068B0F5805F4E
:1048000008D0FFE70898806850B9FFE7089800696A
:1048100030B9FFE70898006840680499087007E01D
:1048200008980068406800F07F0004990870FFE76E
:10483000049801300490FFE70899C88D0138C885B5
:10484000B4E70899202081F8420000208DF8270065
:1048500003E002208DF82700FFE79DF827000AB04B
:1048600080BD000080B58AB008900791ADF81A208D
:10487000059300200290089890F84100202840F00D
:104880008180FFE7079820B1FFE7BDF81A0020B943
:10489000FFE701208DF8270078E0089900204864A0
:1048A0000899212081F84100FDF722FF0290BDF810
:1048B0001A0008998884BDF81A000899C8840898D5
:1048C0008068B0F5805F09D1FFE70898006928B9D2
:1048D000FFE7002004900798039004E007980490F5
:1048E00000200390FFE7FFE70898C08C78B3FFE74C
:1048F0000898029B05996A4611608021002201F008
:10490000CFFB40B1FFE70899202081F84100032048
:104910008DF827003AE0049858B9FFE7039800881B
:104920006FF35F200899096848600398023003908C
:1049300008E00498007808990968486004980130F4
:104940000490FFE70899C88C0138C884CCE7089820
:10495000029B05996A4611604021002201F0A0FBEC
:1049600040B1FFE70899202081F8410003208DF82D
:1049700027000BE00899202081F8410000208DF8E5
:10498000270003E002208DF82700FFE79DF82700AD
:104990000AB080BD80B572B646F26D10C0F6080050
:1049A00016F078F846F2C010C0F6080015F0DCFFEB
:1049B000FFE7FEE780B590B000200F900E900D90BD
:1049C0000C900B90FFE700200A9043F63000C4F2F1
:1049D0000200016841F004010160006800F0040079
:1049E0000A900A98FFE7FFE70020099043F630009D
:1049F000C4F20200016841F080010160006800F02B
:104A0000800009900998FFE7FFE70020089043F62F
:104A10003000C4F20200016841F001010160006849
:104A200000F0010008900898FFE7FFE700200790DA
:104A300043F63000C4F20200016841F00201016057
:104A4000006800F0020007900798FFE70020C4F21A
:104A5000020001904FF40041009100220492FDF702
:104A60002FFE049A40F20040C4F20200059010218B
:104A70000291FDF725FE009A019804990B920122FC
:104A800003920C920D910E910BA90691FDF728FC53
:104A9000DDF808C0039B049A05980699CDF82CC050
:104AA0000C930D920E92FDF71BFC10B080BD000020
:104AB00080B503F02FFA80BD80B582B048F618406B
:104AC000C2F20000019044F20041C4F20001016012
:104AD0004FF4E131416000218160C16001610C222D
:104AE00042618161C161FFF785FD18B1FFE7FDF704
:104AF0007BFAFFE702B080BD80B572B646F2611066
:104B0000C0F6080015F0C6FF46F2B610C0F6080061
:104B100015F02AFFFFE7FEE7FFE7FEE788B0079002
:104B200006910592079800F0070004900498C0F1E0
:104B30000700052803D3FFE70420019004E0049850
:104B4000C0F107000190FFE701980390049804303A
:104B5000062803D8FFE70020009003E004980338FC
:104B60000090FFE70098029006980399012202FA4C
:104B700001F101390840029B984005999A40013A99
:104B80001140084308B0704780B500200DF054FB79
:104B900080BD000083B00290019100200090019937
:104BA0000968029A516201994968029A9162019AD0
:104BB0009168D2F80CC01369526941EA0C0119439B
:104BC0000A430099114300910299C96A21F0F70143
:104BD000009A1143029AD16203B0704781B00090ED
:104BE00000980069C0B201B07047000081B0009029
:104BF0000098006800F0030001B0704783B0029095
:104C000001910298019908441430009000980068BE
:104C100003B07047B0B588B00E9CDDF834E0DDF825
:104C200030C00794CDF818E0CDF814C00493039277
:104C300002910190002000900299DDF80CC0049BC5
:104C4000059A41EA0C0119431143069A1143079A48
:104C50000A430099114300910199496847F6FF62A0
:104C60009143009A1143019A516008B0B0BD000011
:104C700081B0009000990020086001B070470000EA
:104C800081B00090009903200860002001B07047B7
:104C900081B000900098D0F8800001B0704700000B
:104CA00083B0029001910020009001990968029A56
:104CB0009160019A5168D2F808C0D368126941EA3C
:104CC0000C0119430A430099114300910299C968E4
:104CD00040F6FF729143009A1143029AD16003B0EB
:104CE0007047000082B0019000910098006801991F
:104CF000C1F88000002002B07047000080B58AB083
:104D00000990089108980390372001900490402062
:104D10000590002006904FF480600790099803A941
:104D2000FFF7BEFF0199099841F2883200F0FAF9C5
:104D3000029002980AB080BD80B588B007900691B5
:104D400006980021C8F21001084301902920029022
:104D500040200390002004904FF480600590079855
:104D600001A9FFF79DFF079800F054FB0090009801
:104D700008B080BD80B58AB009900891089803906A
:104D800010200190049040200590002006904FF4E0
:104D900080600790099803A9FFF782FF019909989D
:104DA00041F2883200F0BEF9029002980AB080BD4C
:104DB00080B58AB009900891089803900620019068
:104DC000049040200590002006904FF480600790EA
:104DD000099803A9FFF764FF0199099841F2883205
:104DE00000F0A0F9029002980AB080BD80B588B0AA
:104DF0000790002002900390049005904FF480608B
:104E00000690079802A9FFF74BFF079800F05CF99E
:104E10000190019808B080BD80B588B007904FF42C
:104E2000D570029008200390402004900020059047
:104E30004FF480600690079802A9FFF731FF0798AA
:104E400000F0BCFB0190019808B080BD80B58AB02D
:104E50000990089108980390122001900490402036
:104E60000590002006904FF480600790099803A9F0
:104E7000FFF716FF0199099841F2883200F052F9C4
:104E8000029002980AB080BD80B58AB0099008915E
:104E90000898039011200190049040200590002074
:104EA00006904FF480600790099803A9FFF7F8FE79
:104EB0000199099841F2883200F034F90290029881
:104EC0000AB080BD80B58CB00B9009930892089809
:104ED0000390072001900490402005900020069048
:104EE0004FF4806007900B9803A9FFF7D9FE019952
:104EF0000B9841F2883200F015F9029002980CB03C
:104F000080BD000080B588B007900020029002218B
:104F10000391C021049105904FF48060069007989A
:104F200002A9FFF7BDFE079800F020FA0190019852
:104F300008B080BD80B588B00790069106980190B2
:104F400009200290C0200390002004904FF480605C
:104F50000590079801A9FFF7A3FE079800F006FA4D
:104F60000090009808B080BD80B588B00790002000
:104F700002903321009103914021049105904FF458
:104F800080600690079802A9FFF78AFE00990798AB
:104F900041F2883200F0C6F80190019808B080BD57
:104FA00080B58AB009900891089803900D2001906F
:104FB000049040200590002006904FF480600790F8
:104FC000099803A9FFF76CFE0199099841F288320C
:104FD00000F0A8F8029002980AB080BD80B58AB0AF
:104FE0000990089100200390032101910491402130
:104FF000059106904FF480600790099803A9FFF788
:105000004FFE01990998089A00F04EFA0290029812
:105010000AB080BD80B588B00790002002900C21B6
:10502000009103914021049105904FF48060069017
:10503000079802A9FFF734FE009907984EF2001274
:10504000C0F2F55200F06EF80190019808B080BDF2
:1050500080B58AB0099008910898039019200190B2
:10506000049040200590002006904FF48060079047
:10507000099803A9FFF714FE0199099841F28832B3
:1050800000F050F8029002980AB080BD80B58AB056
:1050900009900891089803901820019004904020EE
:1050A0000590002006904FF480600790099803A9AE
:1050B000FFF7F6FD0199099841F2883200F032F8C5
:1050C000029002980AB080BD83B0019040F20400C3
:1050D000C2F200000068C00844F6D351C1F2620178
:1050E000A0FB0110800941F2883148430090FFE79E
:1050F0000098411E009120B9FFE74FF00040029058
:105100000CE0FFE70198406B00060028F0D5FFE7B0
:105110000199C520886300200290FFE7029803B040
:105120007047000080B588B006908DF81710049283
:10513000049840F20401C2F200010968C90844F66B
:10514000D352C1F26202A1FB0221890948430190B6
:10515000FFE70198411E019120B9FFE74FF00040A1
:105160000790FFE00698406B0290FFE701209DF852
:10517000081011F0450F009006D0FFE79DF80900D8
:10518000C0F3C0000090FFE70098C0070028E0D1FE
:10519000FFE70698406B4007002805D5FFE7069912
:1051A000042088630790DDE00698406BC00728B1B3
:1051B000FFE70699012088630790D3E0FFE7FFE748
:1051C0000699C52088630698FFF708FD9DF817101B
:1051D000884203D0FFE701200790C3E00698002132
:1051E000FFF70CFD039003984EF20801CFF6FF5134
:1051F000084203D1FFE700200790B3E09DF80F00BD
:105200000006002804D5FFE74FF000700790A9E0E2
:105210009DF80F004006002803D5FFE740200790C7
:10522000A0E09DF80F008006002803D5FFE780204E
:10523000079097E09DF80F00C006002804D5FFE70F
:105240004FF4807007908DE09DF80F000007002854
:1052500004D5FFE74FF40070079083E09DF80F003E
:105260004007002804D5FFE74FF48060079079E0FD
:105270009DF80F00C00720B1FFE74FF400600790D2
:1052800070E09DF80E000006002804D5FFE74FF4FB
:105290008050079066E09DF80E004006002804D577
:1052A000FFE74FF4005007905CE09DF80E00800689
:1052B000002804D5FFE74FF48040079052E09DF8A6
:1052C0000E00C006002804D5FFE74FF40040079009
:1052D00048E09DF80E004007002804D5FFE74FF492
:1052E000003007903EE09DF80E008007002804D5AE
:1052F000FFE74FF48020079034E09DF80E00C007D0
:1053000020B1FFE74FF4002007902BE09DF80D003F
:105310000006002804D5FFE74FF48010079021E035
:105320009DF80D004006002804D5FFE74FF400105B
:10533000079017E09DF80D008006002804D5FFE7D0
:105340004FF4800007900DE09DF80C000007002846
:1053500004D5FFE74FF40000079003E04FF48030DE
:105360000790FFE7079808B080BD000085B0039064
:1053700040F20400C2F200000068C00844F6D351B5
:10538000C1F26201A0FB0110800941F2883148435B
:105390000190FFE70198411E019120B9FFE74FF00E
:1053A0000040049033E00398406B0290FFE7012037
:1053B0009DF8081011F0450F009006D0FFE79DF80A
:1053C0000900C0F3C0000090FFE70098C007002864
:1053D000E0D1FFE70398406B4007002805D5FFE7C1
:1053E000039904208863049011E00398406BC00780
:1053F00028B1FFE7039901208863049007E003992F
:10540000C5208863FFE7FFE700200490FFE70498CA
:1054100005B0704785B0039040F20400C2F200006E
:105420000068C00844F6D351C1F26201A0FB01102C
:10543000800941F2883148430190FFE70198411EFD
:10544000019120B9FFE74FF00040049028E0039855
:10545000406B0290FFE701209DF8081011F0450F06
:10546000009006D0FFE79DF80900C0F3C00000904F
:10547000FFE70098C0070028E0D1FFE70398406BE2
:105480004007002805D5FFE70399042088630490AE
:1054900006E00399C5208863FFE700200490FFE73A
:1054A000049805B07047000080B588B006908DF86C
:1054B0001710049240F20400C2F200000068C00815
:1054C00044F6D351C1F26201A0FB0110800941F200
:1054D000883148430190FFE70198411E019120B9AE
:1054E000FFE74FF00040079065E00698406B0290A0
:1054F000FFE701209DF8081011F0450F009006D03D
:10550000FFE79DF80900C0F3C0000090FFE7009896
:10551000C0070028E0D1FFE70698406B400700284D
:1055200005D5FFE7069904208863079043E00698B5
:10553000406BC00728B1FFE70699012088630790F8
:1055400039E0FFE7FFE70698FFF748FB9DF81710E3
:10555000884203D0FFE7012007902CE00699C52080
:10556000886306980021FFF749FB03909DF80D0022
:1055700010F0E00F07D1FFE7BDF80E000499088096
:105580000020079017E09DF80D004006002804D584
:10559000FFE74FF4005007900DE09DF80D00000666
:1055A000002804D5FFE74FF48050079003E04FF444
:1055B00080300790FFE7079808B080BD85B0039062
:1055C00040F20400C2F200000068C00844F6D35163
:1055D000C1F26201A0FB0110800941F28831484309
:1055E0000190FFE70198411E019120B9FFE74FF0BC
:1055F000004004903AE00398406B0290FFE70120DE
:105600009DF8081011F0450F009006D0FFE79DF8B7
:105610000900C0F3C0000090FFE70098C007002811
:10562000E0D1FFE70398406B4007002805D5FFE76E
:10563000039904208863049018E00398406BC00726
:1056400028B1FFE703990120886304900EE0FFE78B
:10565000FFE70398406B4006002804D5FFE7039955
:1056600040208863FFE700200490FFE7049805B01E
:105670007047000080B590B00E900D91FDF738F89E
:10568000059000200490039002900D9801900E98D0
:1056900000680821FFF76EFB0690069818B1FFE737
:1056A00006980F90B1E00E990868096D0904FFF79C
:1056B00025FB0690069818B1FFE706980F90A4E026
:1056C0004FF0FF300790082008903020099002200A
:1056D0000A9000200B9001200C900E98006807A9FA
:1056E000FFF758FA0E980068FFF73EFC0690069800
:1056F00018B1FFE706980F9087E0FFE70E98006863
:10570000406B10F02A0F28D1FFE70E980068406B1D
:10571000800200280CD5FFE70E980068FFF7B8FA62
:10572000049A02A941F8220004980130049008E08C
:105730000E980068406B8004002801D4FFE70CE05D
:10574000FFE7FCF7D5FF0599401A013020B9FFE7C4
:105750004FF000400F9058E0D0E70E980068406B83
:105760000007002807D4FFE70E980068406B80050B
:10577000002806D5FFE70E980168082088630F907F
:1057800043E00E980068406B8007002806D5FFE7CD
:105790000E980168022088630F9036E00E9800682A
:1057A000406B8006002806D5FFE70E980168202090
:1057B00088630F9029E00E98016840F23A508863A0
:1057C0000399080601F47F4240EA022001F47F02B7
:1057D00040EA122040EA1160019908600198043003
:1057E00001900299080601F47F4240EA022001F488
:1057F0007F0240EA122040EA116001990860FFE749
:10580000FFE7FFE700200F90FFE70F9810B080BD83
:10581000B0B592B010900120ADF80E00109800685D
:10582000FFF7E4F920B9FFE74FF080601190B1E095
:105830001098406C03282AD0FFE710980068FFF703
:1058400061FB0490049818B1FFE704981190A1E05F
:10585000109800680021FFF7D1F910994867109857
:1058600000680421FFF7CAF910998867109800684A
:105870000821FFF7C3F91099C867109800680C2138
:10588000FFF7BCF91099C1F88000FFE7FFE7109817
:10589000406C03280ED0FFE7109800680DF10E0150
:1058A000FFF79CFB0490049818B1FFE7049811904F
:1058B00070E0FFE71098406C03282FD0FFE7BDF899
:1058C0000E001099086510990868096D0904FFF722
:1058D00031FB0490049818B1FFE70498119059E047
:1058E000109800680021FFF789F910994866109810
:1058F00000680421FFF782F9109988661098006803
:105900000821FFF77BF91099C866109800680C21F0
:10591000FFF774F910990867FFE7FFE71098006830
:105920000421FFF76BF9000D1099C864109805A9C0
:10593000FDF7E8FD20B1FFE74FF08050119029E01E
:1059400010990868096D0A040023FFF7BBFA049058
:10595000049818B1FFE7049811901BE0DDF840E0CF
:10596000DEF80000DEF80410DEF80820DEF80C3067
:10597000DEF810C0DEF81440DEF81850EE46CEF81F
:105980000850CEF80440CEF800C0FFF743F90020DD
:105990001190FFE7119812B0B0BD000080B582B041
:1059A000019001980068FFF763F902B080BD000024
:1059B00080B588B00690002005900490039006986A
:1059C0000068FFF713FA0290029818B1FFE70298F7
:1059D000079083E006980068FFF71EFA029002988D
:1059E00078B1FFE706990020886406980068FFF701
:1059F000FDF90290029818B1FFE7029807906DE058
:105A000003E0069901208864FFE70698806C01286E
:105A10000ED1FFE7069800680021FFF76FF90290AA
:105A2000029820B1FFE74FF08050079056E0FFE763
:105A3000FFE7059900204FF6FE729142019006D8CB
:105A4000FFE70398B0FA80F040090190FFE7019862
:105A5000C00740B3FFE7069800680021FFF74EF942
:105A60000290029818B1FFE70298079036E0069876
:105A700000680021CCF21011FFF75EF90290029845
:105A800020B1FFE74FF08050079027E006980068AC
:105A90000021FFF7B3F804900498C00F0390059815
:105AA00001300590C5E705984FF6FF71884204D391
:105AB000FFE74FF08070079010E09DF8130040065C
:105AC000002804D5FFE706990120486403E0069901
:105AD00000204864FFE700200790FFE7079808B020
