:020000040800F2
:10000000301E0120010300084D370008C9350008E3
:100010002D370008C91C0008ED3C00080000000056
:1000200000000000000000000000000013030008B2
:10003000E91C0008000000001D040008D3030008AC
:100040001B0300081B0300081B0300081B03000818
:100050001B0300081B0300081B0300081B03000808
:100060001B0300081B0300081B0300081B030008F8
:100070001B0300081B0300081B0300081B030008E8
:100080001B0300081B0300081B0300081B030008D8
:100090001B0300081B0300081B0300081B030008C8
:1000A0001B0300088D3800081B0300081B03000811
:1000B0001B0300081B0300081B0300081B030008A8
:1000C0001B0300081B0300081B0300081B03000898
:1000D0001B0300081B0300081B0300081B03000888
:1000E0001B0300081B0300081B0300081B03000878
:1000F0001B0300081B0300081B0300081B03000868
:100100001B0300081B0300081B0300081B03000857
:100110001B0300081B0300081B0300081B03000847
:100120001B0300081B0300081B0300081B03000837
:100130001B03000800000000000000001B03000873
:100140001B0300081B0300081B0300081B03000817
:100150001B0300081B0300081B0300081B03000807
:100160001B0300081B0300081B0300081B030008F7
:100170001B0300081B030008000000000000000033
:100180001B0300081B03000800F002F800F0A8F8A9
:1001900014A696E8000CB244B344DA4501D100F04D
:1001A0009FF8BAE80F000FA696E83000A5EB04050B
:1001B00004EB0607AAEB0704A7F101074FEA1515A0
:1001C0004FEA3414A4F10104AC4201D300F088F8E2
:1001D00013F0010F18BFFB1A43F0010300F001F800
:1001E000DBE71847B06D0400D06D0400103A24BF5F
:1001F00078C878C1FAD8520724BF30C830C144BF8C
:1002000004680C6070470000704700000023002461
:1002100000250026103A28BF78C1FBD8520728BF16
:1002200030C148BF0B6070476E2900F02D857029E2
:1002300000F0718666293CF0F98565293CF0F68569
:1002400067293CF0F38561293CF0F28503681B0ABD
:1002500028BF41F08001692900F0DA84642900F0A8
:10026000D784752900F0D4846F2900F0FF857829A0
:1002700000F03D86E92900F09985E42900F0968593
:10028000F52900F09385EF2900F0FC85F82900F0AE
:100290003C860368DB0928BF41F08001632901F037
:1002A0004183732901F04683E32901F05183F32947
:1002B00001F05683002070471FB53CF0F9FC01F0B7
:1002C000A9FB0400002000213CF06AFA401C606099
:1002D000002000213CF04EFAE0601FBD10B510BDBB
:1002E00001F06AFB1146FFF7E7FF14F0AFFE01F0E3
:1002F00047FC03B4FFF7F2FF03BC01F04BFC000026
:100300000948804709480047FEE7FEE7FEE7FEE7A9
:10031000FEE7FEE7FEE7FEE7FEE7FEE704480549E5
:10032000054A064B7047000079380008890100082B
:1003300030180120301E0120301A0120301A01200F
:10034000F4000020301E012000000008B001002051
:10035000001000E07FA219000000FF4000BF00BFB6
:1003600072B65FF824005FF8241001F10401016007
:100370004FF0E0205FF83010C0F8081D5FF834003F
:100380005FF83C10096801605FF83C00016841F0CB
:10039000010101604FF0E0205FF8481041614FF02B
:1003A000070101614FF00001C0F8181D4FF07F41B7
:1003B000C0F81C1D5FF86010C0F8201D7047FFF7E3
:1003C000FEBFFFF7FEBFFFF7FEBF01B5BDE801406E
:1003D000704701B500F08CF8BDE801407047FFF7A9
:1003E000FEBFFFF7FEBF000000000000000000009D
:1003F0004FF000002A4A1060EFF3148020F0040050
:1004000080F3148862B64FF080504FF0E021C1F8BD
:10041000040DBFF34F8FBFF36F8FFEE72148224AD1
:100420004FF00003016891B10360EFF3098C2CE9F0
:10043000F00F1EF0100F01D12CED108A1B4C4CF860
:1004400004ED2568C1F808C00DB18D61236072B656
:100450001168B1B1016062B64F68144C8D6907F143
:1004600001074F602560D1F808C05CF804EB1EF06E
:10047000100F01D1BCEC108ABCE8F00F8CF3098896
:10048000704772B61168016009B962B6F9E74FF0BA
:1004900000674FF0E028C8F8047D62B6DCE77047DB
:1004A00028010020180100201C0100201407002052
:1004B000026922F00702A2F144026FF00203136006
:1004C0004FF0000353609360D360136153619361F5
:1004D000D361136253629362D362136353634FF029
:1004E000FF339363D1634FF080731364826070476E
:1004F0002249086800F101000860214B1A683AB1EE
:10050000A2F101021A601AB91E4B4FF001001860E7
:100510001D490868026822B11C4B4FF001021A60A5
:1005200008E000F104001A4B1A68904201D1194BFF
:1005300018680860134B1A6812B914490868D0B1DA
:100540002DE901401149086808B105F0C3F80D4BC9
:100550001A6872B105F032F80F48016849B90F48BE
:1005600001680F4A13680F484FF08052994200D03B
:100570000260BDE80140BFF34F8F7047600200206A
:1005800014070020C4010020BC010020C00100208D
:100590004C020020500200202801002018010020F9
:1005A0001C01002004ED00E053EA020C00F0698019
:1005B0002DE9F04B4FF00006002B1FBFB3FA83F577
:1005C00003FA05F424FA05F65E4012BF1643B2FAA8
:1005D00082F502FA05F4C5F120051EBF22FA05FCDA
:1005E00044EA0C04203556EA044C4FEA144418BF80
:1005F000641C4FF000084FF00009904271EB030CAF
:1006000039D3002919BFB1FA81F701FA07F6B0FA18
:1006100080F700FA07F6C7F120071EBF20FA07FC93
:1006200046EA0C062037B6FBF4FCA7EB0507103FA3
:1006300007F01F0BCBF120062CFA06F60CFA0BFB89
:1006400044BFB3460026202FA4BF5E464FF0000BE8
:100650005BEA060C08BF4FF0010B19EB0B0948EBE6
:100660000608ABFB027C06FB02CC0BFB03CCC01BD9
:1006700071EB0C01C1E70B46024641464846BDE816
:10068000F08B13B5084318BF4FF0FF300146AFF3AE
:100690000080BDE81C4070470FB41CB50C0007AAD1
:1006A000009007D04142A14202D32044401E01E005
:1006B0004FF0FF30074B7B4469460190069800F0ED
:1006C000FCFA0021002C01D0009A11701CBC5DF8CE
:1006D00014FB000027060000401ECAB210F8011FDC
:1006E0008A4202D00029F9D10020704740EA010374
:1006F00010B59B070FD1042A0DD310C808C9121FCB
:100700009C42F8D020BA19BA884201D9012010BD04
:100710004FF0FF3010BD1AB1D30703D0521C07E0D1
:10072000002010BD10F8013B11F8014B1B1B07D135
:1007300010F8013B11F8014B1B1B01D1921EF1D1A6
:10074000184610BD10B5431C02E010F8011B71B132
:100750008107FAD14FF0013202C88C1A8C4314EA97
:10076000C211F9D0C01A0A0603D0C01E10BDC01AAB
:1007700010BD0A0401D0801E10BD0902FCD0401E2D
:1007800010BD40EA010370B59B072ED14FF0013632
:10079000042A2AD308C810C99D1B9D43121F15EABD
:1007A000C61517D0D8B2E1B2401A50EA056110D18F
:1007B00098B2A1B2401A50EA05410AD123F07F4015
:1007C00024F07F41401A50EA052102D1180EA0EB17
:1007D000146070BDA342DBD018BA21BA884201D997
:1007E000012070BD4FF0FF3070BD0AB9002070BD10
:1007F00010F8013B11F8014B63B1A3420AD1521E1C
:1008000008D010F8013B11F8014B1BB1A34201D1F4
:10081000521EEDD1181B70BD032A40F2308010F03B
:10082000030C00F0158011F8013BBCF1020F62448B
:1008300098BF11F801CB00F8013B38BF11F8013B1C
:10084000A2F1040298BF00F801CB38BF00F8013BC9
:1008500011F0030300F06780083AC0F0088051F8F7
:10086000043B083A51F804CBA0E80810F5E7121D44
:100870005CBF51F8043B40F8043BAFF30080D20763
:1008800024BF11F8013B11F801CB48BF11F8012B2F
:1008900024BF00F8013B00F801CB48BF00F8012B52
:1008A0007047431A28BF9A427FF6B6AF10441144EE
:1008B000032A40F2268010F0030F1EBF11F8013DFD
:1008C000521E00F8013D10F0030F7FF4F6AF11F057
:1008D000030300F06D80083AC0F00B8051F8043D2E
:1008E000083A51F804CD40F8043D40F804CDFFF734
:1008F000F3BF121D5CBF51F8043D40F8043DAFF357
:100900000080D20724BF11F8013D11F801CD48BF86
:1009100011F8012C24BF00F8013D00F801CD48BFBB
:1009200000F8012C704710B5203AC0F00B80B1E8F8
:100930001850A0E81850B1E81850A0E81850203A14
:10094000BFF4F5AF5FEA027C24BFB1E81850A0E81D
:10095000185044BF18C918C0BDE810405FEA827C37
:1009600024BF51F8043B40F8043B08BF7047D2074E
:1009700028BF31F8023B48BF11F8012B28BF20F8EF
:10098000023B48BF00F8012B7047431A28BF9A4228
:100990007FF6C9AF1044114410F0030F1EBF11F8C9
:1009A000013D521E00F8013D10F0030F7FF4F6AF39
:1009B000103AC0F00A8010B531E9185020E91850FB
:1009C000103ABFF4F9AFBDE81040530724BF31E936
:1009D000081020E9081044BF51F8043D40F8043DD8
:1009E00012F0030F08BF7047D20728BF31F8023D4D
:1009F00048BF11F8012C28BF20F8023D48BF00F87D
:100A0000012C704702F0FF0343EA032242EA02424C
:100A100000F002B84FF000020429C0F0128010F07C
:100A2000030C00F01B80CCF1040CBCF1020F18BFCA
:100A300000F8012BA8BF20F8022BA1EB0C0100F05D
:100A40000DB85FEAC17C24BF00F8012B00F8012B30
:100A500048BF00F8012B70474FF0000200B5134665
:100A600094469646203922BFA0E80C50A0E80C50CE
:100A7000B1F12001BFF4F7AF090728BFA0E80C507F
:100A800048BF0CC05DF804EB890028BF40F8042B78
:100A900008BF704748BF20F8022B11F0804F18BFE5
:100AA00000F8012B7047000030B44FF0013C50F8C3
:100AB000042B51F8043BCCFA52F4D51A20D1FCB9DE
:100AC00050F8042B51F8043BCCFA52F4D51A17D144
:100AD000B4B950F8042B51F8043BCCFA52F4D51AAF
:100AE0000ED16CB950F8042B51F8043BCCFA52F4F7
:100AF000D51A05D1002CDAD030BC4FF00000704779
:100B000029BAB1FA81F111F01801D1F12000844025
:100B1000F2D1CA40CB4012F0FF0213F0FF0330BC09
:100B2000D01A704770477047704700000048704700
:100B30000000002010B500F0BDFA006810BD10B52F
:100B4000044600F0B7FA046010BD70B5044685692C
:100B50000068C10601D5302600E02026C00707D076
:100B600070BDD4E9012130469047206A401C2062C4
:100B70006D1EF6D570BD70B5044685690078C00756
:100B800007D170BDD4E9012120209047206A401C84
:100B900020626D1EF6D570BD09684A0501D540B2C8
:100BA0007047C905FCD500B2704709684A0501D5F0
:100BB000C0B27047C905FCD580B2704770B50C460D
:100BC0000546012A05D02878800600D5EA69002369
:100BD00002E0012305E05B1C934202D2E05C0028A6
:100BE000F9D1A869E618C01AA861286A18442862D1
:100BF0002846FFF7AAFF04E0D5E9012114F8010B0C
:100C00009047B442F8D32846FFF7B5FF70BD000007
:100C10002DE9F0410646002410687529314616A5D5
:100C200010D0FFF7B9FF002802DA404213A507E011
:100C300031688A0701D512A502E0490704D511A53C
:100C4000012401E0FFF7B1FF00210A2206F1240789
:100C500009E0B0FBF2FCB0FBF2F302FB1C00303009
:100C600078541846491C0028F3D123462A463046BA
:100C7000BDE8F04100F067BA000000002D00000060
:100C80002B0000002000000011680268006A530574
:100C900001D508700AE0D30501D5088006E01306E7
:100CA00003D5C217C1E9000200E0086001207047C7
:100CB00001694A1C02610878704700B58FB0CDE920
:100CC00001310021059105497944CDE90310114610
:100CD000684600F02BF90FB000BD0000E5FFFFFFF4
:100CE000D1E900239A4202D2531C0B601070704766
:100CF0002DE9FF5F15468A460446DFF8AC80F844CC
:100D00000027D8E900103E46CDE9001010E03AF87F
:100D100016106A4602A800F027FE411C07D0217871
:100D2000890603D5E269391891420DD80744761C2B
:100D30002078800602D5E069B84205DDAE42E6DBE8
:100D40003AF816000028E2D1A069C01BA061204635
:100D5000FFF7FBFED8E90010CDE90010002017E0F6
:100D60003AF818106A4602A800F0FEFDB0F1FF3F05
:100D700081460BD000250DF1080B05E0D4E90121D7
:100D80001BF8050090476D1C4D45F7D308F1010095
:100D9000B0428046E4DB206A384420622046FFF7F8
:100DA000EAFEBDE8FF9F00004EC503002DE9F041BB
:100DB0008046D21D22F007020025D2E90002F52963
:100DC00015A614D0011E72F1000106DA0023D0EB43
:100DD000030063EB020211A608E0D8F800108B07AD
:100DE00001D50FA602E0490701D50EA6012511463F
:100DF000002408F1240704E000F060F930323A558D
:100E0000641C50EA0102F7D12B4632462146404687
:100E1000BDE8F04100F097B9000000002D0000008F
:100E20002B0000002000000030B4002100F1240459
:100E300008E002F00705D208303542EA4372DB08C9
:100E40006554491C52EA0305F3D10468002310A23B
:100E5000250708D504F020040C4304D0C4690123FD
:100E60000CA2641EC46130BC00F06DB910B504461C
:100E700021461068FFF799FE02462046BDE8104063
:100E80000023D1E7D21D22F00701D1E90023CBE7EF
:100E90000000000030000000F0B40D460188090594
:100EA00002D5214C7C4402E01F4C7C440E340021CE
:100EB00000F1240608E002F00F071209E75D42EA9C
:100EC00003721B097754491C52EA0307F3D10278D5
:100ED0000023120704D5702D06D009B10223113466
:100EE0002246F0BC00F02FB901231034F8E770B5AA
:100EF00004460D4621461068FFF757FE0246294674
:100F00002046BDE870400023C6E7D21D22F007034B
:100F1000D3E90023C0E70368126843F020030360AD
:100F20000823C3610023B7E7B0C303002DE9F05FD6
:100F3000894604464FF0000ADFF874B1FB44C0F85C
:100F400020A02046E1688847002874D0252806D0D4
:100F5000D4E901219047206A401C2062F1E7002675
:100F60005F462046E16888472028054607DB312D8B
:100F700005D2781910F8200C08B10643F1E7B00744
:100F800001D526F00406C4F81CA00027C4F818A058
:100F90002A2D09D028463BF0C7FB38B304EB87085D
:100FA000303DC8F8185019E059F8041B204604EBEE
:100FB00087029161E1688847012F054618D1E069F1
:100FC000002820DA26F020061DE0D8F8180000EBF3
:100FD000800005EB40003038C8F818002046E16872
:100FE000884705463BF0A0FB0028EED1012F0AD030
:100FF0002E2D08D12046E16888477F1C0546022F28
:1010000046F02006C4DBA069002803DA404246F01F
:101010000106A061F00701D026F010066C2D0BD060
:10102000682D09D04C2D39D06A2D35D0742D35D08E
:101030007A2D33D016E038E0E1682F462046884705
:10104000B842054609D16C2F26D04FF48060E16884
:10105000064320468847054604E06C2F1AD04FF41B
:10106000807006430DB3A5F14100192802D8203540
:1010700046F400664A462946204626604E46FFF75B
:10108000D3F880B101280BD0F61D26F0070000F13F
:10109000080956E74020E4E78020D8E70020D6E79B
:1010A00006F104094DE7284652E7206ABDE8F09FA3
:1010B00040C30300004870477800002030B5B0F10D
:1010C0000A0271F100034FEA900E4EEA817EB0EB06
:1010D0000E0061EB91014FEA101E4EEA017E10EB0B
:1010E0000E0041EB11114FEA102E4EEA016E10EB8B
:1010F0000E0041EB11214FEA104E4EEA014E10EB6B
:101100000E0041EB1141401841F100014FEAD000BF
:1011100040EA41704FEAD1014FEA810444EA9074F9
:1011200010EB800544EB01046D1944EB0404521BE1
:10113000A3414FF0000348BF0A3200D530BD401C28
:1011400041F1000130BD2DE9F0470D469946924628
:10115000044600F124080168880604D5E06921F0FE
:101160001001216000E00120A84201DD471B00E0E2
:101170000027A1697A1902EB0900081AA0612078FA
:10118000C00602D42046FFF7E0FC002608E0D4E9C0
:1011900001211AF806009047206A401C761C206244
:1011A0004E45F4DB2078C0060AD52046FFF7CDFC7B
:1011B00006E0D4E9012130209047206A401C2062DB
:1011C000381EA7F10107F4DC07E0D4E9012118F883
:1011D00005009047206A401C2062281EA5F10105E9
:1011E000F3DC2046FFF7C7FC2078000602D502207A
:1011F000BDE8F0870120FBE72DE9FF4F0C461E46B6
:101200004FF0FF378BB0D2E90001DDF860800A9023
:101210008A46C1F30A5505B93D46002108464FF0FC
:101220000000BAF1000F00F4400005DA00EB800086
:101230004FF4400101EA50004FEA9059B9F1010F13
:1012400000DDB9460A9850EA4A000ED044F6105024
:10125000A5F2FF3545432F14B8F1000F1ED075429B
:10126000291E1EDDC9F100021CE0B8F1010F4FF08C
:10127000000001D0302103E0F24305E02154401C7E
:10128000B042FBDB30460022002121540B99C1F80B
:101290000880C1E900200FB0BDE8F08FBD1B6D1CB8
:1012A000DEE74A4600DA694206A800F0F7FB06AB23
:1012B00093E8070003AB83E8070050460A9937F02C
:1012C000CBFB8DE80700A0F500501F380090039875
:1012D000002D0ADD42F21F014A460844002303A9FB
:1012E0000390684637F034FE09E0A0F500504A4606
:1012F0001F38002303A90390684637F03EFE8DE8AF
:1013000007000004000C03D04FF0FF30410800E05C
:101310001046B8F1000F03D00022009215461EE0DF
:10132000751E05D4FFF7CAFE303262556D1EF9D521
:10133000B3460122084302D000227F1C04E020783B
:10134000302801D100227F1E002A099784D01DE099
:10135000112D07DAFFF7B2FE303262556D1C50EAEC
:101360000102F5D1084302D00098C8B10EE0002177
:10137000681E05E0235C625C63542254401E491CD5
:101380008142F7DBAB46A81B401E0990002004F801
:101390000B000B98099AC0F80880C0E9002B7AE787
:1013A00011264FF0000857E72DE9F04F8846044614
:1013B000D21D22F0070191B0D1E90001CDE90A0167
:1013C00037F012FF02460B98C00F01D02D2007E026
:1013D0002068810701D52B2002E0202101EAC0000E
:1013E000032A099001D0072A05DB0346414620461F
:1013F00000F014FB0BE12078800601D5E06900E0E5
:101400000620B8F1650F814606D0B8F1660F18D0F6
:10141000B8F1670F70D131E00020B9F1110F0090E1
:1014200001DB112301E009F101030AAA01A90CA8BB
:10143000FFF7E2FEDDE90C70002609F101058346A5
:1014400047E001204B4600904FF000470AAA01A94F
:101450000CA8FFF7D1FEDDE90DB00C995D46002622
:1014600010B909F101000D18B9EB050003D4C0F162
:10147000FF3609F10105A5EB09002BE0B9F1010FD9
:1014800001DA4FF001090020B9F1110F0090484630
:1014900001DD112300E003460AAA01A90CA8FFF709
:1014A000ABFEDDE90C704D46002683462078000730
:1014B0000AD4AB4500DA5D4601A8012D04DD4119CF
:1014C00011F8011C302907D04F4502DA17F1040F3B
:1014D00004DA012082460FE06D1EEEE7002F02DCE9
:1014E000ED1B3E4403E0781CA84200DD7D1CB81BC8
:1014F00000F1010A4FF000472078000703D4AA4505
:1015000001DB4FF0FF3A0021B7F1004F0DF1430826
:101510008DF8431024D002202B23002F01DA7F42C4
:101520002D230A21021EA0F1010000DC5FB197FB10
:10153000F1FC97FBF1F201FB1C7C17460CF1300C1F
:1015400008F801CDEEE7A8F1010003702188090534
:1015500001D5452100E06521A0F1010800F8011C3A
:1015600009980FA9A1EB0807FF1D00B1012041193F
:1015700001EBEA70A1693844081A401EA061207886
:10158000C00602D42046FFF7E0FA099828B1D4E952
:1015900001219047206A401C20622078C00622D595
:1015A0002046FFF7D2FA1EE0002E04DBB34502DD31
:1015B00001A8805D00E03020D4E901219047206A35
:1015C000401C2062761CAAF101005FEA000A0AD1E1
:1015D00000F020FAC0680168405CD4E9012190471E
:1015E000206A401C2062281EA5F10105DCDC07E012
:1015F000D4E9012118F8010B9047206A401C2062B1
:10160000381EA7F10107F3DC2046FFF7B4FA0320E8
:1016100011B041E62DE9F04F04460D46D21D22F0EF
:10162000070089B0D0E900974846394637F0DCFD1D
:101630000246F80F01D02D2307E02068810701D56D
:101640002B2302E0202101EAC0038DF820300BB1EA
:10165000012000E00020032A824601D0072A04DB93
:101660002946204600F0DAF93FE12078800601D4CF
:101670000D2500E0E569C7F30A560D2D49DA002172
:101680004FEA175B08464FF00000002F00F44000BF
:1016900007DA00EB80004FF4400100EBD07001EA64
:1016A00060008115012901DD4FF0FF3100224FEA72
:1016B000850CBCF1180F06D31346ACF118004FF09F
:1016C0008052C24003E04FF4801323FA0CF30CF174
:1016D0000C0CBCF1200F04D3ACF1200C09FA0CF077
:1016E00001E007FA0CF000294FF0004801DD18B9BD
:1016F0000FE00ED140450CD319EB02095F4121B92F
:10170000404502D19F4329EA0209BBEB175F00D095
:10171000761C2088000502D57B48784402E07A4890
:101720007844193808AA302302F80A30037C0AF1F9
:101730000101002E0AF1020A53546A4602DC4FF0FE
:10174000300101E04FF031014FF001088DF8001039
:1017500002D0A6F2FF3603E059EA470100D06B4EF3
:10176000002D02DC2178090704D54FF002082E2154
:101770008DF80110C44600210BE0C7F303433F017D
:10178000C35C491C6D1E02F80830052908F10108E8
:1017900001DA002DF1DC00210CE000EB1973491C8B
:1017A0001B786D1E082902F808304FEA091908F164
:1017B000010801DA002DF0DC21688B0602D516E065
:1017C000A8F10108E04505DD02EB080313F8013C30
:1017D000302BF5D0B8F1000F09DD02EB080313F848
:1017E000013C2E2B03D1090701D4A8F10108002DDB
:1017F00005DD3E2102F808106D1E08F10108407C4D
:10180000002E02F8080008F1010804DA2D207642C3
:1018100002F8080002E02B2002F808000A214FF429
:101820007A70864208F101080BDB96FBF0F3303347
:1018300002F8083096FBF0F308F1010800FB13668C
:1018400001E0642E0CDB642096FBF0F3303302F8E9
:10185000083096FBF0F308F1010800FB136601E085
:101860000A2E06DB96FBF1F0303002F8080008F192
:10187000010896FBF1F001FB1060303002F808001F
:10188000A16908F1010808EB050202EB0A00081A39
:10189000A0612078C00602D42046FFF756F9216ADD
:1018A00008AE01EB0A00206204E0D4E9012116F839
:1018B000010B9047BAF1010AF7D22078C00602D591
:1018C0002046FFF742F96E4609E016F8010B3E2864
:1018D0000FD0D4E901219047206A401C2062B8F162
:1018E0000108F2D22046FFF746F909B00320BDE80F
:1018F000F08F206A2844206203E0D4E901213020DF
:1019000090476D1EEBD3F8E7E9BB030002FCFFFF35
:1019100010B5436913B1AFF3008001E0FFF74EF952
:10192000012010BD127800F124010A7000224A70D3
:101930000122EDE711684FF0FF32E9E710B5436986
:1019400013B1AFF3008001E0FFF7D2F9012010BD21
:10195000128800F1240182840022C2840122EDE772
:1019600011684FF0FF32E9E72DE9F04116460C46C9
:10197000054600F047F8036893F80101012807D0F5
:10198000FF2C12D8185D80B101202C70BDE8F081C9
:10199000D3F807013246214603F20713C718284639
:1019A000BC46BDE8F041002360474FF0FF30EDE753
:1019B00000487047780000207546FFF7F9FFAE46F3
:1019C00005006946534620F00700854618B020B54B
:1019D000FEF7A4FCBDE820404FF000064FF00007E2
:1019E0004FF000084FF0000BAC46ACE8C009ACE883
:1019F000C009ACE8C009ACE8C00921F007018D4678
:101A00007047000010B500F005F8001D10BD00BFC4
:101A100091AD030000487047980000202DE9F04187
:101A20001F46044603260168072A01F4006004DB10
:101A300008B116A505E016A503E008B115A500E05C
:101A400015A521F010002060A069C01EA0610FB193
:101A5000401EA0612046FFF778F84FB1D4E901217C
:101A600038469047206A401C2062C01C206206E075
:101A7000206AFAE7D4E9012115F8010B9047761E98
:101A8000F8D22046FFF777F8BDE8F0814E414E00CE
:101A90006E616E00494E4600696E66002DE9F047A2
:101AA000814616468AB0354878440DC88DE80D0049
:101AB00032487844801C03AC0DC884E80D0041F620
:101AC0009B300844372190FBF1F290FBF1F5A5F132
:101AD000800501FB12041B3C02D56442012000E09A
:101AE0000020DFF898A080460027FA44AAF1BE0A39
:101AF0000EE0E0070AD03246684607EB47010123B3
:101B00000AEB810137F039FA8DE8070064107F1C79
:101B1000002CEED1194F7F44AE3F19E0E80715D0F5
:101B200007EB04100DF1180A90E80E008AE80E0089
:101B3000C068F04201D1981908903246012306A9E5
:101B400003A837F01AFA03AB83E807006D10641C92
:101B5000002DE3D14FF0010332466946B8F1000F82
:101B600003A802D037F0F4F901E037F006FAC9E92A
:101B70000001C9F808200AB0BDE8F087ECB80300FE
:101B800010B50446AFF300802046BDE81040FEF7D4
:101B9000B0BB000001491820ABBEFEE726000200E2
:101BA0007047000080B5A2B02190002320932198B7
:101BB0001F906946B0208861012048610B61C860B0
:101BC00088604FF48060486040F64070C2F20100C7
:101BD000086040F69060C2F2010041F60451C0F680
:101BE000040145F67932C0F6030204F089F820902A
:101BF0002098B8B1FFE741F60F51C0F604010DF18E
:101C0000550008902722FEF707FE0898FEF79AFD78
:101C1000089982B248F29470C2F20000642301F085
:101C20003BFCFFE769463420086040F21870C2F2BE
:101C3000000041F6F841C0F6040148F2DC72C2F23D
:101C400000024FF4806303F0A1FF20906946B020AA
:101C500088610120486100230B610220C860886010
:101C60004FF40040486048F6E030C2F200000860DF
:101C700041F24030C2F2010041F66551C0F6040164
:101C800045F60542C0F6030204F03AF82090209889
:101C9000B8B1FFE741F63651C0F604010DF1260058
:101CA00007902F22FEF7B8FD0798FEF74BFD079926
:101CB00082B248F29470C2F20000642301F0ECFB9F
:101CC000FFE7209822B080BD80B572B641F69C50E7
:101CD000C0F604000DF078FA41F6EB50C0F60400AF
:101CE0000DF0DCF9FFE7FEE77047000080B582B039
:101CF00072B641F6E840C0F604000190FFE7019893
:101D00000078A8B1FFE7FFE744F20040C4F200000A
:101D100000680006002801D4FFE7F5E70198411CA0
:101D20000191007844F20441C4F200010860E6E742
:101D3000FFE744F20040C4F20000006840060028BB
:101D400001D4FFE7F5E7FFE740F20040C4F20200EC
:101D5000102100F0EFF900200090FFE700984AF210
:101D60001F11C0F20701884206D8FFE700BFFFE756
:101D7000009801300090F1E7E6E700008EB00D908A
:101D80000C9100200A90099008900B90FFE70B98A7
:101D90000F2800F2CC81FFE70B99012088400A90C0
:101DA0000C9800680A990840099009980A99884295
:101DB00040F0B881FFE70C98406800F0030001286C
:101DC00007D0FFE70C98406800F0030002282FD1ED
:101DD000FFE70D98806808900B984100032000FAF7
:101DE00001F10898884308900C98C0680B99490045
:101DF00000FA01F108980843089008980D99886046
:101E00000D98406808900B99012000FA01F108989C
:101E1000884308900C984068C0F300100B9900FAB2
:101E200001F108980843089008980D994860FFE769
:101E30000C98406800F00300032818D0FFE70D98C5
:101E4000C06808900B984100032000FA01F108983F
:101E5000884308900C9880680B99490000FA01F1BA
:101E600008980843089008980D99C860FFE70C98F7
:101E7000406800F00300022826D1FFE70D980B9977
:101E80006FF0030202EA51010844006A08900B98BF
:101E900000F0070081000F2000FA01F10898884344
:101EA00008900C9800690B9901F00701890000FA6D
:101EB00001F108980843089008980D990B9B02EAD5
:101EC000530211440862FFE70D98006808900B98D0
:101ED0004100032000FA01F10898884308900C980B
:101EE000406800F003000B99490000FA01F10898DE
:101EF0000843089008980D9908600C98807980072D
:101F0000002800F00E81FFE7FFE70020079043F66E
:101F10004400C4F20200016841F48041016000689D
:101F200000F4804007900798FFE70B9820F003002B
:101F300043F60801C4F20101405808900B9800F0E4
:101F4000030081000F2000FA01F1089888430890EF
:101F50000D980021C4F20201884203D1FFE700205E
:101F600006905EE00D9840F20041C4F20201884202
:101F700003D1FFE70120059050E00D9840F60001E5
:101F8000C4F20201884203D1FFE70220049042E03C
:101F90000D9840F60041C4F20201884203D1FFE7E8
:101FA0000320039034E00D9841F20001C4F20201D5
:101FB000884203D1FFE70420029026E00D9841F209
:101FC0000041C4F20201884203D1FFE705200190DD
:101FD00018E00D9841F60001C4F20201884203D1D5
:101FE000FFE7062000900AE00D9941F60042C4F296
:101FF00002020820914208BF07200090FFE70098E6
:102000000190FFE701980290FFE702980390FFE735
:1020100003980490FFE704980590FFE70598069061
:10202000FFE70698C0B20B9901F00301890000FA9E
:1020300001F108980843089008980B9921F00301D2
:1020400043F60802C4F20102885043F60840C4F285
:1020500001000068089009990898884308900C9836
:102060008079C006002805D5FFE70999089808433C
:102070000890FFE7089843F60841C4F201010860A0
:1020800043F60C40C4F201000068089009990898D2
:10209000884308900C9880798006002805D5FFE7D2
:1020A0000999089808430890FFE7089843F60C41FF
:1020B000C4F20101086043F60440C4F20100006864
:1020C000089009990898884308900C9880798007AF
:1020D000002805D5FFE70999089808430890FFE70D
:1020E000089843F60441C4F20101086043F6004039
:1020F000C4F2010000680890099908988843089084
:102100000C988079C00728B1FFE70999089808431F
:102110000890FFE7089843F60041C4F20101086007
:10212000FFE7FFE7FFE70B9801300B902FE60EB0BB
:102130007047000083B00290ADF806100298406925
:102140000090009ABDF8060002EA0001904340EAC0
:1021500001400299886103B07047000082B001908D
:10216000ADF802108DF801209DF8010028B1FFE7BD
:10217000BDF802000199886105E0BDF80200000485
:1021800001998861FFE702B07047000041F6240022
:10219000C2F201000068704740F26000C2F2000025
:1021A000027841F62401C2F2010108681044086077
:1021B0007047000080B543F60041C4F20201086890
:1021C00040F400700860086840F4806008600868A7
:1021D00040F480700860032000F0C0F80F2000F089
:1021E00005F800F071F8002080BD000080B58CB0CB
:1021F0000B90002005900490FFE70020019043F62B
:102200004400C4F20200016841F00101016000686D
:1022100000F0010001900198FFE706A803A900F073
:10222000D7F900F017FA4000059005984DF6836144
:10223000C4F21B31A0FB01014FF0FF3000EB9140D5
:10224000049048F24C70C2F200000021C4F2010177
:10225000016040F2E731C1600499416000210161F1
:102260008160816100F0E4FD8DF80B009DF80B00AA
:1022700028BBFFE748F24C70C2F2000000F02AFED3
:102280008DF80B009DF80B00C0B9FFE7192000F096
:1022900041F80B980F280CD8FFE70B991920002262
:1022A00000F042F80B9840F26401C2F200010860AD
:1022B00003E001208DF80B00FFE7FFE7FFE79DF843
:1022C0000B000CB080BD000082B0FFE70020019041
:1022D00043F64400C4F20200016841F48041016009
:1022E000006800F4804001900198FFE7FFE70020BC
:1022F000009043F64000C4F20200016841F08051B2
:102300000160006800F0805000900098FFE702B084
:102310007047000080B582B08DF807009DF9070076
:1023200001F010FE02B080BD80B586B08DF81700B8
:10233000049103920020029001F01CFE02909DF98E
:102340001700019002980499039A01F001FA0146DE
:10235000019801F017FE06B080BD000080B582B084
:102360000190019801F030FE02B080BD80B584B0CC
:1023700002900191029820B9FFE701208DF80F002B
:1023800021E1019843F60041C4F20201096801F01D
:102390000701884212D9FFE7019943F60040C4F2D1
:1023A00002000170006800F007000199884204D023
:1023B000FFE701208DF80F0005E1FFE702980078A4
:1023C000800700282AD5FFE70298007840070028F8
:1023D00009D5FFE743F60801C4F20201086840F49A
:1023E000E0500860FFE7029800780007002809D550
:1023F000FFE743F60801C4F20201086840F46040B8
:102400000860FFE743F60801C4F20201086820F003
:10241000F000029A926810430860FFE70298007883
:10242000C00700286ED0FFE702984068012811D14C
:10243000FFE743F60000C4F20200006800F4003138
:102440000020B0EB514F04D1FFE701208DF80F00C1
:10245000B9E02CE002984068022805D0FFE7029816
:102460004068032811D1FFE743F60000C4F20200E0
:10247000006800F000710020B0EB516F04D1FFE75D
:1024800001208DF80F009EE010E043F60000C4F23A
:102490000200006800F002010020B0EB510F04D1EF
:1024A000FFE701208DF80F008DE0FFE7FFE743F61F
:1024B0000801C4F20201086820F00300029A526881
:1024C00010430860FFF762FE0090FFE743F6080044
:1024D000C4F20200006800F00C0002994968B0EBF9
:1024E000810F0ED0FFE7FFF751FE0099401A41F22D
:1024F0008931884204D3FFE703208DF80F0062E0A2
:10250000E4E7FFE7019843F60041C4F202010968DD
:1025100001F00701884212D2FFE7019943F600401B
:10252000C4F202000170006800F0070001998842BF
:1025300004D0FFE701208DF80F0044E0FFE7029888
:102540000078400700280CD5FFE743F60801C4F2E5
:102550000201086820F4E050029AD2681043086033
:10256000FFE702980078000700280DD5FFE743F643
:102570000801C4F20201086820F46040029A12695E
:1025800040EAC2000860FFE700F076F843F6080171
:10259000C4F202010968C9B20A094DF2B031C0F6AD
:1025A0000301895CC84040F20401C2F200010860E6
:1025B00040F26400C2F200000068FFF717FE00203E
:1025C0008DF80F00FFE79DF80F0004B080BD0000FC
:1025D00082B00190009101990F20086043F6080035
:1025E000C4F20200016801F00301019A5160016820
:1025F00001F0F001019A9160016801F4E051019A43
:10260000D160006800F46040C0080199086143F699
:102610000040C4F20200006800F007000099086062
:1026200002B0704740F20400C2F200000068704738
:1026300080B5FFF7F7FF43F60801C4F2020109680D
:10264000C1F382224DF2C031C0F60301895CC8405B
:1026500080BD000080B5FFF7E5FF43F60801C4F236
:102660000201096889B24A0B4DF2C031C0F603017C
:10267000895CC84080BD000080B586B00020059010
:1026800004900390029043F60800C4F20200006830
:1026900000F00C000146019140B1FFE701980428C9
:1026A0000AD0FFE7019808280CD04FE042F2004022
:1026B000C0F2F40002904FE041F60030C0F2B700E3
:1026C000029049E043F60400C4F20200016801F000
:1026D0003F01059100684002002813D5FFE743F64B
:1026E0000400C4F202000068C0F3881041F6003113
:1026F000C0F2B701A0FB0101059A0023FDF754FFCA
:10270000049012E043F60400C4F202000068C0F333
:10271000881042F20041C0F2F401A0FB0101059AC9
:102720000023FDF741FF0490FFE743F60400C4F2E5
:102730000200006800F44031022000EBD130039029
:1027400004980399B0FBF1F0029005E042F20040DA
:10275000C0F2F4000290FFE7029806B080BD0000CE
:1027600080B586B00490049820B9FFE701208DF869
:10277000170050E304980078C007002800F0A580F7
:10278000FFE743F60800C4F20200006800F00C0006
:10279000042813D0FFE743F60800C4F202000068E3
:1027A00000F00C0008281ED1FFE743F60400C4F235
:1027B000020000684002002815D5FFE743F600003C
:1027C000C4F20200006800F400310020B0EB514F69
:1027D00008D0FFE70498406820B9FFE701208DF892
:1027E000170018E370E0FFE704984068B0F5803FF9
:1027F00009D1FFE743F60001C4F20201086840F482
:102800008030086020E004984068B0F5A02F0DD11A
:10281000FFE743F60001C4F20201086840F480209B
:102820000860086840F4803008600CE043F600015E
:10283000C4F20201086820F480300860086820F4BF
:1028400080200860FFE7FFE7FFE704984068E8B1F1
:10285000FFE7FFF79BFC0390FFE743F60000C4F29D
:102860000200006800F400310020B0EB514F0CD1A1
:10287000FFE7FFF78BFC0399401A652804D3FFE7B5
:1028800003208DF81700C6E2E7E71CE0FFF77EFCA7
:102890000390FFE743F60000C4F20200006800F472
:1028A00000310020B0EB514F0CD0FFE7FFF76EFC7A
:1028B0000399401A652804D3FFE703208DF8170019
:1028C000A9E2E7E7FFE7FFE7FFE704980078800762
:1028D000002840F19680FFE743F60800C4F20200AA
:1028E000006810F00C0F13D0FFE743F60800C4F2A5
:1028F0000200006800F00C0008282CD1FFE743F626
:102900000400C4F2020000684002002823D4FFE75C
:1029100043F60000C4F20200006800F0020100204B
:10292000B0EB510F09D0FFE70498C068012804D02C
:10293000FFE701208DF817006DE243F60001C4F2B5
:102940000201086820F0F800049A126940EAC20007
:102950000860FFE754E00498C06870B3FFE7002107
:10296000C4F2472101200860FFF710FC0390FFE745
:1029700043F60000C4F20200006800F002010020EB
:10298000B0EB510F0CD1FFE7FFF700FC0399401AA1
:10299000032804D3FFE703208DF817003BE2E7E7A5
:1029A00043F60001C4F20201086820F0F800049A1E
:1029B000126940EAC200086021E00021C4F2472108
:1029C00000200860FFF7E2FB0390FFE743F60000FA
:1029D000C4F20200006800F002010020B0EB510FC9
:1029E0000CD0FFE7FFF7D2FB0399401A032804D36A
:1029F000FFE703208DF817000DE2E7E7FFE7FFE7A9
:102A0000FFE704980078000700284BD5FFE70498FB
:102A1000406918B3FFE740F68061C4F24721012006
:102A20000860FFF7B3FB0390FFE743F67400C4F2BE
:102A30000200006800F002010020B0EB510F0CD141
:102A4000FFE7FFF7A3FB0399401A032804D3FFE72E
:102A500003208DF81700DEE1E7E722E040F6806111
:102A6000C4F2472100200860FFF790FB0390FFE7C6
:102A700043F67400C4F20200006800F00201002076
:102A8000B0EB510F0CD0FFE7FFF780FB0399401A22
:102A9000032804D3FFE703208DF81700BBE1E7E725
:102AA000FFE7FFE7049800784007002840F1CE8058
:102AB000FFE700208DF8070043F64000C4F2020053
:102AC0000068C000002815D4FFE7FFE70020009051
:102AD00043F64000C4F20200016841F080510160F9
:102AE000006800F0805000900098FFE701208DF80A
:102AF0000700FFE747F20000C4F200000068C005CD
:102B0000002822D4FFE747F20001C4F20001086860
:102B100040F480700860FFF739FB0390FFE747F24D
:102B20000000C4F200000068C00500280CD4FFE7D4
:102B3000FFF72CFB0399401A032804D3FFE7032077
:102B40008DF8170067E1EAE7FFE7FFE70498806880
:102B5000012809D1FFE743F67001C4F202010868B9
:102B600040F0010008601FE00498806805280DD13E
:102B7000FFE743F67001C4F20201086840F0040068
:102B80000860086840F0010008600CE043F670013E
:102B9000C4F20201086820F001000860086820F013
:102BA00004000860FFE7FFE7FFE704988068F8B1DA
:102BB000FFE7FFF7EBFA0390FFE743F67000C4F27C
:102BC0000200006800F002010020B0EB510F0ED1AE
:102BD000FFE7FFF7DBFA0399401A41F28931884297
:102BE00004D3FFE703208DF8170014E1E5E71EE0AA
:102BF000FFF7CCFA0390FFE743F67000C4F202003F
:102C0000006800F002010020B0EB510F0ED0FFE78A
:102C1000FFF7BCFA0399401A41F28931884204D384
:102C2000FFE703208DF81700F5E0E5E7FFE79DF8E3
:102C30000700012809D1FFE743F64001C4F2020171
:102C4000086820F080500860FFE7FFE7049880697B
:102C5000002800F0DC80FFE743F60800C4F2020021
:102C6000006800F00C00082800F08580FFE7049859
:102C7000806902285CD1FFE76021C4F2472100206F
:102C80000860FFF783FA0390FFE743F60000C4F201
:102C90000200006800F000710020B0EB516F0CD012
:102CA000FFE7FFF773FA0399401A032804D3FFE7FD
:102CB00003208DF81700AEE0E7E70499C869D1F862
:102CC00020C04B6A8A6A40EA0C0040EA8310D203B3
:102CD0004FF6FF739A43A2F580321043C96A40EA67
:102CE000016043F60401C4F2020108606021C4F2ED
:102CF000472101200860FFF749FA0390FFE743F6F8
:102D00000000C4F20200006800F000710020B0EB87
:102D1000516F0CD1FFE7FFF739FA0399401A0328E6
:102D200004D3FFE703208DF8170074E0E7E721E004
:102D30006021C4F2472100200860FFF727FA0390C2
:102D4000FFE743F60000C4F20200006800F00071E3
:102D50000020B0EB516F0CD0FFE7FFF717FA039993
:102D6000401A032804D3FFE703208DF8170052E030
:102D7000E7E7FFE74AE004988069012804D1FFE70C
:102D800001208DF8170046E043F60400C4F202006B
:102D90000068029004988069012831D0FFE702980A
:102DA00000F480000499C969884229D1FFE702989C
:102DB00000F03F000499096A884221D1FFE7029898
:102DC00047F6C07108400499496AB0EB811F17D1DA
:102DD000FFE7029800F440300499896AC9034FF66E
:102DE000FF729143A1F58031884209D1FFE7029833
:102DF00000F070600499C96AB0EB016F04D0FFE77E
:102E000001208DF8170006E0FFE7FFE7FFE700204D
:102E10008DF81700FFE79DF8170006B080BD000091
:102E200081B0009001B0704781B0009001B0704750
:102E300080B582B00090009820B9FFE701208DF89E
:102E400007003FE0009890F83D0040B9FFE7009987
:102E5000002081F83C00009800F038F8FFE7009966
:102E6000022081F83D00009951F8040B00F016FD96
:102E70000099012081F84600FFE70099012081F8C0
:102E80003E00009981F83F00009981F840000099C8
:102E900081F84100FFE7FFE70099012081F8420037
:102EA000009981F84300009981F84400009981F865
:102EB0004500FFE70099012081F83D0000208DF8D2
:102EC0000700FFE79DF8070002B080BD81B00090C9
:102ED00001B0704783B00190019890F83D0001283F
:102EE00004D0FFE701208DF80B006AE00199022071
:102EF00081F83D0001980168C86840F00100C86091
:102F0000019800680021C4F2010188423CD0FFE72B
:102F100001980068B0F1804F36D0FFE70198006853
:102F200040F20041C4F2000188422DD0FFE7019831
:102F3000006840F60001C4F20001884224D0FFE797
:102F40000198006840F60041C4F2000188421BD09D
:102F5000FFE70198006840F20041C4F20101884295
:102F600012D0FFE70198006844F20001C4F20101A9
:102F7000884209D0FFE70198006841F60001C4F2D9
:102F80000001884212D1FFE701980068806800F0D4
:102F9000070000900098062807D0FFE70198016815
:102FA000086840F001000860FFE706E0019801684A
:102FB000086840F001000860FFE700208DF80B0072
:102FC000FFE79DF80B0003B07047000081B0009050
:102FD00001B0704780B584B0039003980068C06862
:102FE000029003980068006901909DF80400800732
:102FF000002824D5FFE79DF80800800700281DD58C
:10300000FFE7039801686FF002000861039901204F
:103010000877039800688069800720B1FFE703986C
:10302000FFF7D4FF06E0039800F0E2F8039800F001
:10303000E3F8FFE7039900200877FFE7FFE79DF833
:1030400004004007002825D5FFE79DF80800400749
:1030500000281ED5FFE7039801686FF0040008619F
:1030600003990220087703980068806910F4407F74
:1030700004D0FFE70398FFF7A9FF06E0039800F0EC
:10308000B7F8039800F0B8F8FFE703990020087735
:10309000FFE7FFE79DF804000007002824D5FFE7BD
:1030A0009DF80800000700281DD5FFE70398016878
:1030B0006FF00800086103990420087703980068FE
:1030C000C069800720B1FFE70398FFF77FFF06E0A4
:1030D000039800F08DF8039800F08EF8FFE703994D
:1030E00000200877FFE7FFE79DF80400C0060028EE
:1030F00025D5FFE79DF80800C00600281ED5FFE78C
:10310000039801686FF010000861039908200877A0
:1031100003980068C06910F4407F04D0FFE703986B
:10312000FFF754FF06E0039800F062F8039800F000
:1031300063F8FFE7039900200877FFE7FFE79DF8B2
:103140000400C00778B1FFE79DF80800C00748B148
:10315000FFE7039801686FF001000861039800F031
:103160004FF8FFE7FFE79DF804000006002810D5A0
:10317000FFE79DF808000006002809D5FFE703983F
:1031800001686FF0800008610398FFF749FEFFE7D0
:10319000FFE79DF804004006002810D5FFE79DF8E2
:1031A00008004006002809D5FFE7039801686FF082
:1031B00040000861039800F033F8FFE7FFE79DF84F
:1031C00004008006002810D5FFE79DF8080080065F
:1031D000002809D5FFE7039801686FF02000086117
:1031E0000398FFF721FEFFE7FFE704B080BD000072
:1031F00081B0009001B0704781B0009001B070477D
:1032000080B582B00190019800680021C4F20101EC
:10321000884203D1FFE7FEF7BFFFFFE702B080BDA2
:1032200081B0009001B0704780B582B000900098E6
:1032300020B9FFE701208DF8070040E00098806981
:1032400008B1FFE700E0FFE7009890F8410040B9BF
:10325000FFE70099002081F84000009800F034F862
:10326000FFE70099242081F8410000980168C868B0
:1032700020F40050C860009800F02CFC0098016811
:10328000086920F49040086100980168486920F0BE
:103290002A00486100980168C86840F40050C8607E
:1032A000009900204864009A202182F84110009A79
:1032B00082F84210009948638DF80700FFE79DF8F7
:1032C000070002B080BD000080B588B007900020E4
:1032D000069005900490039002900798006844F2CD
:1032E0000041C4F20001884233D1FFE7FFE700202C
:1032F000019043F64000C4F20200016841F400313D
:103300000160006800F4003001900198FFE7FFE7DA
:103310000020009043F63000C4F20200016841F042
:1033200001010160006800F0010000900098FFE7D3
:103330000C200290022003900020049003200590AE
:10334000072006900020C4F2020002A9FEF716FD35
:10335000FFE708B080BD000080B58AB008900791F3
:10336000ADF81A20059300200290089890F84200CA
:10337000202840F08880FFE7079820B1FFE7BDF8DC
:103380001A0020B9FFE701208DF827007FE0089997
:1033900000204864089A222182F8421008990863A4
:1033A000FEF7F4FE0290BDF81A0008998885BDF872
:1033B0001A000899C88508988068B0F5805F09D11F
:1033C000FFE70898006928B9FFE7002004900798F4
:1033D000039004E00798049000200390FFE7FFE7C4
:1033E0000898C08D002846D0FFE70898029B0599F1
:1033F0006A4611602021002200F00AFC40B1FFE77C
:103400000899202081F8420003208DF827003EE033
:10341000049858B9FFE70898006840686FF35F2088
:10342000039908800398023003901FE00898806891
:10343000B0F5805F08D0FFE70898806850B9FFE7D3
:103440000898006930B9FFE7089800684068049957
:10345000087007E008980068406800F07F00049951
:103460000870FFE7049801300490FFE70899C88DC1
:103470000138C885B4E70899202081F8420000206F
:103480008DF8270003E002208DF82700FFE79DF864
:1034900027000AB080BD000080B58AB0089007916F
:1034A000ADF81A20059300200290089890F841008A
:1034B000202840F08180FFE7079820B1FFE7BDF8A2
:1034C0001A0020B9FFE701208DF8270078E008995D
:1034D000002048640899212081F84100FEF756FE3B
:1034E0000290BDF81A0008998884BDF81A0008995E
:1034F000C88408988068B0F5805F09D1FFE7089814
:10350000006928B9FFE7002004900798039004E0C1
:103510000798049000200390FFE7FFE70898C08C0D
:1035200078B3FFE70898029B05996A4611608021ED
:10353000002200F06DFB40B1FFE70899202081F8E0
:10354000410003208DF827003AE0049858B9FFE7BE
:10355000039800886FF35F20089909684860039812
:103560000230039008E004980078089909684860E0
:10357000049801300490FFE70899C88C0138C8848A
:10358000CCE70898029B05996A4611604021002209
:1035900000F03EFB40B1FFE70899202081F8410090
:1035A00003208DF827000BE00899202081F84100C6
:1035B00000208DF8270003E002208DF82700FFE7A8
:1035C0009DF827000AB080BD80B572B641F68350E1
:1035D000C0F604000BF0F8FD41F6D650C0F604002A
:1035E0000BF05CFDFFE7FEE780B590B000200F9088
:1035F0000E900D900C900B90FFE700200A9043F680
:103600003000C4F20200016841F00401016000686A
:1036100000F004000A900A98FFE7FFE700200990F5
:1036200043F63000C4F20200016841F080010160FD
:10363000006800F0800009900998FFE7FFE700208C
:10364000089043F63000C4F20200016841F0010125
:103650000160006800F0010008900898FFE7FFE7AC
:103660000020079043F63000C4F20200016841F0E8
:1036700002010160006800F0020007900798FFE770
:103680000020C4F2020001904FF40041009100229A
:103690000492FEF763FD049A40F20040C4F2020077
:1036A000059010210291FEF759FD009A01980499A6
:1036B0000B92012203920C920D910E910BA906918F
:1036C000FEF75CFBDDF808C0039B049A0598069999
:1036D000CDF82CC00C930D920E92FEF74FFB10B05C
:1036E00080BD000080B501F07FFA80BD80B582B05A
:1036F00048F29470C2F20000019044F20041C4F21A
:10370000000101604FF4E131416000218160C1603E
:1037100001610C2242618161C161FFF785FD18B131
:10372000FFE7FEF7E3FAFFE702B080BD80B572B6AF
:1037300041F67750C0F604000BF046FD41F6CC5040
:10374000C0F604000BF0AAFCFFE7FEE7FFE7FEE788
:1037500088B0079006910592079800F00700049042
:103760000498C0F10700052803D3FFE70420019067
:1037700004E00498C0F107000190FFE7019803906E
:1037800004980430062803D8FFE70020009003E0E7
:10379000049803380090FFE7009802900698039978
:1037A000012202FA01F101390840029B9840059973
:1037B0009A40013A1140084308B0704780B594B070
:1037C00008A83021FDF748F90020079006900590E1
:1037D00004900390FFE70020029043F64000C4F2FB
:1037E0000200016841F080510160006800F08050E3
:1037F00002900298FFE7FFE70020019047F20000E7
:10380000C4F20000016841F480410160006800F4E6
:10381000804001900198FFE7012008904FF480302C
:10382000099002200E904FF480010F910621109113
:10383000A821119112900420139008A8FEF790FF80
:1038400018B1FFE7FEF752FAFFE70F2003900220BE
:103850000490002005904FF4A05006904FF4805043
:10386000079003A80521FEF781FD18B1FFE7FEF7D9
:103870003DFAFFE714B080BD4EF68851CEF200014C
:10388000086840F4700008607047000080B548F296
:103890004C70C2F20000FFF79DFB80BD83B0029028
:1038A000019102980068009002980021C4F2010181
:1038B000884225D0FFE70298B0F1804F20D0FFE783
:1038C000029840F20041C4F20001884218D0FFE79C
:1038D000029840F60001C4F20001884210D0FFE7D0
:1038E000029840F60041C4F20001884208D0FFE788
:1038F000029840F20041C4F2010188420AD1FFE778
:10390000009820F0700000900198416800980843EA
:103910000090FFE702980021C4F20101884255D0CF
:10392000FFE70298B0F1804F50D0FFE7029840F2D5
:103930000041C4F20001884248D0FFE7029840F6F7
:103940000001C4F20001884240D0FFE7029840F62F
:103950000041C4F20001884238D0FFE7029840F2EB
:103960000041C4F20101884230D0FFE7029844F2DE
:103970000001C4F20101884228D0FFE7029844F216
:103980000041C4F20101884220D0FFE7029844F6CA
:103990000001C4F20101884218D0FFE7029841F605
:1039A0000001C4F20001884210D0FFE7029841F6FE
:1039B0000041C4F20001884208D0FFE7029842F2B9
:1039C0000001C4F2000188420AD1FFE7009820F408
:1039D000407000900198C168009808430090FFE78C
:1039E000009820F0800001994969084300900198EF
:1039F00080680299C86201980068029988620298FA
:103A00000021C4F20101884208D0FFE7029840F289
:103A10000041C4F20101884205D1FFE70198006925
:103A200002990863FFE70299086840F00400086003
:103A300002990120486100980299086003B070471C
:103A400084B00390FFE7FFE70398006850E8030F96
:103A500020F490700290FFE702990398026842E810
:103A600003100028F0D1FFE7FFE7FFE7FFE7039827
:103A7000006850E8050F20F001000190FFE7019970
:103A80000398026842E805100028F0D1FFE7FFE73D
:103A90000398006B012814D1FFE7FFE7FFE70398C5
:103AA000006850E8030F20F010000090FFE7009935
:103AB0000398026842E803100028F0D1FFE7FFE70F
:103AC000FFE70399202081F8420003990020086352
:103AD00004B0704780B586B005900598006800690D
:103AE00020F44050059A1168D26810430861059986
:103AF00088680B694A69C9691843104308430490F0
:103B000005980068C06849F20C618843049908432D
:103B100005990968C86005980068406920F44070FC
:103B2000059A11689269104348610598006841F24E
:103B30000001C4F20101884209D0FFE7059800683E
:103B400041F20041C4F20101884204D1FFE7FEF7CF
:103B500081FD039003E0FEF76BFD0390FFE70598FE
:103B6000C069B0F5004F29D1FFE703981921A0FBE8
:103B70000101059A1368029353685A00DB0FFCF7A2
:103B800013FD0299864648F21F53C5F2EB13AEFBB4
:103B90000320420910014FF0640C02FB1CEC32229E
:103BA00002EBCC02A2FB0332F82303EA521300EB30
:103BB0004300C2F342121044886026E003981921A2
:103BC000A0FB0101059A1368019353689A009B0FAB
:103BD000FCF7EAFC0199844648F21F52C5F2EB1249
:103BE000ACFB02304309642003FB10CC322000EB15
:103BF0000C10A0FB0202F02000EA521000EB0310B0
:103C0000C2F3431210448860FFE706B080BD000095
:103C100080B586B0DDF820C0049003918DF80B20AC
:103C20000193FFE704980068006803990840401A70
:103C3000B0FA80F040099DF80B1088424DD1FFE7A3
:103C400008980130002847D0FFE7FEF79FFA019956
:103C5000401A0899884203D8FFE7089820B9FFE77F
:103C600003208DF817003CE004980068C068400706
:103C7000002830D5FFE7039880282CD0FFE7039871
:103C8000402828D0FFE704980068006800F0080189
:103C90000120B0EBD10F1DD1FFE7FFE7002000901E
:103CA00004980068006800900498006840680090DC
:103CB0000098FFE70498FFF7C3FE049908204864C2
:103CC000FFE70499002081F84000FFE701208DF80C
:103CD000170006E0FFE7FFE7A4E700208DF81700D4
:103CE000FFE79DF8170006B080BD000080B572B6F2
:103CF00041F68F50C0F604000BF066FA41F6E05032
:103D0000C0F604000BF0CAF9FFE7FEE781B000EE51
:103D1000100A00900098C0F3C750FF3818BF012068
:103D200001B0704784B041EC100B8DED020B039A8B
:103D300000200021CFF6E071B1EB420F019006D1D7
:103D4000FFE70298B0FA80F040090190FFE7019880
:103D500000F0010004B0704784B041EC100B8DED11
:103D6000020B039A00200021CFF6E071B1EB420F65
:103D7000019006D1FFE70298B0FA80F04009019067
:103D8000FFE7019800F0010004B0704784B041ECF7
:103D9000100B8DED020B039A00200021CFF6E0718D
:103DA000B1EB420F019006D1FFE70298B0FA80F024
:103DB00040090190FFE7019800F0010004B070474E
:103DC00081B000EE100A009000994FF0807000EB77
:103DD0004100B0FA80F0400901B0704781B000EEB8
:103DE000100A009000994FF0807000EB4100B0FA8B
:103DF00080F0400901B0704781B000EE100A0090D9
:103E000000994FF0807000EB4100B0FA80F040095B
:103E100001B0704784B041EC100B8DED020B029A9B
:103E2000039941F00100002A08BF0846019001985B
:103E300020F000410020C7F6F070401AC00F04B017
:103E40007047000084B041EC100B8DED020B029A1C
:103E5000039941F00100002A08BF0846019001982B
:103E600020F000410020C7F6F070401AC00F04B0E7
:103E70007047000084B041EC100B8DED020B029AEC
:103E8000039941F00100002A08BF084601900198FB
:103E900020F000410020C7F6F070401AC00F04B0B7
:103EA0007047000081B000EE100A0090009820F0EA
:103EB0000040C0F1FF40C00F01B0704781B000EE7C
:103EC000100A0090009820F00040C0F1FF40C00FA1
:103ED00001B0704781B000EE100A0090009820F009
:103EE0000040C0F1FF40C00F01B0704782B041EC0C
:103EF000100B8DED000B0198C00F02B07047000051
:103F000082B041EC100B8DED000B0198C00F02B098
:103F10007047000081B000EE100A00900098C00FBA
:103F200001B0704781B000EE100A00900098C00FF9
:103F300001B0704781B000EE100A00900098C00FE9
:103F400001B0704781B08DF803009DF9030000288F
:103F50000ED4FFE79DF9031001F01F0201209040ED
:103F60004A094EF20011CEF2000141F82200FFE7AB
:103F700001B070474EF60C50CEF200000068C0F35E
:103F80000220704782B08DF8070000919DF907006C
:103F900000280AD4FFE7009800019DF907104EF2AF
:103FA0000042CEF2000288540BE0009800019DF818
:103FB000071001F00F014EF61452CEF200028854A1
:103FC000FFE702B07047000083B00290029800F053
:103FD000070000904EF60C51CEF2000108680190E7
:103FE00001984FF6FF02104001900198009A40EAB4
:103FF00002200022C0F2FA5210430190019808609A
:1040000003B0704784B003900291019241F696602C
:10401000C0F6040000F000F883B0029041F66D6035
:10402000C0F604000190FFE701980078A8B1FFE70F
:10403000FFE744F20040C4F20000006800060028D8
:1040400001D4FFE7F5E70198411C0191007844F2A3
:104050000441C4F200010860E6E70298D8B1FFE726
:10406000FFE702980078A8B1FFE7FFE744F20040BD
:10407000C4F2000000680006002801D4FFE7F5E75D
:104080000298411C0291007844F20441C4F20001FC
:104090000860E6E7FFE741F6A450C0F60400009090
:1040A000FFE700980078A8B1FFE7FFE744F200407F
:1040B000C4F2000000680006002801D4FFE7F5E71D
:1040C0000098411C0091007844F20441C4F20001C0
:1040D0000860E6E7FFE7FEE780B592B010900F9129
:1040E0000E920E9818B1FFE70020049003E00F989D
:1040F0000C300490FFE704980D9000208DF83300F9
:104100000F9909680B910F9909680A910990FFE7C7
:10411000109801780020039039B1FFE710980078DB
:10412000293818BF01200390FFE70398C007002833
:1041300000F09783FFE71098007824380146029139
:10414000582800F2A1800299DFE811F06D039E006B
:104150009E009E0094019E005A02C1029E009E0095
:10416000CA009E009E009E009E009E009E009E0033
:104170009E009E009E009E009E009E009E009E004F
:104180009E000E029E009E009E009E009E009E00CD
:104190009E009E009E009E009E009E009E009E002F
:1041A0009E009E009E009E009E009E009E009E001F
:1041B0009E009E009E009E009E00E20059009E0010
:1041C00055039E009E009E009E009E009E009E0045
:1041D0009E009E009E009E009E009E009E009E00EF
:1041E0009E009E009E009E009E009E009E009E00DF
:1041F0009E009E009E009E009E009E00030310985D
:10420000013010901098007818B9FFE70020119045
:1042100043E31098007840F02000642807D0FFE7BF
:104220001098007840F0240077282CD1FFE70F98F1
:1042300000680A900D9840B1FFE70D990F9B1A682E
:10424000501C18600520885404E00F99086801305C
:104250000860FFE70D9860B1FFE7109800780D99AE
:10426000DDF83CC0DCF80020531CCCF8003088544A
:1042700004E00F99086801300860FFE70F9948686B
:1042800001304860E7E2FFE70F9800680A900D9858
:1042900040B1FFE70D990F9B1A68501C1860012070
:1042A000885404E00F99086801300860FFE70D9812
:1042B00060B1FFE7109800780D99DDF83CC0DCF89C
:1042C0000020531CCCF80030885404E00F99086893
:1042D00001300860FFE70F99486801304860BAE292
:1042E0000F9800680A900D9840B1FFE70D990F9B59
:1042F0001A68501C18600220885404E00F9908685E
:1043000001300860FFE70F99486801304860A2E279
:104310000F9800680A90109801301090109800785B
:104320005E2814D1FFE70D9840B1FFE70D990F9B70
:104330001A68501C18600420885404E00F9908681B
:1043400001300860FFE710980130109010E00D98E0
:1043500040B1FFE70D990F9B1A68501C18600320AD
:10436000885404E00F99086801300860FFE7FFE710
:104370000F990868013008600F994868013048605B
:1043800000200890FFE7109800785D2869D0FFE7CB
:10439000109800788DF81F009DF81F005C281AD136
:1043A000FFE7109801301090109800788DF81F00EA
:1043B0009DF81F0040F02000642807D0FFE79DF81B
:1043C0001F0040F02400772804D1FFE700208DF87B
:1043D0001F0016E0FFE79DF81F0018B9FFE7002057
:1043E00011905AE2109840782D2809D1FFE71098D3
:1043F00080785D2804D0FFE7109802301090FFE726
:10440000FFE70D9860B1FFE79DF81F000D99DDF8FB
:104410003CC0DCF80020531CCCF80030885404E089
:104420000F99086801300860FFE70D9860B1FFE759
:10443000109800780D99DDF83CC0DCF80020531C82
:10444000CCF80030885404E00F9908680130086007
:10445000FFE7FFE7109801301090089801300890AE
:1044600091E70A9801300D99089A0DF1330300F095
:1044700017FAF0E10F9800680A9000200690109853
:10448000417801203F29019007D1FFE710988078FB
:104490003A3818BF01200190FFE7019800F00100B1
:1044A0000590059828B3FFE70F9988680130886068
:1044B00006900D9840B1FFE70D990F9B1A68501CAC
:1044C00018607E20885404E00F9908680130086065
:1044D000FFE70F9A1068411C11600D99069A52006F
:1044E0000DF1330300F0DCF90F99486801304860A2
:1044F00003E0109802301090FFE7109801300F99F8
:104500000E9AFFF7E9FD1090109828B1FFE7109878
:104510000078292803D0FFE700201190BDE105981D
:1045200008B3FFE70D9840B1FFE70D990F9B1A689C
:10453000501C18607E20885404E00F9908680130F0
:104540000860FFE70F9A1068411C11600D99069AE8
:10455000520001320DF1330300F0A2F90F994868BF
:1045600001304860FFE776E10F9800680A998842B9
:1045700003D1FFE7002011908FE10D9850B1FFE7C4
:104580000D980A9BC118881C0F9A1268D21AFCF762
:1045900088F900E0FFE70F9908680230086010987A
:1045A00040783F280ED1FFE70D9828B1FFE70D991D
:1045B0000A9A6220885401E00A98FFE710980130B7
:1045C00010900AE00D9828B1FFE70D990A9A612032
:1045D000885401E00A98FFE7FFE70A9B581C0D99F1
:1045E0000F9A1268D21A023A0DF1330300F058F90B
:1045F0000F994868013048600F9800680A902AE1D6
:104600000F9800680A99884203D1FFE700201190B3
:1046100043E10D9850B1FFE70D980A9BC118881C23
:104620000F9A1268D21AFCF73CF900E0FFE70F99E5
:104630000868023008600D9830B1FFE70D990F98B7
:1046400002686020885402E00F980068FFE70F9826
:104650000368581C0D990A9AD21A023A0DF13303D5
:1046600000F01EF90F990868023008601098407831
:104670003F280ED1FFE70D9828B1FFE70D990A9A60
:104680006220885401E00A98FFE7109801301090EA
:104690000AE00D9828B1FFE70D990A9A6120885425
:1046A00001E00A98FFE7FFE70A9B581C0D990F9A53
:1046B0001268D21A023A0DF1330300F0F1F80F99A3
:1046C0004868023048600F9800680A90C3E00F986D
:1046D00000680A99884203D1FFE700201190DCE0CE
:1046E000109840783F2810D1FFE70D9830B1FFE7D0
:1046F0000D990F9802686120885402E00F980068B5
:10470000FFE71098013010900CE00D9830B1FFE7F2
:104710000D990F9802686220885402E00F98006893
:10472000FFE7FFE70F980368581C0D990A9AD21A01
:10473000023A0DF1330300F0B3F80F990868023024
:1047400008600F994868013048600F9800680A9027
:1047500081E0099858B1FFE709980D990F9A1368FD
:10476000C2431A440DF1330300F09AF8FFE70D98A5
:1047700050B1FFE70D980B9BC118881C0F9A126867
:10478000D21AFCF78EF800E0FFE70F9908680230B4
:1047900008600D9840B1FFE70D990F9B1A68501CF7
:1047A00018606020885404E00F99086801300860A0
:1047B000FFE70F9A1068411C116009900D9828B10D
:1047C000FFE70D990B9A6120885401E00B98FFE7F1
:1047D0000B9B581C0D990F9A1268D21A023A0DF1D0
:1047E000330300F05DF80F994868023048600F9875
:1047F00000680A902FE00D9840B1FFE70D990F9BDC
:104800001A68501C18605020885404E00F990868FA
:1048100001300860FFE70F994868013048600F9841
:1048200000680A9017E00D9840B1FFE70D990F9BC3
:104830001A68501C18605120885404E00F990868C9
:1048400001300860FFE70F994868013048600F9811
:1048500000680A90FFE7FFE7109801301090FFF71B
:1048600057BC099858B1FFE709980D990F9A13683A
:10487000C2431A440DF1330300F012F8FFE79DF82C
:104880003300C00718B1FFE70020009002E0109845
:104890000090FFE700981190FFE7119812B080BDDB
:1048A00084B00390029101920093019841B2421AA0
:1048B00018BF012200990878104300F00100087029
:1048C000029828B1FFE701980299039A8854FFE7FC
:1048D00004B0704780B586B004900391049810F836
:1048E000010C0338B0FA80F0400902900498411C92
:1048F000049100780190FFE70198411E019128B3CF
:10490000FFE70498007858B9FFE70498013003994D
:1049100000F026F818B1FFE7029805901CE011E0BE
:10492000039800780499097888420ADBFFE7039826
:10493000007804994978884203DCFFE702980590E3
:104940000AE0FFE7049802300490D5E70298B0FA35
:1049500080F040090590FFE7059806B080BD000093
:1049600083B00290019102980078C0F3401000904B
:104970000298007840F02000642810D1FFE70198E9
:104980000078302805DBFFE7019800783A2805DB3E
:10499000FFE7009880F001000090FFE745E00298F3
:1049A000007840F02000732815D1FFE701980078C7
:1049B00020280FD0FFE701980078092805DBFFE7E2
:1049C000019800780E2805DBFFE7009880F00100D1
:1049D0000090FFE728E001980078412805DBFFE719
:1049E000019800785B281EDBFFE7019800786128BA
:1049F00005DBFFE7019800787B2814DBFFE70198CF
:104A00000078302805DBFFE7019800783A280ADBB8
:104A1000FFE7019800785F2805D0FFE7009880F055
:104A200001000090FFE7FFE7FFE7009803B0704741
:104A300080B58EB00A900991089207930A983421A4
:104A4000FCF70AF8079820F00300079009980A99E4
:104A5000486008980A99886107980A99C861089877
:104A60000A99086108980A994861079808380A99CC
:104A700088600A990220C8600898059005980799EF
:104A8000084405900598043805900A980390059805
:104A900004900398049908600598043805900598D7
:104AA000049008980499086008980390039804906B
:104AB00005980499086008980590059804300590B9
:104AC0000598009000994EF6EE60CFF6FF700860F2
:104AD0000A9900200862EFF310800D900D980B905A
:104AE00072B60B9806900A9945F24540C4F25920D7
:104AF000086040F2E400C2F20000006858B9FFE725
:104B00000A9840F2E801C2F2000108600A98C06207
:104B10000A98006315E040F2E800C2F20000006865
:104B200002900298006B01900A98029908630A9813
:104B30000199C86201980A99086302980A99C862A3
:104B4000FFE740F2E401C2F20001086801300860AA
:104B500006980C900C9880F3108800200EB080BD51
:104B600080B500F083F900F0D3FD40F20C11C2F2E1
:104B700000010020086040F20811C2F20001086044
:104B800040F20411C2F20001086040F20011C2F2CA
:104B90000001086040F2F001C2F20001086040F23A
:104BA000EC01C2F20001086040F2DC01C2F2000137
:104BB000086040F2D801C2F20001086040F2E8014A
:104BC000C2F20001086040F2E401C2F20001086094
:104BD00040F2FC01C2F20001086040F2F801C2F2AA
:104BE0000001086080BD000080B582B040F208007E
:104BF000C2F20000006810F10F3F13D0FFE740F24F
:104C00000801C2F200014FF0F0300860FBF7A8FB8A
:104C1000FFF7A6FF40F22811C2F200010868013038
:104C20000860FFE740F20801C2F2000101914FF075
:104C3000F030086040F2F400C2F20000006831F089
:104C400045FD019900200860FBF7D2FB02B080BD52
:104C500080B592B0DDF864C0DDF860C0DDF85CC0FE
:104C6000DDF858C0DDF854C0DDF850C00990089157
:104C7000079206930020019014981599EF22FBF7F4
:104C8000C1FE0998B021FBF7E7FE089809998862F0
:104C900007980999486406980999886414980999AD
:104CA000C86015980999486116980999C8621698BC
:104CB0000999C1F894001898099988611898099978
:104CC000C86109992020C1F89C00149800900099AF
:104CD00015980844013800900098099908611698C1
:104CE0001799884207D0FFE709990020C8630999FE
:104CF000C1F8980007E016980999C86316980999B1
:104D0000C1F89800FFE7099903200863099945F263
:104D10006160C0F60000486509988065099844F60E
:104D2000ED61C0F60001FBF7C3FBEFF310801090BC
:104D300010980B9072B60B980590099945F2442093
:104D4000C5F24840086040F21010C2F2000000684E
:104D500068B9FFE7099840F21411C2F20001086037
:104D60000998C0F888000998C0F88C001AE040F251
:104D70001410C2F20000006804900498D0F88C006F
:104D8000039009980499C1F88C0009980399C1F817
:104D9000880003980999C1F88C0004980999C1F812
:104DA0008800FFE740F21011C2F2000108680130EC
:104DB000086040F22811C2F2000108680130086062
:104DC0001998012832D1FFE740F20800C2F2000032
:104DD0000068EFF305810C910C990843B0F1F03FA6
:104DE00011D3FFE740F21C10C2F2000000680290ED
:104DF000029838B1FFE70298C06B01900299C86A27
:104E0000C863FFE702E000200290FFE705980F90DB
:104E10000F9880F31088099800F06CF9029820B17F
:104E2000FFE701980299C863FFE71BE005980E9021
:104E30000E9880F31088EFF31080119011980A906B
:104E400072B60A98059040F22811C2F20001086873
:104E50000138086005980D900D9880F3108800F0D7
:104E600011F9FFE7002012B080BD000080B582B0CC
:104E700040F21811C2F2000100200190086040F2D7
:104E80001C11C2F20001086040F2AC11C2F2000134
:104E9000086040F22011C2F200012020086040F2B8
:104EA0002C10C2F200008021FBF7D6FD019840F2E1
:104EB0001411C2F20001086040F21011C2F20001A8
:104EC000086040F22811C2F20001086040F224118B
:104ED000C2F20001086040F2E001C2F2000108687D
:104EE00040F08570086002B080BD000080B588B0D9
:104EF00040F21810C2F20000006801900198416C65
:104F0000806C884740F22410C2F20000006840B173
:104F1000FFE740F22410C2F20000016801988847C0
:104F2000FFE7EFF3108007900798039072B603989D
:104F3000029001990120086301998863019900207A
:104F4000C86440F22811C2F200010868013008600C
:104F500002980490049880F31088EFF31480059071
:104F600005980090009820F00400009000980690AA
:104F7000069880F31488019800F0E0F908B080BD2D
:104F800080B58EB00490EFF310800D900D980590D1
:104F900072B60598039040F21810C2F20000006843
:104FA0000190019840B9FFE703980B900B9880F3AC
:104FB00010881320029062E040F20800C2F2000064
:104FC0000068EFF305810C910C99084340B1FFE7AD
:104FD00003980A900A9880F31088132002904DE0FD
:104FE000019840F26421C2F20001884208D1FFE733
:104FF00003980990099880F31088132002903CE0F0
:10500000049840B9FFE703980890089880F3108847
:105010000020029030E040F22810C2F20000006848
:1050200040B1FFE703980790079880F3108813209A
:10503000029020E00199042008630199012088630F
:1050400001990020C1F8840004980199C86440F2D5
:105050002811C2F200010868013008600398069028
:10506000069880F31088019800F068F90198D0F84C
:1050700084000290FFE7FFE7FFE7FFE7FFE7029802
:105080000EB080BD87B040F22810C2F20000006868
:105090000290029860BBFFE740F21810C2F20000D5
:1050A0000068019040F21C10C2F2000000680090FD
:1050B0000198009988421AD0FFE74EF60451CEF2CB
:1050C00000014FF080500860EFF3058004900498D1
:1050D00060B9FFE7EFF3108005900598039062B682
:1050E00003980690069880F31088FFE7FFE7FFE734
:1050F00007B0704780B596B00990EFF31080139019
:1051000013980C9072B60C9808900998406E28B1CC
:10511000FFE709984C3000F0F5FB03E00999002007
:10512000C864FFE740F22811C2F2000108680138A4
:1051300008600998806B002840F0A880FFE7099874
:10514000006B002800F0A180FFE70998406B002861
:1051500040F09380FFE70999002008630998C06A2E
:105160000790079940F22C10C2F2000050F821007D
:105170000590059800286FD1FFE70998079A40F23B
:105180002C11C2F2000141F822000998006209982E
:105190004062079901208840069040F2AC11C2F2AB
:1051A00000010868069A10430860079840F2201131
:1051B000C2F20001096888424DD2FFE7079840F229
:1051C0002011C2F20001086040F21C10C2F200007F
:1051D00000680390039838B9FFE7099840F21C1162
:1051E000C2F20001086035E007980399C96B884254
:1051F0002FD2FFE7099840F21C11C2F200010860AB
:1052000008981090109880F3108840F22810C2F28D
:105210000000006801900198D0B9FFE74EF60451F4
:10522000CEF200014FF080500860EFF3058011903E
:10523000119860B9FFE7EFF31080149014980B9069
:1052400062B60B980D900D9880F31088FFE7FFE78A
:1052500072E0FFE7FFE70FE00598406A04900998C5
:105260000499086209980599486204980999486266
:10527000059809990862FFE706E00999002048634C
:10528000099903200863FFE7FFE71DE00998006B19
:10529000012818D0FFE70998006B022812D0FFE719
:1052A0000998406B30B9FFE7099900208863099994
:1052B000086306E009990020486309990320086300
:1052C000FFE7FFE7FFE7FFE740F21810C2F2000038
:1052D0000068029008980F900F9880F31088029849
:1052E00040F21C11C2F200010968884224D0FFE795
:1052F00040F22810C2F20000006801900198D0B975
:10530000FFE74EF60451CEF200014FF080500860E6
:10531000EFF305801290129860B9FFE7EFF3108069
:10532000159015980A9062B60A980E900E9880F320
:105330001088FFE7FFE7FFE716B080BD80B59CB09F
:105340000A9040F21810C2F2000000680190EFF3DA
:105350001080189018980E9072B60E9809900A98BE
:105360000199884218D1FFE70A98C06C0090009814
:1053700050B1FFE70098013028B1FFE70A984C30A0
:1053800000F056FAFFE7FFE70A98C06940F214718F
:10539000C2F200010860FFE740F22811C2F20001EA
:1053A0000868013808600A98806B012840F0D180B5
:1053B000FFE70A99002088630A98C06A08900A9853
:1053C000006A039003980A9988421ED0FFE70A9862
:1053D000406A029002980399486203980299086211
:1053E000089940F22C10C2F2000050F821000A99EE
:1053F000884209D1FFE70398089A40F22C11C2F2C3
:10540000000141F82200FFE760E0089A40F22C100A
:10541000C2F20000002140F82210089A01209040BA
:10542000059040F2AC10C2F200000268059B9A435E
:1054300002600791006806900698A8BBFFE740F25B
:105440002011C2F200012020086040F21C11C2F2BB
:1054500000010020086009981490149880F31088C7
:1054600040F22810C2F20000006804900498D0B9FD
:10547000FFE74EF60451CEF200014FF08050086075
:10548000EFF305801590159860B9FFE7EFF31080F2
:10549000199019980D9062B60D980F900F9880F39F
:1054A0001088FFE7FFE787E0069890FAA0F00690E3
:1054B0000698B0FA80F0059007980599084440F2E4
:1054C0002011C2F200010860FFE7FFE70A9840F2EE
:1054D0001C11C2F200010968884239D1FFE740F28D
:1054E0002010C2F20000016840F22C10C2F200004D
:1054F00050F8210040F21C11C2F200010860099826
:105500001390139880F3108840F22810C2F2000024
:10551000006804900498D0B9FFE74EF60451CEF22B
:1055200000014FF080500860EFF305801690169848
:1055300060B9FFE7EFF310801A901A980C9062B6EA
:105540000C981090109880F31088FFE7FFE733E085
:10555000FFE709981290129880F31088019840F2A2
:105560001C11C2F200010968884224D0FFE740F212
:105570002810C2F20000006804900498D0B9FFE738
:105580004EF60451CEF200014FF080500860EFF368
:1055900005801790179860B9FFE7EFF310801B9014
:1055A0001B980B9062B60B981190119880F310889D
:1055B000FFE7FFE7FFE7FFE71CB080BD85B040F2E3
:1055C0001810C2F2000000680090EFF31080049001
:1055D0000498029072B60298019040F2C411C2F28F
:1055E000000100200860009890B3FFE70098006B6E
:1055F00068BBFFE70099C86988610098806940F23C
:105600001471C2F2000108600099086A88421DD036
:10561000FFE70099C86AC96B884216D1FFE7009876
:10562000016AC26A40F22C10C2F2000040F8221057
:1056300040F22011C2F20001096850F8210040F246
:105640001C11C2F200010860FFE7FFE7FFE7FFE778
:1056500001980390039880F3108805B0704700000C
:1056600080B58AB0059005980390EFF310800990FB
:105670000998069072B6069804900398006B042867
:1056800010D1FFE740F22811C2F200010868013092
:10569000086004980890089880F310880398FFF732
:1056A00029FD14E00398806E02900398D0F8AC00B6
:1056B000019004980790079880F31088029828B109
:1056C000FFE7029A039801999047FFE7FFE70AB0C6
:1056D00080BD000080B584B0EFF310800390039884
:1056E000019072B60198009040F22811C2F20001B8
:1056F00008680130086000980290029880F31088D2
:1057000040F26420C2F20000FFF7F4FC04B080BD58
:1057100080B58AB040F26021C2F2000100200890FA
:10572000086040F21471C2F20001086040F2C41136
:10573000C2F20001086040F2C011C2F2000108602C
:1057400040F2C811C2F20001086040F2CC10C2F26F
:10575000000007908021FBF77FF90799089840F235
:105760005022C2F20002116040F2BC12C2F20002EA
:1057700011607C3140F24C22C2F2000211601168CB
:105780000431116040F25C22C2F2000240F2143196
:10579000C2F20001116040F25822C2F200024FF43E
:1057A0008061116040F25421C2F200010860FFE7FD
:1057B00040F25C20C2F20000006840F25821C2F2C0
:1057C00000010A6840F25421C2F200010B686946E8
:1057D0004FF0000CC1F814C0C1F810C0CB608B6052
:1057E0004A60086040F26420C2F2000046F6693167
:1057F000C0F6040145F67512C0F6000244F64D13DA
:10580000C4F25413FFF724FA0990FFE7099800281F
:10581000CED1FFE740F2B811C2F2000100200860CB
:1058200040F2B411C2F2000108600AB080BD00006D
:1058300087B00690069800680190019800285FD014
:10584000FFE701980130002859D0FFE706988069EA
:10585000002853D1FFE70198212803D3FFE71F2039
:10586000009003E0019801380090FFE740F2BC107F
:10587000C2F200000068009900EB810005900598D5
:1058800040F24C21C2F200010968884213D3FFE7BD
:10589000059840F24C21C2F200010968401A8010BC
:1058A000029040F25020C2F200000068029900EB22
:1058B00081000590FFE70598006840B9FFE706986A
:1058C00000610698406106980599086012E0059805
:1058D0000068049004984069039006980399086151
:1058E00006980499486104980699086103980699F6
:1058F0004861FFE7059806998861FFE7FFE7FFE742
:1059000007B0704784B003900398806902900298B2
:1059100070B3FFE7039800690190039801998842EA
:105920000BD1FFE7029800680399884204D1FFE792
:10593000029900200860FFE716E003984069009094
:1059400000980199486101980099086102980068DF
:105950000399884207D1FFE702980199886101986D
:1059600002990860FFE7FFE7039900208861FFE7DD
:1059700004B0704780B598B00A90002002900A9851
:1059800044F64D11C4F25411884240F0FD80FFE707
:10599000FFE7EFF31080149014980E9072B60E98F3
:1059A000099040F2BC10C2F2000000680068089044
:1059B000089820B1FFE7089908A88861FFE740F23E
:1059C000BC10C2F2000002680021116001680431BD
:1059D0000160006840F24C21C2F20001096888426F
:1059E0000BD1FFE740F25020C2F20000006840F205
:1059F000BC11C2F200010860FFE740F2C011C2F220
:105A000000010020086009981390139880F3108813
:105A1000EFF31080159015980D9072B60D980990BF
:105A2000FFE70898002800F08680FFE708980490B8
:105A3000089800690690002007900498069988420B
:105A400003D1FFE7002008900EE00498406905901C
:105A5000059806994861069805990861069908A86D
:105A6000886106980890FFE70498006821280ED303
:105A7000FFE7049908682038086000200390049923
:105A800007A88861049800610498079019E00498B9
:105A9000806803900498C068029004994868086080
:105AA0000498006840B1FFE7049907A8886104984A
:105AB00000610498079003E0049900208861FFE7E3
:105AC000FFE7049840F2C811C2F20001086009988B
:105AD0001290129880F31088039820B1FFE7039981
